S01100005255535F526567756C2E73726563BB
S31508000000F87500206DD70008F5D80008A321000868
S31508000010B1210008BF210008CD210008000000001A
S31508000020000000000000000000000000C980000871
S31508000030F9D8000800000000718000086112000865
S31508000040FDD8000801D9000805D9000809D9000813
S31508000050DB2100080DD9000811D9000815D90008B8
S3150800006019D900081DD9000821D9000825D9000882
S3150800007061A300086BA300084DA3000857A3000856
S3150800008029D900082DD9000831D9000835D9000822
S3150800009039D900083DD9000841D90008831C000851
S315080000A045D9000849D900084DD9000851D9000892
S315080000B055D90008000000000000000059D90008C2
S315080000C05DD9000861D9000865D9000869D9000812
S315080000D06DD9000839A3000871D9000843A30008A0
S315080000E075D9000879D90008000000000000000052
S315080000F000000000000000000000000000000000F2
S31508000100000000007DD900080000000081D9000821
S315080001100000000000000000CB1C0008CD140008F9
S3150800012085D9000889D900088DD9000891D9000811
S3150800013095D900080000000000000000000000003B
S3150800014099D900089DD90008A1D90008A5D90008A1
S31508000150A9D90008ADD90008B1D90008B5D9000851
S31508000160B9D90008BDD90008C1D9000800000000A7
S31508000170C5D90008C9D90008CDD900080000000073
S31508000180D1D90008D5D90008D9D9000810B5040076
S31508000190002C01D1012071E02168DFF8600181425D
S315080001A01FD02068B0F1804F1BD02168DFF85001BE
S315080001B0814216D02168DFF84C01814211D02168AE
S315080001C0DFF8440181420CD02168DFF84001814202
S315080001D007D0DFF83C2140F21511DFF8380101F0AD
S315080001E0A7F8A068002813D0A068102810D0A06827
S315080001F020280DD0A06840280AD0A068602807D01B
S31508000200DFF80C214FF48B71DFF8080101F090F844
S31508000210206900280FD02069B0F5807F0BD02069AF
S31508000220B0F5007F07D0DFF8E82040F21711DFF8B5
S31508000230E40001F07DF8A06900280AD0A0698028AA
S3150800024007D0DFF8CC204FF48C71DFF8C80001F036
S315080002506FF894F83D00002805D1002084F83C008A
S31508000260200001F009F9022084F83D00211D2068CC
S3150800027000F05AFD012084F83D00002010BD10B59D
S3150800028004002168DFF8740081421FD02068B0F1AD
S31508000290804F1BD02168DFF86800814216D021689C
S315080002A0DFF86000814211D02168DFF85C008142E6
S315080002B00CD02168DFF85400814207D0DFF85820B7
S315080002C04FF4DE71DFF84C0001F032F82068C1689F
S315080002D051F001012068C16020688068DFF83C1091
S315080002E00140062908D0B1F5803F05D0206802688C
S315080002F052F0010220680260002010BD002C014067
S315080003000010004000140040004001400044014035
S31508000310B0D40008C4D40008F0D0000807000100D3
S3150800032010B50400002C01D1012071E02168DFF826
S31508000330E40081421FD02068B0F1804F1BD02168AD
S31508000340DFF8E000814216D02168DFF8DC00814240
S3150800035011D02168DFF8C00081420CD02168DFF88F
S31508000360BC00814207D0DFF8C42040F2A241DFF882
S31508000370B00000F0DDFFA068002813D0A0681028A0
S3150800038010D0A06820280DD0A06840280AD0A06800
S31508000390602807D0DFF8942040F2A341DFF88000F8
S315080003A000F0C6FF206900280FD02069B0F5807FCD
S315080003B00BD02069B0F5007F07D0DFF8702040F237
S315080003C0A441DFF85C0000F0B3FFA06900280AD05A
S315080003D0A069802807D0DFF8542040F2A541DFF84D
S315080003E0400000F0A5FF94F83D00002805D1002044
S315080003F084F83C00200001F053F8022084F83D0000
S31508000400211D206800F090FC012084F83D000020A2
S3150800041010BD0000002C014000400140004401408E
S31508000420C4D400080010004000140040D8D40008C6
S3150800043010B504002068006980071AD52068C068CE
S31508000440800716D57FF00201206801610120207718
S315080004502068806910F0030F03D0200001F088FCA3
S3150800046005E0200001F031F8200001F082FC0020B0
S3150800047020772068006940071AD52068C0684007B9
S3150800048016D57FF0040120680161022020772068D4
S31508000490806910F4407F03D0200001F069FC05E074
S315080004A0200001F012F8200001F063FC00202077FC
S315080004B02068006900071AD52068C068000716D5A5
S315080004C07FF0080021680861042020772068C06949
S315080004D010F0030F03D0200001F04AFC05E02000CD
S315080004E000F0F3FF200001F044FC0020207720688C
S315080004F00069C0061AD52068C068C00616D57FF000
S31508000500100021680861082020772068C06910F467
S31508000510407F03D0200001F02BFC05E0200000F00E
S31508000520D4FF200001F025FC002020772068006910
S31508000530C0070AD52068C068C00706D57FF0010144
S3150800054020680161200000F0B1FF206800690006FC
S315080005500AD52068C068000606D57FF080012068A5
S315080005600161200001F006FC20680069C0050AD573
S315080005702068C068000606D57FF48071206801618E
S31508000580200001F0F8FB2068006940060AD52068BB
S31508000590C068400606D57FF040012068016120004A
S315080005A001F0EAFB2068006980060AD52068C06861
S315080005B0800606D57FF0200120680161200001F041
S315080005C0DCFB10BD70B506000D001400002C13D01E
S315080005D0042C11D0082C0FD00C2C0DD0102C0BD0BD
S315080005E0142C09D03C2C07D0DFF8C42240F61C6135
S315080005F0DFF8B80200F09CFE286860281ED028683C
S3150800060070281BD02968DFF8AC02814216D0296809
S31508000610DFF8A402814211D02868DFF8A0128842C8
S315080006200CD02868DFF89812884207D0DFF88022B5
S3150800063040F61D61DFF8740200F07AFEA86800280B
S315080006400AD0A868022807D0DFF8642240F61E619F
S31508000650DFF8580200F06CFE286900280AD02869DD
S31508000660042807D0DFF8482240F61F61DFF83C026D
S3150800067000F05EFE96F83C00012801D1022012E146
S31508000680012086F83C00022086F83D00200000285C
S315080006900DD004283CD0082868D00C2800F08D809E
S315080006A0102800F0B280142800F0D280F4E03168F7
S315080006B0DFF81002814214D03068B0F1804F10D0B4
S315080006C03168DFF8040281420BD0316876488142EE
S315080006D007D0DFF8DC2140F62B61DFF8D00100F007
S315080006E027FE2900306800F055FB3068816951F013
S315080006F00801306881613068816931F00401306829
S315080007008161306881692869014330688161C3E085
S315080007103168DFF8B001814210D03068B0F1804FFF
S315080007200CD03168DFF8A001814207D0DFF88021BC
S3150800073040F63C61DFF8740100F0FAFD29003068E4
S3150800074000F098FB3068816951F400613068816176
S315080007503068816931F48061306881613068806908
S31508000760296950EA01203168886195E03168DFF827
S31508000770540181420AD03068B0F1804F06D0DFF8C4
S31508000780302140F64D61494800F0D2FD2900306815
S3150800079000F0E6FB3068C16951F008013068C161B4
S315080007A03068C16931F004013068C1613068C169D7
S315080007B0286901433068C1616EE03168DFF80401D9
S315080007C081420AD03068B0F1804F06D0DFF8E020C9
S315080007D040F65E61354800F0ABFD2900306800F050
S315080007E02EFC3068C16951F400613068C161306817
S315080007F0C16931F480613068C1613068C0692969AE
S3150800080050EA01203168C86146E03168DFF8B40073
S31508000810814206D0DFF8982040F66F61234800F041
S3150800082087FD2900306800F04BFC3068416D51F0B7
S315080008300801306841653068416D31F0040130685F
S3150800084041653068416D286901433068416523E098
S315080008503068DFF87010884206D0DFF854204FF46D
S315080008606861124800F064FD2900306800F052FC07
S315080008703068416D51F40061306841653068416DFA
S3150800088031F48061306841653068406D296950EA05
S31508000890012031684865FFE7012086F83D00002001
S315080008A086F83C00002070BD00440140C4D400080E
S315080008B0B8CE0008400001005000010060000100A9
S315080008C070000100002C01400040014070B5040092
S315080008D00D0094F83C00012801D102201DE20120F8
S315080008E084F83C00022084F83D002868B0F5805F53
S315080008F023D02868B0F5005F1FD0286800281CD0D0
S315080009002868102819D02868202816D02868302882
S3150800091013D02868402810D0286850280DD0286899
S3150800092060280AD02868702807D0DFF8202641F208
S315080009300D21DFF8F00300F0FBFC20688668DFF87D
S315080009401006064036F47F46206886602868002828
S3150800095000F0C181102800F0BE81202800F0BB817C
S31508000960302800F0B881402800F07281502800F045
S31508000970E980602800F0298170282DD0B0F5805FC5
S3150800098004D0B0F5005F00F08580BFE12168DFF88C
S31508000990C40581421FD02068B0F1804F1BD0216862
S315080009A0DFF87803814216D02068DFF8741388428E
S315080009B011D02168DFF8A00581420CD02168DFF844
S315080009C09C05814207D0DFF8842541F21921DFF81A
S315080009D0540300F0ADFC99E12168DFF878058142FF
S315080009E010D02068B0F1804F0CD02168DFF8680578
S315080009F0814207D0DFF854254FF49151DFF82403DC
S31508000A0000F096FCA868002813D0A868B0F5805FA7
S31508000A100FD0A868B0F5005F0BD0A868B0F5405FA6
S31508000A2007D0DFF8282541F22321DFF8F80200F085
S31508000A307FFC6868B0F5004F13D06868002810D0AE
S31508000A40686800280DD0686802280AD068680A28ED
S31508000A5007D0DFF8F82441F22421DFF8C80200F0B5
S31508000A6067FCE868102807D3DFF8E02441F225215F
S31508000A70DFF8B00200F05CFCEB686A68A9682068D9
S31508000A8000F0A1FB2068806850F077000600206817
S31508000A9086603BE12168DFF8BC0481420BD0206800
S31508000AA0B0F1804F07D0DFF8A42441F23821DFF8EF
S31508000AB0740200F03DFCA868002813D0A868B0F5B9
S31508000AC0805F0FD0A868B0F5005F0BD0A868B0F5B6
S31508000AD0405F07D0DFF8742441F23B21DFF8440277
S31508000AE000F026FC6868B0F5004F13D06868002847
S31508000AF010D0686800280DD0686802280AD068688F
S31508000B000A2807D0DFF8442441F23C21DFF8140212
S31508000B1000F00EFCE868102807D3DFF8302441F20D
S31508000B203D21DFF8000200F003FCEB686A68A9685B
S31508000B30206800F048FB2068816851F480412068ED
S31508000B408160E3E02168DFF80C04814210D0206858
S31508000B50B0F1804F0CD02168DFF8FC03814207D042
S31508000B60DFF8E82341F24C21DFF8B80100F0E0FB9A
S31508000B706868B0F5004F13D06868002810D0686818
S31508000B8000280DD0686802280AD068680A2807D0A5
S31508000B90DFF8B82341F24F21DFF8880100F0C8FBDF
S31508000BA0E868102807D3DFF8A42341F25021DFF8BC
S31508000BB0740100F0BDFBEA686968206800F0D6FA9F
S31508000BC05021206800F0F7FAA0E02168DFF88403D6
S31508000BD0814210D02068B0F1804F0CD02168DFF830
S31508000BE07803814207D0DFF8642341F25C21DFF8FD
S31508000BF0340100F09DFB6868B0F5004F13D06868B3
S31508000C00002810D0686800280DD0686802280AD025
S31508000C1068680A2807D0DFF8342341F25F21DFF835
S31508000C20040100F085FBE868102807D3DFF81C23C9
S31508000C304FF49351DFF8EC0000F07AFBEA68696834
S31508000C40206800F0A5FA6021206800F0B4FA5DE09B
S31508000C502168DFF80003814210D02068B0F1804F88
S31508000C600CD02168DFF8F002814207D0DFF8DC22D9
S31508000C7041F26C21DFF8AC0000F05AFB6868B0F569
S31508000C80004F13D06868002810D0686800280DD077
S31508000C90686802280AD068680A2807D0DFF8AC22F4
S31508000CA041F26F21DFF87C0000F042FBE86810286B
S31508000CB007D3DFF8982241F27021DFF8680000F0C8
S31508000CC037FBEA686968206800F050FA4021206816
S31508000CD000F071FA1AE02168DFF87802814210D034
S31508000CE02068B0F1804F0CD02168DFF86C02814291
S31508000CF007D0DFF8582241F27F21DFF8280000F0FC
S31508000D0017FB2968206800F056FAFFE7012084F8E7
S31508000D103D00002084F83C00002070BD0010004013
S31508000D2000140040C4D4000810B40468894B9842E3
S31508000D3002D0B0F1804F04D134F0700422004C6820
S31508000D401443984209D0B0F1804F06D0824A9042A7
S31508000D5003D0DFF88824904204D134F4407422008A
S31508000D60CC68144334F080044A69144304608A68E2
S31508000D70C2620A688262984206D0774A904203D0D5
S31508000D80DFF85824904201D10A69026301224261C0
S31508000D9010BC70472DE9F84304000D00206A40088E
S31508000DA040002062276A6668D4F81880DFF83004A5
S31508000DB010EA08085FEA98085FEA8808286850EA8F
S31508000DC0080837F00207A8680743DFF888914C45FA
S31508000DD005D06148844202D06048844213D1E8684D
S31508000DE000280AD0E868082807D0DFF8F82341F277
S31508000DF08E71DFF8F40300F09BFA37F00807E8680D
S31508000E00074337F004074C4505D05348844202D0BF
S31508000E105248844226D1A869B0F5007F0AD0A8694D
S31508000E20002807D0DFF8BC2341F29B71DFF8B8032E
S31508000E3000F07EFA6869B0F5807F0AD068690028F4
S31508000E4007D0DFF8A02341F29C71DFF89C0300F07D
S31508000E506FFA36F4807636F4007668690643300011
S31508000E60AE6906436660C4F81880686860632762DE
S31508000E70BDE8F1832DE9F84304000D00206A30F03F
S31508000E8010002062266A6768D4F81880DFF85C03C9
S31508000E9010EA080838F44078286858EA002836F036
S31508000EA02006A86856EA0016DFF8A8904C4514D123
S31508000EB0E86800280AD0E868082807D0DFF8302351
S31508000EC041F2D971DFF8200300F032FA36F08006D5
S31508000ED0E86856EA001636F040064C4505D01E4826
S31508000EE0844202D01D48844227D1A869B0F5007F04
S31508000EF00AD0A869002807D0DFF8F42241F2E77182
S31508000F00DFF8E40200F014FA6869B0F5807F0AD0C9
S31508000F106869002807D0DFF8D82241F2E871DFF8BF
S31508000F20C80200F005FA37F4806737F40067686985
S31508000F3057EA8007A86957EA80076760C4F81880E7
S31508000F406868A0632662BDE8F1830000D4CE000875
S31508000F5088FFFEFF002C014000400140004401408C
S31508000F602DE9F84304000D00206A30F480702062F1
S31508000F70266A6768D4F81C80DFF8640210EA080855
S31508000F805FEA98085FEA8808286850EA080836F48D
S31508000F900076A86856EA0026DFF858924C4514D120
S31508000FA0E86800280AD0E868082807D0DFF8482249
S31508000FB041F62401DFF8300200F0BAF936F400668B
S31508000FC0E86856EA002636F480664C4507D0DFF80E
S31508000FD02C02844203D0DFF80402844227D1A86990
S31508000FE0B0F5007F0AD0A869002807D0DFF80822E4
S31508000FF041F63101DFF8F00100F09AF96869B0F5B9
S31508001000807F0AD06869002807D0DFF8EC2141F60E
S315080010103201DFF8D40100F08BF937F4805737F442
S315080010200057686957EA0017A86957EA0017676002
S31508001030C4F81C806868E0632662BDE8F1832DE980
S31508001040F04104000D00206A30F480502062D4F884
S3150800105020806668E769DFF89401074037F440772F
S31508001060286857EA002738F40058A86858EA00386C
S31508001070DFF88001844207D0DFF88001844203D07C
S31508001080DFF85801844213D16869B0F5807F0AD029
S315080010906869002807D0DFF8682141F67001DFF893
S315080010A0480100F045F936F48046686956EA801624
S315080010B06660E76168682064C4F82080BDE8F0814E
S315080010C030B4026A32F480320262056A4368446DBB
S315080010D0DFF80C2114400A68144335F400358A6891
S315080010E055EA0245DFF80C21904207D0DFF80C21BB
S315080010F0904203D0DFF8E420904204D133F48033E1
S315080011004A6953EA0223436044654A688265056270
S3150800111030BC704730B4026A32F480120262056A43
S315080011204368446DDFF8C42014400A6854EA022470
S3150800113035F400158A6855EA0255DFF8B82090425A
S3150800114007D0DFF8B820904203D0DFF8902090420D
S3150800115004D133F480234A6953EA82234360446501
S315080011604A68C265056230BC7047000010B4036A5D
S31508001170046A640864000462846934F0F00454EA7A
S31508001180021433F00A030B438461036210BC7047F0
S3150800119010B4036A33F0100303628469036A34F4F3
S315080011A0704454EA023433F0A00353EA011384610D
S315080011B0036210BC7047826832F070020A4352F02C
S315080011C007028260704710B4846834F47F440C4385
S315080011D0144354EA0324846010BC70470044014059
S315080011E08FFFFEFFECD40008C4D40008FF8FFFFE73
S315080011F000D50008002C014014D500080040014025
S3150800120028D5000880B500F083FE01F0CEF8002846
S3150800121004D14B4A23214B4800F08AF801F0D7F94C
S3150800122001F0F2F948490860002804D1444A2B2104
S31508001230444800F07DF800F04DF800F09DFA0028CB
S3150800124004D13F4A2E213F4800F072F800F0BEFD57
S3150800125001F04EFC3A4A37213A4800F069F801BDD8
S3150800126080B502F0CFF802F0CCF93848007A0528A4
S3150800127005D101F0BFFF012801D002F09AFA01BD9D
S3150800128010B5334C2078002809D101F0ECFC00F0A9
S3150800129020F802F051FB00F01CF801202070012113
S315080012A0002002F04FFD00F091FD10BD38B5050095
S315080012B00C00284A8E21234800F03AF831BD80B543
S315080012C0254A94211F4800F033F801BD0200012089
S315080012D07047704710B51C4C2068002804D11F4A77
S315080012E0BE21184800F024F80121206801F050FAC0
S315080012F010BD7CB50400144D2868002804D1184A8E
S31508001300C421104800F014F8012600940123012294
S315080013103100286801F086F9064201D0012000E074
S315080013200020C0B276BD0F490868401C08607047A7
S3150800133010B40D4C23685B1C236010BC704700007A
S315080013405CD8000864D800089C0C002068FD0020C2
S31508001350160D0020A0CB0008C0CB0008E0CB000883
S3150800136000CC0008A00C0020A40C002038B504000E
S315080013700025002C28D02100B1F1804F18D05648FE
S31508001380814215D05548814212D05548814205D030
S315080013905448814202D05448814213D103F009FBD4
S315080013A005005248006810F4605F00D06D000BE03D
S315080013B003F0F2FA05004D48006810F4E06F00D01B
S315080013C06D0001E000200500280032BDF8B50500D3
S315080013D00E0014000027002D09D0002E07D0002C7F
S315080013E006D0B4F5807F03D0B4F5007F00D040E086
S315080013F02868B0F1804F3CD02868FFF7B7FF00286F
S3150800140037D0002C01D101210AE0B4F5807F01D143
S31508001410022105E0B4F5007F01D1042100E0002196
S31508001420B0FBF1F1324AB2FBF6F2B1FBF2F25FF031
S31508001430010CB2FBFCF10B00B3F5803F02D201218F
S315080014400F000BE0BCF5004F02D25FEA4C0CF0E748
S315080014504FF6FF718C4501D08C46EAE73900C9B2D0
S31508001460002906D02C616146491E89B269609BB283
S31508001470EB603800C0B2F2BD10B504001D488442C6
S3150800148002D100F0F6F90AE01B48844202D100F0C6
S315080014905EF904E01948844201D100F043F910BD11
S315080014A010B504002000FFF7E7FF10BD10B50400D3
S315080014B01148844202D100F045F805E00F488442FD
S315080014C002D100F039F8FFE710BD704780B50B4828
S315080014D0FEF7AEFF01BD00000010004000140040FA
S315080014E0002C014000400140004401400810024021
S315080014F040420F00540A0020940A0020D40A002013
S31508001500DFF8D007704710B50400DFF8CC0741684C
S315080015108C4202D103F0F5FB0DE0416D8C4203D1FC
S31508001520503003F0EEFB06E0DFF8B0274021DFF885
S31508001530B007FFF7FDFE10BD80B5DFF89C0703F086
S315080015409AFB01BD38B5FFF7DBFF0400012084F8DC
S315080015500304002004F07CF8DFF888572868002880
S3150800156006D1DFF884275021DFF87407FFF7E0FE7D
S3150800157000234FF480622968DFF8700702F0A9FBA0
S31508001580002004F065F8DFF8680703F074FB31BD46
S315080015902DE9F84F2DED028BDFF83C5715F1500772
S315080015A0DFF850077860DFF85017B960DFF84C1796
S315080015B0BA6811602E00DFF848B7C6F804B0DFF83D
S315080015C04417B160DFF84027B1680A60696D0C1DE1
S315080015D05FF4E1312160002161600021A1600021F2
S315080015E0E1600C212161002161614FF40041A16194
S315080015F00021E161696D11F124090021C9F8001083
S3150800160080460021C8F874100021C8F87810002117
S3150800161088F87010DFF8F416C8F8001004F061F8BE
S31508001620002806D0DFF8E8267A21DFF8B406FFF7A7
S315080016307FFE6868001D2100202204F00BFE686802
S31508001640071D4FF461403860686810F124080020CF
S31508001650C8F80000DA460020CAF874000020CAF864
S31508001660780000208AF87000DFF8A806CAF800009B
S31508001670584604F036F8002806D0DFF89426842168
S31508001680DFF85C06FFF754FE5FF00009B9F1020FB8
S3150800169044D2502000FB09F12944D1F808A00021C2
S315080016A0CAF8081000FB09F02844406804F010FD49
S315080016B00400002C06D1DFF858268F21DFF8200613
S315080016C0FFF736FE00EE104AB8EE400ADFEDAB0A29
S315080016D080EE800ABCEEC08A4FF4007218EE101A2B
S315080016E05046FFF773FE002806D1DFF8242691211D
S315080016F0DFF8EC05FFF71CFE00208AF83D0050468F
S31508001700FEF744FD002806D0DFF804269321DFF80B
S31508001710D005FFF70DFE19F10109B7E7BDEC028BFD
S31508001720BDE8F18F80B5DFF8F015086850F02000A5
S315080017300860086810F020000090009800220D212B
S31508001740372001F00CFF372001F030FF01BD80B5CE
S31508001750DFF8C415086850F010000860086810F033
S3150800176010000090009800220D21362001F0F7FEA7
S31508001770362001F01BFF01BD2DE9FF4101F03AFDBE
S31508001780012806D0DFF89425C621DFF85405FFF7AF
S31508001790CFFD002404F0B0FD00283BD002A801903C
S315080017A00320009000234FF48072DFF874150FF2BF
S315080017B0313001F077F801282CD10298002829D079
S315080017C00298FFF786FDDFF85C5500220C210620FB
S315080017D004F0D8FE286000220C21062004F0D2FE70
S315080017E0DFF8441508602868002813D0A0250026CD
S315080017F0DFF8E474B84632002900404605F0D8F907
S31508001800DFF828053860DFF828053865FFF7C0FED9
S31508001810012004002000C0B204B0BDE8F08138B54C
S3150800182086B004001421002201AD280005F0C0F995
S315080018302168DFF80005814219D1DFF8FC14086831
S3150800184050F002000860086810F002000090009846
S3150800185001200190022002900020039000200490AD
S315080018600120059001A9DFF8D40405F0E1F907B0D5
S3150800187030BD81B0DFF8C814086850F4006008600D
S31508001880086810F400600090009801B0704718B519
S3150800189099B01021002215AC200005F089F90C2119
S315080018A000226C46200005F083F91C2100220EACAC
S315080018B0200005F07DF92C21002203AC200005F05C
S315080018C077F9DFF88044DFF86C0420600120606057
S315080018D00020A0603F20E0600020206100206061B9
S315080018E00020A0612000FEF751FC4FF480501590AF
S315080018F015A92000FEF7EAFF2000FEF711FD0020DB
S31508001900009000200190002002906946200005F012
S31508001910FBFB60200E9020200F90002010900020E6
S315080019201190002012900020139000201490042299
S315080019300EA92000FEF746FE002003900020049022
S315080019400020059000200690002007904FF40050D4
S3150800195008900020099000200A905FF000700B9014
S3150800196000200C9000200D9003A9200005F096FC9D
S315080019702000FFF754FF1AB010BD0000001BB74A3D
S3150800198018B585B040F6FF040094002001900020A9
S31508001990029069465FF0904005F04AF9002221005E
S315080019A05FF0904005F000FB4FF480700090DFF880
S315080019B0980301900020029069465FF0904005F078
S315080019C037F900220021172001F0C9FD172001F080
S315080019D0EDFD4FF2260000900120019000200290B4
S315080019E000200390D54C6946200005F021F9002215
S315080019F047F22601200005F0D7FA01224FF40041EC
S31508001A00200005F0D1FA80200090002001900020E7
S31508001A1002906946200005F00BF9FFF738FF04210C
S31508001A20C84805F027FB05F0AFFE06B010BD00B5A7
S31508001A3085B0FF2000900120019000200290002030
S31508001A40039069465FF0904005F0F2F805B000BDD6
S31508001A5038B50400FFF754FD05000020BB490968A6
S31508001A60486295F8030400281AD1B5F8001440F224
S31508001A70FF30814214D2022003F0EAFDB5F80004D3
S31508001A802C54200080B2000AB5F800142944487086
S31508001A90B5F80004801CA5F80004022003F0D8FD60
S31508001AA031BD1FB50C2100226C46200005F080F8D8
S31508001AB0A64C95482060052060600020A060A448D8
S31508001AC0E0600020A0612000FEF760FB0020009087
S31508001AD0002002906946200005F016FB1FBD000095
S31508001AE02DE9F84F84B004008E4D2868002805D1EA
S31508001AF0984A40F2DB117A48FFF71AFC764F8A4873
S31508001B000068F8622868F867052087F830001F2003
S31508001B1087F88000012087F8910097F8910087F8E8
S31508001B20410000228C49786803F024FF002805D07C
S31508001B30884A4FF4F4716A48FFF7FAFB874E002289
S31508001B403100786D03F016FF002805D0814A40F26F
S31508001B50E9116348FFF7ECFB814800F05AFCFFF7F0
S31508001B600FFFFFF79EFF7948FEF789FB012003F078
S31508001B706FFD0021286804F0BBFC012003F068FD16
S31508001B80784A01A9286804F060FE012805D0714A40
S31508001B9040F2FF115248FFF7CBFBFFF748FF012041
S31508001BA003F056FD9DF80C00012831D0042834D1E5
S31508001BB0DFF8B4816D4F029B32004FF48061380024
S31508001BC003F010FC88F8000098F8000001281ED1E0
S31508001BD0012003F03DFD9DF80A00C00702D4BDF8B8
S31508001BE00A8003E0BDF80A8018F101085FF00009D1
S31508001BF0C14509D207EB0900417817F8090005F035
S31508001C006EFD19F10209F3E7012003F021FD0AE050
S31508001C100299019803F07AFA05E04E4A40F2172134
S31508001C202F48FFF785FB012003F012FDFFF7A8FEFA
S31508001C305FF0FF300090002301224FF480612948AD
S31508001C40006800F0EFFC0700FFF75AFC8046012009
S31508001C5003F0FEFC780589D5012088F80304B8F856
S31508001C600004002882D098F801B01BF10209CA4680
S31508001C701FFA8AFA1AF1010A5146404605F0CEFDC6
S31508001C8074E710B5172001F0A9FC2024B4F5007FED
S31508001C9005D2200080B205F0AFF96400F6E710BD62
S31508001CA038B50400200080B2B0F5807F0CD18021C1
S31508001CB0224805F062F90128F9D005F065FD05000E
S31508001CC0280080B2FFF7C4FE31BD80B50D48FEF787
S31508001CD0AFFB01BD6C0100207C53002030D000080A
S31508001CE060CC00089C0C002048CE0008712800082B
S31508001CF0CC53002024520020D40A002000140040AF
S31508001D00D0520020940A00200010004000380140FC
S31508001D1064CE00080048004058100240ACD60008BF
S31508001D209CD80008B40C0020B00C0020A4D80008E9
S31508001D30F4D70008002C01404C100240000400486B
S31508001D4060100240540A002000002110540B0020A5
S31508001D5000B4C404BCD600084401002038010020A1
S31508001D6000D80008368941001A0D002070050020A9
S31508001D70704770477047704770477047BFF34F8F7B
S31508001D80DFF86824116811F4E061DFF864040143A0
S31508001D901160BFF34F8F00BFFDE780B5DFF854042D
S31508001DA0DFF8541401600221416040F6FF7181603A
S31508001DB08168C16005F03EFD002806D0DFF83C24A6
S31508001DC04321DFF83C04FFF7B3FA01BD80B5DFF81D
S31508001DD0240405F09BFD002806D0DFF828244E21B0
S31508001DE0DFF81C04FFF7A4FA01BD38B50400216822
S31508001DF0DFF814040140B1F1005F06D0DFF80C24C7
S31508001E005821DFF8FC03FFF793FA206880F3088867
S31508001E10DFF8FC030460201D0568A847FEE738B50F
S31508001E20DFF8F05301202872DFF8EC030168090592
S31508001E30090D40F23540814206D0DFF8E0236C21D7
S31508001E40DFF8BC03FFF774FADFF8D403008880B222
S31508001E500B2806D0DFF8C4236E21DFF8A403FFF7AA
S31508001E6067FADFF8C0030068C00031D52968DFF8D3
S31508001E70B80381421DD16946DFF8B00302680A60DB
S31508001E800024002C0DD1684650F824102869814298
S31508001E9005D1DFF89C0328602869FFF7A6FF641CB4
S31508001EA0EFE7DFF878238821DFF85403FFF740FAD5
S31508001EB00EE02968DFF87C03814209D1286868604A
S31508001EC0DFF86C032860E868401CE86028698047EA
S31508001ED0FFF763FF05F046FD0121DFF85C030160AB
S31508001EE005F0CCFD002806D0DFF83023AC21DFF85A
S31508001EF01003FFF71DFA00F0DDF900F04AFADFF8E3
S31508001F003C0300F086FAFFF761FF0220287231BD14
S31508001F10F0B5A9B0DFF8FC420320207205F022FDD7
S31508001F2005F0ACFD002806D0DFF81423E221DFF81F
S31508001F30D002FFF7FDF92168DFF80803814217D0C0
S31508001F40DFF80403814213D0DFF8E40281420FD0A0
S31508001F50DFF8D402814203D0DFF8D802814210D1DB
S31508001F60DFF8DC22EA21DFF89802FFF7E1F90FE053
S31508001F7020686060DFF8D4022060E068401CE060FA
S31508001F8006E0002020750020E0600020A4F89402F6
S31508001F90DFF890020168490101D568A100E0002137
S31508001FA008910168C90002D5DFF8A41200E00021F3
S31508001FB008AD69600168890002D5DFF8981200E06B
S31508001FC00021A9600168490002D5DFF88C1200E0FB
S31508001FD00021E9600168002902D5DFF8801200E0D7
S31508001FE000210C910168090102D5DFF8741200E09E
S31508001FF0002169610168C90102D5DFF8681200E0AD
S3150800200000210E910168890102D5DFF85C1200E013
S3150800201000210F91002161720168002902D401682C
S31508002020090102D50121617228E00168890002D4FC
S315080020300168490002D5022161721FE00168C900E2
S3150800204017D56268DFF8FC118A4206D07E498A42B3
S3150800205006D077498A4206D008E0062161720DE06B
S31508002060072161720AE00521617207E004216172A5
S3150800207004E00168490101D503216172016851F440
S315080020800001016000260027082F10D255F8270006
S3150800209000280AD055F82730744AD6F1640110A8EA
S315080020A0304405F0FDFC801906007F1CECE7704DF6
S315080020B070480790704806907048059070480490DC
S315080020C07048039070480290E068019014F114007B
S315080020D0009010AB6D4A4FF4C07114F58A7005F084
S315080020E0DFFC070000202075607A01280FD12868D8
S315080020F0019068680090AB68654AD7F5C07104EB33
S31508002100070010F58A7005F0CBFCC0190700FFF729
S315080021105DFE042020720520207229B0F0BD80B52E
S3150800212072B606213B480172FFF7FDF8FFF726FE57
S3150800213001BD80B5574805F04EFD02BD50696E00D9
S315080021402DE9FF4704002500534E324F3E483860BC
S31508002150D5F818A0D5F81480FFF7EBFF814600F0F4
S3150800216076FD0300CDF80CA0CDF808804B48006832
S315080021700190CDF800904A4A4FF4807117F1140087
S3150800218005F08EFCFFF7CBFFBDE8FF8700000000D7
S315080021901EF0040F0CBFEFF30880EFF30980CFE7BA
S315080021A0FEE780B53F493D480160FFF7F1FF01BDF5
S315080021B080B53D4939480160FFF7EAFF01BD80B5A2
S315080021C009A136480160FFF7E3FF01BD80B537492D
S315080021D032480160FFF7DCFF01BD80B534492F485E
S315080021E00160FFF7D5FF01BD427573000CED00E0F5
S315080021F00400FA05DC550020003000404CD60008E3
S315080022005CD600086CD600080000FE2F48D30008EC
S3150800221008ED00E068FD0020002004E05CD300081B
S315080022200075FF1F9410024001896745F0D8000821
S31508002230907856341290785660010020B8D7000876
S3150800224070D30008785634128967452367452301F9
S31508002250C4D7000800D000087CD60008D0D70008EC
S315080022608CD60008DCD7000884D300087CD8000880
S315080022709075FF1F54D8000888D700087CD7000837
S31508002280D0CF0008E4D8000894D7000824C6000870
S3150800229040CC0008800C002000ED00E0AC0C0020CB
S315080022A0ECCA000884D80008E8D700088CD80008CB
S315080022B094D8000818B597B01421002201A804F094
S315080022C077FC4421002206A804F072FC5D490868E0
S315080022D050F080500860086810F080500090009810
S315080022E0594A0120116860F34A211160106810F4F8
S315080022F0C0600090009806A802F06CFB10980128B0
S3150800230004D0524A1E215248FFF712F801200690BF
S315080023105FF480300790022010900320119002206D
S315080023201290102013900720149002201590022076
S31508002330169006A801F04AFD002804D0434A332126
S315080023404348FEF7F5FF0F20019003200290002076
S3150800235003904FF48060049005900324210001A89F
S3150800236002F06EF9002804D0384A3C213848FEF7B6
S31508002370DFFF18B010BD3749086850F08070086054
S315080023800021354801603549086850F001000860A9
S31508002390704780B52F480068C00103D52F480068EC
S315080023A0C00701D4FFF7E7FF01BD2B480068704757
S315080023B029490B680A68D21A8242FBD3704780B54E
S315080023C02DED028B08EE100AFFF7E3FFB8EE480A78
S315080023D0BFEECD0A10EE100AFFF7EAFFBDEC028B3E
S315080023E001BD01B500F006FF02280BD100994FF494
S315080023F07A7041434FF47A70B1FBF0F0401C00F05C
S3150800240050FB05E000984FF47A714843FFF7D7FF71
S3150800241001BD70B50400124D2868082811D211486C
S315080024202968090100EB0106FFF7BFFF3060002CA1
S3150800243004D00C222100301D05F0DCFB2868401C66
S31508002440286070BD58100240007000406CD2000829
S31508002450FCD50008FCED00E0041000E0001000E0E8
S31508002460880C00207009002038B586B005002800C1
S3150800247040B205F0F7FB002840F0A78059482A002B
S3150800248052B2142112FB01F100EB01042068B0F1ED
S31508002490904F18D021685448814214D02168534877
S315080024A0814210D02168524881420CD02168514897
S315080024B0814208D021685048814204D04F4A1121F0
S315080024C04F48FEF735FFA06810F1010F7DD021684F
S315080024D0B1F1904F0FD04448814217D0434881420A
S315080024E01FD04348814227D0424881422FD04248D4
S315080024F0814237D041E04349086850F0010008603E
S31508002500086810F00100009000983BE03D49086813
S3150800251050F002000860086810F002000090009869
S3150800252030E03849086850F004000860086810F080
S3150800253004000090009825E03249086850F0080029
S315080025400860086810F00800009000981AE02D4905
S31508002550086850F010000860086810F01000009035
S3150800256000980FE02749086850F08000086008685E
S3150800257010F080000090009804E0204A15212048B9
S31508002580FEF7D6FEE06810F04040B0F1004F03D0E9
S31508002590B0F1404F06D00AE00021280040B205F00D
S315080025A08BFB04E00121280040B205F085FBA088DA
S315080025B00190E06820F04040039020690490A068EC
S315080025C0029001A9206804F033FB07B030BD10B5AE
S315080025D00024032C05D2200040B2FFF745FF641CF7
S315080025E0F7E710BD30C90008000400480008004895
S315080025F0000C004800100048001C004858D200088B
S31508002600ECD500084C10024010B5182005F082FBE6
S315080026100400002C04D000202060201D05F0C0FC1A
S31508002620200010BD2DE9F14F84B00E0014001F00E4
S315080026300E9D049800905FF0000A5FF00008049869
S31508002640002805D1874A4FF4A0718448FEF770FE2A
S3150800265016F07F4F05D0834A40F241117F48FEF7B6
S3150800266067FE002E05D17F4A4FF4A1717B48FEF71D
S315080026705FFE00F0BFFD002807D1002D05D0794A7E
S3150800268040F245117548FEF753FE00F06AFA0098C5
S31508002690D0F800B03A003100584600F0F1F8029040
S315080026A0029800280AD0D94600200500002C1CD024
S315080026B000980168B1430098016016E0002D03D127
S315080026C0D9460120804610E0002C01D05AF0807AC5
S315080026D0002F01D05AF0806A2A005AEA06010098AB
S315080026E0001D00F0C9FB5FF0000900F040FA0190F8
S315080026F0002D2AD00198002807D15FF0805158484C
S315080027000160BFF34F8FBFF36F8F00F0E7FD83467D
S315080027105FEA8B1016D401F01DF80098006883460E
S315080027203A003100584600F0ABF8002806D0002CD5
S3150800273004D000980168B1430098016001208046E2
S3150800274001F022F8D94629F07F49484605B0BDE888
S31508002750F08FF8B504000D002600002C05D1424A7A
S315080027604FF4EA713D48FEF7E3FD15F07F4F05D0BB
S315080027703D4A40F2D5113948FEF7DAFD00F0EAFF86
S3150800278037683068A843306000F0FEFF3800F2BDB5
S315080027902DE9FE4F05008B465FF00008A946002488
S315080027A0002D05D1314A40F212212C48FEF7C0FD12
S315080027B01BF07F4F05D02D4A40F213212748FEF71C
S315080027C0B7FD19F10400009000980830029000F057
S315080027D0C8F90098D0F80CA0D9F800005BEA000008
S315080027E0C9F80000029882452CD0DAF80400019056
S315080027F0DAF8000000210C0010F07F410F0020F0ED
S315080028007F400600780106D4D9F80000064209D0B0
S315080028100120040006E0D9F800003040B04201D19A
S3150800282001200400002C0AD0F80101D556EA080850
S31508002830D9F8001051F00071504600F0B1FB01982C
S315080028408246CFE7D9F8000030EA0800C9F8000048
S3150800285000F08DF9D9F80000BDE8FE8F1CD60008F7
S3150800286004ED00E094D20008E8CF0008A8D20008DA
S3150800287038B505000C0021002800FFF789FF31BD97
S3150800288010B403000020002A04D10B4208D001240A
S31508002890200005E011EA03048C4201D1012420003E
S315080028A010BC70472DE9F84384B006000F00904627
S315080028B09946404680B2800005F02CFA0500002DA6
S315080028C00BD0502005F026FA0400002C01D0256311
S315080028D004E0280005F0B5FA00E00024002C12D028
S315080028E00020039002940D9801900C9800904B4696
S315080028F0424692B23900300000F00AF8200000F093
S3150800290083F8012001E05FF0FF3005B0BDE8F083F1
S315080029102DE9F14F82B00C0093461E000C9F0D9DC9
S31508002920DDF83880002C07D1DFF858234FF45871AA
S31508002930DFF8DC05FEF7FCFC5FEA8B0000905FF031
S31508002940A50AD8F8309052460099484604F030F95E
S31508002950D8F8300000EB8B00B0F104095FEAD9091A
S315080029605FEAC90919F00700002807D0DFF8142321
S315080029704FF45D71DFF89805FEF7DAFC5FF0000AA0
S31508002980BAF10A0F0CD214F80A1008EB0A0080F8FC
S31508002990341014F80A00002802D01AF1010AEFE7E9
S315080029A0002088F83D00052F01D304200700C8F849
S315080029B02C70C8F840700020C8F8440018F10400CC
S315080029C005F0FDFA18F1180005F0F9FAC8F81080B4
S315080029D0D7F10500C8F81800C8F824800020C8F800
S315080029E04800002088F84C00002088F84D00320086
S315080029F00299484600F026FEC8F80000002D01D0CE
S31508002A00C5F80080BDE8F78F38B5040000F0A2FECF
S31508002A10DFF87C130868401C0860DFF878532868DC
S31508002A20002806D12C60086801280DD100F078FB33
S31508002A300AE0DFF864030068002805D1E06A29681F
S31508002A40C96A884200D32C60DFF850130868401C16
S31508002A500860DFF84C3319680122E06A82401143A6
S31508002A601960211DDFF83C33E26A1420424303EB68
S31508002A70020005F0A7FA00F087FEDFF81C030068DD
S31508002A8000280DD02868C16AE06A814208D25FF042
S31508002A908051DFF8AC050160BFF34F8FBFF36F8F2E
S31508002AA031BD38B504000025002C15D0DFF81C040C
S31508002AB00068002807D0DFF8E4244FF4A461DFF8A3
S31508002AC05004FEF735FC00F04CF80021200000F019
S31508002AD031FC00F04CF80500002D08D15FF080515C
S31508002AE0DFF85C050160BFF34F8FBFF36F8F31BD11
S31508002AF01CB5DFF8D40701900020009000234FF49E
S31508002B008072DFF8C8170FF2F150FFF7CBFE04000A
S31508002B10012C02D100F0AAFE0400012C15D1502088
S31508002B2080F31188BFF34F8FBFF36F8F5FF0FF31CC
S31508002B30DFF89C0701600121974801600021DFF852
S31508002B40D403016000F0A7FD0AE014F1010F07D1D4
S31508002B50DFF8802740F60401DFF8B403FEF7E8FB48
S31508002B6013BDDFF868130868401C08607047F8B59D
S31508002B7000250026DFF854432068002807D1DFF82F
S31508002B80582740F66801DFF88803FEF7D1FB00F006
S31508002B90E1FD2068401E20602068002853D17C484B
S31508002BA0006800284FD0DFF84C170868002824D0A2
S31508002BB0C868C068050015F1180005F02AFA281D2E
S31508002BC005F027FA764B19680122E86A8240114314
S31508002BD01960291D734BEA6A1420424303EB02006D
S31508002BE005F0F0F9E86A6B490968C96A8842DAD3D8
S31508002BF00120DFF814170860D5E7002D01D000F092
S31508002C00E2FADFF8F4763C68002C0CD000F03CF8C9
S31508002C10002803D00121DFF8F0060160641E002CAD
S31508002C20F4D100203860DFF8E006006800280AD0F2
S31508002C30012006005FF08050DFF804140860BFF337
S31508002C404F8FBFF36F8F00F09FFD3000F2BDDFF8A6
S31508002C50C4020068704780B500F0C0FD0021DFF8A7
S31508002C60B402006802BD10B5DFF85C46206800288B
S31508002C7006D1DFF8882640F6E611A548FEF758FB88
S31508002C80206810BD98D100082DE9F84300268F4822
S31508002C90006800286DD19F480468641C0460002CF5
S31508002CA01DD1DFF88083D8F800000068002806D018
S31508002CB0DFF84C2640F662219548FEF739FBD8F82E
S31508002CC00090DFF864130868C8F80000C1F800909F
S31508002CD0DFF830160868401C086000F074FADFF860
S31508002CE0F085D8F80000844237D3CE4908680068D2
S31508002CF0002804D15FF0FF30C8F800002DE008680E
S31508002D00C068C068070078680500AC4202D2C8F8F7
S31508002D10005022E0381D05F07CF9B86A002803D077
S31508002D2017F1180005F075F91D490A680123F86AB4
S31508002D3083401A430A60391D1A4BFA6A1420424323
S31508002D4003EB020005F03EF9F86A12490968C96AF8
S31508002D508842CAD301200600C7E70E480068114911
S31508002D60C26A142042438858022807D30120060065
S31508002D7004E0DFF884150868401C0860DFF8880559
S31508002D800068002801D0012006003000BDE8F28363
S31508002D90D00C0020C00C0020DC0C0020EC0C00201D
S31508002DA0D80C0020F0090020F8B54848006800282B
S31508002DB004D00121DFF85005016043E00021DFF867
S31508002DC048050160DFF844452068056B5FF0A536C5
S31508002DD02868B04208D16868B04205D1A868B042F0
S31508002DE002D1E868B04205D0206810F134012068A5
S31508002DF0FEF75CFADFF818050068B0FA80F5D5F139
S31508002E001F051426DFF80C7506FB05F03858002850
S31508002E1006D1DFF8042540F688313D48FEF788FAE2
S31508002E2006FB05F607EB06004168496841604268FB
S31508002E3010F108018A4202D1416849684160406838
S31508002E40C0682060F1BD38B504000D00002C06D11D
S31508002E50DFF8C82440F69F312D48FEF769FADFF8F7
S31508002E606005006810F11801200005F0B7F8012187
S31508002E70280000F05FFA31BD70B504000D00160099
S31508002E80002C06D1DFF898244FF43B612048FEF762
S31508002E904FFA0E480068002806D1DFF8842440F669
S31508002EA0B4311B48FEF744FADFF8142555F0004004
S31508002EB011688861106810F11801200005F082F881
S31508002EC00121300000F036FA70BD0000F80C002031
S31508002ED070B504000E001500002C06D1DFF8442456
S31508002EE040F6CA310A48FEF723FADFF8D404006828
S31508002EF010F11801200005F065F8002D02D05FF0EA
S31508002F00FF3006002900300000F014FA70BD0000FA
S31508002F10B4D80008D40C002038B50500E868C468A1
S31508002F20002C07D1DFF8002440F6FA31DFF8FC035D
S31508002F30FEF7FEF914F1180005F06BF8DFF8F00358
S31508002F400068002815D1201D05F063F8DFF8C033A6
S31508002F5019680122E06A824011431960211DDFF8D1
S31508002F60B433E26A1420424303EB020005F02AF860
S31508002F7005E014F11801DFF87C0305F023F8DFF803
S31508002F808C030068C16AE06A814205D201200122E9
S31508002F90DFF874130A6000E0002032BD3CD8000850
S31508002FA070B506000D00DFF888030068002807D111
S31508002FB0DFF8102440F63141DFF87003FEF7B8F960
S31508002FC055F000403060F468002C07D1DFF8F42390
S31508002FD040F63941DFF85403FEF7AAF9300005F048
S31508002FE018F8201D05F015F8DFF8243319680122B2
S31508002FF0E06A824011431960211DDFF81833E26A3E
S315080030001420424303EB020004F0DCFFDFF8FC0265
S315080030100068C16AE06A814203D20121DFF8E8024A
S31508003020016070BDC40C0020C80C0020DFF8D41263
S3150800303009680160DFF8901309684160704700006D
S3150800304004ED00E02DE9F04104000D00002C07D145
S31508003050DFF8782340F66541DFF8D002FEF768F915
S31508003060002D07D1DFF8642340F66641DFF8BC027D
S31508003070FEF75EF900F06EFBDFF84C03066867683A
S31508003080F71BDFF88812086890F84D00002806D06C
S315080030900020096881F84D005FF0010822E02868E1
S315080030A010F1010F02D15FF000081BE0DFF85402AF
S315080030B001682068814205D06068864202D35FF0C5
S315080030C001080FE02868874208D22868C01B2860D4
S315080030D02000FFF7ABFF5FF0000803E00020286040
S315080030E05FF0010800F050FB4046BDE8F081012181
S315080030F0DFF814020160704710B5040000F03BF8D1
S31508003100DFF810020068022807D35FF080513848BC
S315080031100160BFF34F8FBFF36F8FFEF7B1F8EDE78E
S3150800312070B50024052C09D2DFF8E811142000FB3D
S3150800313004F0084404F034FF641CF3E7DFF89062F7
S31508003140300004F02DFFDFF88C52280004F028FF29
S31508003150DFF8A00104F024FFDFF87C0204F020FF6A
S31508003160DFF8780204F01CFFDFF874020660DFF867
S315080031707402056070BD38B5DFF86C5228680028FF
S3150800318017D000F0E7FADFF85002C068C0680400FC
S31508003190201D04F03EFFDFF854120868401E086040
S315080031A02868401E286000F0EFFA200000F002F8B8
S315080031B0E2E731BD10B50400206B04F042FE2000A2
S315080031C004F03FFE10BDDFF81822106800680028DA
S315080031D004D15FF0FF323E48026006E01068C0681E
S315080031E0C06801004A683A4802607047000000005B
S315080031F004ED00E0DFF8F8010068002801D101209D
S3150800320007E0DFF82C010068002801D1022000E061
S315080032100020704770B5040026000025002C50D009
S31508003220DFF8E8000068864207D0DFF8CC2140F6D0
S315080032307A71DFF8F800FEF77BF8706C002807D182
S31508003240DFF8B42140F67B71DFF8E000FEF770F88E
S31508003250706C401E7064F16A306C814231D0706CBB
S3150800326000282ED1301D04F0D4FE00280FD1DFF837
S315080032708C21F16A142041435058002807D1DFF801
S31508003280903019680122F06A824091431960306CC7
S31508003290F062F06AD0F10500B061DFF874301968A1
S315080032A00122F06A824011431960311DDFF84C3162
S315080032B0F26A1420424303EB020004F083FE012065
S315080032C00500280070BD0000F40C0020BCD80008DA
S315080032D0F00C002064D500085CD70008DFF8E02071
S315080032E01068806911681268D26AD2F105028A618B
S315080032F070470000040C0020E00C0020B0D1000844
S3150800330078D50008E80C0020E40C0020C00C00204A
S31508003310D80C0020F00900208CD50008C8D1000878
S3150800332060CD000880CD00087CCF0008B4D800081E
S31508003330F80C00202DE9F04105000C00224807682A
S31508003340DFF87C800021D8F8000080F84D10D8F806
S315080033500000001D04F05DFE002808D1D8F8000022
S3150800336024490A680123C06A83409A430A6015F112
S31508003370010F08D1002C06D0D8F80000011D174807
S3150800338004F020FE1AE0E8190600D8F800004660A6
S31508003390BE4207D2D8F80000011D1248006804F0A2
S315080033A01DFE0BE0D8F80000011D0D48006804F06A
S315080033B015FE13490868864200D20E60BDE8F08102
S315080033C0C00C002010CB0008D40C0020E0D1000867
S315080033D0DC0B0020F00B0020180C00202C0C002021
S315080033E0C40C0020C80C0020CC0C0020D00C0020F7
S315080033F0DC0C0020D80C0020F8D10008F0090020C9
S31508003400F00C002003490A680348006882180A601D
S31508003410704700BFBC0C00206001002010B410F0FB
S315080034200702DFF8E8311C684FF6FF010C4054EA42
S315080034300224DFF8DC110C431C6010BC7047DFF86F
S31508003440CC010068C0F302207047010049B2002988
S315080034500AD4012210F01F018A40DFF8B8310100B2
S3150800346049B2490943F821207047010049B20029A9
S315080034700AD4012210F01F018A40DFF89C310100AE
S3150800348049B2490943F82120704710B4020052B2E4
S31508003490002A06D40C01DFF88431020052B29C548B
S315080034A009E00A01DFF8784103005BB213F00F0365
S315080034B0234403F8042C10BC704770B4030013F0BF
S315080034C00704D4F10700052801D3042001E0D4F14C
S315080034D00700251D072D01D2002600E0E61E01255E
S315080034E015FA00F0401E0140B14015FA06F6761EA0
S315080034F032401143080070BC704710B50400601EC6
S31508003500B0F1807F01D3012011E0611EDFF81401BC
S3150800351001600F215FF0FF30FFF7B7FF0021DFF8EA
S31508003520080101600721DFF804010160002010BDD1
S3150800353010B50400072C0ED0062C0CD0052C0AD08A
S31508003540042C08D0032C06D0DFF8E420A721DFF8E6
S31508003550E400FDF7EDFE2000FFF760FF10BD2DE942
S31508003560F04180460C0015000026102D06D3DFF822
S31508003570C820BF21DFF8BC00FDF7DAFE102C06D301
S31508003580DFF8B420C021DFF8AC00FDF7D1FEFFF765
S3150800359056FF07002A0021003800FFF78EFF0100BA
S315080035A0404640B2FFF771FFBDE8F08110B5040050
S315080035B0200040B2002806D5DFF88020D321DFF8A6
S315080035C07400FDF7B5FE200040B2FFF73EFF10BDC0
S315080035D010B504002000FFF790FF10BD10B50400D9
S315080035E0200040B2002807D5DFF8542040F26511C4
S315080035F0DFF84000FDF79CFE200040B2FFF735FFDC
S3150800360010BD80B504F019FD01BD00000CED00E009
S315080036100000FA0500E100E080E200E000E400E0D6
S3150800362018ED00E014E000E018E000E010E000E02B
S31508003630A0CC000860D0000878D00008FCD30008A9
S315080036409CCE0008031F5FF0807018601B1F480897
S31508003650400018601B1F0FF219001860B3F1140020
S315080036600260031F7FF002001860B3F12000704764
S3150800367080B56C48006810F1010F04D06A4ADD2154
S315080036806A48FDF755FE502080F31188BFF34F8F27
S31508003690BFF36F8FFEE73EB5654C216865488142EA
S315080036A004D1654AEF216148FDF742FE2168634867
S315080036B0814204D1604AF0215C48FDF739FE604C2E
S315080036C020780190FF20207020788DF800009DF862
S315080036D0001011F050015B4801705B4D072028600F
S315080036E09DF80000000608D52868401E28609DF849
S315080036F0000040008DF80000F2E72868D0F10700C6
S31508003700042805D04C4A40F221114848FDF710FE1E
S31508003710286800022860286810F4E060286001988C
S3150800372020704A48016851F470010160016851F03F
S315080037307041016004F082FC00203A49086004F0F8
S31508003740E1FC4348016851F04041016004F0CAFCBD
S3150800375000203EBD80B5502080F31188BFF34F8FFF
S31508003760BFF36F8F2F490868401C08600868012856
S3150800377009D138480068000605D0374A40F25D117D
S315080037802A48FDF7D5FD01BD10B5264C206800284E
S3150800379005D1324A4FF4B2712448FDF7C9FD2068B5
S315080037A0401E20602068002802D1002080F311887E
S315080037B010BD80B5502080F31188BFF34F8FBFF33B
S315080037C06F8FFFF761FA002803D05FF08051214818
S315080037D00160002080F3118801BD000038B5EFF3C1
S315080037E00585102D0FD31E480068405D0400200093
S315080037F014490978C0B2884205D21A4A4FF41A7198
S315080038000A48FDF795FD104800681749096811F43C
S31508003810E061884205D2134A4FF41E710348FDF74A
S3150800382087FD31BD58010020BCD200086CD80008BD
S3150800383000ED00E071C20F41D0D2000870C20F41FE
S3150800384000E400E0180D0020A80C002020ED00E0A0
S3150800385034EF00E004ED00E0E4D20008F8D20008F6
S31508003860ECD8000820CC00080CED00E01CB50024BC
S3150800387000F0F5F9DFF88404006800280ED0DFF8B8
S31508003880800401900420009000234FF48072DFF832
S3150800389074140FF22110FFF705F80400002C07D165
S315080038A0DFF864244FF48971DFF86004FDF740FD02
S315080038B0200016BD2DE9FF4704008A4615001E00A4
S315080038C00C9F5FF00008002C07D1DFF844244FF462
S315080038D0C371DFF83804FDF72BFDDFF82094D9F81B
S315080038E00000002824D0CDF800A001950294BAF172
S315080038F0060F15DAFFF77EFC022808D100233A00E6
S315080039006946D9F8000002F07DFE804610E00023E3
S3150800391000226946D9F8000002F074FE804607E0E6
S31508003920002332006946D9F8000002F02CFF8046D1
S31508003930404604B0BDE8F08710B5DFF8C4432068F8
S31508003940002807D1DFF8CC234FF4D871DFF8BC0381
S31508003950FDF7EEFC206810BDF8B505000E00DFF88F
S31508003960B8030068C068C768381D04F052FBF869D8
S3150800397001281BD12B003200B9694919380000F01B
S3150800398088F8002812D00020009000232A00002181
S315080039903800FFF78FFF0400002C07D1DFF87C23DF
S315080039A04FF4F471DFF86403FDF7C2FC3800796A56
S315080039B08847F1BD38B50500684600F042F80400AE
S315080039C00099200000F003F800F08BF8F4E77CB5C6
S315080039D005000C00FFF7C5F8684600F046F8060033
S315080039E0009800282AD1002C08D1AE4206D3FFF74A
S315080039F0BEF831002800FFF7AFFF21E0002C08D001
S31508003A00DFF81C0300680068002801D1012400E0E3
S31508003A1000242200A91BDFF8E402006803F0A2F8DC
S31508003A20FFF7A5F800280BD15FF08051DFF8F40204
S31508003A300160BFF34F8FBFF36F8F01E0FFF797F871
S31508003A4073BD0100DFF8D02210680068002801D194
S31508003A50012000E0002008600868002803D11068EB
S31508003A60C068006800E00020704770B50400FFF7E2
S31508003A70EEF80500DFF8B0623068854204D200F03F
S31508003A80AAF80120206001E00020206035602800A7
S31508003A9070BD2DE9F04104000D0016001F005FF00F
S31508003AA0000865602461AE420CD3F11BA06981420F
S31508003AB002D30120804611E0211D9948006804F0D0
S31508003AC08DFA0BE0BE4204D2BD4202D301208046E5
S31508003AD004E0211D9048006804F080FA4046BDE8DD
S31508003AE0F081F8B586B0002201A98448006802F082
S31508003AF0ACFE00286DD0019800280CD502AD002D2B
S31508003B0005D18A4A40F2C7218048FDF711FCA96809
S31508003B1068682A68904701980028E4D40398070043
S31508003B207869002802D0381D04F073FA05A8FFF753
S31508003B309CFF0600019800280ED002280CD00BD353
S31508003B4004282ED02CD3062806D03DD3082827D003
S31508003B5002D3092825D03BE0029B32000299B869B6
S31508003B6041183800FFF795FF002818D03800796A01
S31508003B708847F869012812D1002000900023029A8C
S31508003B80B869821800213800FFF794FE0400002C5B
S31508003B9005D1664A40F201315C48FDF7C9FBA2E748
S31508003BA0A1E70298B861B869002805D15F4A4FF4C1
S31508003BB046715648FDF7BCFB33003200B9698919CE
S31508003BC03800FFF766FF8EE7380004F03AF98AE70F
S31508003BD089E707B0F0BD2DE9FC41DFF83C81D8F84C
S31508003BE000000068002831D0D8F80000C0680068D6
S31508003BF00500D8F80000C068C0680700381D04F042
S31508003C0008FA3800796A8847F8690128E5D1B86959
S31508003C1040190600B54207D27E603F61391DD8F8C3
S31508003C20000004F0DBF9D8E70020009000232A0002
S31508003C3000213800FFF73EFE0400002C05D13C4A5F
S31508003C4040F272313148FDF773FBC6E7D8F8002019
S31508003C5033480168C8F800100260BDE8F38170B502
S31508003C60FFF778FD254C2068002818D1314E300022
S31508003C7004F096F9304D280004F092F926480660BB
S31508003C802748056000221021142002F07BFC2060E2
S31508003C902068002803D02949206802F046FFFFF76C
S31508003CA073FD70BD70B504002500002C05D1244AAB
S31508003CB040F2BA311548FDF73BFBFFF74BFD686943
S31508003CC0002801D1002600E00126FFF75DFD30003F
S31508003CD070BDF8B584B007000C0015001E007FF013
S31508003CE0010000900197029403950023320069466B
S31508003CF00248006802F047FD05B0F0BD040D00203B
S31508003D00080D0020C4D8000810D2000848D80008BA
S31508003D1028D20008A0CD0008FC0C002040D20008DC
S31508003D20000D002004ED00E00C0D002098CF0008DF
S31508003D30A0D50008400C0020540C0020CCD8000860
S31508003D40B4D5000838B504000D00002C08D0B4F529
S31508003D50804F05D01A4A4FF4E0711848FDF7E8FA83
S31508003D602800C0B2012809D02800C0B2022805D010
S31508003D70134A40F2C1111148FDF7DAFA002C08D1AE
S31508003D801048006880050AD504F0D6F9002806D040
S31508003D9013E00C480068800501D404F0C7F90A4905
S31508003DA0086830F0040008602800C0B2012801D174
S31508003DB030BF02E040BF20BF20BF31BD60D400083D
S31508003DC0C0D000081470004010ED00E02DE9FE4F49
S31508003DD00400002C02D1012000F026BC206800282F
S31508003DE00BD0207810F03F0F07D1DFF8C42A4FF424
S31508003DF0CF71DFF8C00AFDF79BFADFF83868356837
S31508003E0015F00C05DFF8A07AD7F8008018F003083B
S31508003E102078C00640F10281A06900280AD0A0696E
S31508003E20012807D0DFF8882A40F2A711DFF8840AAC
S31508003E30FDF77EFAE069B0F5807F07D3DFF8702AD0
S31508003E404FF4D471DFF86C0AFDF772FA206A00287D
S31508003E5028D0206A102825D0206A202822D0206A57
S31508003E6030281FD0206A40281CD0206A502819D034
S31508003E70206A602816D0206A702813D0206A802805
S31508003E8010D0206A90280DD0206AA0280AD0206A6F
S31508003E90B02807D0DFF8182A40F2A911DFF8140A6B
S31508003EA0FDF746FA002D04D00C2D78D1B8F1010F94
S31508003EB075D1DFF87CA7DAF80000800704D5A06979
S31508003EC0002801D10120AFE3DAF80000000704D585
S31508003ED0DAF8001011F0F00105E0DFF8D009016802
S31508003EE0090911F0F001206A81421ED2206A00F009
S31508003EF0F3FD002801D0012096E3DAF8000050F01F
S31508003F000800CAF80000DAF8001031F0F001206A5B
S31508003F100143CAF80010DFF87C2A106830F47F40A5
S31508003F20E16950EA012010601DE0DAF8000050F05F
S31508003F300800CAF80000DAF8001031F0F001206A2B
S31508003F400143CAF80010DFF84C2A106830F47F40A5
S31508003F50E16950EA01201060206A00F0BDFD0028E2
S31508003F6001D0012060E300F0A7FCDFF8601A326890
S31508003F70C2F30312895C11F01F01C840DFF8B816B6
S31508003F800860DFF8B806006804F0FAF88DF8000053
S31508003F909DF80000002841D09DF8000044E3A06980
S31508003FA0002827D0DFF88866306850F001003060B6
S31508003FB004F016F981463068800707D404F010F932
S31508003FC0B0EB09000328F6D303202DE3306850F040
S31508003FD008003060316831F0F001206A0143316031
S31508003FE0DFF8B029106830F47F40E16950EA012013
S31508003FF0106013E0DFF8386630684008400030602B
S3150800400004F0EEF881463068800707D504F0E8F832
S31508004010B0EB09000328F6D3032005E32078C00790
S315080040206ED5606800280FD06068B0F5803F0BD069
S315080040306068B0F5A02F07D0DFF8742840F2112188
S31508004040DFF87008FDF774F9082D04D00C2D0CD193
S31508004050B8F1030F09D1DFF8D805006880034FD5FA
S31508004060606800284CD10120DEE26068B0F5803F28
S3150800407006D1DFF8BC15086850F48030086018E0EF
S315080040806068B0F5A02F0AD1DFF8A405016851F4DD
S3150800409080210160016851F48031016009E0DFF890
S315080040A09005016831F480310160016831F480219E
S315080040B001606068002811D004F092F88146DFF8A4
S315080040C07005006880031BD404F08AF8B0EB090079
S315080040D041F289318842F2D30320A5E204F080F840
S315080040E08146DFF84C050068800309D504F078F8A6
S315080040F0B0EB090041F289318842F2D3032093E2FA
S315080041002078800769D5E06800280BD0E068B0F50C
S31508004110807F07D0DFF898274FF41171DFF89407EE
S31508004120FDF706F92069202807D3DFF8842740F22F
S315080041304521DFF88007FDF7FBF8042D04D00C2D88
S3150800414016D1B8F1020F13D1DFF8E4040068400570
S3150800415004D5E068002801D1012065E2DFF83408BB
S31508004160016831F0F851226951EA0261016034E0D0
S31508004170E06800281DD0DFF8B864306850F4807015
S31508004180306004F02DF881463068400507D404F005
S3150800419027F8B0EB09000328F6D3032044E2DFF83A
S315080041A0F407016831F0F851226951EA02610160A9
S315080041B013E0DFF87C64306830F48070306004F017
S315080041C00FF881463068400507D504F009F8B0EBCA
S315080041D009000328F6D3032026E22078000738D5FD
S315080041E0606900280AD06069012807D0DFF8C02670
S315080041F040F28521DFF8BC06FDF79AF860690028C9
S3150800420013D0DFF8A866306850F00100306003F07C
S31508004210E7FF8146306880071BD403F0E1FFB0EB67
S3150800422009000328F6D30320FEE1DFF8806630682C
S3150800423040084000306003F0D3FF814630688007AD
S3150800424007D503F0CDFFB0EB09000328F6D303200A
S31508004250EAE12078400740F194800026A06800280B
S315080042600DD0A06801280AD0A068052807D0DFF875
S3150800427040264FF43671DFF83C06FDF759F8DFF8AB
S31508004280E4A8DAF80000C0000DD4DAF8000050F00F
S315080042908050CAF80000DAF8000010F0805001904B
S315080042A0019801200600DFF8C0B8DBF80000C00559
S315080042B014D4DBF8000050F48070CBF8000003F04B
S315080042C08FFF8146DBF80000C00507D403F088FF9E
S315080042D0B0EB09000328F5D30320A5E1A06801285F
S315080042E006D1DFF88818086850F00100086017E062
S315080042F0A06805280AD1DFF87408016851F004019E
S315080043000160016851F00101016009E0DFF85C080D
S315080043100168490849000160016831F0040101603B
S31508004320A068002811D003F05BFF8146DFF83C083F
S31508004330006880071BD403F053FFB0EB090041F275
S3150800434089318842F2D303206EE103F049FF8146A2
S31508004350DFF818080068800709D503F041FFB0EBBD
S31508004360090041F289318842F2D303205CE130002A
S31508004370C0B2012805D1DAF8000030F08050CAF83A
S3150800438000002078800638D5606A00280AD0606A5E
S31508004390012807D0DFF8182540F23D31DFF814056B
S315080043A0FCF7C6FF606A002813D0DFF8C4673068D8
S315080043B050F00100306003F013FF81463068800733
S315080043C01BD403F00DFFB0EB09000328F6D3032036
S315080043D02AE1DFF89C67306840084000306003F047
S315080043E0FFFE81463068800707D503F0F9FEB0EB7B
S315080043F009000328F6D3032016E1A06A00280DD089
S31508004400A06A01280AD0A06A022807D0DFF8A024EB
S3150800441040F26631DFF89C04FCF78AFFA06A0028A0
S3150800442000F001810C2D00F0CD80A06A022840F032
S31508004430AA80E06A002810D0E06A01280DD0E06A58
S3150800444002280AD0E06A032807D0DFF864244FF46C
S315080044505C71DFF86004FCF76BFF206B002802D064
S31508004460206B092807D3DFF8482440F27131DFF8BA
S315080044704404FCF75DFF606B082802D3606B57287D
S3150800448007D3DFF82C2440F27231DFF82804FCF752
S315080044904FFFA06B022802D3A06B202807D3DFF8B2
S315080044A010244FF45D71DFF80C04FCF741FFE06B54
S315080044B0022810D0E06B04280DD0E06B06280AD03D
S315080044C0E06B082807D0DFF8E82340F27631DFF8FA
S315080044D0E403FCF72DFF206C022810D0206C04287A
S315080044E00DD0206C06280AD0206C082807D0DFF8E3
S315080044F0C02340F27731DFF8BC03FCF719FF4C4EB6
S31508004500306830F08070306003F06AFE82463068AA
S31508004510800107D503F064FEB0EB0A000328F6D342
S31508004520032081E03968DFF84C060140E06A014360
S31508004530206B401E51EA0011606B51EA0021E06BC6
S315080045404008401E51EA4051206C4008401E51EA7E
S315080045504061A06B51EAC0613960306850F08070E4
S315080045603060386850F08070386003F039FE814654
S315080045703068800157D403F033FEB0EB09000328F6
S31508004580F6D3032050E02A4E306830F08070306051
S315080045903068000103D438688008800038603968BC
S315080045A0DFF8D4050140396003F01AFE8146306809
S315080045B0800138D503F014FEB0EB09000328F6D3C2
S315080045C0032031E0A06A012801D101202CE03868D7
S315080045D0804618F00300E16A884222D118F070007C
S315080045E0216B491EB0EB011F1BD118F4FE40616B0D
S315080045F0B0EB012F15D118F07840A16BB0EBC16F65
S315080046000FD118F4C000E16B4908491EB0EB415FB1
S3150800461007D118F0C061206C4008401EB1EB406F0E
S3150800462001D0012000E00020BDE8FE8F0000000058
S315080046300010024008100240640100205C010020BE
S315080046402DE9F04104000D00002C01D1012029E1DB
S315080046502068002802D02068102807D3DFF81C2518
S3150800466040F22E41DFF84C02FCF762FE002D0FD017
S31508004670012D0DD0022D0BD0032D09D0042D07D006
S31508004680DFF8F82440F22F41DFF82802FCF750FE45
S31508004690DFF8EC74386810F00700A8420BD23868C7
S315080046A0C008C00028433860386810F00700A842E0
S315080046B001D00120F6E02078C00755D560680028AB
S315080046C00FD0606801280CD06068022809D060689D
S315080046D0032806D0DFF8A42440F246417548FCF7C3
S315080046E027FE6068032806D1DFF898040068800171
S315080046F01CD40120D6E06068022806D1DFF88404BD
S315080047000068800312D40120CCE06068002806D136
S31508004710DFF870040068800708D40120C2E0DFF8DB
S3150800472064040068400501D40120BBE0DFF8588422
S31508004730D8F800108908890060680143C8F8001095
S3150800474003F04EFD0600D8F8000010F00C00616872
S31508004750B0EB810F08D003F043FD801B41F289318D
S315080047608842F0D303209DE02078800729D5A068E9
S3150800477000281ED0A06880281BD0A068902818D0D2
S31508004780A068A02815D0A068B02812D0A068C028B4
S315080047900FD0A068D0280CD0A068E02809D0A0685F
S315080047A0F02806D0DFF8D42340F2A2414148FCF7AE
S315080047B0BFFDDFF8D423116831F0F001A06801438A
S315080047C01160386810F0070085420BD23868C008B7
S315080047D0C00028433860386810F00700A84201D0A6
S315080047E001205FE02078400721D5E068002816D030
S315080047F0E068B0F5806F12D0E068B0F5A06F0ED013
S31508004800E068B0F5C06F0AD0E068B0F5E06F06D092
S31508004810DFF8682340F2C1412648FCF789FDDFF836
S315080048206823116831F4E061E0680143116020787B
S31508004830000722D52069002816D02069B0F5806FB8
S3150800484012D02069B0F5A06F0ED02069B0F5C06F00
S315080048500AD02069B0F5E06F06D0DFF820234FF4C0
S3150800486099611448FCF764FDDFF81C23106830F4DE
S315080048706050216950EAC100106000F01DF85349E4
S31508004880DFF804231268C2F30312895C11F01F01D2
S31508004890C840DFF8F8120860DFF8F402006803F091
S315080048A06FFCC0B2BDE8F0810C10024094100240C3
S315080048B074D4000888D400082DE9F04100260020A9
S315080048C0DFF8C412096811F00C01DFF8C8C2DCF879
S315080048D0007017F00307002903D00C291AD1012FFD
S315080048E018D1DFF8A0E2DEF800805FEA087806D47F
S315080048F0DFF8DCE0DEF800E0CEF3032E03E0DEF8B6
S3150800490000E0CEF3031EA44E56F82E6000290CD103
S3150800491030000AE0042903D1DFF880E2704604E09B
S31508004920082902D1DFF874E270460C292DD1DCF88B
S3150800493000E01EF0030E73469E46BEF1020F03D03A
S31508004940BEF1030F03D005E0DFF850E203E0DFF81D
S315080049504CE200E0B646DCF80020C2F30212521C14
S315080049601500DCF80020C2F3062202FB0EFEBEFB91
S31508004970F5F2DCF800C0CCF3416C1CF1010C5FEADF
S315080049804C0C6446B2FBF4FC6046BDE8F0817F48F7
S31508004990006870470410024080B5FFF7F8FF8049A9
S315080049A0794A1268C2F30222895C11F01F01C840D5
S315080049B002BD80B5FFF7EBFF7949734A1268C2F367
S315080049C0C222895C11F01F01C84002BD4CD70008FD
S315080049D09410024010B50400002C05D1714A40F22B
S315080049E0C1517148FCF7A4FC3F2020606548016866
S315080049F0490303D55FF4A021616008E00168C90393
S31508004A0003D55FF48031616001E0002161600168CF
S31508004A10C90702D50121A16101E00021A16163490D
S31508004A200A68C2F30722E261026812F0F002226203
S31508004A300268D20503D54FF48072E26001E00022D5
S31508004A40E2600968C1F30461216148490A685207AE
S31508004A5002D50521A16007E00968C90702D5012129
S31508004A60A16001E00021A16051490968C90702D582
S31508004A700121616101E0002161613D490968C907B9
S31508004A8002D50121616201E0002161620068C0016E
S31508004A9002D50220A06201E00120A0623D4801681B
S31508004AA011F00301E1620168C1F30211491C216397
S31508004AB00168C1F3062161630168C1F34151491CCC
S31508004AC04900E1630168C1F34161491C4900216459
S31508004AD00068C00EA06310BD7CB504000025214EF9
S31508004AE03068C00003D503F01BFB01000FE03068F7
S31508004AF050F080503060306810F080500090009878
S31508004B0003F00EFB0100306830F080503060B1F5DC
S31508004B10007F09D1812C15D3A12C02D302200500D0
S31508004B2010E0012005000DE0812C02D303200500CA
S31508004B3008E0802C02D10220050003E0702C01D188
S31508004B40012005000E4A1068C008C00028431060FE
S31508004B50106810F00700A84201D0012000E00020EC
S31508004B6076BD0000581002400070004090100240C8
S31508004B70981002408C809D01FFFFEEFE9CD4000831
S31508004B800020024000100240081002406401002084
S31508004B905C0100200C10024010CA00080024F40032
S31508004BA0ACD80008D8D0000888D400080410024001
S31508004BB09410024038B504000025002C0DD060681A
S31508004BC000F070FD002808D06068D0F8940003F063
S31508004BD00DFB002801D0012005002800C0B232BD17
S31508004BE010B5040014F14801606801F053FA7FF02B
S31508004BF00100A168096808610020A168096848627F
S31508004C0010BD10B504002000FFF7EAFFA068006891
S31508004C10C06850F00100A1680968C860A06800680B
S31508004C20006850F00100A1680968086010BD816835
S31508004C3009680A6A41F211110A420ED181680968A7
S31508004C400A6A40F244410A4207D18168096809683C
S31508004C504908490082681268116081680968C9684C
S31508004C604908490082681268D1607FF001018268AC
S31508004C7012681161704770B504002000FFF79AFFAB
S31508004C80002806D1DFF850274021DFF85007FCF747
S31508004C904FFB6068D0F8940003F0B5FA050014F1EC
S31508004CA04801606801F0F6F9002801D1012600E004
S31508004CB0002694F84100002807D13000C0B2002829
S31508004CC01BD0012084F8410017E03000C0B200284C
S31508004CD013D02A0092B200216068D0F8940003F03D
S31508004CE01FFB002806D1DFF8F0265521DFF8EC0671
S31508004CF0FCF71EFB012084F841002000FFF797FF10
S31508004D0070BD2DE9FF4781464846FFF753FF002847
S31508004D1006D1DFF8CC266D21DFF8C006FCF708FBC4
S31508004D20D9F80400D0F89460300003F06CFA070054
S31508004D30380080B2002806D1DFF8A4267221DFF8F1
S31508004D409C06FCF7F5FAD9F80C00401CC9F80C00CB
S31508004D503900B08889B2814219D13A0092B200214D
S31508004D60300003F0DDFA002806D1DFF874267B212F
S31508004D70DFF86806FCF7DCFA4846FFF742FF002032
S31508004D8089F84100D9F81800401CC9F81800002015
S31508004D908046380080B2B0F5817F02DB002089F8B2
S31508004DA0410099F84100002805D002281CD006D3F6
S31508004DB003283FD0A7E0052089F84100ABE0002191
S31508004DC0300003F0C4FA89F8420099F842004028F6
S31508004DD007D099F84200232803D0052089F8410016
S31508004DE099E0022089F84100380080B20228C0F212
S31508004DF092800121300003F0AAFA89F8430099F855
S31508004E004200402801D1022100E0002199F8430020
S31508004E10884203DB99F84300FF2803D1052089F867
S31508004E20410078E0032089F84100D9F82800401CA1
S31508004E30C9F8280099F84300C01C82463900504634
S31508004E4089B280B2814266D35046390080B289B2AF
S31508004E50884217D2D9F80400D0F8900080040DD5FE
S31508004E60380080B2514689B2491C88420AD03900B6
S31508004E7089B2504680B2801C814203D0062089F848
S31508004E80410048E00020040099F84200232802D097
S31508004E90402807D02BE099F83000C00601D510202D
S31508004EA0040024E00221300003F051FA89F8440096
S31508004EB099F84400002802D0962807D00DE099F802
S31508004EC03000800701D5022004000CE099F8300074
S31508004ED0C00701D50120040005E099F83000400715
S31508004EE001D504200400FDF7B2FEC9F838002000F9
S31508004EF0C0B2002803D1062089F8410002E0042048
S31508004F0089F8410007E0DFF8D82440F22511DFF8D8
S31508004F10CC04FCF70DFAD9F83C00002818D099F80B
S31508004F204100042814D1FDF796FE020000200090E7
S31508004F3000230721D9F83C00FEF7BCFC012807D05E
S31508004F40DFF89C244FF49A71DFF89004FCF7F0F927
S31508004F5099F84350ED1C99F84100042852D0C0F046
S31508004F60CB8006281DD080F0C7803A0092B2002177
S31508004F70300003F0D5F9002807D1DFF864244FF490
S31508004F809F71DFF85804FCF7D3F94846FFF739FE56
S31508004F90002089F84100D9F81000401CC9F8100013
S31508004FA0ADE04846FFF743FE3900280089B280B2D3
S31508004FB0814207D2DFF828244FF4A471DFF81C04D5
S31508004FC0FCF7B6F92A0092B20021300003F0A8F9DE
S31508004FD0002807D1DFF8082440F24D11DFF8FC035A
S31508004FE0FCF7A6F97F1B380080B2002801D0012003
S31508004FF08046012089F84100D9F81800401CC9F8F4
S3150800500018007CE04846FFF712FED9F80400D0F8ED
S31508005010900080040ED42900380089B280B28142FB
S315080050201ED0DFF8BC234FF4B471DFF8B003FCF7E9
S315080050307FF915E0390089B2280080B2091A0029DB
S3150800504006D4390089B2280080B2091A032907DB79
S31508005050DFF88C234FF4B671DFF88003FCF768F9A4
S3150800506001AB00220020002183E80700CDF8049058
S315080050703089ADF80800ADF80A508DF80C400020CC
S315080050800090D9F82C00002807D1DFF8542340F205
S315080050907F11DFF84803FCF74BF900236A4601A99C
S315080050A0D9F82C0001F06FFB01280CD100980028D4
S315080050B00ED05FF08051DFF860050160BFF34F8FB7
S315080050C0BFF36F8F04E0D9F81400401CC9F8140028
S315080050D03A0092B20021300003F022F9002807D1E5
S315080050E0DFF8FC224FF4C671DFF8F002FCF720F96E
S315080050F0012089F8410002E04846FFF782FD404654
S31508005100C0B200287FF443AEBDE8FF872DE9F34F10
S3150800511083B005002800FFF74DFD002807D1DFF80A
S31508005120FC244FF4D471DFF8F804FCF701F9EFF327
S3150800513010800090012686F31088DFF8E874387826
S31508005140002807D0DFF8D4244FF4D671DFF8D0044E
S31508005150FCF7EEF801203870009880F31088E869AB
S31508005160401CE8617FF0010400208DF80500FEF779
S31508005170F1FA686B002819D0686BFEF793FD0028D2
S3150800518014D001208DF8050000200090002300228D
S315080051900321686BFEF78EFB012807D0DFF87C2415
S315080051A040F2BD11DFF87804FCF7C2F8FEF7ECFA16
S315080051B0DFF87484049B6868D0F894204FF48171F2
S315080051C0404600F00FF98DF8060098F803008DF8B0
S315080051D004009DF80600002852D001215FF0FF3038
S315080051E002F06AFD00956946404601F0F4F80400AD
S315080051F0012C3DDB0098A84202D00098002807D170
S31508005200DFF818244FF4E971DFF81404FCF790F876
S3150800521040F2031084420AD30098404507D1DFF8CC
S31508005220FC234FF4EA71DFF8F803FCF781F89DF8E0
S315080052300400222804D05FF0020814F1030902E0F2
S315080052405FF00308A1466B684246D2B2494689B266
S31508005250009800F00DF9002807D1DFF8C02340F2C6
S31508005260E311DFF8BC03FCF763F8686A401C686260
S31508005270E86C002804D02800E96C88470020E86418
S315080052809DF80500002813D0FDF7E1FC0200002078
S31508005290009000230121686BFEF70CFB012807D05C
S315080052A0DFF8782340F2F511DFF87403FCF740F8CD
S315080052B0002C03D4286A401C28627AE0DFF86C8345
S315080052C098F80000002874D034F47F449DF8040050
S315080052D054EA002434F470246868D0F88010DFF8A3
S315080052E05003814201D101201BE06868D0F8801084
S315080052F0DFF84003814201D1022012E06868D0F845
S315080053008000DFF83413884201D1032009E0686879
S31508005310D0F88000DFF82413884201D10B2000E082
S31508005320002054EA00440120FBF7E3FF002807D1D8
S31508005330DFF8E82240F20621DFF8E402FBF7F8FF7F
S31508005340DFF8FCB24FF4C07002905FF0000923004A
S31508005350DFF8F0220299B1EB09010BEB090002F024
S315080053609FFB82461AEB090A98F80000401E88F847
S31508005370000098F8000000280BD1DFF8CC2202992B
S31508005380B1EB0A010BEB0A0002F08AFB10EB0A00EC
S315080053908246FBF79FFF03215846FBF797FF002835
S315080053A007D1DFF8782240F20F21DFF87402FBF705
S315080053B0BFFFEFF31080029086F310880020387044
S315080053C0029880F3108800215FF0FF3002F074FC29
S315080053D005B0BDE8F08F000098D30008ACD30008EC
S315080053E018D000082DE9F84304000E001500002720
S315080053F0002C01D0002D00D136E03100BDF80200A6
S3150800540089B2814230D3009A2100280002F00CFFAD
S31508005410002829D094F800804046C0B2402803D01E
S315080054204046C0B223281FD194F80190BDF8021057
S3150800543040F20310814206DABDF80210C91E48463A
S31508005440C0B2814200D00FE0BDF80210491E20000C
S3150800545002F0E4F9BDF80210214411F8011CC0B2AB
S31508005460884201D1012007003800C0B2BDE8F283A6
S315080054702DE9F84F2DED028B82B004008A461700FD
S315080054801D000026002C01D0002D00D1BBE03800FD
S31508005490C0B2C00990F001008DF806003800C0B20D
S315080054A0800910F001008DF8050017F003075FF07A
S315080054B000083900C9B2491E03D0491E012903D97B
S315080054C004E04020804601E0232080464046C0B2E2
S315080054D0002800F0988084F8008001208DF80400E8
S315080054E03900C9B2491E012902D9891E25D031E0E1
S315080054F0504680B2032805DA544A40F242314848F9
