:020000040800F2
:10000000B80600202902000877110008250F000813
:10001000751100081F0400080F14000800000000FC
:100020000000000000000000000000007B1100083C
:100030002104000800000000791100087D1100086B
:10004000430200084302000843020008430200087C
:10005000430200084302000843020008430200086C
:10006000430200084302000843020008430200085C
:10007000430200084302000843020008430200084C
:10008000430200084302000843020008430200083C
:10009000430200084302000843020008430200082C
:1000A00043020008691200084302000843020008E6
:1000B000430200084302000843020008430200080C
:1000C00043020008430200084302000843020008FC
:1000D00043020008430200084302000843020008EC
:1000E00043020008430200084302000843020008DC
:1000F00043020008430200084302000843020008CC
:1001000043020008430200084302000843020008BB
:1001100043020008430200084302000843020008AB
:10012000430200084302000843020008430200089B
:10013000430200084302000843020008430200088B
:10014000430200084302000843020008430200087B
:10015000430200084302000843020008430200086B
:10016000430200084302000843020008430200085B
:100170004302000843020008430200080000000098
:10018000430200084302000800F002F800F03CF8C7
:100190000AA090E8000C82448344AAF10107DA45E2
:1001A00001D100F031F8AFF2090EBAE80F0013F0F8
:1001B000010F18BFFB1A43F001031847F8120000A3
:1001C00018130000103A24BF78C878C1FAD8520733
:1001D00024BF30C830C144BF04680C6070470000C1
:1001E0000023002400250026103A28BF78C1FBD840
:1001F000520728BF30C148BF0B6070471FB501F0E0
:100200004BF91FBD10B510BD00F0CFF81146FFF738
:10021000F5FF01F015F900F0EDF803B4FFF7F2FF78
:1002200003BC00F0F5F80000094880470948004782
:10023000FEE7FEE7FEE7FEE7FEE7FEE7FEE7FEE796
:10024000FEE7FEE704480549054A064B70470000F3
:100250001512000889010008B8000020B806002027
:10026000B8020020B802002053EA020C00F06980B6
:100270002DE9F04B4FF00006002B1FBFB3FA83F5BA
:1002800003FA05F424FA05F65E4012BF1643B2FAEB
:1002900082F502FA05F4C5F120051EBF22FA05FC1D
:1002A00044EA0C04203556EA044C4FEA144418BFC3
:1002B000641C4FF000084FF00009904271EB030CF2
:1002C00039D3002919BFB1FA81F701FA07F6B0FA5C
:1002D00080F700FA07F6C7F120071EBF20FA07FCD7
:1002E00046EA0C062037B6FBF4FCA7EB0507103FE7
:1002F00007F01F0BCBF120060CFA0BFB2CFA06F6CD
:1003000044BFB3460026202FA4BF5E464FF0000B2B
:100310005BEA060C08BF4FF0010B19EB0B09ABFBB6
:10032000027C48EB0608C01B06FB02CC0BFB03CC8F
:1003300071EB0C01C1E70B46024641464846BDE859
:10034000F08B13B54FF000004FF00001AFF30080C9
:10035000BDE81C4070474FF0000200B513469446BC
:100360009646203922BFA0E80C50A0E80C50B1F10D
:100370002001BFF4F7AF090728BFA0E80C5048BF21
:100380000CC05DF804EB890028BF40F8042B08BFBF
:10039000704748BF20F8022B11F0804F18BF00F8BB
:1003A000012B7047704770477047754600F02CF876
:1003B000AE4605006946534620F00700854618B052
:1003C00020B5FFF73FFFBDE820404FF000064FF09B
:1003D00000074FF000084FF0000B21F00701AC467A
:1003E000ACE8C009ACE8C009ACE8C009ACE8C00999
:1003F0008D46704710B50446AFF300802046BDE837
:100400001040FFF70ABF000000487047540000206A
:1004100001491820ABBEFEE7260002007047FEE748
:10042000704700002DE9F84FDFF87CB100224FF053
:1004300001084FF0030A4FF00F090BF1040E00BF43
:100440000B6808FA02F42340A3426ED14D68022DD6
:1004500001D0122D0ED1D50800EB850CDCF8205010
:100460005607F70E09FA07F6B5430E69BE402E434C
:10047000CCF82060066855000F790AFA05FC07F0F1
:10048000030726EA0C06AF40374307604E68012E8B
:1004900005D0022E03D0112E01D0122E0ED1866867
:1004A000CF6826EA0C06AF40374387604668A6430C
:1004B0000C79C4F30014944034434460C6688C68DB
:1004C00026EA0C06AC403443C4604C68E40065D5B1
:1004D000364C256845F480452560246822F00305E4
:1004E00004F480440094324C2E19D6F8084895073D
:1004F0002F0F09FA07F5AC432E4DA84201D1002574
:1005000024E02D4DA84201D101251FE02B4DA8422A
:1005100001D102251AE02A4DA84201D1032515E098
:10052000284DA84202D1042510E037E0264DA8420C
:1005300001D105250AE0254DA84201D1062505E097
:10054000234DA84201D1072500E00825BD402543E1
:10055000C6F80858DBF800405D464E689C43F60339
:1005600000D51C432C60DEF8004075464E689C4365
:10057000B60300D51C432C600B4D08352C684E6823
:100580009C43F60200D51C432C60074D0C352C68AB
:100590004E689C43B60200D51C432C60521C102AA6
:1005A000FFF44EAFBDE8F88F003C014044380240F4
:1005B00000300140000002400004024000080240F8
:1005C000000C0240001002400014024000180240DB
:1005D000001C0240426931EA020200D10904816133
:1005E00070470AB1816170470904FBE701488068E0
:1005F000704700000400002002488168027811441E
:1006000081607047040000200B4810B5016841F478
:1006100000710160016841F480610160016841F48A
:1006200080710160032000F071F8002000F006F8EE
:1006300000F024F8002010BD003C024070B50D4DC4
:1006400004464FF47A712878B1FBF0F00A49096842
:10065000B1FBF0F000F0C2FA48B9102C07D200222A
:100660002146501E00F032F800206C6070BD012061
:1006700070BD000004000020100000200B4882B074
:10068000016841F480410160006800F480400090FE
:100690000648001F016841F080510160006800F0C9
:1006A00080500090072002B000F030B8443802407B
:1006B000002809DB00F01F02012191404009800061
:1006C00000F1E020C0F8001170470000F0B40E4BBC
:1006D0001B680C46C3F30223C3F10705042D00D9A0
:1006E0000425191D072901D2002300E0DB1E012685
:1006F00006FA05F1491E214099409E40761E16409B
:100700003143F0BC00F084BE0CED00E0064900F07F
:10071000070208684FF6FF03184040EA0220034A28
:1007200010430860704700000CED00E00000FA057F
:100730002DE9F0470E46050065D0DFF81481D8F8A2
:100740000000F7B200F00F00B04207D288F8007046
:10075000D8F8000000F00F00B04254D128683D4C9A
:10076000810712D5400703D5206840F4E05020608F
:100770002878000703D5206840F460402060206896
:10078000A96820F0F000084320602878C0072DD029
:10079000304968680839012812D0022813D003288C
:1007A00011D00968890700292DDA216821F0030199
:1007B00001432160FFF71AFF814641F2883A0EE0BB
:1007C00009688903EFE709688901ECE7FFF70EFF85
:1007D000A0EB0901514502D90320BDE8F08720684C
:1007E000696800F00C00B0EB810FEFD1D8F8001071
:1007F000404601F00F01B14207D90770006800F0D0
:100800000F00B04201D00120E7E72878400705D566
:100810002068E96820F4E050084320602878000749
:1008200006D52068296920F4604040EAC1002060B4
:1008300000F016F82168084AC1F30311515CC84062
:10084000064908600020FFF7F9FE0020C5E7000018
:10085000003C024008380240A214000810000020AA
:10086000154810B5006810F00C02144813D0411060
:10087000042A0FD0082A0ED10F4C241F22682368A7
:1008800002F03F025B0207D52068C0F38810A0FB8E
:10089000010106E0084610BD2168C1F38811A1FBE3
:1008A00000010023FFF7E0FC2168C1F30141491C6E
:1008B0004900B0FBF1F010BD083802400024F400FC
:1008C0002DE9F84F050076D02878DFF8F8B2BE4C55
:1008D000C00749D0DBF800105846C1F38101012957
:1008E00008D00068C0F3810002280AD1201D0068EA
:1008F000400206D52068800336D568680028E2D01B
:1009000032E06868B0F5803F10D0B0F5A02F2068C5
:1009100010D020F480302060206820F480202060F7
:100920006868A0B1FFF762FE06460CE0206840F45C
:100930008030F4E740F480202060F7E7FFF756FEB0
:10094000801B642873D820688003F7D50CE0FFF77C
:100950004DFE064605E000BFFFF748FE801B6428F9
:10096000F0D820688003F7D42878DFF86082800709
:100970004FF000093ED5DBF80010584611F00C0F7F
:1009800009D00068C0F3810002280BD18D48001FF8
:100990000068400206D42068800715D5E868012861
:1009A00009D111E0E868B8B10120C8F80000FFF7EC
:1009B0001DFE064605E002E1FFF718FE801B022837
:1009C000C0D820688007F7D52068296920F0F80092
:1009D00040EAC10020600DE0C8F80090FFF706FE75
:1009E000064604E0FFF702FE801B02281FD820689D
:1009F0008007F7D42878000722D5724E74486969B9
:100A00006C3671B101210160FFF7F0FD074604E08B
:100A1000FFF7ECFDC01B022809D830688007F7D526
:100A20000EE0C0F80090FFF7E1FD074605E083E027
:100A3000FFF7DCFDC01B02287ED830688007F7D4A2
:100A40002878400768D5DFF87CA100270AF1380A2A
:100A5000DAF80000C0000BD4DAF8001041F0805141
:100A6000CAF80010DAF80000012700F0805000906A
:100A7000584E3068C00510D4306840F48070306043
:100A8000FFF7B4FD009005E0FFF7B0FD0099401AB4
:100A9000022851D83068C005F6D54A4EA868683695
:100AA00001280FD00528306810D020F001003060F8
:100AB000306820F004003060A868B8B1FFF796FDF8
:100AC00000900FE0306840F00100F4E740F00400CF
:100AD0003060F7E7FFF78AFD0099411A41F288304C
:100AE000814264D830688007F4D50EE0FFF77EFDC0
:100AF000009007E0FFF77AFD0099411A41F2883033
:100B0000814254D830688007F4D42FB1DAF800104D
:100B100021F08051CAF80010A869C0B3DBF80010BA
:100B2000C1F3810102294AD00228484607D0C8F8FB
:100B30006000FFF75BFD00E039E005463AE047461C
:100B4000C8F86000FFF752FD064604E0FFF74EFDCF
:100B5000801B02282BD820688001F7D4D5E9070133
:100B60000843A96A1C4A490802EB01416A6A41EA42
:100B70008211084395F82C1040EA01611148001FCA
:100B8000016001203866FFF731FD054605E014E0FD
:100B9000FFF72CFD401B022809D820688001F7D5FB
:100BA0000BE000BFFFF722FD401B022802D9032003
:100BB000BDE8F88F20688001F4D40020F8E7012018
:100BC000F6E70000083802400038024000004742C3
:100BD000800E4742007000400000FFFF10B5401E2D
:100BE000B0F1807F01D3012010BD4FF0E02460619F
:100BF0000F21601700F00CFC0020A061072020618D
:100C0000002010BD7047704770B590F83C20012A55
:100C100019D0012400F83C4F0222427050F83C3CAD
:100C20005A689D6822F070060A684968324325F0C8
:100C3000800529435A6050F83C2C91604470002193
:100C40000170084670BD022070BD10B5040003D0CD
:100C500094F83D0010B107E0012010BD002084F899
:100C60003C00204600F00CF8022084F83D00211DD5
:100C7000206800F033FB012084F83D00002010BD07
:100C800008B500680B49884212D10B48016841F051
:100C9000010101600068002200F00100009011468F
:100CA0001920FFF713FDBDE808401920FFF700BD2C
:100CB00008BD000000000140443802400168CA68D5
:100CC00042F00102CA600068816801F0070106294C
:100CD00003D0016841F0010101600020704770B548
:100CE000044690F83C00012817D0012584F83C50B8
:100CF000022084F83D002068826822F0770222F406
:100D00007F4282600868502830D00DDC20284DD00A
:100D100005DC98B310283BD148E0022070BD302894
:100D200044D0402834D139E0602828D0702806D03B
:100D3000B0F5805F2CD0B0F5005F29D10AE0CB6818
:100D4000D1E90121206800F02DFB2068816841F085
:100D5000770109E0CB68D1E90121206800F022FB8E
:100D60002068816841F48041816011E0CA68496867
:100D7000206800F029FB5021206807E016E0CA68CF
:100D80004968206800F031FB6021206800F014FB06
:100D900084F83D50002084F83C0070BDCA68496862
:100DA000206800F011FB40212068EFE7226801462F
:100DB0001046EBE7704770B50446006801694FF0D4
:100DC0000005C943890715D4C168C943890711D4EF
:100DD000E91E016101202077206880698007204694
:100DE00002D0FFF7E7FF04E000F098F8204600F09B
:100DF00096F8257720680169C943490717D4C16867
:100E0000C943490713D46FF0040101610220207720
:100E10002068806910F4407F204602D0FFF7CAFFA7
:100E200004E000F07BF8204600F079F82577206890
:100E30000169C943090716D4C168C943090712D417
:100E40006FF008010161042020772068C0698007E5
:100E5000204602D0FFF7AEFF04E000F05FF8204626
:100E600000F05DF8257720680169C943C90617D4E9
:100E7000C168C943C90613D46FF01001016108208D
:100E800020772068C06910F4407F204602D0FFF729
:100E900091FF04E000F042F8204600F040F825778A
:100EA00020680169C943C90708D1C168C943C90796
:100EB00004D1891E0161204600F032F820680169E2
:100EC000C943090609D4C168C943090605D46FF0AE
:100ED000800101612046FFF795FE20680169C94342
:100EE000490609D4C168C943490605D46FF04001D9
:100EF0000161204600F015F820680169C9438906A0
:100F00000BD4C168C943890607D46FF02001016181
:100F10002046BDE87040FFF776BE70BD7047704751
:100F200070477047FEE700002DE9F04F87B01421AD
:100F30006846FFF710FA6D480024016841F010017F
:100F40000160016801F010010591016841F00401A0
:100F50000160016801F004010591016841F0800120
:100F60000160016801F080010591016841F0010113
:100F70000160016801F001010591016841F0020181
:100F80000160016801F002010591016841F008016A
:100F900001600068002200F0080005900821544814
:100FA000FFF71FFB002203215248FFF71AFB4FF205
:100FB000100A002251465048FFF713FB082501266E
:100FC0000095CDE90164694649480394FFF72AFA80
:100FD00003200090CDE90164694646480394FFF779
:100FE00021FA00950225CDE901540527CDE90347F3
:100FF00069464048FFF716FA40480096CDE90104DB
:10100000DFF8FCB069465846FFF70CFA1020009054
:10101000CDE901544FF00608CDE90348694658462A
:10102000FFF700FAE0200090CDE90154CDE9034735
:1010300069465846FFF7F6F94FF00409CDE90094E8
:10104000694630480294FFF7EDF968020090CDE957
:101050000154CDE9034769462A48FFF7E3F9CDF883
:1010600000A0CDE90164694623480394FFF7DAF94B
:101070004FF4A4500090CDE90154CDE903486946EE
:101080001C48FFF7CFF92802CDE90004694658460D
:101090000294FFF7C7F94FF4E0500090CDE90154F6
:1010A0000A20CDE9034069465846FFF7BBF92020E6
:1010B000CDE90004694610480294FFF7B3F94FF4F4
:1010C000107000901220CDE90104CDE90349694672
:1010D0000C48FFF7A7F90C480095CDE901046946D3
:1010E0000348FFF79FF907B0BDE8F08F30380240A2
:1010F0000010024000080240000C024000001110E5
:1011000000000240000402400000121010B586B03A
:101110000024174800940194029403940494134902
:1011200005940160C821C0E9011449F64041C0E9B5
:10113000031444618461FFF788FD08B172B6FEE7CD
:101140004FF48050009069460948FFF7C8FD08B188
:1011500072B6FEE7049404A905480594FFF754FD10
:10116000002801D072B6FEE706B010BD00000140B5
:1011700014000020FEE7FEE770477047FFF73CBA17
:1011800030B593B030216846FFF7E5F814210CA87C
:10119000FFF7E1F81D480024016841F0805101602B
:1011A000006800F0805011901948016841F48041B6
:1011B00001600068022500F4804011900120039036
:1011C00010200490009506950820CDE907403220B4
:1011D000099004200A9007200B906846FFF770FBE7
:1011E00008B172B6FEE70F20CDE90C054FF4A05010
:1011F000CDE90E4000210CA81094FFF799FA0028C1
:1012000001D072B6FEE713B030BD00004038024096
:10121000007000401048016841F4700101600F48FF
:10122000016841F0010101600C4A0021083211609F
:1012300002680B4B1A400260031D0A4A1A600268DA
:1012400022F48022026005480C30016002495806F1
:10125000803908607047000088ED00E000380240E7
:10126000FFFFF6FE103000242DE9F041164E4FF43A
:1012700000513046FFF7AEF9144D28780A2817D9E7
:10128000134C206820F0010020600122D70339466A
:101290003046FFF7A6F900F0CBF800202870024690
:1012A00039463046FFF79DF9206840F00100206084
:1012B00028780221401C28700648FFF78BF9BDE80A
:1012C000F0410548FFF777BD000C02400000002008
:1012D000000001400008024014000020F0B5026840
:1012E000254C264D264E274F274B4FF0804CA042D1
:1012F00009D0604507D0A84205D0B04203D0B8421B
:1013000001D0984204D122F0700E4A6842EA0E02DF
:10131000A0421BD0604519D0A84217D0B04215D0CA
:10132000B84213D0984211D0184DA8420ED0184D93
:10133000A8420BD0174DA84208D0174DA84205D09F
:10134000164DA84202D0164DA84203D122F4407592
:10135000CA682A434D6922F080022A4302608A68E3
:10136000C2620A688262A04201D0984201D1096932
:10137000016301214161F0BD000001400004004013
:1013800000080040000C0040000401400040014003
:10139000004401400048014000180040001C00408B
:1013A0000020004010B5846842EA032224F47F4400
:1013B0000A432243826010BD826822F070020A4311
:1013C00042F007018160704710B5036A046A24F097
:1013D00001040462846924F0F00444EA021423F056
:1013E0000A020A438461026210BD10B5036A23F049
:1013F000100303628369046A23F4704343EA0232F0
:1014000024F0A00343EA01118261016210BDFEE7EE
:101410000907090E002804DB00F1E02080F8001421
:10142000704700F00F0000F1E02080F8141D7047B5
:1014300002490020401C8842FCDB704780969800DF
:10144000114C2068FFF7E0F8FFF79AFEFFF76CFDFC
:10145000FFF75CFE0D48016841F0010101600C4896
:10146000FFF72CFC1920FFF723F90A4E094D103E17
:10147000606A2868800701D5002200E0012201216E
:101480003046FFF7AEF8F3E7000001404438024071
:1014900014000020100802404FF04070E1EE100AE6
:1014A000704700000000000000000102030406076E
:1014B00008090000D41400080000002014000000F7
:1014C000C4010008E814000814000020A40600006D
:1014D000E001000800000000010000001000000012
:0814E000000000000024F400EC
:040000050800018965
:00000001FF
