S01100005255535F526567756C2E73726563BB
S315080000003074002099CA00080DCC00085721000852
S3150800001065210008732100088121000800000000FE
S31508000020000000000000000000000000F57700084E
S3150800003011CC0008000000009D7700086112000836
S3150800004015CC000819CC00081DCC000821CC0008E6
S315080000508F21000825CC000829CC00082DCC0008E3
S3150800006031CC000835CC000839CC00083DCC000856
S315080000708D9A0008979A0008799A0008839A0008CA
S3150800008041CC000845CC000849CC00084DCC0008F6
S3150800009051CC000855CC000859CC0008451C00086E
S315080000A05DCC000861CC000865CC000869CC000866
S315080000B06DCC0008000000000000000071CC0008AC
S315080000C075CC000879CC00087DCC000881CC0008E6
S315080000D085CC0008659A000889CC00086F9A000844
S315080000E08DCC000891CC000800000000000000003C
S315080000F000000000000000000000000000000000F2
S315080001000000000095CC00080000000099CC00080B
S315080001100000000000000000811C0008951400087B
S315080001209DCC0008A1CC0008A5CC0008A9CC0008E5
S31508000130ADCC000800000000000000000000000030
S31508000140B1CC0008B5CC0008B9CC0008BDCC000875
S31508000150C1CC0008C5CC0008C9CC0008CDCC000825
S31508000160D1CC0008D5CC0008D9CC00080000000086
S31508000170DDCC0008E1CC0008E5CC00080000000052
S31508000180E9CC0008EDCC0008F1CC000810B5040055
S31508000190002C01D1012071E02168DFF8600181425D
S315080001A01FD02068B0F1804F1BD02168DFF85001BE
S315080001B0814216D02168DFF84C01814211D02168AE
S315080001C0DFF8440181420CD02168DFF84001814202
S315080001D007D0DFF83C2140F21511DFF8380101F0AD
S315080001E08DF8A068002813D0A068102810D0A06841
S315080001F020280DD0A06840280AD0A068602807D01B
S31508000200DFF80C214FF48B71DFF8080101F076F85E
S31508000210206900280FD02069B0F5807F0BD02069AF
S31508000220B0F5007F07D0DFF8E82040F21711DFF8B5
S31508000230E40001F063F8A06900280AD0A0698028C4
S3150800024007D0DFF8CC204FF48C71DFF8C80001F036
S3150800025055F894F83D00002805D1002084F83C00A4
S31508000260200001F0EDF8022084F83D00211D2068E9
S3150800027000F05AFD012084F83D00002010BD10B59D
S3150800028004002168DFF8740081421FD02068B0F1AD
S31508000290804F1BD02168DFF86800814216D021689C
S315080002A0DFF86000814211D02168DFF85C008142E6
S315080002B00CD02168DFF85400814207D0DFF85820B7
S315080002C04FF4DE71DFF84C0001F018F82068C168B9
S315080002D051F001012068C16020688068DFF83C1091
S315080002E00140062908D0B1F5803F05D0206802688C
S315080002F052F0010220680260002010BD002C014067
S315080003000010004000140040004001400044014035
S3150800031000C8000814C8000854C4000807000100F3
S3150800032010B50400002C01D1012071E02168DFF826
S31508000330E40081421FD02068B0F1804F1BD02168AD
S31508000340DFF8E000814216D02168DFF8DC00814240
S3150800035011D02168DFF8C00081420CD02168DFF88F
S31508000360BC00814207D0DFF8C42040F2A241DFF882
S31508000370B00000F0C3FFA068002813D0A0681028BA
S3150800038010D0A06820280DD0A06840280AD0A06800
S31508000390602807D0DFF8942040F2A341DFF88000F8
S315080003A000F0ACFF206900280FD02069B0F5807FE7
S315080003B00BD02069B0F5007F07D0DFF8702040F237
S315080003C0A441DFF85C0000F099FFA06900280AD074
S315080003D0A069802807D0DFF8542040F2A541DFF84D
S315080003E0400000F08BFF94F83D00002805D100205E
S315080003F084F83C00200001F037F8022084F83D001C
S31508000400211D206800F090FC012084F83D000020A2
S3150800041010BD0000002C014000400140004401408E
S3150800042014C80008001000400014004028C800083E
S3150800043010B504002068006980071AD52068C068CE
S31508000440800716D57FF00201206801610120207718
S315080004502068806910F0030F03D0200001F062FCC9
S3150800046005E0200001F015F8200001F05CFC0020F2
S3150800047020772068006940071AD52068C0684007B9
S3150800048016D57FF0040120680161022020772068D4
S31508000490806910F4407F03D0200001F043FC05E09A
S315080004A0200000F0F6FF200001F03DFC0020207738
S315080004B02068006900071AD52068C068000716D5A5
S315080004C07FF0080021680861042020772068C06949
S315080004D010F0030F03D0200001F024FC05E02000F3
S315080004E000F0D7FF200001F01EFC002020772068CE
S315080004F00069C0061AD52068C068C00616D57FF000
S31508000500100021680861082020772068C06910F467
S31508000510407F03D0200001F005FC05E0200000F034
S31508000520B8FF200001F0FFFB002020772068006953
S31508000530C0070AD52068C068C00706D57FF0010144
S3150800054020680161200000F095FF20680069000618
S315080005500AD52068C068000606D57FF080012068A5
S315080005600161200001F0E0FB20680069C0050AD59A
S315080005702068C068000606D57FF48071206801618E
S31508000580200001F0D2FB2068006940060AD52068E1
S31508000590C068400606D57FF040012068016120004A
S315080005A001F0C4FB2068006980060AD52068C06887
S315080005B0800606D57FF0200120680161200001F041
S315080005C0B6FB10BD70B506000D001400002C13D044
S315080005D0042C11D0082C0FD00C2C0DD0102C0BD0BD
S315080005E0142C09D03C2C07D0DFF8C42240F61C6135
S315080005F0DFF8B80200F082FE286860281ED0286856
S3150800060070281BD02968DFF8AC02814216D0296809
S31508000610DFF8A402814211D02868DFF8A0128842C8
S315080006200CD02868DFF89812884207D0DFF88022B5
S3150800063040F61D61DFF8740200F060FEA868002825
S315080006400AD0A868022807D0DFF8642240F61E619F
S31508000650DFF8580200F052FE286900280AD02869F7
S31508000660042807D0DFF8482240F61F61DFF83C026D
S3150800067000F044FE96F83C00012801D1022012E160
S31508000680012086F83C00022086F83D00200000285C
S315080006900DD004283CD0082868D00C2800F08D809E
S315080006A0102800F0B280142800F0D280F4E03168F7
S315080006B0DFF81002814214D03068B0F1804F10D0B4
S315080006C03168DFF8040281420BD0316876488142EE
S315080006D007D0DFF8DC2140F62B61DFF8D00100F007
S315080006E00DFE2900306800F055FB3068816951F02D
S315080006F00801306881613068816931F00401306829
S315080007008161306881692869014330688161C3E085
S315080007103168DFF8B001814210D03068B0F1804FFF
S315080007200CD03168DFF8A001814207D0DFF88021BC
S3150800073040F63C61DFF8740100F0E0FD29003068FE
S3150800074000F098FB3068816951F400613068816176
S315080007503068816931F48061306881613068806908
S31508000760296950EA01203168886195E03168DFF827
S31508000770540181420AD03068B0F1804F06D0DFF8C4
S31508000780302140F64D61494800F0B8FD290030682F
S3150800079000F0E6FB3068C16951F008013068C161B4
S315080007A03068C16931F004013068C1613068C169D7
S315080007B0286901433068C1616EE03168DFF80401D9
S315080007C081420AD03068B0F1804F06D0DFF8E020C9
S315080007D040F65E61354800F091FD2900306800F06A
S315080007E02EFC3068C16951F400613068C161306817
S315080007F0C16931F480613068C1613068C0692969AE
S3150800080050EA01203168C86146E03168DFF8B40073
S31508000810814206D0DFF8982040F66F61234800F041
S315080008206DFD2900306800F04BFC3068416D51F0D1
S315080008300801306841653068416D31F0040130685F
S3150800084041653068416D286901433068416523E098
S315080008503068DFF87010884206D0DFF854204FF46D
S315080008606861124800F04AFD2900306800F052FC21
S315080008703068416D51F40061306841653068416DFA
S3150800088031F48061306841653068406D296950EA05
S31508000890012031684865FFE7012086F83D00002001
S315080008A086F83C00002070BD0044014014C80008CA
S315080008B034C2000840000100500001006000010039
S315080008C070000100002C01400040014070B5040092
S315080008D00D0094F83C00012801D102201DE20120F8
S315080008E084F83C00022084F83D002868B0F5805F53
S315080008F023D02868B0F5005F1FD0286800281CD0D0
S315080009002868102819D02868202816D02868302882
S3150800091013D02868402810D0286850280DD0286899
S3150800092060280AD02868702807D0DFF8202641F208
S315080009300D21DFF8F00300F0E1FC20688668DFF897
S315080009401006064036F47F46206886602868002828
S3150800095000F0C181102800F0BE81202800F0BB817C
S31508000960302800F0B881402800F07281502800F045
S31508000970E980602800F0298170282DD0B0F5805FC5
S3150800098004D0B0F5005F00F08580BFE12168DFF88C
S31508000990C40581421FD02068B0F1804F1BD0216862
S315080009A0DFF87803814216D02068DFF8741388428E
S315080009B011D02168DFF8A00581420CD02168DFF844
S315080009C09C05814207D0DFF8842541F21921DFF81A
S315080009D0540300F093FC99E12168DFF87805814219
S315080009E010D02068B0F1804F0CD02168DFF8680578
S315080009F0814207D0DFF854254FF49151DFF82403DC
S31508000A0000F07CFCA868002813D0A868B0F5805FC1
S31508000A100FD0A868B0F5005F0BD0A868B0F5405FA6
S31508000A2007D0DFF8282541F22321DFF8F80200F085
S31508000A3065FC6868B0F5004F13D06868002810D0C8
S31508000A40686800280DD0686802280AD068680A28ED
S31508000A5007D0DFF8F82441F22421DFF8C80200F0B5
S31508000A604DFCE868102807D3DFF8E02441F2252179
S31508000A70DFF8B00200F042FCEB686A68A9682068F3
S31508000A8000F0A1FB2068806850F077000600206817
S31508000A9086603BE12168DFF8BC0481420BD0206800
S31508000AA0B0F1804F07D0DFF8A42441F23821DFF8EF
S31508000AB0740200F023FCA868002813D0A868B0F5D3
S31508000AC0805F0FD0A868B0F5005F0BD0A868B0F5B6
S31508000AD0405F07D0DFF8742441F23B21DFF8440277
S31508000AE000F00CFC6868B0F5004F13D06868002861
S31508000AF010D0686800280DD0686802280AD068688F
S31508000B000A2807D0DFF8442441F23C21DFF8140212
S31508000B1000F0F4FBE868102807D3DFF8302441F228
S31508000B203D21DFF8000200F0E9FBEB686A68A96876
S31508000B30206800F048FB2068816851F480412068ED
S31508000B408160E3E02168DFF80C04814210D0206858
S31508000B50B0F1804F0CD02168DFF8FC03814207D042
S31508000B60DFF8E82341F24C21DFF8B80100F0C6FBB4
S31508000B706868B0F5004F13D06868002810D0686818
S31508000B8000280DD0686802280AD068680A2807D0A5
S31508000B90DFF8B82341F24F21DFF8880100F0AEFBF9
S31508000BA0E868102807D3DFF8A42341F25021DFF8BC
S31508000BB0740100F0A3FBEA686968206800F0D6FAB9
S31508000BC05021206800F0F7FAA0E02168DFF88403D6
S31508000BD0814210D02068B0F1804F0CD02168DFF830
S31508000BE07803814207D0DFF8642341F25C21DFF8FD
S31508000BF0340100F083FB6868B0F5004F13D06868CD
S31508000C00002810D0686800280DD0686802280AD025
S31508000C1068680A2807D0DFF8342341F25F21DFF835
S31508000C20040100F06BFBE868102807D3DFF81C23E3
S31508000C304FF49351DFF8EC0000F060FBEA6869684E
S31508000C40206800F0A5FA6021206800F0B4FA5DE09B
S31508000C502168DFF80003814210D02068B0F1804F88
S31508000C600CD02168DFF8F002814207D0DFF8DC22D9
S31508000C7041F26C21DFF8AC0000F040FB6868B0F583
S31508000C80004F13D06868002810D0686800280DD077
S31508000C90686802280AD068680A2807D0DFF8AC22F4
S31508000CA041F26F21DFF87C0000F028FBE868102885
S31508000CB007D3DFF8982241F27021DFF8680000F0C8
S31508000CC01DFBEA686968206800F050FA4021206830
S31508000CD000F071FA1AE02168DFF87802814210D034
S31508000CE02068B0F1804F0CD02168DFF86C02814291
S31508000CF007D0DFF8582241F27F21DFF8280000F0FC
S31508000D00FDFA2968206800F056FAFFE7012084F802
S31508000D103D00002084F83C00002070BD0010004013
S31508000D200014004014C8000810B40468894B98429F
S31508000D3002D0B0F1804F04D134F0700422004C6820
S31508000D401443984209D0B0F1804F06D0824A9042A7
S31508000D5003D0DFF88824904204D134F4407422008A
S31508000D60CC68144334F080044A69144304608A68E2
S31508000D70C2620A688262984206D0774A904203D0D5
S31508000D80DFF85824904201D10A69026301224261C0
S31508000D9010BC70472DE9F84304000D00206A40088E
S31508000DA040002062276A6668D4F81880DFF83004A5
S31508000DB010EA08085FEA98085FEA8808286850EA8F
S31508000DC0080837F00207A8680743DFF888914C45FA
S31508000DD005D06148844202D06048844213D1E8684D
S31508000DE000280AD0E868082807D0DFF8F82341F277
S31508000DF08E71DFF8F40300F081FA37F00807E86827
S31508000E00074337F004074C4505D05348844202D0BF
S31508000E105248844226D1A869B0F5007F0AD0A8694D
S31508000E20002807D0DFF8BC2341F29B71DFF8B8032E
S31508000E3000F064FA6869B0F5807F0AD0686900280E
S31508000E4007D0DFF8A02341F29C71DFF89C0300F07D
S31508000E5055FA36F4807636F400766869064330002B
S31508000E60AE6906436660C4F81880686860632762DE
S31508000E70BDE8F1832DE9F84304000D00206A30F03F
S31508000E8010002062266A6768D4F81880DFF85C03C9
S31508000E9010EA080838F44078286858EA002836F036
S31508000EA02006A86856EA0016DFF8A8904C4514D123
S31508000EB0E86800280AD0E868082807D0DFF8302351
S31508000EC041F2D971DFF8200300F018FA36F08006EF
S31508000ED0E86856EA001636F040064C4505D01E4826
S31508000EE0844202D01D48844227D1A869B0F5007F04
S31508000EF00AD0A869002807D0DFF8F42241F2E77182
S31508000F00DFF8E40200F0FAF96869B0F5807F0AD0E4
S31508000F106869002807D0DFF8D82241F2E871DFF8BF
S31508000F20C80200F0EBF937F4806737F400676869A0
S31508000F3057EA8007A86957EA80076760C4F81880E7
S31508000F406868A0632662BDE8F183000050C2000805
S31508000F5088FFFEFF002C014000400140004401408C
S31508000F602DE9F84304000D00206A30F480702062F1
S31508000F70266A6768D4F81C80DFF8640210EA080855
S31508000F805FEA98085FEA8808286850EA080836F48D
S31508000F900076A86856EA0026DFF858924C4514D120
S31508000FA0E86800280AD0E868082807D0DFF8482249
S31508000FB041F62401DFF8300200F0A0F936F40066A5
S31508000FC0E86856EA002636F480664C4507D0DFF80E
S31508000FD02C02844203D0DFF80402844227D1A86990
S31508000FE0B0F5007F0AD0A869002807D0DFF80822E4
S31508000FF041F63101DFF8F00100F080F96869B0F5D3
S31508001000807F0AD06869002807D0DFF8EC2141F60E
S315080010103201DFF8D40100F071F937F4805737F45C
S315080010200057686957EA0017A86957EA0017676002
S31508001030C4F81C806868E0632662BDE8F1832DE980
S31508001040F04104000D00206A30F480502062D4F884
S3150800105020806668E769DFF89401074037F440772F
S31508001060286857EA002738F40058A86858EA00386C
S31508001070DFF88001844207D0DFF88001844203D07C
S31508001080DFF85801844213D16869B0F5807F0AD029
S315080010906869002807D0DFF8682141F67001DFF893
S315080010A0480100F02BF936F48046686956EA80163E
S315080010B06660E76168682064C4F82080BDE8F0814E
S315080010C030B4026A32F480320262056A4368446DBB
S315080010D0DFF80C2114400A68144335F400358A6891
S315080010E055EA0245DFF80C21904207D0DFF80C21BB
S315080010F0904203D0DFF8E420904204D133F48033E1
S315080011004A6953EA0223436044654A688265056270
S3150800111030BC704730B4026A32F480120262056A43
S315080011204368446DDFF8C42014400A6854EA022470
S3150800113035F400158A6855EA0255DFF8B82090425A
S3150800114007D0DFF8B820904203D0DFF8902090420D
S3150800115004D133F480234A6953EA82234360446501
S315080011604A68C265056230BC7047000010B4036A5D
S31508001170046A640864000462846934F0F00454EA7A
S31508001180021433F00A030B438461036210BC7047F0
S3150800119010B4036A33F0100303628469036A34F4F3
S315080011A0704454EA023433F0A00353EA011384610D
S315080011B0036210BC7047826832F070020A4352F02C
S315080011C007028260704710B4846834F47F440C4385
S315080011D0144354EA0324846010BC70470044014059
S315080011E08FFFFEFF3CC8000814C80008FF8FFFFEEB
S315080011F050C80008002C014064C80008004001409F
S3150800120078C8000880B500F05DFE01F0A8F800284F
S3150800121004D13E4A23213E4800F070F801F081F9D6
S3150800122001F09CF93B490860002804D1374A2B2174
S31508001230374800F063F800F04DF800F081FA00280E
S3150800124004D1324A2E21324800F058F800F098FDB1
S3150800125001F0D1FB2D4A37212D4800F04FF801BD8A
S3150800126080B502F051F802F04EF92B48007A0528AD
S3150800127005D101F041FF012801D002F01CFA01BD99
S3150800128010B5264C2078002809D101F06FFC00F033
S3150800129020F802F0D3FA00F01CF801202070012192
S315080012A0002002F0B9FC00F06BFD10BD38B5050052
S315080012B00C001B4A8E21164800F020F831BD80B577
S315080012C0184A9421124800F019F801BD02000120BD
S315080012D07047704710B50F4C2068002804D1124A91
S315080012E0BE210B4800F00AF80121206801F0FAF93E
S315080012F010BD0E490868401C0860704710B40C4CB5
S3150800130023685B1C236010BC704700007CCB000878
S3150800131084CB0008E00B002068FD0020580C002054
S3150800132094BF0008B4BF0008D4BF0008E40B00202F
S31508001330E80B002038B504000025002C28D0210031
S31508001340B1F1804F18D05648814215D05548814290
S3150800135012D05548814205D05448814202D054489B
S31508001360814213D103F08FFA05005248006810F441
S31508001370605F00D06D000BE003F078FA05004D4879
S31508001380006810F4E06F00D06D0001E00020050051
S31508001390280032BDF8B505000E0014000027002D00
S315080013A009D0002E07D0002C06D0B4F5807F03D0D4
S315080013B0B4F5007F00D040E02868B0F1804F3CD0FB
S315080013C02868FFF7B7FF002837D0002C01D1012184
S315080013D00AE0B4F5807F01D1022105E0B4F5007F6B
S315080013E001D1042100E00021B0FBF1F1324AB2FB41
S315080013F0F6F2B1FBF2F25FF0010CB2FBFCF10B0066
S31508001400B3F5803F02D201210F000BE0BCF5004F77
S3150800141002D25FEA4C0CF0E74FF6FF718C4501D01B
S315080014208C46EAE73900C9B2002906D02C61614624
S31508001430491E89B269609BB2EB603800C0B2F2BD42
S3150800144010B504001D48844202D100F0F6F90AE0FE
S315080014501B48844202D100F05EF904E01948844230
S3150800146001D100F043F910BD10B504002000FFF7C4
S31508001470E7FF10BD10B504001148844202D100F000
S3150800148045F805E00F48844202D100F039F8FFE735
S3150800149010BD704780B50B48FEF7CAFF01BD0000B6
S315080014A00010004000140040002C0140004001409C
S315080014B0004401400810024040420F0098090020ED
S315080014C0D8090020180A0020DFF8C007704710B5B1
S315080014D00400DFF8BC0741688C4202D103F07BFBAD
S315080014E00DE0416D8C4203D1503003F074FB06E0E9
S315080014F0DFF8A0273E21DFF8A007FFF7FFFE10BDA3
S3150800150080B5DFF88C0703F020FB01BD38B5FFF77F
S31508001510DBFF0400012084F80304002003F0AEFD7D
S31508001520DFF878572868002806D1DFF874274F2196
S31508001530DFF86407FFF7E2FE00234FF480622968AC
S31508001540DFF8600702F030FB002003F097FDDFF8B4
S31508001550580703F0FAFA31BD2DE9F84F2DED028B45
S31508001560DFF82C5715F15007DFF840077860DFF8E9
S315080015704017B960DFF83C17BA6811602E00DFF82B
S3150800158038B7C6F804B0DFF83417B160DFF830278B
S31508001590B1680A60696D0C1D5FF4E13121600021B4
S315080015A061600021A1600021E1600C212161002118
S315080015B061614FF40041A1610021E161696D11F19A
S315080015C024090021C9F8001080460021C8F87410C3
S315080015D00021C8F87810002188F87010DFF8E416A2
S315080015E0C8F8001003F093FD002806D0DFF8D826C7
S315080015F07A21DFF8A406FFF781FE6868001D21003E
S31508001600202204F019FB6868071D4FF46140386012
S31508001610686810F124080020C8F80000DA4600209F
S31508001620CAF874000020CAF8780000208AF870000A
S31508001630DFF89806CAF80000584603F068FD002847
S3150800164006D0DFF884268421DFF84C06FFF756FE1D
S315080016505FF00009B9F1020F44D2502000FB09F1EE
S315080016602944D1F808A00021CAF8081000FB09F09F
S315080016702844406804F042FA0400002C06D1DFF83A
S3150800168048268F21DFF81006FFF738FE00EE104ACD
S31508001690B8EE400ADFEDAB0A80EE800ABCEEC08ADF
S315080016A04FF4007218EE101A5046FFF773FE002822
S315080016B006D1DFF814269121DFF8DC05FFF71EFEB8
S315080016C000208AF83D005046FEF760FD002806D047
S315080016D0DFF8F4259321DFF8C005FFF70FFE19F1AF
S315080016E00109B7E7BDEC028BBDE8F18F80B5DFF8DD
S315080016F0E015086850F020000860086810F020001F
S315080017000090009800220D21372001F0AAFE37200C
S3150800171001F0CEFE01BD80B5DFF8B415086850F0BB
S3150800172010000860086810F0100000900098002269
S315080017300D21362001F095FE362001F0B9FE01BDD7
S315080017402DE9FF4101F0D8FC012806D0DFF88425F1
S31508001750C621DFF84405FFF7D1FD002404F0BEFAE0
S3150800176000283BD002A801900320009000234FF4E4
S315080017708072DFF864150FF2113001F03DF8012888
S315080017802CD10298002829D00298FFF7A2FDDFF88D
S315080017904C5500220C21062004F078FB2860002214
S315080017A00C21062004F072FBDFF83415086028685F
S315080017B0002813D0A0250026DFF8D474B8463200D6
S315080017C02900404604F078FEDFF818053860DFF88F
S315080017D018053865FFF7C0FE012004002000C0B2D6
S315080017E004B0BDE8F08138B586B0040014210022A3
S315080017F001AD280004F060FE2168DFF8F00481429C
S3150800180019D1DFF8EC14086850F00200086008687F
S3150800181010F002000090009801200190022002902A
S3150800182000200390002004900120059001A9DFF80C
S31508001830C40404F081FE07B030BD81B0DFF8B814E7
S31508001840086850F400600860086810F400600090AA
S31508001850009801B0704718B599B01021002215AC50
S31508001860200004F029FE0C2100226C46200004F01A
S3150800187023FE1C2100220EAC200004F01DFE2C21A4
S31508001880002203AC200004F017FEDFF87044DFF8EE
S315080018905C042060012060600020A0603F20E060BA
S315080018A000202061002060610020A0612000FEF772
S315080018B06DFC4FF48050159015A92000FFF706F827
S315080018C02000FEF72DFD002000900020019000204A
S315080018D002906946200005F09BF860200E902020B3
S315080018E00F900020109000201190002012900020E8
S315080018F013900020149004220EA92000FEF762FE21
S3150800190000200390002004900020059000200690F7
S31508001910002007904FF400500890002009900020FE
S315080019200A905FF000700B9000200C9000200D903C
S3150800193003A9200005F036F92000FFF754FF1AB076
S3150800194010BD0000001BB74A18B585B040F6FF0465
S315080019500094002001900020029069465FF09040B4
S3150800196004F0EAFD002221005FF0904004F0A0FF99
S315080019704FF480700090DFF88803019000200290F1
S3150800198069465FF0904004F0D7FD00220021172039
S3150800199001F067FD172001F08BFD4FF2260000903D
S315080019A0012001900020029000200390DFF84443B4
S315080019B06946200004F0C0FD002247F226012000F7
S315080019C004F076FF01224FF40041200004F070FF76
S315080019D08020009000200190002002906946200097
S315080019E004F0AAFDFFF737FF0421C44804F0C6FF38
S315080019F005F06EFA06B010BD38B50400FFF764FDB1
S31508001A0005000020BF490968486295F803040028C4
S31508001A101AD1B5F8001440F2FF30814214D20220E0
S31508001A2003F02CFBB5F800042C54200080B2000A01
S31508001A30B5F8001429444870B5F80004801CA5F8C8
S31508001A400004022003F01AFB31BD1FB50C21002249
S31508001A506C46200004F030FDAA4C99482060052009
S31508001A6060600020A060A848E0600020A061200017
S31508001A70FEF78CFB002000900020029069462000AB
S31508001A8004F0C6FF1FBD00002DE9F14F86B0934C48
S31508001A902068002805D19D4A40F2DD117E48FFF7EF
S31508001AA02DFC7B4D8E480068E8622068E8670520B3
S31508001AB085F830001F2085F88000012085F8910000
S31508001AC095F8910085F8410000229149686803F06D
S31508001AD067FC002805D08D4A4FF4F5716E48FFF76C
S31508001AE00DFC00228B49686D03F05AFC002805D0CE
S31508001AF0864A40F2EB116848FFF700FC864800F07A
S31508001B0031FCFFF721FFFFF7A0FF7E48FEF7B7FB82
S31508001B10012003F0B3FA614E3068002805D17B4AEC
S31508001B2040F226215C48FFF7E9FB5FF0FF300090A2
S31508001B30002301224FF48061306800F01DFD060085
S31508001B40FFF7C2FC0700012003F098FA7005DFD5FD
S31508001B50B7F80004002866D07878ADF80600BDF816
S31508001B600600801CADF80400BDF804B01BF1010B9B
S31508001B705946380005F0F6F980464046C0B20028B6
S31508001B8051D102235A4692B23900686D03F031FBEF
S31508001B90012003F073FA012003F070FA5FF0FF30BA
S31508001BA00090002301220221686DD0F88C0000F015
S31508001BB0E3FC0021206804F01FF9642202A92068CA
S31508001BC004F0C7FA012805D0504A4FF41771324875
S31508001BD0FFF794FB012003F051FA012003F04EFAB7
S31508001BE09DF81000102818D1DFF83091DFF830A1E1
S31508001BF0039B484A4FF48061504603F0F7F989F889
S31508001C00000099F80000012806D10023BDF80E202F
S31508001C105146686803F0EDFA05E03C4A40F289212E
S31508001C201D48FFF76BFB0021B1F5806F03DA002032
S31508001C307854491CF8E70020A7F80004002087F824
S31508001C40030465E710B5172001F04AFC2024B4F513
S31508001C50007F05D2200080B204F052FE6400F6E749
S31508001C6010BD38B50400200080B2B0F5807F06D1DB
S31508001C7005F02EF90500280080B2FFF7BDFE31BD3C
S31508001C8080B50E48FEF7D4FB01BD0000B000002069
S31508001C90B8510020ACC3000834C00008E00B00208F
S31508001CA0E0C10008C527000808520020605000203F
S31508001CB0180A0020001400400C510020D809002002
S31508001CC00010004000380140FCC1000800480040F0
S31508001CD058100240D8C90008BCCB0008F80B0020F1
S31508001CE0F40B0020C4CB000820CB0008002C0140D0
S31508001CF04C10024000040048601002409809002079
S31508001D0000002110980A002000B4C404E8C900089D
S31508001D108C000020800000202CCB00085B0C0020E3
S31508001D20B404002070477047704770477047704783
S31508001D30BFF34F8FDFF86824116811F4E061DFF80C
S31508001D40640401431160BFF34F8F00BFFDE780B500
S31508001D50DFF85404DFF8541401600221416040F6AC
S31508001D60FF7181608168C16005F008F9002806D016
S31508001D70DFF83C244321DFF83C04FFF7BFFA01BD36
S31508001D8080B5DFF8240405F065F9002806D0DFF8E9
S31508001D9028244E21DFF81C04FFF7B0FA01BD38B538
S31508001DA004002168DFF814040140B1F1005F06D091
S31508001DB0DFF80C245821DFF8FC03FFF79FFA2068A8
S31508001DC080F30888DFF8FC030460201D0568A8472F
S31508001DD0FEE738B5DFF8F05301202872DFF8EC0388
S31508001DE001680905090D40F23540814206D0DFF841
S31508001DF0E0236C21DFF8BC03FFF780FADFF8D40391
S31508001E00008880B20B2806D0DFF8C4236E21DFF8DD
S31508001E10A403FFF773FADFF8C0030068C00031D5E2
S31508001E202968DFF8B80381421DD16946DFF8B00397
S31508001E3002680A600024002C0DD1684650F8241068
S31508001E402869814205D1DFF89C0328602869FFF7D5
S31508001E50A6FF641CEFE7DFF878238821DFF8540330
S31508001E60FFF74CFA0EE02968DFF87C03814209D1B6
S31508001E7028686860DFF86C032860E868401CE8603A
S31508001E8028698047FFF763FF05F010F90121DFF89D
S31508001E905C03016005F096F9002806D0DFF83023C8
S31508001EA0AC21DFF81003FFF729FA00F0DDF900F09E
S31508001EB04AFADFF83C0300F055FAFFF761FF022003
S31508001EC0287231BDF0B5A9B0DFF8FC4203202072B4
S31508001ED005F0ECF805F076F9002806D0DFF81423AB
S31508001EE0E221DFF8D002FFF709FA2168DFF80803D4
S31508001EF0814217D0DFF80403814213D0DFF8E402E9
S31508001F0081420FD0DFF8D402814203D0DFF8D8022D
S31508001F10814210D1DFF8DC22EA21DFF89802FFF7C8
S31508001F20EDF90FE020686060DFF8D4022060E06811
S31508001F30401CE06006E0002020750020E0600020DC
S31508001F40A4F89402DFF890020168490101D568A156
S31508001F5000E0002108910168C90002D5DFF8A41243
S31508001F6000E0002108AD69600168890002D5DFF844
S31508001F70981200E00021A9600168490002D5DFF83F
S31508001F808C1200E00021E9600168002902D5DFF81B
S31508001F90801200E000210C910168090102D5DFF8E2
S31508001FA0741200E0002169610168C90102D5DFF8F1
S31508001FB0681200E000210E910168890102D5DFF858
S31508001FC05C1200E000210F9100216172016800296E
S31508001FD002D40168090102D50121617228E001686D
S31508001FE0890002D40168490002D5022161721FE006
S31508001FF00168C90017D56268DFF8FC118A4206D065
S315080020007E498A4206D077498A4206D008E00621E8
S3150800201061720DE0072161720AE00521617207E02D
S315080020200421617204E00168490101D50321617246
S31508002030016851F40001016000260027082F10D21C
S3150800204055F8270000280AD055F82730744AD6F1E3
S31508002050640110A8304405F0C7F8801906007F1CF3
S31508002060ECE7704D704807907048069070480590E8
S31508002070704804907048039070480290E068019098
S3150800208014F11400009010AB6D4A4FF4C07114F5AA
S315080020908A7005F0A9F8070000202075607A0128E3
S315080020A00FD12868019068680090AB68654AD7F533
S315080020B0C07104EB070010F58A7005F095F8C01991
S315080020C00700FFF75DFE042020720520207229B064
S315080020D0F0BD80B572B606213B480172FFF709F9D3
S315080020E0FFF726FE01BD80B5574805F00AF902BD7F
S315080020F050696E002DE9FF4704002500534E324F04
S315080021003E483860D5F818A0D5F81480FFF7EBFFDD
S31508002110814600F01FFD0300CDF80CA0CDF808801D
S315080021204B4800680190CDF800904A4A4FF48071F8
S3150800213017F1140005F058F8FFF7CBFFBDE8FF8745
S31508002140000000001EF0040F0CBFEFF30880EFF349
S315080021500980CFE7FEE780B53F493D480160FFF7B4
S31508002160F1FF01BD80B53D4939480160FFF7EAFF37
S3150800217001BD80B509A136480160FFF7E3FF01BD3F
S3150800218080B5374932480160FFF7DCFF01BD80B5ED
S3150800219034492F480160FFF7D5FF01BD427573002A
S315080021A00CED00E00400FA05185400200030004049
S315080021B088C9000898C90008A8C900080000FE2FA9
S315080021C0ACC6000808ED00E068FD0020002004E029
S315080021D0C0C600080075FF1F9410024001896745B4
S315080021E008CC00089078563412907856A80000203B
S315080021F0E4CA0008D4C6000878563412896745230D
S3150800220067452301F0CA00087CC30008B8C900085E
S31508002210FCCA0008C8C9000808CB0008E8C60008B8
S315080022209CCB00089075FF1F74CB0008B4CA000841
S31508002230A8CA00084CC30008FCCB0008C0CA00089E
S3150800224000BC000814C00008C40B002000ED00E024
S31508002250F00B0020E0BE0008A4CB000814CB000851
S31508002260ACCB0008B4CB000818B597B014210022EF
S3150800227001A804F021F94421002206A804F01CF95B
S315080022804549086850F080500860086810F080508A
S3150800229000900098414A0120116860F34A211160B4
S315080022A0106810F4C0600090009806A802F0FCFAC6
S315080022B01098012804D03A4A1E213A48FFF71EF81A
S315080022C0012006905FF480300790022010900320CA
S315080022D011900220129010201390072014900220CB
S315080022E015900220169006A801F0DAFC002804D002
S315080022F02B4A33212B48FFF701F80F2001900320C2
S315080023000290002003904FF4806004900590032407
S31508002310210001A802F0FEF8002804D0204A3C213A
S315080023202048FEF7EBFF18B010BD1F49086850F0AB
S315080023308070086000211D4801601D49086850F03A
S3150800234001000860704780B517480068C00103D5CA
S3150800235017480068C00701D4FFF7E7FF01BD134817
S315080023600068704770B50400124D2868082811D215
S3150800237011482968090100EB0106FFF7F0FF3060F4
S31508002380002C04D00C222100301D04F0C9FF286857
S31508002390401C286070BD00005810024000700040C4
S315080023A0D0C5000838C90008FCED00E0041000E0BC
S315080023B0001000E0CC0B0020B408002038B586B029
S315080023C00500280040B204F0E3FF002840F0A7808B
S315080023D059482A0052B2142112FB01F100EB0104FC
S315080023E02068B0F1904F18D021685448814214D023
S315080023F021685348814210D02168524881420CD046
S3150800240021685148814208D021685048814204D049
S315080024104F4A11214F48FEF771FFA06810F1010FCE
S315080024207DD02168B1F1904F0FD04448814217D032
S31508002430434881421FD04348814227D042488142BF
S315080024402FD04248814237D041E04349086850F0CE
S3150800245001000860086810F00100009000983BE051
S315080024603D49086850F002000860086810F002004C
S315080024700090009830E03849086850F00400086079
S31508002480086810F004000090009825E032490868B2
S3150800249050F008000860086810F0080000900098DE
S315080024A01AE02D49086850F010000860086810F016
S315080024B01000009000980FE02749086850F0800047
S315080024C00860086810F080000090009804E0204A30
S315080024D015212048FEF712FFE06810F04040B0F1E1
S315080024E0004F03D0B0F1404F06D00AE00021280083
S315080024F040B204F077FF04E00121280040B204F05E
S3150800250071FFA0880190E06820F0404003902069A0
S315080025100490A068029001A9206804F00DF807B09D
S3150800252030BD10B50024032C05D2200040B2FFF7B9
S3150800253045FF641CF7E710BDB8BD00080004004855
S3150800254000080048000C004800100048001C00481D
S31508002550BCC5000828C900084C10024010B5182050
S3150800256004F06EFF0400002C04D000202060201D1B
S3150800257005F0ACF8200010BD2DE9F14F84B00E002F
S3150800258014001F000E9D049800905FF0000A5FF08B
S3150800259000080498002805D1874A4FF4A07184489A
S315080025A0FEF7ACFE16F07F4F05D0834A40F2411184
S315080025B07F48FEF7A3FE002E05D17F4A4FF4A1718E
S315080025C07B48FEF79BFE00F097FD002807D1002DFB
S315080025D005D0794A40F245117548FEF78FFE00F09E
S315080025E043FA0098D0F800B03A003100584600F097
S315080025F0F1F80290029800280AD0D9460020050072
S31508002600002C1CD000980168B1430098016016E0C0
S31508002610002D03D1D9460120804610E0002C01D0B8
S315080026205AF0807A002F01D05AF0806A2A005AEAB6
S3150800263006010098001D00F0A3FB5FF0000900F0FA
S3150800264019FA0190002D2AD00198002807D15FF0C9
S31508002650805158480160BFF34F8FBFF36F8F00F06A
S31508002660BFFD83465FEA8B1016D400F0F5FF00988D
S31508002670006883463A003100584600F0ABF8002857
S3150800268006D0002C04D000980168B1430098016078
S315080026900120804600F0FAFFD94629F07F494846CE
S315080026A005B0BDE8F08FF8B504000D002600002C33
S315080026B005D1424A4FF4EA713D48FEF71FFE15F070
S315080026C07F4F05D03D4A40F2D5113948FEF716FE30
S315080026D000F0C2FF37683068A843306000F0D6FFC4
S315080026E03800F2BD2DE9FE4F05008B465FF0000865
S315080026F0A9460024002D05D1314A40F212212C4862
S31508002700FEF7FCFD1BF07F4F05D02D4A40F2132142
S315080027102748FEF7F3FD19F10400009000980830E9
S31508002720029000F0A1F90098D0F80CA0D9F80000A2
S315080027305BEA0000C9F80000029882452CD0DAF856
S3150800274004000190DAF8000000210C0010F07F4127
S315080027500F0020F07F400600780106D4D9F8000063
S31508002760064209D00120040006E0D9F800003040EE
S31508002770B04201D101200400002C0AD0F80101D58D
S3150800278056EA0808D9F8001051F00071504600F0D2
S3150800279089FB01988246CFE7D9F8000030EA08009D
S315080027A0C9F8000000F066F9D9F80000BDE8FE8F08
S315080027B058C9000804ED00E0F8C5000864C300081D
S315080027C00CC6000838B505000C0021002800FFF7E4
S315080027D089FF31BD10B403000020002A04D10B4242
S315080027E008D00124200005E011EA03048C4201D137
S315080027F00124200010BC70472DE9F84384B0060078
S315080028000F0090469946404680B2800004F018FEB4
S315080028100500002D0BD0502004F012FE0400002CF9
S3150800282001D0256304E0280004F0A1FE00E000249E
S31508002830002C12D00020039002940D9801900C9859
S3150800284000904B46424692B23900300000F00AF832
S31508002850200000F083F8012001E05FF0FF3005B0AA
S31508002860BDE8F0832DE9F14F82B00C0093461E00B7
S315080028700C9F0D9DDDF83880002C07D1DFF80C235E
S315080028804FF45871DFF89005FEF738FD5FEA8B00C4
S3150800289000905FF0A50AD8F830905246009948464D
S315080028A003F00AFED8F8300000EB8B00B0F10409FB
S315080028B05FEAD9095FEAC90919F00700002807D0B5
S315080028C0DFF8C8224FF45D71DFF84C05FEF716FDF8
S315080028D05FF0000ABAF10A0F0CD214F80A1008EBD6
S315080028E00A0080F8341014F80A00002802D01AF1F9
S315080028F0010AEFE7002088F83D00052F01D30420E0
S315080029000700C8F82C70C8F840700020C8F84400C2
S3150800291018F1040004F0E9FE18F1180004F0E5FEC9
S31508002920C8F81080D7F10500C8F81800C8F8248040
S315080029300020C8F84800002088F84C00002088F8D5
S315080029404D0032000299484600F0FEFDC8F8000026
S31508002950002D01D0C5F80080BDE8F78F38B5040012
S3150800296000F07AFEDFF830130868401C0860DFF8CC
S315080029702C532868002806D12C60086801280DD138
S3150800298000F050FB0AE0DFF818030068002805D1BC
S31508002990E06A2968C96A884200D32C60DFF8041304
S315080029A00868401C0860DFF8003319680122E06AED
S315080029B0824011431960211DDFF8F032E26A1420C3
S315080029C0424303EB020004F093FE00F05FFEDFF8DB
S315080029D0D002006800280DD02868C16AE06A8142E2
S315080029E008D25FF08051DFF85C050160BFF34F8FB6
S315080029F0BFF36F8F31BD1CB5DFF8D00701900020FB
S31508002A00009000234FF48072DFF8C4170FF2ED50E0
S31508002A10FFF7F2FE0400012C02D100F0A9FE040023
S31508002A20012C15D1502080F31188BFF34F8FBFF3C7
S31508002A306F8F5FF0FF31DFF89C070160012198482E
S31508002A4001600021DFF8D403016000F0A6FD0AE06A
S31508002A5014F1010F07D1DFF8802740F60401DFF8EB
S31508002A60B803FEF74BFC13BDDFF868130868401C73
S31508002A7008607047F8B500250026DFF85843206837
S31508002A80002807D1DFF8542740F66801DFF88803E5
S31508002A90FEF734FC00F0E0FD2068401E2060206848
S31508002AA0002853D17C48006800284FD0DFF8481723
S31508002AB00868002824D0C868C068050015F1180001
S31508002AC004F03DFE281D04F03AFE774B19680122F2
S31508002AD0E86A824011431960291D744BEA6A14207A
S31508002AE0424303EB020004F003FEE86A6B490968F7
S31508002AF0C96A8842DAD30120DFF810170860D5E7DB
S31508002B00002D01D000F0E1FADFF8F0763C68002CE1
S31508002B100CD000F03DF8002803D00121DFF8EC06C0
S31508002B200160641E002CF4D100203860DFF8DC0652
S31508002B30006800280AD0012006005FF08050DFF800
S31508002B4004140860BFF34F8FBFF36F8F00F09EFD2C
S31508002B503000F2BDDFF8C4020068704780B500F0A7
S31508002B60BFFD0021DFF8B402006802BD10B5DFF82A
S31508002B705C462068002806D1DFF8842640F6E61170
S31508002B80A548FEF7BBFB206810BD0000FCC4000882
S31508002B902DE9F84300268F48006800286DD19F4824
S31508002BA00468641C0460002C1DD1DFF87C83D8F807
S31508002BB000000068002806D0DFF8482640F66221A3
S31508002BC09548FEF79BFBD8F80090DFF86013086875
S31508002BD0C8F80000C1F80090DFF82C160868401CF9
S31508002BE0086000F072FADFF8EC85D8F80000844235
S31508002BF037D3CD4908680068002804D15FF0FF3054
S31508002C00C8F800002DE00868C068C0680700786842
S31508002C100500AC4202D2C8F8005022E0381D04F084
S31508002C208EFDB86A002803D017F1180004F087FD56
S31508002C301D490A680123F86A83401A430A60391D48
S31508002C401A4BFA6A1420424303EB020004F050FDC3
S31508002C50F86A12490968C96A8842CAD30120060077
S31508002C60C7E70E4800681149C26A142042438858CB
S31508002C70022807D30120060004E0DFF8801508685B
S31508002C80401C0860DFF884050068002801D0012090
S31508002C9006003000BDE8F283140C0020040C002066
S31508002CA0200C0020300C00201C0C002034090020C9
S31508002CB0F8B548480068002804D00121DFF84C051B
S31508002CC0016043E00021DFF844050160DFF8404574
S31508002CD02068056B5FF0A5362868B04208D1686899
S31508002CE0B04205D1A868B04202D1E868B04205D022
S31508002CF0206810F134012068FEF7D8FADFF81405C9
S31508002D000068B0FA80F5D5F11F051426DFF80875B6
S31508002D1006FB05F03858002806D1DFF8002540F6EE
S31508002D2088313D48FEF7EAFA06FB05F607EB06008A
S31508002D30416849684160426810F108018A4202D137
S31508002D404168496841604068C0682060F1BD38B58F
S31508002D5004000D00002C06D1DFF8C42440F69F318C
S31508002D602D48FEF7CBFADFF85C05006810F118016C
S31508002D70200004F0C9FC0121280000F05DFA31BDED
S31508002D8070B504000D001600002C06D1DFF8942457
S31508002D904FF43B612048FEF7B1FA0E480068002858
S31508002DA006D1DFF8802440F6B4311B48FEF7A6FAB0
S31508002DB0DFF8102555F0004011688861106810F199
S31508002DC01801200004F094FC0121300000F034FAC8
S31508002DD070BD00003C0C002070B504000E00150004
S31508002DE0002C06D1DFF8402440F6CA310A48FEF71F
S31508002DF085FADFF8D004006810F11801200004F005
S31508002E0077FC002D02D05FF0FF3006002900300065
S31508002E1000F012FA70BD0000D4CB0008180C002090
S31508002E2038B50500E868C468002C07D1DFF8FC232C
S31508002E3040F6FA31DFF8F803FEF760FA14F11800E5
S31508002E4004F07DFCDFF8EC030068002815D1201D8E
S31508002E5004F075FCDFF8BC3319680122E06A824089
S31508002E6011431960211DDFF8B033E26A142042438A
S31508002E7003EB020004F03CFC05E014F11801DFF84E
S31508002E80780304F035FCDFF888030068C16AE06A55
S31508002E90814205D201200122DFF870130A6000E0A2
S31508002EA0002032BD70B506000D00DFF88803006803
S31508002EB0002807D1DFF8102440F63141DFF8700307
S31508002EC0FEF71CFA55F000403060F468002C07D174
S31508002ED0DFF8F42340F63941DFF85403FEF70EFA1B
S31508002EE0300004F02CFC201D04F029FCDFF8243304
S31508002EF019680122E06A824011431960211DDFF832
S31508002F001833E26A1420424303EB020004F0F0FB94
S31508002F10DFF8FC020068C16AE06A814203D2012137
S31508002F20DFF8E802016070BD080C00200C0C0020D8
S31508002F30DFF8D41209680160DFF890130968416068
S31508002F407047000004ED00E02DE9F04104000D0093
S31508002F50002C07D1DFF8782340F66541DFF8D00268
S31508002F60FEF7CCF9002D07D1DFF8642340F6664159
S31508002F70DFF8BC02FEF7C2F900F06EFBDFF84C037F
S31508002F8006686768F71BDFF88812086890F84D002E
S31508002F90002806D00020096881F84D005FF0010876
S31508002FA022E0286810F1010F02D15FF000081BE04B
S31508002FB0DFF8540201682068814205D060688642BD
S31508002FC002D35FF001080FE02868874208D2286814
S31508002FD0C01B28602000FFF7ABFF5FF0000803E086
S31508002FE0002028605FF0010800F050FB4046BDE86D
S31508002FF0F0810121DFF814020160704710B5040062
S3150800300000F03BF8DFF810020068022807D35FF0EB
S31508003010805138480160BFF34F8FBFF36F8FFEF7BB
S315080030202FF9EDE770B50024052C09D2DFF8E81171
S31508003030142000FB04F0084404F048FB641CF3E782
S31508003040DFF89062300004F041FBDFF88C5228006C
S3150800305004F03CFBDFF8A00104F038FBDFF87C0243
S3150800306004F034FBDFF8780204F030FBDFF8740272
S315080030700660DFF87402056070BD38B5DFF86C527B
S315080030802868002817D000F0E7FADFF85002C06871
S31508003090C0680400201D04F052FBDFF854120868CB
S315080030A0401E08602868401E286000F0EFFA2000DD
S315080030B000F002F8E2E731BD10B50400206B04F019
S315080030C056FA200004F053FA10BDDFF818221068EB
S315080030D00068002804D15FF0FF323E48026006E02F
S315080030E01068C068C06801004A683A4802607047BC
S315080030F00000000004ED00E0DFF8F8010068002891
S3150800310001D1012007E0DFF82C010068002801D171
S31508003110022000E00020704770B504002600002554
S31508003120002C50D0DFF8E8000068864207D0DFF8A8
S31508003130CC2140F67A71DFF8F800FEF7DFF8706CFC
S31508003140002807D1DFF8B42140F67B71DFF8E000EC
S31508003150FEF7D4F8706C401E7064F16A306C8142D8
S3150800316031D0706C00282ED1301D04F0E8FA002802
S315080031700FD1DFF88C21F16A1420414350580028FA
S3150800318007D1DFF8903019680122F06A824091432E
S315080031901960306CF062F06AD0F10500B061DFF8B2
S315080031A0743019680122F06A824011431960311D92
S315080031B0DFF84C31F26A1420424303EB020004F0B4
S315080031C097FA01200500280070BD0000380C002081
S315080031D0DCCB0008340C0020B4C8000888CA0008F4
S315080031E0DFF8E0201068806911681268D26AD2F1A7
S315080031F005028A6170470000480B0020240C002055
S3150800320014C50008C8C800082C0C0020280C00208B
S31508003210040C00201C0C002034090020DCC800081F
S315080032202CC5000814C1000834C10008F8C20008FB
S31508003230D4CB00083C0C00202DE9F04105000C0019
S3150800324022480768DFF87C800021D8F8000080F85B
S315080032504D10D8F80000001D04F071FA002808D1B6
S31508003260D8F8000024490A680123C06A83409A43B3
S315080032700A6015F1010F08D1002C06D0D8F8000015
S31508003280011D174804F034FA1AE0E8190600D8F8C0
S3150800329000004660BE4207D2D8F80000011D124859
S315080032A0006804F031FA0BE0D8F80000011D0D485B
S315080032B0006804F029FA13490868864200D20E60AD
S315080032C0BDE8F081040C002004BF0008180C00209B
S315080032D044C50008200B0020340B00205C0B00209E
S315080032E0700B0020080C00200C0C0020100C00208D
S315080032F0140C0020200C00201C0C00205CC50008C3
S3150800330034090020340C002003490A680348006881
S3150800331082180A60704700BF000C0020A800002031
S3150800332010B410F00702DFF8E8311C684FF6FF0109
S315080033300C4054EA0224DFF8DC110C431C6010BC74
S315080033407047DFF8CC010068C0F30220704701001F
S3150800335049B200290AD4012210F01F018A40DFF879
S31508003360B831010049B2490943F8212070470100E4
S3150800337049B200290AD4012210F01F018A40DFF859
S315080033809C31010049B2490943F82120704710B41D
S31508003390020052B2002A06D40C01DFF8843102007A
S315080033A052B29C5409E00A01DFF8784103005BB287
S315080033B013F00F03234403F8042C10BC704770B4B1
S315080033C0030013F00704D4F10700052801D30420ED
S315080033D001E0D4F10700251D072D01D2002600E0E3
S315080033E0E61E012515FA00F0401E0140B14015FA07
S315080033F006F6761E32401143080070BC704710B5B9
S315080034000400601EB0F1807F01D3012011E0611E27
S31508003410DFF8140101600F215FF0FF30FFF7B7FFF7
S315080034200021DFF8080101600721DFF804010160C7
S31508003430002010BD10B50400072C0ED0062C0CD0A9
S31508003440052C0AD0042C08D0032C06D0DFF8E4207B
S31508003450A721DFF8E400FDF751FF2000FFF760FF22
S3150800346010BD2DE9F04180460C0015000026102DF0
S3150800347006D3DFF8C820BF21DFF8BC00FDF73EFF02
S31508003480102C06D3DFF8B420C021DFF8AC00FDF716
S3150800349035FFFFF756FF07002A0021003800FFF71F
S315080034A08EFF0100404640B2FFF771FFBDE8F0818C
S315080034B010B50400200040B2002806D5DFF88020A9
S315080034C0D321DFF87400FDF719FF200040B2FFF79B
S315080034D03EFF10BD10B504002000FFF790FF10BD99
S315080034E010B50400200040B2002807D5DFF85420A4
S315080034F040F26511DFF84000FDF700FF200040B2FA
S31508003500FFF735FF10BD80B504F02DF901BD0000A9
S315080035100CED00E00000FA0500E100E080E200E0C2
S3150800352000E400E018ED00E014E000E018E000E038
S3150800353010E000E054C00008C4C30008DCC300085B
S315080035404CC7000818C20008031F5FF08070186097
S315080035501B1F4808400018601B1F0FF2190018604F
S31508003560B3F114000260031F7FF002001860B3F184
S315080035702000704780B56C48006810F1010F04D030
S315080035806A4ADD216A48FDF7B9FE502080F31188A2
S31508003590BFF34F8FBFF36F8FFEE73EB5654C2168CB
S315080035A06548814204D1654AEF216148FDF7A6FEC8
S315080035B021686348814204D1604AF0215C48FDF7DE
S315080035C09DFE604C20780190FF20207020788DF8B1
S315080035D000009DF8001011F050015B4801705B4D2A
S315080035E0072028609DF80000000608D52868401EB8
S315080035F028609DF8000040008DF80000F2E7286872
S31508003600D0F10700042805D04C4A40F22111484859
S31508003610FDF774FE286800022860286810F4E06048
S315080036202860019820704A48016851F470010160C9
S31508003630016851F07041016004F096F800203A499B
S31508003640086004F0F5F84348016851F0404101600C
S3150800365004F0DEF800203EBD80B5502080F31188C6
S31508003660BFF34F8FBFF36F8F2F490868401C086060
S315080036700868012809D138480068000605D0374A85
S3150800368040F25D112A48FDF739FE01BD10B5264CFA
S315080036902068002805D1324A4FF4B2712448FDF754
S315080036A02DFE2068401E20602068002802D10020D8
S315080036B080F3118810BD80B5502080F31188BFF3C0
S315080036C04F8FBFF36F8FFFF763FA002803D05FF0C1
S315080036D0805121480160002080F3118801BD000057
S315080036E038B5EFF30585102D0FD31E480068405DE9
S315080036F00400200014490978C0B2884205D21A4A43
S315080037004FF41A710A48FDF7F9FD10480068174981
S31508003710096811F4E061884205D2134A4FF41E7114
S315080037200348FDF7EBFD31BDA000002020C60008C8
S315080037308CCB000800ED00E071C20F4134C60008CA
S3150800374070C20F4100E400E05A0C0020EC0B002088
S3150800375020ED00E034EF00E004ED00E048C6000884
S315080037605CC6000804CC0008F4BF00080CED00E0B5
S315080037701CB5002400F0F5F9DFF8580400680028A5
S315080037800ED0DFF8540401900420009000234FF473
S315080037908072DFF848140FF22110FFF72DF80400A5
S315080037A0002C07D1DFF838244FF48971DFF8340488
S315080037B0FDF7A4FD200016BD2DE9FF4704008A4643
S315080037C015001E000C9F5FF00008002C07D1DFF8DB
S315080037D018244FF4C371DFF80C04FDF78FFDDFF8EA
S315080037E0F493D9F80000002824D0CDF800A001955C
S315080037F00294BAF1060F15DAFFF77EFC022808D103
S3150800380000233A006946D9F8000002F07FFB80469B
S3150800381010E0002300226946D9F8000002F076FB82
S31508003820804607E0002332006946D9F8000002F016
S315080038302EFC8046404604B0BDE8F08710B5DFF898
S3150800384098432068002807D1DFF8A0234FF4D871E1
S31508003850DFF89003FDF752FD206810BDF8B50500A6
S315080038600E00DFF88C030068C068C768381D03F0CF
S3150800387066FFF86901281BD12B003200B96949197E
S31508003880380000F088F8002812D0002000900023A5
S315080038902A0000213800FFF78FFF0400002C07D10B
S315080038A0DFF850234FF4F471DFF83803FDF726FDEF
S315080038B03800796A8847F1BD38B50500684600F0D2
S315080038C042F804000099200000F003F800F08BF895
S315080038D0F4E77CB505000C00FFF7C6F8684600F06B
S315080038E046F80600009800282AD1002C08D1AE42D6
S315080038F006D3FFF7BFF831002800FFF7AFFF21E036
S31508003900002C08D0DFF8F00200680068002801D112
S31508003910012400E000242200A91BDFF8B802006891
S3150800392002F0A4FDFFF7A6F800280BD15FF080513E
S31508003930DFF8C8020160BFF34F8FBFF36F8F01E056
S31508003940FFF798F873BD0100DFF8A4221068006835
S31508003950002801D1012000E000200860086800283E
S3150800396003D11068C068006800E00020704770B591
S315080039700400FFF7EFF80500DFF884623068854237
S3150800398004D200F0AAF80120206001E0002020609F
S315080039903560280070BD2DE9F04104000D001600C1
S315080039A01F005FF0000865602461AE420CD3F11B6E
S315080039B0A069814202D30120804611E0211D8E486C
S315080039C0006803F0A1FE0BE0BE4204D2BD4202D35A
S315080039D00120804604E0211D8548006803F094FE16
S315080039E04046BDE8F081F8B586B0002201A97948BD
S315080039F0006802F0AEFB00286DD0019800280CD5AF
S31508003A0002AD002D05D17F4A40F2C7217548FDF762
S31508003A1075FCA96868682A68904701980028E4D464
S31508003A20039807007869002802D0381D03F087FE3E
S31508003A3005A8FFF79CFF0600019800280ED002286B
S31508003A400CD00BD304282ED02CD3062806D03DD371
S31508003A50082827D002D3092825D03BE0029B32004C
S31508003A600299B86941183800FFF795FF002818D061
S31508003A703800796A8847F869012812D10020009031
S31508003A800023029AB869821800213800FFF794FECD
S31508003A900400002C05D15B4A40F201315148FDF77C
S31508003AA02DFCA2E7A1E70298B861B869002805D1FC
S31508003AB0544A4FF446714B48FDF720FC3300320058
S31508003AC0B96989193800FFF766FF8EE7380003F0F1
S31508003AD04EFD8AE789E707B0F0BD2DE9FC41DFF81E
S31508003AE01081D8F800000068002831D0D8F8000006
S31508003AF0C06800680500D8F80000C068C0680700FC
S31508003B00381D03F01CFE3800796A8847F8690128D1
S31508003B10E5D1B86940190600B54207D27E603F6113
S31508003B20391DD8F8000003F0EFFDD8E70020009013
S31508003B3000232A0000213800FFF73EFE0400002C6F
S31508003B4005D1314A40F272312648FDF7D7FBC6E760
S31508003B50D8F8002028480168C8F800100260BDE8B7
S31508003B60F38170B5FFF778FD1A4C2068002818D144
S31508003B70264E300003F0AAFD254D280003F0A6FDC9
S31508003B801B4806601C48056000221021142002F01C
S31508003B907DF920602068002803D01E49206802F0BD
S31508003BA048FCFFF773FD70BDF8B584B007000C003C
S31508003BB015001E007FF001000090019702940395FE
S31508003BC00023320069460348006802F060FA05B02F
S31508003BD0F0BD0000480C00204C0C0020E4CB000887
S31508003BE074C5000868CB00088CC5000854C10008D5
S31508003BF0400C0020A4C50008440C002004ED00E099
S31508003C00500C002014C30008F0C80008840B0020DC
S31508003C10980B0020ECCB000838B504000D00002CEA
S31508003C2008D0B4F5804F05D01A4A4FF4E071184809
S31508003C30FDF764FB2800C0B2012809D02800C0B2ED
S31508003C40022805D0134A40F2C1111148FDF756FB68
S31508003C50002C08D11048006880050AD503F002FE3A
S31508003C60002806D013E00C480068800501D403F04C
S31508003C70F3FD0A49086830F0040008602800C0B25D
S31508003C80012801D130BF02E040BF20BF20BF31BDAF
S31508003C90B0C7000824C400081470004010ED00E006
S31508003CA02DE9FE4F0400002C02D1012000F026BCAD
S31508003CB0206800280BD0207810F03F0F07D1DFF8D6
S31508003CC0C42A4FF4CF71DFF8C00AFDF717FBDFF8F7
S31508003CD03868356815F00C05DFF8A07AD7F8008043
S31508003CE018F003082078C00640F10281A069002870
S31508003CF00AD0A069012807D0DFF8882A40F2A71160
S31508003D00DFF8840AFDF7FAFAE069B0F5807F07D391
S31508003D10DFF8702A4FF4D471DFF86C0AFDF7EEFA73
S31508003D20206A002828D0206A102825D0206A202852
S31508003D3022D0206A30281FD0206A40281CD0206A4A
S31508003D40502819D0206A602816D0206A702813D007
S31508003D50206A802810D0206A90280DD0206AA028D2
S31508003D600AD0206AB02807D0DFF8182A40F2A9112D
S31508003D70DFF8140AFDF7C2FA002D04D00C2D78D10D
S31508003D80B8F1010F75D1DFF87CA7DAF800008007D3
S31508003D9004D5A069002801D10120AFE3DAF80000B4
S31508003DA0000704D5DAF8001011F0F00105E0DFF895
S31508003DB0D0090168090911F0F001206A81421ED272
S31508003DC0206A00F0F3FD002801D0012096E3DAF816
S31508003DD0000050F00800CAF80000DAF8001031F0C8
S31508003DE0F001206A0143CAF80010DFF87C2A10683F
S31508003DF030F47F40E16950EA012010601DE0DAF8EE
S31508003E00000050F00800CAF80000DAF8001031F097
S31508003E10F001206A0143CAF80010DFF84C2A10683E
S31508003E2030F47F40E16950EA01201060206A00F012
S31508003E30BDFD002801D0012060E300F0A7FCDFF8F3
S31508003E40601A3268C2F30312895C11F01F01C84078
S31508003E50DFF8B8160860DFF8B806006803F026FD34
S31508003E608DF800009DF80000002841D09DF800005C
S31508003E7044E3A069002827D0DFF88866306850F048
S31508003E800100306003F042FD81463068800707D4A0
S31508003E9003F03CFDB0EB09000328F6D303202DE31D
S31508003EA0306850F008003060316831F0F001206A5F
S31508003EB001433160DFF8B029106830F47F40E169CA
S31508003EC050EA0120106013E0DFF8386630684008D1
S31508003ED04000306003F01AFD81463068800707D538
S31508003EE003F014FDB0EB09000328F6D3032005E31D
S31508003EF02078C0076ED5606800280FD06068B0F5D6
S31508003F00803F0BD06068B0F5A02F07D0DFF8742883
S31508003F1040F21121DFF87008FDF7F0F9082D04D0FA
S31508003F200C2D0CD1B8F1030F09D1DFF8D8050068BC
S31508003F3080034FD5606800284CD10120DEE2606816
S31508003F40B0F5803F06D1DFF8BC15086850F480301C
S31508003F50086018E06068B0F5A02F0AD1DFF8A4055C
S31508003F60016851F480210160016851F480310160D3
S31508003F7009E0DFF89005016831F4803101600168D5
S31508003F8031F4802101606068002811D003F0BEFC7E
S31508003F908146DFF87005006880031BD403F0B6FC81
S31508003FA0B0EB090041F289318842F2D30320A5E239
S31508003FB003F0ACFC8146DFF84C050068800309D5A0
S31508003FC003F0A4FCB0EB090041F289318842F2D330
S31508003FD0032093E22078800769D5E06800280BD093
S31508003FE0E068B0F5807F07D0DFF898274FF41171A5
S31508003FF0DFF89407FDF782F92069202807D3DFF850
S31508004000842740F24521DFF88007FDF777F9042D6C
S3150800401004D00C2D16D1B8F1020F13D1DFF8E40441
S315080040200068400504D5E068002801D1012065E252
S31508004030DFF83408016831F0F851226951EA026163
S31508004040016034E0E06800281DD0DFF8B864306805
S3150800405050F48070306003F059FC814630684005A2
S3150800406007D403F053FCB0EB09000328F6D303206A
S3150800407044E2DFF8F407016831F0F851226951EAA1
S315080040800261016013E0DFF87C64306830F4807008
S31508004090306003F03BFC81463068400507D503F0E5
S315080040A035FCB0EB09000328F6D3032026E2207876
S315080040B0000738D5606900280AD06069012807D04A
S315080040C0DFF8C02640F28521DFF8BC06FDF716F9B1
S315080040D06069002813D0DFF8A866306850F0010040
S315080040E0306003F013FC8146306880071BD403F068
S315080040F00DFCB0EB09000328F6D30320FEE1DFF838
S315080041008066306840084000306003F0FFFB814657
S315080041103068800707D503F0F9FBB0EB09000328E0
S31508004120F6D30320EAE12078400740F19480002680
S31508004130A06800280DD0A06801280AD0A068052824
S3150800414007D0DFF840264FF43671DFF83C06FDF756
S31508004150D5F8DFF8E4A8DAF80000C0000DD4DAF8DC
S31508004160000050F08050CAF80000DAF8000010F09D
S3150800417080500190019801200600DFF8C0B8DBF8EE
S315080041800000C00514D4DBF8000050F48070CBF8AA
S31508004190000003F0BBFB8146DBF80000C00507D42E
S315080041A003F0B4FBB0EB09000328F5D30320A5E11F
S315080041B0A068012806D1DFF88818086850F00100C1
S315080041C0086017E0A06805280AD1DFF874080168B6
S315080041D051F004010160016851F00101016009E034
S315080041E0DFF85C080168490849000160016831F098
S315080041F004010160A068002811D003F087FB8146FE
S31508004200DFF83C08006880071BD403F07FFBB0EB9F
S31508004210090041F289318842F2D303206EE103F0A6
S3150800422075FB8146DFF818080068800709D503F092
S315080042306DFBB0EB090041F289318842F2D30320C5
S315080042405CE13000C0B2012805D1DAF8000030F090
S315080042508050CAF800002078800638D5606A0028A1
S315080042600AD0606A012807D0DFF8182540F23D31E8
S31508004270DFF81405FDF742F8606A002813D0DFF866
S31508004280C467306850F00100306003F03FFB814698
S31508004290306880071BD403F039FBB0EB090003280C
S315080042A0F6D303202AE1DFF89C673068400840000F
S315080042B0306003F02BFB81463068800707D503F092
S315080042C025FBB0EB09000328F6D3032016E1A06A04
S315080042D000280DD0A06A01280AD0A06A022807D0B3
S315080042E0DFF8A02440F26631DFF89C04FDF706F8F3
S315080042F0A06A002800F001810C2D00F0CD80A06A8C
S31508004300022840F0AA80E06A002810D0E06A012856
S315080043100DD0E06A02280AD0E06A032807D0DFF841
S3150800432064244FF45C71DFF86004FCF7E7FF206B48
S31508004330002802D0206B092807D3DFF8482440F26A
S315080043407131DFF84404FCF7D9FF606B082802D303
S31508004350606B572807D3DFF82C2440F27231DFF858
S315080043602804FCF7CBFFA06B022802D3A06B2028F9
S3150800437007D3DFF810244FF45D71DFF80C04FCF75F
S31508004380BDFFE06B022810D0E06B04280DD0E06B6F
S3150800439006280AD0E06B082807D0DFF8E82340F2A1
S315080043A07631DFF8E403FCF7A9FF206C022810D069
S315080043B0206C04280DD0206C06280AD0206C08280A
S315080043C007D0DFF8C02340F27731DFF8BC03FCF7EB
S315080043D095FF4C4E306830F08070306003F096FAE6
S315080043E082463068800107D503F090FAB0EB0A00E0
S315080043F00328F6D3032081E03968DFF84C0601402C
S31508004400E06A0143206B401E51EA0011606B51EAD5
S315080044100021E06B4008401E51EA4051206C4008DC
S31508004420401E51EA4061A06B51EAC06139603068AC
S3150800443050F080703060386850F08070386003F053
S3150800444065FA81463068800157D403F05FFAB0EB0D
S3150800445009000328F6D3032050E02A4E306830F0CE
S31508004460807030603068000103D4386880088000A6
S3150800447038603968DFF8D4050140396003F046FA38
S3150800448081463068800138D503F040FAB0EB090060
S315080044900328F6D3032031E0A06A012801D10120C0
S315080044A02CE03868804618F00300E16A884222D179
S315080044B018F07000216B491EB0EB011F1BD118F4D0
S315080044C0FE40616BB0EB012F15D118F07840A16B57
S315080044D0B0EBC16F0FD118F4C000E16B4908491E53
S315080044E0B0EB415F07D118F0C061206C4008401E50
S315080044F0B1EB406F01D0012000E00020BDE8FE8F3F
S31508004500000000000010024008100240AC00002025
S31508004510A40000202DE9F04104000D00002C01D173
S31508004520012029E12068002802D02068102807D336
S31508004530DFF81C2540F22E41DFF84C02FCF7DEFEC0
S31508004540002D0FD0012D0DD0022D0BD0032D09D033
S31508004550042D07D0DFF8F82440F22F41DFF82802AF
S31508004560FCF7CCFEDFF8EC74386810F00700A842B8
S315080045700BD23868C008C00028433860386810F085
S315080045800700A84201D00120F6E02078C00755D5DB
S31508004590606800280FD0606801280CD0606802287F
S315080045A009D06068032806D0DFF8A42440F2464103
S315080045B07548FCF7A3FE6068032806D1DFF898045F
S315080045C0006880011CD40120D6E06068022806D164
S315080045D0DFF884040068800312D40120CCE0606808
S315080045E0002806D1DFF870040068800708D4012087
S315080045F0C2E0DFF864040068400501D40120BBE08E
S31508004600DFF85884D8F800108908890060680143E3
S31508004610C8F8001003F07AF90600D8F8000010F080
S315080046200C006168B0EB810F08D003F06FF9801BAE
S3150800463041F289318842F0D303209DE02078800733
S3150800464029D5A06800281ED0A06880281BD0A0689D
S31508004650902818D0A068A02815D0A068B02812D035
S31508004660A068C0280FD0A068D0280CD0A068E02881
S3150800467009D0A068F02806D0DFF8D42340F2A2417A
S315080046804148FCF73BFEDFF8D423116831F0F0010E
S31508004690A06801431160386810F0070085420BD204
S315080046A03868C008C00028433860386810F007002A
S315080046B0A84201D001205FE02078400721D5E068B4
S315080046C0002816D0E068B0F5806F12D0E068B0F523
S315080046D0A06F0ED0E068B0F5C06F0AD0E068B0F5FC
S315080046E0E06F06D0DFF8682340F2C1412648FCF7A0
S315080046F005FEDFF86823116831F4E061E0680143DC
S3150800470011602078000722D52069002816D0206974
S31508004710B0F5806F12D02069B0F5A06F0ED0206971
S31508004720B0F5C06F0AD02069B0F5E06F06D0DFF8A3
S3150800473020234FF499611448FCF7E0FDDFF81C23A9
S31508004740106830F46050216950EAC100106000F02A
S315080047501DF85349DFF804231268C2F30312895C73
S3150800476011F01F01C840DFF8F8120860DFF8F402FC
S31508004770006803F09BF8C0B2BDE8F0810C10024057
S3150800478094100240C4C70008D8C700082DE9F041B4
S3150800479000260020DFF8C412096811F00C01DFF8C2
S315080047A0C8C2DCF8007017F00307002903D00C29EB
S315080047B01AD1012F18D1DFF8A0E2DEF800805FEAEF
S315080047C0087806D4DFF8DCE0DEF800E0CEF3032E46
S315080047D003E0DEF800E0CEF3031EA44E56F82E6082
S315080047E000290CD130000AE0042903D1DFF880E261
S315080047F0704604E0082902D1DFF874E270460C29F5
S315080048002DD1DCF800E01EF0030E73469E46BEF17D
S31508004810020F03D0BEF1030F03D005E0DFF850E224
S3150800482003E0DFF84CE200E0B646DCF80020C2F30D
S315080048300212521C1500DCF80020C2F3062202FB05
S315080048400EFEBEFBF5F2DCF800C0CCF3416C1CF1A1
S31508004850010C5FEA4C0C6446B2FBF4FC6046BDE80A
S31508004860F0817F48006870470410024080B5FFF762
S31508004870F8FF8049794A1268C2F30222895C11F06E
S315080048801F01C84002BD80B5FFF7EBFF7949734A9F
S315080048901268C2F3C222895C11F01F01C84002BD2A
S315080048A078CA00089410024010B50400002C05D1FF
S315080048B0714A40F2C1517148FCF720FD3F20206043
S315080048C065480168490303D55FF4A021616008E0E3
S315080048D00168C90303D55FF48031616001E00021F6
S315080048E061600168C90702D50121A16101E00021C3
S315080048F0A16163490A68C2F30722E261026812F0FD
S31508004900F00222620268D20503D54FF48072E26093
S3150800491001E00022E2600968C1F3046121614849A7
S315080049200A68520702D50521A16007E00968C90788
S3150800493002D50121A16001E00021A1605149096861
S31508004940C90702D50121616101E0002161613D4984
S315080049500968C90702D50121616201E00021616287
S315080049600068C00102D50220A06201E00120A06211
S315080049703D48016811F00301E1620168C1F30211C3
S31508004980491C21630168C1F3062161630168C1F30B
S315080049904151491C4900E1630168C1F34161491C61
S315080049A0490021640068C00EA06310BD7CB50400F0
S315080049B00025214E3068C00003D502F047FF0100EC
S315080049C00FE0306850F080503060306810F080504A
S315080049D00090009802F03AFF0100306830F08050ED
S315080049E03060B1F5007F09D1812C15D3A12C02D3F3
S315080049F00220050010E0012005000DE0812C02D3FD
S31508004A000320050008E0802C02D10220050003E0FF
S31508004A10702C01D1012005000E4A1068C008C0009C
S31508004A2028431060106810F00700A84201D0012042
S31508004A3000E0002076BD00005810024000700040DB
S31508004A4090100240981002408C809D01FFFFEEFEF8
S31508004A50ECC700080020024000100240081002407F
S31508004A60AC000020A40000200C1002402CBE000858
S31508004A700024F400CCCB00083CC40008D8C70008C2
S31508004A80041002409410024038B504000025002C9A
S31508004A900DD0606800F01CFB002808D06068D0F8CC
S31508004AA0940002F039FF002801D0012005002800F3
S31508004AB0C0B232BD10B5040014F14801606800F0B8
S31508004AC0FFFF7FF00100A168096808610020A1685E
S31508004AD00968486210BD10B504002000FFF7EAFF18
S31508004AE0A0680068C06850F00100A1680968C8603D
S31508004AF0A0680068006850F00100A16809680860AD
S31508004B0010BD816809680A6A41F211110A420ED17C
S31508004B10816809680A6A40F244410A4207D18168F5
S31508004B20096809684908490082681268116081683D
S31508004B300968C9684908490082681268D1607FF027
S31508004B400101826812681161704770B5040020007F
S31508004B50FFF79AFF002806D1DFF884244021DFF802
S31508004B608404FCF7CBFB6068D0F8940002F0E1FE01
S31508004B70050014F14801606800F0A2FF002801D181
S31508004B80012600E0002694F84100002807D13000ED
S31508004B90C0B200281BD0012084F8410017E030007D
S31508004BA0C0B2002813D02A0092B200216068D0F85B
S31508004BB0940002F04BFF002806D1DFF82424552183
S31508004BC0DFF82004FCF79AFB012084F84100200056
S31508004BD0FFF797FF70BD2DE9FF4781464846FFF767
S31508004BE053FF002806D1DFF800246D21DFF8F4030F
S31508004BF0FCF784FBD9F80400D0F89460300002F082
S31508004C0098FE0700380080B2002806D1DFF8D823BE
S31508004C107221DFF8D003FCF771FBD9F80C00401CB1
S31508004C20C9F80C003900B08889B2814219D13A0016
S31508004C3092B20021300002F009FF002806D1DFF801
S31508004C40A8237B21DFF89C03FCF758FB4846FFF7AF
S31508004C5042FF002089F84100D9F81800401CC9F81D
S31508004C60180000208046380080B2B0F5817F02DB4C
S31508004C70002089F8410099F84100002805D002284B
S31508004C801CD006D303283FD0A7E0052089F84100A9
S31508004C90ABE00021300002F0F0FE89F8420099F8F6
S31508004CA04200402807D099F84200232803D005205F
S31508004CB089F8410099E0022089F84100380080B25D
S31508004CC00228C0F292800121300002F0D6FE89F84F
S31508004CD0430099F84200402801D1022100E0002152
S31508004CE099F84300884203DB99F84300FF2803D16B
S31508004CF0052089F8410078E0032089F84100D9F8B1
S31508004D002800401CC9F8280099F84300C01C8246B0
S31508004D103900504689B280B2814266D3504639007E
S31508004D2080B289B2884217D2D9F80400D0F8900028
S31508004D3080040DD5380080B2514689B2491C884294
S31508004D400AD0390089B2504680B2801C814203D00D
S31508004D50062089F8410048E00020040099F842003E
S31508004D60232802D0402807D02BE099F83000C00647
S31508004D7001D51020040024E00221300002F07DFE57
S31508004D8089F8440099F84400002802D0962807D0EC
S31508004D900DE099F83000800701D5022004000CE0E8
S31508004DA099F83000C00701D50120040005E099F8FC
S31508004DB03000400701D504200400FDF7CBFEC9F8F2
S31508004DC038002000C0B2002803D1062089F8410027
S31508004DD002E0042089F8410007E0DFF80C2240F2DF
S31508004DE02511DFF80002FCF789FAD9F83C000028FB
S31508004DF018D099F84100042814D1FDF7AFFE020037
S31508004E000020009000230721D9F83C00FEF7D4FCC7
S31508004E10012807D0DFF8D0214FF49A71DFF8C401D2
S31508004E20FCF76CFA99F84350ED1C99F841000428F0
S31508004E3052D0C0F0CB8006281DD080F0C7803A003B
S31508004E4092B20021300002F001FE002807D1DFF8F7
S31508004E5098214FF49F71DFF88C01FCF74FFA48460A
S31508004E60FFF739FE002089F84100D9F81000401CE8
S31508004E70C9F81000ADE04846FFF743FE39002800A0
S31508004E8089B280B2814207D2DFF85C214FF4A4715F
S31508004E90DFF85001FCF732FA2A0092B200213000FE
S31508004EA002F0D4FD002807D1DFF83C2140F24D116D
S31508004EB0DFF83001FCF722FA7F1B380080B20028A1
S31508004EC001D001208046012089F84100D9F8180050
S31508004ED0401CC9F818007CE04846FFF712FED9F8CE
S31508004EE00400D0F8900080040ED42900380089B256
S31508004EF080B281421ED0DFF8F0204FF4B471DFF89B
S31508004F00E400FCF7FBF915E0390089B2280080B205
S31508004F10091A002906D4390089B2280080B2091A6C
S31508004F20032907DBDFF8C0204FF4B671DFF8B400B9
S31508004F30FCF7E4F901AB00220020002183E8070012
S31508004F40CDF804903089ADF80800ADF80A508DF810
S31508004F500C4000200090D9F82C00002807D1DFF873
S31508004F60882040F27F11DFF87C00FCF7C7F90023A0
S31508004F706A4601A9D9F82C0001F089F801280CD154
S31508004F80009800280ED05FF08051DFF8EC00016031
S31508004F90BFF34F8FBFF36F8F04E0D9F81400401C9E
S31508004FA0C9F814003A0092B20021300002F04EFD12
S31508004FB0002807D1DFF830204FF4C671DFF8240047
S31508004FC0FCF79CF9012089F8410002E04846FFF702
S31508004FD082FD4046C0B200287FF443AEBDE8FF8795
S31508004FE0FCC6000810C7000894C300082DE9F8435A
S31508004FF004000E0015000027002C01D0002D00D15A
S3150800500036E03100BDF8020089B2814230D3009AF9
S315080050102100280002F09EFC002829D094F8008080
S315080050204046C0B2402803D04046C0B223281FD10C
S3150800503094F80190BDF8021040F20310814206DA96
S31508005040BDF80210C91E4846C0B2814200D00FE022
S31508005050BDF80210491E200001F084FFBDF80210B9
S31508005060214411F8011CC0B2884201D10120070071
S315080050703800C0B2BDE8F28304ED00E038B504009C
S31508005080200040B202F084F900281DD1EFF3108009
S315080050900090012080F3108814200C4B210049B29F
S315080050A011FB00F15958220052B212FB00F29A582D
S315080050B0526925006DB215FB00F0184480884240FD
S315080050C04A61009880F3108831BD00BFB8BD00085A
S315080050D001000020002918D0D1F88030DFF8D02947
S315080050E093420BD0D1F88030DFF8C829934205D017
S315080050F0D1F88030DFF8FC29934206D1D1F8803008
S315080051000A68934201D101221000C0B2704770B5F7
S31508005110040025002868C4F880000020C4F884002C
S315080051200020A8660020E866280002F0B1FC060008
S315080051303000C0B2002823D1FDF710FAC4F88C005D
S31508005140002806D1DFF870293621DFF87009FCF748
S31508005150D5F84FF4A041D4F88C00FDF7C3FA4FF404
S315080051608040C4F890000020C4F894000020C4F8D9
S31508005170980014F19C00DFF8FC19102200F05CFD81
S315080051803000C0B270BDD0F89010890419D5D0F897
S315080051908010096849070ED5D0F8901051F40041DF
S315080051A0C0F89010D0F880100A6832F00402D0F8DF
S315080051B080100A6005E0D0F8901031F40041C0F87C
S315080051C090107047D0F89010890411D5D0F8901037
S315080051D0090407D5D0F880100A6852F00402D0F8FE
S315080051E080100A60D0F8901031F40041C0F8901091
S315080051F070472DE9F34381B0804614001D004746E9
S315080052004046FFF765FF002806D1DFF8EC2878212D
S31508005210DFF8A808FCF772F8786F202840F0BD8000
S315080052200298002803D0200080B2002801D101206E
S31508005230B4E0D8F880000068000701D40120ADE08A
S3150800524097F87000012801D10220A7E0012087F80D
S3150800525070000298F864A7F85040A7F8524000205A
S31508005260F867212078673868006830F040003968A8
S315080052700860B86E002829D00FF2B541B86EC16231
S315080052800021B86E01630FF24951B86E416302A856
S31508005290060040213868016223009BB2386810F185
S315080052A028023168B86E03F0CDF9002806D0DFF879
S315080052B04828AB21DFF80408FCF720F8B86E006828
S315080052C0006830F00400B96E09680860280604D042
S315080052D00721D8F88C00FDF7E6F9D8F884000028ED
S315080052E006D00122B8F88810D8F8840001F0E0FA50
S315080052F0EFF3108000905FF0010989F31088D8F861
S315080053009010C908C90015F007000143C8F89010A5
S315080053104046FFF738FF009880F31088B86E0028DB
S315080053201ED0EFF31080009089F3108838688168E2
S3150800533051F08001386881600FF25950C8F8A4000E
S31508005340402138680162402138680162386801687E
S3150800535051F0400138680160009880F3108817E022
S31508005360B868B0F5805F09D13869002806D1DFF83A
S315080053708827E221DFF84407FBF7C0FF0FF2D15078
S31508005380C8F8A8003868016851F0800138680160DB
S31508005390002087F87000002000E00220BDE8FE83A8
S315080053A02DE9FC4105000C0016002F002800FFF728
S315080053B08FFE002806D1DFF8C027FF21DFF8FC069C
S315080053C0FBF79CFF002C07D1DFF8AC274FF4807160
S315080053D0DFF8E806FBF792FFC5F89440B86F202877
S315080053E040F09180D5F8940002F096FA002801D191
S315080053F0012089E0D5F880000068400701D4012023
S3150800540082E097F87000012801D102207CE0012093
S3150800541087F87000D5F8940003F02CFAD5F89400B4
S3150800542000687865D5F894008088A7F858000020A9
S31508005430F8672220B8670FF26D50C5F8A000202142
S31508005440F86EC161F86E02F0ABFF002807D0DFF8EE
S3150800545028274FF49071DFF86406FBF74FFF0FF229
S315080054602960F96EC862F96E08630FF26530F96E45
S315080054704863D5F89480D5F894008388D8F8002036
S31508005480386810F12401F86E03F0DCF8002807D01C
S31508005490DFF8E42640F22F11DFF82006FBF72EFF8F
S315080054A00020A7F85A007821D5F88C00FDF7FBF8FC
S315080054B0EFF310800090012080F31088D5F8901043
S315080054C031F0780116F078000143C5F89010386875
S315080054D0806850F04000396888603868808C0821F8
S315080054E0386801621021386801623868016851F02D
S315080054F0100138680160009880F31088002087F84A
