S01100005255535F526567756C2E73726563BB
S31508000000106C002069C70008DDC800087F180008C2
S315080000108D1800089B180008A918000800000000A1
S31508000020000000000000000000000000DD75000868
S31508000030E1C800080000000085750008DD11000809
S31508000040E5C80008E9C80008EDC80008F1C80008B6
S31508000050B7180008F5C80008F9C80008FDC8000860
S3150800006001C9000805C9000809C900080DC9000822
S31508000070D1A50008DBA50008BDA50008C7A500088E
S3150800008011C9000815C9000819C900081DC90008C2
S3150800009021C9000825C9000829C90008BD25000886
S315080000A02DC9000831C9000835C9000839C9000832
S315080000B03DC90008000000000000000041C9000812
S315080000C045C9000849C900084DC9000851C90008B2
S315080000D055C90008A9A5000859C90008B3A500080C
S315080000E05DC9000861C900080000000000000000A2
S315080000F000000000000000000000000000000000F2
S315080001000000000065C900080000000069C9000871
S315080001100000000000000000111400081B1400086D
S315080001206DC9000871C9000875C9000879C90008B1
S315080001307DC9000800000000000000000000000063
S3150800014081C9000885C9000889C900088DC9000841
S3150800015091C9000895C9000899C900089DC90008F1
S31508000160A1C90008A5C90008A9C90008000000001F
S31508000170ADC90008B1C90008B5C9000800000000EB
S31508000180B9C90008BDC90008C1C9000810B50400EE
S31508000190002C01D1012071E02168DFF8E4008142DA
S315080001A01FD02068B0F1804F1BD02168DFF8D4003B
S315080001B0814216D02168DFF8D000814211D021682B
S315080001C0DFF8C80081420CD02168DFF8C4008142FC
S315080001D007D0DFF8C02040F21511DFF8BC0001F0A7
S315080001E04BF8A068002813D0A068102810D0A06883
S315080001F020280DD0A06840280AD0A068602807D01B
S31508000200DFF890204FF48B71DFF88C0001F034F89A
S31508000210206900280FD02069B0F5807F0BD02069AF
S31508000220B0F5007F07D0DFF86C2040F21711DFF831
S31508000230680001F021F8A06900280AD0A069802882
S3150800024007D0DFF850204FF48C71DFF84C0001F02E
S3150800025013F894F83D00002805D1002084F83C00E6
S31508000260200001F0ABF8022084F83D00211D20682B
S3150800027000F018FD012084F83D00002010BD0000A4
S31508000280002C0140001000400014004000400140CE
S3150800029000440140C0C40008D4C4000810B50400D6
S315080002A0002C01D1012071E02168DFF8E4008142C9
S315080002B01FD02068B0F1804F1BD02168DFF8E0001E
S315080002C0814216D02168DFF8DC00814211D021680E
S315080002D0DFF8C00081420CD02168DFF8BC008142FB
S315080002E007D0DFF8C42040F2A241DFF8B00000F0E2
S315080002F0C3FFA068002813D0A068102810D0A068F3
S3150800030020280DD0A06840280AD0A068602807D009
S31508000310DFF8942040F2A341DFF8800000F0ACFF3C
S31508000320206900280FD02069B0F5807F0BD020699E
S31508000330B0F5007F07D0DFF8702040F2A441DFF85F
S315080003405C0000F099FFA06900280AD0A0698028FF
S3150800035007D0DFF8542040F2A541DFF8400000F04E
S315080003608BFF94F83D00002805D1002084F83C0056
S31508000370200001F037F8022084F83D00211D20688E
S3150800038000F090FC012084F83D00002010BD00001C
S31508000390002C01400040014000440140D4C400083C
S315080003A00010004000140040E8C4000810B504001E
S315080003B02068006980071AD52068C068800716D5A6
S315080003C07FF002012068016101202077206880699A
S315080003D010F0030F03D0200001F038F805E02000E4
S315080003E001F015F8200001F032F800202077206887
S315080003F0006940071AD52068C068400716D57FF0FF
S31508000400040120680161022020772068806910F4C1
S31508000410407F03D0200001F019F805E0200000F025
S31508000420F6FF200001F013F8002020772068006905
S3150800043000071AD52068C068000716D57FF008009F
S3150800044021680861042020772068C06910F0030F2E
S3150800045003D0200000F0FAFF05E0200000F0D7FFE7
S31508000460200000F0F4FF0020207720680069C0060D
S315080004701AD52068C068C00616D57FF01000216816
S315080004800861082020772068C06910F4407F03D0EF
S31508000490200000F0DBFF05E0200000F0B8FF200098
S315080004A000F0D5FF0020207720680069C0070AD52C
S315080004B02068C068C00706D57FF001012068016181
S315080004C0200000F095FF2068006900060AD520681C
S315080004D0C068000606D57FF080012068016120000B
S315080004E000F0B6FF20680069C0050AD52068C06814
S315080004F0000606D57FF4807120680161200000F0AF
S31508000500A8FF2068006940060AD52068C06840062A
S3150800051006D57FF0400120680161200000F09AFFAF
S315080005202068006980060AD52068C068800606D556
S315080005307FF0200120680161200000F08CFF10BDCB
S3150800054070B506000D001400002C13D0042C11D031
S31508000550082C0FD00C2C0DD0102C0BD0142C09D035
S315080005603C2C07D0DFF8C42240F61C61DFF8B8023D
S3150800057000F082FE286860281ED0286870281BD0E4
S315080005802968DFF8AC02814216D02968DFF8A40290
S31508000590814211D02868DFF8A01288420CD028685A
S315080005A0DFF89812884207D0DFF8802240F61D61EE
S315080005B0DFF8740200F060FEA86800280AD0A86870
S315080005C0022807D0DFF8642240F61E61DFF85802D9
S315080005D000F052FE286900280AD02869042807D0A6
S315080005E0DFF8482240F61F61DFF83C0200F044FEBF
S315080005F096F83C00012801D1022012E1012086F874
S315080006003C00022086F83D00200000280DD0042872
S315080006103CD0082868D00C2800F08D80102800F0FF
S31508000620B280142800F0D280F4E03168DFF81002B6
S31508000630814214D03068B0F1804F10D03168DFF8AD
S31508000640040281420BD031687648814207D0DFF830
S31508000650DC2140F62B61DFF8D00100F00DFE290001
S31508000660306800F055FB3068816951F00801306840
S3150800067081613068816931F00401306881613068D0
S3150800068081692869014330688161C3E03168DFF810
S31508000690B001814210D03068B0F1804F0CD031687B
S315080006A0DFF8A001814207D0DFF8802140F63C61DF
S315080006B0DFF8740100F0E0FD2900306800F098FBCF
S315080006C03068816951F400613068816130688169F8
S315080006D031F480613068816130688069296950EA3F
S315080006E001203168886195E03168DFF8540181425C
S315080006F00AD03068B0F1804F06D0DFF8302140F6D6
S315080007004D61494800F0B8FD2900306800F0E6FB65
S315080007103068C16951F008013068C1613068C16943
S3150800072031F004013068C1613068C1692869014344
S315080007303068C1616EE03168DFF8040181420AD091
S315080007403068B0F1804F06D0DFF8E02040F65E61F1
S31508000750354800F091FD2900306800F02EFC30681D
S31508000760C16951F400613068C1613068C16931F40A
S3150800077080613068C1613068C069296950EA012022
S315080007803168C86146E03168DFF8B400814206D0B6
S31508000790DFF8982040F66F61234800F06DFD2900C8
S315080007A0306800F04BFC3068416D51F00801306844
S315080007B041653068416D31F0040130684165306843
S315080007C0416D286901433068416523E03068DFF8E8
S315080007D07010884206D0DFF854204FF4686112483A
S315080007E000F04AFD2900306800F052FC3068416D7F
S315080007F051F40061306841653068416D31F48061BB
S31508000800306841653068406D296950EA01203168D1
S315080008104865FFE7012086F83D00002086F83C0081
S31508000820002070BD00440140D4C400080CBF000875
S315080008304000010050000100600001007000010046
S31508000840002C01400040014070B504000D0094F8EA
S315080008503C00012801D102201DE2012084F83C0059
S31508000860022084F83D002868B0F5805F23D0286808
S31508000870B0F5005F1FD0286800281CD0286810280B
S3150800088019D02868202816D02868302813D0286858
S31508000890402810D0286850280DD0286860280AD02B
S315080008A02868702807D0DFF8202641F20D21DFF8E6
S315080008B0F00300F0E1FC20688668DFF810060640C1
S315080008C036F47F46206886602868002800F0C181D3
S315080008D0102800F0BE81202800F0BB81302800F0E7
S315080008E0B881402800F07281502800F0E98060281D
S315080008F000F0298170282DD0B0F5805F04D0B0F5BE
S31508000900005F00F08580BFE12168DFF8C4058142F9
S315080009101FD02068B0F1804F1BD02168DFF878031C
S31508000920814216D02068DFF87413884211D02168F6
S31508000930DFF8A00581420CD02168DFF89C058142CA
S3150800094007D0DFF8842541F21921DFF8540300F0B7
S3150800095093FC99E12168DFF87805814210D0206878
S31508000960B0F1804F0CD02168DFF86805814207D0C6
S31508000970DFF854254FF49151DFF8240300F07CFC8E
S31508000980A868002813D0A868B0F5805F0FD0A868BB
S31508000990B0F5005F0BD0A868B0F5405F07D0DFF868
S315080009A0282541F22321DFF8F80200F065FC686883
S315080009B0B0F5004F13D06868002810D06868002882
S315080009C00DD0686802280AD068680A2807D0DFF8B8
S315080009D0F82441F22421DFF8C80200F04DFCE8684B
S315080009E0102807D3DFF8E02441F22521DFF8B0020A
S315080009F000F042FCEB686A68A968206800F0A1FB71
S31508000A002068806850F077000600206886603BE121
S31508000A102168DFF8BC0481420BD02068B0F1804F12
S31508000A2007D0DFF8A42441F23821DFF8740200F079
S31508000A3023FCA868002813D0A868B0F5805F0FD0FB
S31508000A40A868B0F5005F0BD0A868B0F5405F07D07E
S31508000A50DFF8742441F23B21DFF8440200F00CFC75
S31508000A606868B0F5004F13D06868002810D0686829
S31508000A7000280DD0686802280AD068680A2807D0B6
S31508000A80DFF8442441F23C21DFF8140200F0F4FBBD
S31508000A90E868102807D3DFF8302441F23D21DFF853
S31508000AA0000200F0E9FBEB686A68A968206800F0B4
S31508000AB048FB2068816851F4804120688160E3E042
S31508000AC02168DFF80C04814210D02068B0F1804F0D
S31508000AD00CD02168DFF8FC03814207D0DFF8E82351
S31508000AE041F24C21DFF8B80100F0C6FB6868B0F5A2
S31508000AF0004F13D06868002810D0686800280DD009
S31508000B00686802280AD068680A2807D0DFF8B82378
S31508000B1041F24F21DFF8880100F0AEFBE8681028A3
S31508000B2007D3DFF8A42341F25021DFF8740100F05F
S31508000B30A3FBEA686968206800F0D6FA50212068A5
S31508000B4000F0F7FAA0E02168DFF88403814210D0AC
S31508000B502068B0F1804F0CD02168DFF87803814215
S31508000B6007D0DFF8642341F25C21DFF8340100F096
S31508000B7083FB6868B0F5004F13D06868002810D06A
S31508000B80686800280DD0686802280AD068680A28AC
S31508000B9007D0DFF8342341F25F21DFF8040100F0C3
S31508000BA06BFBE868102807D3DFF81C234FF4935132
S31508000BB0DFF8EC0000F060FBEA686968206800F07E
S31508000BC0A5FA6021206800F0B4FA5DE02168DFF834
S31508000BD00003814210D02068B0F1804F0CD0216804
S31508000BE0DFF8F002814207D0DFF8DC2241F26C21FF
S31508000BF0DFF8AC0000F040FB6868B0F5004F13D092
S31508000C006868002810D0686800280DD0686802282F
S31508000C100AD068680A2807D0DFF8AC2241F26F21AB
S31508000C20DFF87C0000F028FBE868102807D3DFF817
S31508000C30982241F27021DFF8680000F01DFBEA688F
S31508000C406968206800F050FA4021206800F071FABF
S31508000C501AE02168DFF87802814210D02068B0F1E6
S31508000C60804F0CD02168DFF86C02814207D0DFF88C
S31508000C70582241F27F21DFF8280000F0FDFA2968A2
S31508000C80206800F056FAFFE7012084F83D000020AE
S31508000C9084F83C00002070BD00100040001400409D
S31508000CA0D4C4000810B40468894B984202D0B0F145
S31508000CB0804F04D134F0700422004C6814439842E3
S31508000CC009D0B0F1804F06D0824A904203D0DFF8AF
S31508000CD08824904204D134F440742200CC6814432A
S31508000CE034F080044A69144304608A68C2620A6858
S31508000CF08262984206D0774A904203D0DFF8582499
S31508000D00904201D10A6902630122426110BC704710
S31508000D102DE9F84304000D00206A400840002062CF
S31508000D20276A6668D4F81880DFF8300410EA0808DD
S31508000D305FEA98085FEA8808286850EA080837F0E2
S31508000D400207A8680743DFF888914C4505D0614833
S31508000D50844202D06048844213D1E86800280AD049
S31508000D60E868082807D0DFF8F82341F28E71DFF823
S31508000D70F40300F081FA37F00807E868074337F00C
S31508000D8004074C4505D05348844202D05248844251
S31508000D9026D1A869B0F5007F0AD0A869002807D02F
S31508000DA0DFF8BC2341F29B71DFF8B80300F064FA60
S31508000DB06869B0F5807F0AD06869002807D0DFF82F
S31508000DC0A02341F29C71DFF89C0300F055FA36F433
S31508000DD0807636F40076686906433000AE690643C5
S31508000DE06660C4F81880686860632762BDE8F183A6
S31508000DF02DE9F84304000D00206A30F01000206247
S31508000E00266A6768D4F81880DFF85C0310EA0808D1
S31508000E1038F44078286858EA002836F02006A8688A
S31508000E2056EA0016DFF8A8904C4514D1E868002861
S31508000E300AD0E868082807D0DFF8302341F2D971CC
S31508000E40DFF8200300F018FA36F08006E86856EA5C
S31508000E50001636F040064C4505D01E48844202D09E
S31508000E601D48844227D1A869B0F5007F0AD0A86931
S31508000E70002807D0DFF8F42241F2E771DFF8E40230
S31508000E8000F0FAF96869B0F5807F0AD06869002829
S31508000E9007D0DFF8D82241F2E871DFF8C80200F07F
S31508000EA0EBF937F4806737F40067686957EA800713
S31508000EB0A86957EA80076760C4F818806868A0635D
S31508000EC02662BDE8F183000028BF000888FFFEFF00
S31508000ED0002C014000400140004401402DE9F84340
S31508000EE004000D00206A30F480702062266A676864
S31508000EF0D4F81C80DFF8640210EA08085FEA98084C
S31508000F005FEA8808286850EA080836F40076A86870
S31508000F1056EA0026DFF858924C4514D1E8680028AE
S31508000F200AD0E868082807D0DFF8482241F62401E5
S31508000F30DFF8300200F0A0F936F40066E86856EAF1
S31508000F40002636F480664C4507D0DFF82C0284422A
S31508000F5003D0DFF80402844227D1A869B0F5007FE0
S31508000F600AD0A869002807D0DFF8082241F631011F
S31508000F70DFF8F00100F080F96869B0F5807F0AD0E3
S31508000F806869002807D0DFF8EC2141F63201DFF85E
S31508000F90D40100F071F937F4805737F400576869BF
S31508000FA057EA0017A86957EA00176760C4F81C8053
S31508000FB06868E0632662BDE8F1832DE9F041040024
S31508000FC00D00206A30F480502062D4F820806668CC
S31508000FD0E769DFF89401074037F44077286857EA4D
S31508000FE0002738F40058A86858EA0038DFF8800166
S31508000FF0844207D0DFF88001844203D0DFF8580125
S31508001000844213D16869B0F5807F0AD068690028E0
S3150800101007D0DFF8682141F67001DFF8480100F0D3
S315080010202BF936F48046686956EA80166660E761E9
S3150800103068682064C4F82080BDE8F08130B4026A8C
S3150800104032F480320262056A4368446DDFF80C2187
S3150800105014400A68144335F400358A6855EA02458F
S31508001060DFF80C21904207D0DFF80C21904203D01C
S31508001070DFF8E420904204D133F480334A6953EA16
S315080010800223436044654A688265056230BC70473E
S3150800109030B4026A32F480120262056A4368446D0B
S315080010A0DFF8C42014400A6854EA022435F400150F
S315080010B08A6855EA0255DFF8B820904207D0DFF86B
S315080010C0B820904203D0DFF89020904204D133F440
S315080010D080234A6953EA8223436044654A68C265A5
S315080010E0056230BC7047000010B4036A046A6408DD
S315080010F064000462846934F0F00454EA021433F09C
S315080011000A030B438461036210BC704710B4036A78
S3150800111033F0100303628469036A34F4704454EAB2
S31508001120023433F0A00353EA01138461036210BC4E
S315080011307047826832F070020A4352F007028260F2
S31508001140704710B4846834F47F440C43144354EA5B
S315080011500324846010BC7047004401408FFFFEFFE3
S31508001160FCC40008D4C40008FF8FFFFE10C50008A1
S31508001170002C014024C500080040014038C500087D
S3150800118080B500F033FA00F07EFC002804D13E4A10
S3150800119023213E4800F070F800F057FD00F072FD7C
S315080011A03B490860002804D1374A2B21374800F00C
S315080011B063F800F04DF800F0CDFF002804D1324A5C
S315080011C02E21324800F058F800F06EF901F063FB62
S315080011D02D4A37212D4800F04FF801BD80B501F0A2
S315080011E0E3FF02F0E0F82B48007A052805D101F064
S315080011F0D3FE012801D002F0AEF901BD10B5264C88
S315080012002078002809D101F001FC00F020F802F04E
S3150800121065FA00F01CF8012020700121002002F078
S315080012204BFC00F041F910BD38B505000C001B4A0F
S315080012308E21164800F020F831BD80B5184A942151
S31508001240124800F019F801BD0200012070477047E6
S3150800125010B50F4C2068002804D1124ABE210B484D
S3150800126000F00AF80121206800F0D0FD10BD0E49F3
S315080012700868401C0860704710B40C4C23685B1C57
S31508001280236010BC704700004CC8000854C800080A
S31508001290C403002068FD00203C04002088BC000828
S315080012A0A8BC0008C8BC0008C8030020CC0300205E
S315080012B038B504000025002C28D02100B1F1804F54
S315080012C018D05848814215D05748814212D05748FD
S315080012D0814205D05648814202D05648814213D1F0
S315080012E003F021FA05005448006810F4605F00D046
S315080012F06D000BE003F00AFA05004F48006810F489
S31508001300E06F00D06D0001E000200500280032BD26
S31508001310F8B505000E0014000027002D09D0002E90
S3150800132007D0002C06D0B4F5807F03D0B4F5007F33
S3150800133000D040E02868B0F1804F3CD02868FFF71D
S31508001340B7FF002837D0002C01D101210AE0B4F5F7
S31508001350807F01D1022105E0B4F5007F01D1042187
S3150800136000E00021B0FBF1F1344AB2FBF6F2B1FB22
S31508001370F2F25FF0010CB2FBFCF10B00B3F5803F13
S3150800138002D201210F000BE0BCF5004F02D25FEA42
S315080013904C0CF0E74FF6FF718C4501D08C46EAE716
S315080013A03900C9B2002906D02C616146491E89B2A6
S315080013B069609BB2EB603800C0B2F2BD10B504009C
S315080013C01F48844202D100F042FF0AE01D488442C9
S315080013D002D100F0AAFE04E01B48844201D100F0C5
S315080013E08FFE10BD10B504002000FFF7E7FF10BD03
S315080013F010B504001348844202D100F0B0FD05E0A0
S315080014001148844202D100F0A4FDFFE710BD7047E1
S3150800141080B50C48FEF7CAFF01BD80B50A48FEF73D
S31508001420C5FF01BD0010004000140040002C01401B
S3150800143000400140004401400810024040420F00AD
S3150800144094010020D4010020140200207047704740
S315080014507047704770477047BFF34F8FDFF86824AF
S31508001460116811F4E061DFF8640401431160BFF309
S315080014704F8F00BFFDE780B5DFF85404DFF854143A
S3150800148001600221416040F6FF7181608168C16098
S3150800149003F04AFA002806D0DFF83C244321DFF897
S315080014A03C04FFF7E9FE01BD80B5DFF8240403F02C
S315080014B0A7FA002806D0DFF828244E21DFF81C04F6
S315080014C0FFF7DAFE01BD38B504002168DFF8140419
S315080014D00140B1F1005F06D0DFF80C245821DFF88F
S315080014E0FC03FFF7C9FE206880F30888DFF8FC03D1
S315080014F00460201D0568A847FEE738B5DFF8F053F5
S3150800150001202872DFF8EC0301680905090D40F28D
S315080015103540814206D0DFF8E0236C21DFF8BC03B2
S31508001520FFF7AAFEDFF8D403008880B20B2806D09E
S31508001530DFF8C4236E21DFF8A403FFF79DFEDFF86A
S31508001540C0030068C00031D52968DFF8B8038142B6
S315080015501DD16946DFF8B00302680A600024002C32
S315080015600DD1684650F824102869814205D1DFF864
S315080015709C0328602869FFF7A6FF641CEFE7DFF8DD
S3150800158078238821DFF85403FFF776FE0EE02968F2
S31508001590DFF87C03814209D128686860DFF86C03AC
S315080015A02860E868401CE86028698047FFF763FF01
S315080015B003F066FA0121DFF85C03016003F0ECFA38
S315080015C0002806D0DFF83023AC21DFF81003FFF738
S315080015D053FE00F0DDF900F04AFADFF83C0300F0AC
S315080015E055FAFFF761FF0220287231BDF0B5A9B0A0
S315080015F0DFF8FC420320207203F042FA03F0CCFA2B
S31508001600002806D0DFF81423E221DFF8D002FFF71E
S3150800161033FE2168DFF80803814217D0DFF8040398
S31508001620814213D0DFF8E40281420FD0DFF8D402FA
S31508001630814203D0DFF8D802814210D1DFF8DC22DC
S31508001640EA21DFF89802FFF717FE0FE020686060CE
S31508001650DFF8D4022060E068401CE06006E0002065
S3150800166020750020E0600020A4F89402DFF89002BC
S315080016700168490101D568A100E0002108910168C7
S31508001680C90002D5DFF8A41200E0002108AD6960A0
S315080016900168890002D5DFF8981200E00021A960E8
S315080016A00168490002D5DFF88C1200E00021E960E4
S315080016B00168002902D5DFF8801200E000210C91AC
S315080016C00168090102D5DFF8741200E0002169619A
S315080016D00168C90102D5DFF8681200E000210E9101
S315080016E00168890102D5DFF85C1200E000210F913C
S315080016F0002161720168002902D40168090102D536
S315080017000121617228E00168890002D40168490054
S3150800171002D5022161721FE00168C90017D5626807
S31508001720DFF8FC118A4206D07E498A4206D07749FC
S315080017308A4206D008E0062161720DE0072161722F
S315080017400AE00521617207E00421617204E001687C
S31508001750490101D503216172016851F40001016054
S3150800176000260027082F10D255F8270000280AD08F
S3150800177055F82730744AD6F1640110A8304403F0AE
S315080017801DFA801906007F1CECE7704D704807901B
S315080017907048069070480590704804907048039009
S315080017A070480290E068019014F11400009010ABA4
S315080017B06D4A4FF4C07114F58A7003F0FFF90700FB
S315080017C000202075607A01280FD128680190686882
S315080017D00090AB68654AD7F5C07104EB070010F5B1
S315080017E08A7003F0EBF9C0190700FFF75DFE0420C5
S315080017F020720520207229B0F0BD80B572B6062188
S315080018003B480172FFF733FDFFF726FE01BD80B5A1
S31508001810574803F060FA02BD50696E002DE9FF478C
S3150800182004002500534E324F3E483860D5F818A0BC
S31508001830D5F81480FFF7EBFF814601F0DBF80300CB
S31508001840CDF80CA0CDF808804B4800680190CDF87B
S3150800185000904A4A4FF4807117F1140003F0AEF96C
S31508001860FFF7CBFFBDE8FF87000000001EF0040F5E
S315080018700CBFEFF30880EFF30980CFE7FEE780B5EA
S315080018803F493D480160FFF7F1FF01BD80B53D497D
S3150800189039480160FFF7EAFF01BD80B509A136485E
S315080018A00160FFF7E3FF01BD80B5374932480160A3
S315080018B0FFF7DCFF01BD80B534492F480160FFF70B
S315080018C0D5FF01BD427573000CED00E00400FA0572
S315080018D0F84B00200030004048C6000858C60008EB
S315080018E068C600080000FE2F6CC3000808ED00E07B
S315080018F068FD0020002004E080C300080075FF1F73
S315080019009410024001896745D8C800089078563473
S3150800191012907856A8000020B4C7000894C300089F
S31508001920785634128967452367452301C0C70008DE
S3150800193054C0000878C60008CCC7000888C6000846
S31508001940D8C70008A8C300086CC800089075FF1F10
S3150800195044C8000884C7000878C7000824C00008DF
S31508001960CCC8000890C70008F4B8000808BD0008ED
S31508001970A803002000ED00E0D4030020D4BB000833
S3150800198074C80008E4C700087CC8000884C80008B2
S3150800199018B597B01421002201A803F0ABF9442129
S315080019A0002206A803F0A6F94549086850F08050B9
S315080019B00860086810F0805000900098414A01209D
S315080019C0116860F34A211160106810F4C060009035
S315080019D0009806A802F0B8FE1098012804D03A4AE2
S315080019E01E213A48FFF748FC012006905FF4803034
S315080019F007900220109003201190022012901020C8
S31508001A00139007201490022015900220169006A81D
S31508001A1002F096F8002804D02B4A33212B48FFF70A
S31508001A202BFC0F20019003200290002003904FF416
S31508001A308060049005900324210001A802F0BAFCF6
S31508001A40002804D0204A3C212048FFF715FC18B08E
S31508001A5010BD1F49086850F08070086000211D48B5
S31508001A6001601D49086850F001000860704780B59C
S31508001A7017480068C00103D517480068C00701D495
S31508001A80FFF7E7FF01BD13480068704770B504000B
S31508001A90124D2868082811D211482968090100EB57
S31508001AA00106FFF7F0FF3060002C04D00C2221005D
S31508001AB0301D03F061F92868401C286070BD0000DD
S31508001AC0581002400070004090C20008F8C500088F
S31508001AD0FCED00E0041000E0001000E0B003002078
S31508001AE0B000002038B586B00500280040B203F0E3
S31508001AF07BF9002840F0A78059482A0052B21421E1
S31508001B0012FB01F100EB01042068B0F1904F18D0E8
S31508001B1021685448814214D021685348814210D024
S31508001B202168524881420CD021685148814208D028
S31508001B3021685048814204D04F4A11214F48FFF787
S31508001B409BFBA06810F1010F7DD02168B1F1904F81
S31508001B500FD04448814217D0434881421FD043489A
S31508001B60814227D0424881422FD04248814237D00D
S31508001B7041E04349086850F001000860086810F021
S31508001B800100009000983BE03D49086850F00200CB
S31508001B900860086810F002000090009830E03849A4
S31508001BA0086850F004000860086810F00400009007
S31508001BB0009825E03249086850F00800086008686F
S31508001BC010F00800009000981AE02D49086850F0B7
S31508001BD010000860086810F01000009000980FE0E8
S31508001BE02749086850F080000860086810F08000EF
S31508001BF00090009804E0204A15212048FFF73CFB96
S31508001C00E06810F04040B0F1004F03D0B0F1404F0B
S31508001C1006D00AE00021280040B203F00FF904E0DC
S31508001C200121280040B203F009F9A0880190E06874
S31508001C3020F04040039020690490A068029001A912
S31508001C40206803F029F907B030BD10B50024032C2D
S31508001C5005D2200040B2FFF745FF641CF7E710BD28
S31508001C60ACBA00080004004800080048000C004808
S31508001C7000100048001C00487CC20008E8C500089F
S31508001C804C10024010B5182003F028FB0400002C65
S31508001C9004D000202060201D03F066FC200010BD43
S31508001CA02DE9F14F84B00E0014001F000E9D049814
S31508001CB000905FF0000A5FF000080498002805D13C
S31508001CC0874A4FF4A0718448FFF7D6FA16F07F4F7B
S31508001CD005D0834A40F241117F48FFF7CDFA002E1E
S31508001CE005D17F4A4FF4A1717B48FFF7C5FA01F089
S31508001CF053F9002807D1002D05D0794A40F245113D
S31508001D007548FFF7B9FA00F0FFFD0098D0F800B063
S31508001D103A003100584600F0F1F80290029800287F
S31508001D200AD0D94600200500002C1CD0009801686E
S31508001D30B1430098016016E0002D03D1D946012071
S31508001D40804610E0002C01D05AF0807A002F01D08E
S31508001D505AF0806A2A005AEA06010098001D00F027
S31508001D605FFF5FF0000900F0D5FD0190002D2AD035
S31508001D700198002807D15FF0805158480160BFF3E9
S31508001D804F8FBFF36F8F01F07BF983465FEA8B10A5
S31508001D9016D401F0B1FB0098006883463A0031007A
S31508001DA0584600F0ABF8002806D0002C04D000985E
S31508001DB00168B143009801600120804601F0B6FB36
S31508001DC0D94629F07F49484605B0BDE8F08FF8B5F1
S31508001DD004000D002600002C05D1424A4FF4EA7192
S31508001DE03D48FFF749FA15F07F4F05D03D4A40F2C6
S31508001DF0D5113948FFF740FA01F07EFB376830689D
S31508001E00A843306001F092FB3800F2BD2DE9FE4F81
S31508001E1005008B465FF00008A9460024002D05D171
S31508001E20314A40F212212C48FFF726FA1BF07F4F61
S31508001E3005D02D4A40F213212748FFF71DFA19F15C
S31508001E400400009000980830029000F05DFD0098AC
S31508001E50D0F80CA0D9F800005BEA0000C9F8000029
S31508001E60029882452CD0DAF804000190DAF80000CE
S31508001E7000210C0010F07F410F0020F07F40060083
S31508001E80780106D4D9F80000064209D001200400DA
S31508001E9006E0D9F800003040B04201D10120040024
S31508001EA0002C0AD0F80101D556EA0808D9F800101E
S31508001EB051F00071504600F045FF01988246CFE781
S31508001EC0D9F8000030EA0800C9F8000000F022FD41
S31508001ED0D9F80000BDE8FE8F18C6000804ED00E03A
S31508001EE0B8C200083CC00008CCC2000838B50500D6
S31508001EF00C0021002800FFF789FF31BD10B403004C
S31508001F000020002A04D10B4208D00124200005E055
S31508001F1011EA03048C4201D10124200010BC704749
S31508001F2010B50400DFF8E80641688C4202D103F0D8
S31508001F301CFC0DE0416D8C4203D1503003F015FCBA
S31508001F4006E0DFF8D0263221DFF8CC06FFF794F951
S31508001F5010BD80B5DFF8B80603F0C1FB01BD80B53A
S31508001F60DFF8B80603F0BBFB01BD00002DE9F84F0A
S31508001F702DED028BDFF8985615F15007DFF8A0060D
S31508001F807860DFF8A016B960DFF89C16BA681160A9
S31508001F902E00DFF898B6C6F804B0DFF89416B160DC
S31508001FA0DFF89026B1680A60696D0C1D5FF4E131AF
S31508001FB02160002161600021A1600021E1600C21FF
S31508001FC02161002161614FF40041A1610021E161B5
S31508001FD0696D11F124090021C9F800108046002115
S31508001FE0C8F874100021C8F87810002188F8701015
S31508001FF0DFF84416C8F8001003F0E3FD002806D001
S31508002000DFF838266021DFF81006FFF735F968682B
S31508002010001D2100202204F055FB6868071D4FF4B7
S3150800202061403860686810F124080020C8F800008C
S31508002030DA460020CAF874000020CAF878000020A2
S315080020408AF87000DFF8F805CAF80000584603F069
S31508002050B8FD002806D0DFF8E4256A21DFF8B805C0
S31508002060FFF70AF95FF00009B9F1020F44D25020D0
S3150800207000FB09F12944D1F808A00021CAF8081084
S3150800208000FB09F02844406804F092FA0400002C8A
S3150800209006D1DFF8A8257521DFF87C05FFF7ECF8EF
S315080020A000EE104AB8EE400ADFEDAB0A80EE800A71
S315080020B0BCEEC08A4FF4007218EE101A5046FFF7AD
S315080020C027F9002806D1DFF874257721DFF84805B7
S315080020D0FFF7D2F800208AF83D005046FEF756F87A
S315080020E0002806D0DFF854257921DFF82C05FFF7FC
S315080020F0C3F819F10109B7E7BDEC028BBDE8F18F0A
S3150800210080B5DFF84015086850F0200008600868B8
S3150800211010F020000090009800220D21372001F0D1
S31508002120F0F8372001F014F901BD80B5DFF8141571
S31508002130086850F010000860086810F01000009059
S31508002140009800220D21362001F0DBF8362001F038
S31508002150FFF801BD2DE9FF4100F01EFF012806D05A
S31508002160DFF8E424AC21DFF8B004FFF785F8002493
S3150800217004F0ECFA00283BD002A801900320009056
S3150800218000234FF48072DFF8C4140FF2353000F0E4
S3150800219083FA01282CD10298002829D00298FFF743
S315080021A056F8DFF8AC5400220C21062004F0A6FBF2
S315080021B0286000220C21062004F0A0FBDFF8941406
S315080021C008602868002813D0A0250026DFF8407488
S315080021D0B84632002900404602F08CFDDFF8780444
S315080021E03860DFF878043865FFF7C0FE0120040080
S315080021F02000C0B204B0BDE8F08138B586B004004E
S315080022001421002201AD280002F074FD2168DFF8D0
S315080022105004814219D1DFF84C14086850F00200C6
S315080022200860086810F002000090009801200190EC
S3150800223002200290002003900020049001200590BF
S3150800224001A9DFF8240402F027FE07B030BD81B0EB
S31508002250DFF81814086850F400600860086810F47D
S3150800226000600090009801B0704718B599B0102129
S31508002270002215AC200002F03DFD0C2100226C4620
S31508002280200002F037FD1C2100220EAC200002F0CF
S3150800229031FD2C21002203AC200002F02BFDDFF8D3
S315080022A0D043DFF8BC032060012060600020A060F6
S315080022B03F20E06000202061002060610020A061CE
S315080022C02000FDF763FF4FF48050159015A92000F4
S315080022D0FEF7BAFA2000FDF7E1FF00200090002083
S315080022E00190002002906946200004F067FE6020F5
S315080022F00E9020200F9000201090002011900020B2
S315080023001290002013900020149004220EA9200099
S31508002310FEF716F90020039000200490002005908F
S3150800232000200690002007904FF4005008900020E7
S31508002330099000200A905FF000700B9000200C9026
S3150800234000200D9003A9200004F002FF2000FFF7EB
S3150800235054FF1AB010BD0000001BB74A18B585B067
S3150800236040F6FF0400940020019000200290694680
S315080023705FF0904002F090FD002221005FF090404F
S3150800238002F046FF4FF480700090BA480190002092
S31508002390029069465FF0904002F07EFD002200211F
S315080023A0172000F0AEFF172000F0D2FF4FF22600EC
S315080023B00090012001900020029000200390AA4C72
S315080023C06946200002F068FD002247F22601200037
S315080023D002F01EFF01224FF40041200002F018FF10
S315080023E0802000900020019000200290694620007D
S315080023F002F052FDFFF739FF04219D4804F094FDD1
S3150800240005F042F806B010BD9B48704770B5040049
S31508002410FFF7FAFF050095F8270000282DD1A88CAC
S3150800242023280ED2A88C2C54200080B2000AA98C2E
S3150800243029444870A88C801CA884002085F82600AA
S315080024401BE0012005F058F80020A884012085F833
S3150800245026008A4E3068002805D1894A4FF4CD7186
S315080024606D48FEF709FF00234FF4806231688548FE
S3150800247001F0EAFA012005F03FF870BD18B593B0EF
S315080024800C2100226C46200002F034FC69480390B7
S3150800249000200490002005904FF4FA500690002082
S315080024A0099003A8FDF772FE002000900020029014
S315080024B0694603A804F082FD14B010BD00000000B0
S315080024C0F8B50400624E3068002805D16E4A4FF40C
S315080024D0E5715148FEF7D0FE4D4D5E480068E8624A
S315080024E03068E867052085F830001F2085F88000E9
S315080024F0012085F8910095F8910085F841000022A1
S315080025006249686803F0A6FC002805D05E4A40F2D6
S31508002510D7114148FEF7B0FE00225D49686D03F009
S3150800252099FC002805D0584A4FF4EC713A48FEF752
S31508002530A3FE5848FFF7AAFAFFF710FFFFF79EFF1A
S31508002540FFF762FF06004D4F3868002805D14E4A4E
S315080025504FF402713048FEF78FFE5FF0FF300090AF
S31508002560002301224FF480613868FFF799FB0700C2
S315080025707805E5D5012086F82700002086F826008C
S315080025800020B084022324223100686803F08BFB04
S315080025905FF0FF3000900023012202216868D0F81E
S315080025A08C00FFF77DFB0021242903DA00207054F4
S315080025B0491CF9E7002086F82700C1E710B5022074
S315080025C004F09AFF172000F0DBFE022004F094FFC7
S315080025D02024B4F5007F05D2200080B202F040FE28
S315080025E06400F6E710BD38B50400200080B2B0F5E7
S315080025F0807F0CD180211C4802F0F3FD0128F9D018
S3150800260004F042FF0500280080B2FFF7FFFE31BD47
S315080026109849002084C0000828BD0008E849002021
S31508002620404800201402002000140040EC48002016
S31508002630D40100200010004000380140D4BE000834
S31508002640004800405810024098C600088CC8000888
S31508002650DC030020D803002094C80008F0C700084F
S31508002660002C01404C100240000400486010024053
S315080026709401002000002110C0020020C40300209D
S31508002680A8C60008ED1E0008B8C600088C00002081
S3150800269080000020FCC700082DE9F84384B0060036
S315080026A00F0090469946404680B2800002F016FE1A
S315080026B00500002D0BD0502002F010FE0400002C5F
S315080026C001D0256304E0280002F09FFE00E0002404
S315080026D0002C12D00020039002940D9801900C98BB
S315080026E000904B46424692B23900300000F00AF894
S315080026F0200000F083F8012001E05FF0FF3005B00C
S31508002700BDE8F0832DE9F14F82B00C0093461E0018
S315080027100C9F0D9DDDF83880002C07D1DFF80C23BF
S315080027204FF45871DFF89005FEF7A6FD5FEA8B00B7
S3150800273000905FF0A50AD8F83090524600994846AE
S3150800274002F0D8FAD8F8300000EB8B00B0F1040993
S315080027505FEAD9095FEAC90919F00700002807D016
S31508002760DFF8C8224FF45D71DFF84C05FEF784FDEB
S315080027705FF0000ABAF10A0F0CD214F80A1008EB37
S315080027800A0080F8341014F80A00002802D01AF15A
S31508002790010AEFE7002088F83D00052F01D3042041
S315080027A00700C8F82C70C8F840700020C8F8440024
S315080027B018F1040002F0E7FE18F1180002F0E3FE33
S315080027C0C8F81080D7F10500C8F81800C8F82480A2
S315080027D00020C8F84800002088F84C00002088F837
S315080027E04D0032000299484600F0FEFDC8F8000088
S315080027F0002D01D0C5F80080BDE8F78F38B5040074
S3150800280000F07AFEDFF830130868401C0860DFF82D
S315080028102C532868002806D12C60086801280DD199
S3150800282000F050FB0AE0DFF818030068002805D11D
S31508002830E06A2968C96A884200D32C60DFF8041365
S315080028400868401C0860DFF8003319680122E06A4E
S31508002850824011431960211DDFF8F032E26A142024
S31508002860424303EB020002F091FE00F05FFEDFF840
S31508002870D002006800280DD02868C16AE06A814243
S3150800288008D25FF08051DFF85C050160BFF34F8F17
S31508002890BFF36F8F31BD1CB5DFF8D007019000205C
S315080028A0009000234FF48072DFF8C4170FF2ED5042
S315080028B0FFF7F2FE0400012C02D100F0A9FE040085
S315080028C0012C15D1502080F31188BFF34F8FBFF329
S315080028D06F8F5FF0FF31DFF89C0701600121984890
S315080028E001600021DFF8D403016000F0A6FD0AE0CC
S315080028F014F1010F07D1DFF8802740F60401DFF84D
S31508002900B803FEF7B9FC13BDDFF868130868401C66
S3150800291008607047F8B500250026DFF85843206898
S31508002920002807D1DFF8542740F66801DFF8880346
S31508002930FEF7A2FC00F0E0FD2068401E206020683B
S31508002940002853D17C48006800284FD0DFF8481784
S315080029500868002824D0C868C068050015F1180062
S3150800296002F03BFE281D02F038FE774B196801225B
S31508002970E86A824011431960291D744BEA6A1420DB
S31508002980424303EB020002F001FEE86A6B4909685C
S31508002990C96A8842DAD30120DFF810170860D5E73C
S315080029A0002D01D000F0E1FADFF8F0763C68002C43
S315080029B00CD000F03DF8002803D00121DFF8EC0622
S315080029C00160641E002CF4D100203860DFF8DC06B4
S315080029D0006800280AD0012006005FF08050DFF862
S315080029E004140860BFF34F8FBFF36F8F00F09EFD8E
S315080029F03000F2BDDFF8C4020068704780B500F009
S31508002A00BFFD0021DFF8B402006802BD10B5DFF88B
S31508002A105C462068002806D1DFF8842640F6E611D1
S31508002A20A548FEF729FC206810BD0000BCC10008B7
S31508002A302DE9F84300268F48006800286DD19F4885
S31508002A400468641C0460002C1DD1DFF87C83D8F868
S31508002A5000000068002806D0DFF8482640F6622104
S31508002A609548FEF709FCD8F80090DFF86013086867
S31508002A70C8F80000C1F80090DFF82C160868401C5A
S31508002A80086000F072FADFF8EC85D8F80000844296
S31508002A9037D3CD4908680068002804D15FF0FF30B5
S31508002AA0C8F800002DE00868C068C06807007868A4
S31508002AB00500AC4202D2C8F8005022E0381D02F0E8
S31508002AC08CFDB86A002803D017F1180002F085FDBE
S31508002AD01D490A680123F86A83401A430A60391DAA
S31508002AE01A4BFA6A1420424303EB020002F04EFD29
S31508002AF0F86A12490968C96A8842CAD301200600D9
S31508002B00C7E70E4800681149C26A1420424388582C
S31508002B10022807D30120060004E0DFF880150868BC
S31508002B20401C0860DFF884050068002801D00120F1
S31508002B3006003000BDE8F283F8030020E803002011
S31508002B4004040020140400200004002030010020A2
S31508002B50F8B548480068002804D00121DFF84C057C
S31508002B60016043E00021DFF844050160DFF84045D5
S31508002B702068056B5FF0A5362868B04208D16868FA
S31508002B80B04205D1A868B04202D1E868B04205D083
S31508002B90206810F134012068FEF746FBDFF81405BB
S31508002BA00068B0FA80F5D5F11F051426DFF8087518
S31508002BB006FB05F03858002806D1DFF8002540F650
S31508002BC088313D48FEF758FB06FB05F607EB06007D
S31508002BD0416849684160426810F108018A4202D199
S31508002BE04168496841604068C0682060F1BD38B5F1
S31508002BF004000D00002C06D1DFF8C42440F69F31EE
S31508002C002D48FEF739FBDFF85C05006810F118015E
S31508002C10200002F0C7FC0121280000F05DFA31BD52
S31508002C2070B504000D001600002C06D1DFF89424B8
S31508002C304FF43B612048FEF71FFB0E48006800284A
S31508002C4006D1DFF8802440F6B4311B48FEF714FBA2
S31508002C50DFF8102555F0004011688861106810F1FA
S31508002C601801200002F092FC0121300000F034FA2D
S31508002C7070BD00002004002070B504000E00150089
S31508002C80002C06D1DFF8402440F6CA310A48FEF780
S31508002C90F3FADFF8D004006810F11801200002F0FA
S31508002CA075FC002D02D05FF0FF30060029003000C9
S31508002CB000F012FA70BD0000A4C80008FC0300204A
S31508002CC038B50500E868C468002C07D1DFF8FC238E
S31508002CD040F6FA31DFF8F803FEF7CEFA14F11800D9
S31508002CE002F07BFCDFF8EC030068002815D1201DF4
S31508002CF002F073FCDFF8BC3319680122E06A8240EF
S31508002D0011431960211DDFF8B033E26A14204243EB
S31508002D1003EB020002F03AFC05E014F11801DFF8B3
S31508002D20780302F033FCDFF888030068C16AE06ABA
S31508002D30814205D201200122DFF870130A6000E003
S31508002D40002032BD70B506000D00DFF88803006864
S31508002D50002807D1DFF8102440F63141DFF8700368
S31508002D60FEF78AFA55F000403060F468002C07D167
S31508002D70DFF8F42340F63941DFF85403FEF77CFA0E
S31508002D80300002F02AFC201D02F027FCDFF824336D
S31508002D9019680122E06A824011431960211DDFF893
S31508002DA01833E26A1420424303EB020002F0EEFBFA
S31508002DB0DFF8FC020068C16AE06A814203D2012199
S31508002DC0DFF8E802016070BDEC030020F003002084
S31508002DD0DFF8D41209680160DFF8901309684160CA
S31508002DE07047000004ED00E02DE9F04104000D00F5
S31508002DF0002C07D1DFF8782340F66541DFF8D002CA
S31508002E00FEF73AFA002D07D1DFF8642340F666414B
S31508002E10DFF8BC02FEF730FA00F06EFBDFF84C0371
S31508002E2006686768F71BDFF88812086890F84D008F
S31508002E30002806D00020096881F84D005FF00108D7
S31508002E4022E0286810F1010F02D15FF000081BE0AC
S31508002E50DFF8540201682068814205D0606886421E
S31508002E6002D35FF001080FE02868874208D2286875
S31508002E70C01B28602000FFF7ABFF5FF0000803E0E7
S31508002E80002028605FF0010800F050FB4046BDE8CE
S31508002E90F0810121DFF814020160704710B50400C3
S31508002EA000F03BF8DFF810020068022807D35FF04D
S31508002EB0805138480160BFF34F8FBFF36F8FFEF71D
S31508002EC09DF9EDE770B50024052C09D2DFF8E81165
S31508002ED0142000FB04F0084402F046FB641CF3E7E8
S31508002EE0DFF89062300002F03FFBDFF88C522800D2
S31508002EF002F03AFBDFF8A00102F036FBDFF87C02AD
S31508002F0002F032FBDFF8780202F02EFBDFF87402DB
S31508002F100660DFF87402056070BD38B5DFF86C52DC
S31508002F202868002817D000F0E7FADFF85002C068D2
S31508002F30C0680400201D02F050FBDFF85412086830
S31508002F40401E08602868401E286000F0EFFA20003E
S31508002F5000F002F8E2E731BD10B50400206B02F07C
S31508002F6054FA200002F051FA10BDDFF81822106852
S31508002F700068002804D15FF0FF323E48026006E090
S31508002F801068C068C06801004A683A48026070471D
S31508002F900000000004ED00E0DFF8F80100680028F2
S31508002FA001D1012007E0DFF82C010068002801D1D3
S31508002FB0022000E00020704770B5040026000025B6
S31508002FC0002C50D0DFF8E8000068864207D0DFF80A
S31508002FD0CC2140F67A71DFF8F800FEF74DF9706CEF
S31508002FE0002807D1DFF8B42140F67B71DFF8E0004E
S31508002FF0FEF742F9706C401E7064F16A306C8142CB
S3150800300031D0706C00282ED1301D02F0E6FA002867
S315080030100FD1DFF88C21F16A14204143505800285B
S3150800302007D1DFF8903019680122F06A824091438F
S315080030301960306CF062F06AD0F10500B061DFF813
S31508003040743019680122F06A824011431960311DF3
S31508003050DFF84C31F26A1420424303EB020002F017
S3150800306095FA01200500280070BD00001C04002008
S31508003070ACC800081804002074C5000858C7000822
S31508003080DFF8E0201068806911681268D26AD2F108
S3150800309005028A61704700002C03002008040020FE
S315080030A0D4C1000888C50008100400200C040020BC
S315080030B0E803002000040020300100209CC5000819
S315080030C0ECC1000808BE000828BE0008D0BF0008EA
S315080030D0A4C80008200400202DE9F04105000C00D2
S315080030E022480768DFF87C800021D8F8000080F8BD
S315080030F04D10D8F80000001D02F06FFA002808D11C
S31508003100D8F8000024490A680123C06A83409A4314
S315080031100A6015F1010F08D1002C06D0D8F8000076
S31508003120011D174802F032FA1AE0E8190600D8F825
S3150800313000004660BE4207D2D8F80000011D1248BA
S31508003140006802F02FFA0BE0D8F80000011D0D48C0
S31508003150006802F027FA13490868864200D20E6012
S31508003160BDE8F081E8030020F8BB0008FC03002056
S3150800317004C20008040300201803002040030020AE
S3150800318054030020EC030020F0030020F403002081
S31508003190F803002004040020000400201CC20008D4
S315080031A0300100201804002003490A680348006813
S315080031B082180A60704700BFE4030020A8000020B8
S315080031C010B410F00702DFF8E8311C684FF6FF016B
S315080031D00C4054EA0224DFF8DC110C431C6010BCD6
S315080031E07047DFF8CC010068C0F302207047010081
S315080031F049B200290AD4012210F01F018A40DFF8DB
S31508003200B831010049B2490943F821207047010045
S3150800321049B200290AD4012210F01F018A40DFF8BA
S315080032209C31010049B2490943F82120704710B47E
S31508003230020052B2002A06D40C01DFF884310200DB
S3150800324052B29C5409E00A01DFF8784103005BB2E8
S3150800325013F00F03234403F8042C10BC704770B412
S31508003260030013F00704D4F10700052801D304204E
S3150800327001E0D4F10700251D072D01D2002600E044
S31508003280E61E012515FA00F0401E0140B14015FA68
S3150800329006F6761E32401143080070BC704710B51A
S315080032A00400601EB0F1807F01D3012011E0611E89
S315080032B0DFF8140101600F215FF0FF30FFF7B7FF59
S315080032C00021DFF8080101600721DFF80401016029
S315080032D0002010BD10B50400072C0ED0062C0CD00B
S315080032E0052C0AD0042C08D0032C06D0DFF8E420DD
S315080032F0A721DFF8E400FDF7BFFF2000FFF760FF16
S3150800330010BD2DE9F04180460C0015000026102D51
S3150800331006D3DFF8C820BF21DFF8BC00FDF7ACFFF5
S31508003320102C06D3DFF8B420C021DFF8AC00FDF777
S31508003330A3FFFFF756FF07002A0021003800FFF712
S315080033408EFF0100404640B2FFF771FFBDE8F081ED
S3150800335010B50400200040B2002806D5DFF880200A
S31508003360D321DFF87400FDF787FF200040B2FFF78E
S315080033703EFF10BD10B504002000FFF790FF10BDFA
S3150800338010B50400200040B2002807D5DFF8542005
S3150800339040F26511DFF84000FDF76EFF200040B2ED
S315080033A0FFF735FF10BD80B504F0D0F801BD000069
S315080033B00CED00E00000FA0500E100E080E200E024
S315080033C000E400E018ED00E014E000E018E000E09A
S315080033D010E000E048BD00089CC00008B4C0000822
S315080033E00CC40008F0BE0008031F5FF08070186068
S315080033F01B1F4808400018601B1F0FF219001860B1
S31508003400B3F114000260031F7FF002001860B3F1E5
S315080034102000704780B56C48006810F1010F04D091
S315080034206A4ADD216A48FDF727FF502080F3118894
S31508003430BFF34F8FBFF36F8FFEE73EB5654C21682C
S315080034406548814204D1654AEF216148FDF714FFBA
S3150800345021686348814204D1604AF0215C48FDF73F
S315080034600BFF604C20780190FF20207020788DF8A3
S3150800347000009DF8001011F050015B4801705B4D8B
S31508003480072028609DF80000000608D52868401E19
S3150800349028609DF8000040008DF80000F2E72868D3
S315080034A0D0F10700042805D04C4A40F221114848BB
S315080034B0FDF7E2FE286800022860286810F4E0603C
S315080034C02860019820704A48016851F4700101602B
S315080034D0016851F07041016004F03AF800203A4959
S315080034E0086004F099F84348016851F040410160CA
S315080034F004F082F800203EBD80B5502080F3118884
S31508003500BFF34F8FBFF36F8F2F490868401C0860C1
S315080035100868012809D138480068000605D0374AE6
S3150800352040F25D112A48FDF7A7FE01BD10B5264CED
S315080035302068002805D1324A4FF4B2712448FDF7B5
S315080035409BFE2068401E20602068002802D10020CB
S3150800355080F3118810BD80B5502080F31188BFF321
S315080035604F8FBFF36F8FFFF763FA002803D05FF022
S31508003570805121480160002080F3118801BD0000B8
S3150800358038B5EFF30585102D0FD31E480068405D4A
S315080035900400200014490978C0B2884205D21A4AA4
S315080035A04FF41A710A48FDF767FE10480068174974
S315080035B0096811F4E061884205D2134A4FF41E7176
S315080035C00348FDF759FE31BDA0000020E0C20008FF
S315080035D05CC8000800ED00E071C20F41F4C20008A3
S315080035E070C20F4100E400E03E040020D003002032
S315080035F020ED00E034EF00E004ED00E008C3000829
S315080036001CC30008D4C80008E8BC00080CED00E09C
S315080036101CB5002400F0F5F9DFF858040068002806
S315080036200ED0DFF8540401900420009000234FF4D4
S315080036308072DFF848140FF22110FFF72DF8040006
S31508003640002C07D1DFF838244FF48971DFF83404E9
S31508003650FDF712FE200016BD2DE9FF4704008A4635
S3150800366015001E000C9F5FF00008002C07D1DFF83C
S3150800367018244FF4C371DFF80C04FDF7FDFDDFF8DD
S31508003680F493D9F80000002824D0CDF800A00195BD
S315080036900294BAF1060F15DAFFF77EFC022808D164
S315080036A000233A006946D9F8000003F067F9804616
S315080036B010E0002300226946D9F8000003F05EF9FD
S315080036C0804607E0002332006946D9F8000003F077
S315080036D016FA8046404604B0BDE8F08710B5DFF814
S315080036E098432068002807D1DFF8A0234FF4D87143
S315080036F0DFF89003FDF7C0FD206810BDF8B505009A
S315080037000E00DFF88C030068C068C768381D01F032
S3150800371064FFF86901281BD12B003200B9694919E1
S31508003720380000F088F8002812D000200090002306
S315080037302A0000213800FFF78FFF0400002C07D16C
S31508003740DFF850234FF4F471DFF83803FDF794FDE2
S315080037503800796A8847F1BD38B50500684600F033
S3150800376042F804000099200000F003F800F08BF8F6
S31508003770F4E77CB505000C00FFF7C6F8684600F0CC
S3150800378046F80600009800282AD1002C08D1AE4237
S3150800379006D3FFF7BFF831002800FFF7AFFF21E097
S315080037A0002C08D0DFF8F00200680068002801D174
S315080037B0012400E000242200A91BDFF8B8020068F3
S315080037C003F08CFBFFF7A6F800280BD15FF08051B9
S315080037D0DFF8C8020160BFF34F8FBFF36F8F01E0B8
S315080037E0FFF798F873BD0100DFF8A4221068006897
S315080037F0002801D1012000E00020086008680028A0
S3150800380003D11068C068006800E00020704770B5F2
S315080038100400FFF7EFF80500DFF884623068854298
S3150800382004D200F0AAF80120206001E00020206000
S315080038303560280070BD2DE9F04104000D00160022
S315080038401F005FF0000865602461AE420CD3F11BCF
S31508003850A069814202D30120804611E0211D8E48CD
S31508003860006801F09FFE0BE0BE4204D2BD4202D3BF
S315080038700120804604E0211D8548006801F092FE7B
S315080038804046BDE8F081F8B586B0002201A979481E
S31508003890006803F096F900286DD0019800280CD529
S315080038A002AD002D05D17F4A40F2C7217548FDF7C4
S315080038B0E3FCA96868682A68904701980028E4D458
S315080038C0039807007869002802D0381D01F085FEA4
S315080038D005A8FFF79CFF0600019800280ED00228CD
S315080038E00CD00BD304282ED02CD3062806D03DD3D3
S315080038F0082827D002D3092825D03BE0029B3200AE
S315080039000299B86941183800FFF795FF002818D0C2
S315080039103800796A8847F869012812D10020009092
S315080039200023029AB869821800213800FFF794FE2E
S315080039300400002C05D15B4A40F201315148FDF7DD
S315080039409BFCA2E7A1E70298B861B869002805D1EF
S31508003950544A4FF446714B48FDF78EFC330032004B
S31508003960B96989193800FFF766FF8EE7380001F054
S315080039704CFD8AE789E707B0F0BD2DE9FC41DFF881
S315080039801081D8F800000068002831D0D8F8000067
S31508003990C06800680500D8F80000C068C06807005D
S315080039A0381D01F01AFE3800796A8847F869012837
S315080039B0E5D1B86940190600B54207D27E603F6175
S315080039C0391DD8F8000001F0EDFDD8E70020009079
S315080039D000232A0000213800FFF73EFE0400002CD1
S315080039E005D1314A40F272312648FDF745FCC6E753
S315080039F0D8F8002028480168C8F800100260BDE819
S31508003A00F38170B5FFF778FD1A4C2068002818D1A5
S31508003A10264E300001F0A8FD254D280001F0A4FD32
S31508003A201B4806601C48056000221021142002F07D
S31508003A3065FF20602068002803D01E49206803F02F
S31508003A4030FAFFF773FD70BDF8B584B007000C00B7
S31508003A5015001E007FF0010000900197029403955F
S31508003A600023320069460348006803F048F805B0A9
S31508003A70F0BD00002C04002030040020B4C8000863
S31508003A8034C2000838C800084CC2000848BE0008FE
S31508003A902404002064C200082804002004ED00E085
S31508003AA034040020ECBF0008B0C5000868030020F5
S31508003AB07C030020BCC8000838B504000D00002CA3
S31508003AC008D0B4F5804F05D01A4A4FF4E07118486B
S31508003AD0FDF7D2FB2800C0B2012809D02800C0B2E1
S31508003AE0022805D0134A40F2C1111148FDF7C4FB5C
S31508003AF0002C08D11048006880050AD503F0A6FDF9
S31508003B00002806D013E00C480068800501D403F0AD
S31508003B1097FD0A49086830F0040008602800C0B21A
S31508003B20012801D130BF02E040BF20BF20BF31BD10
S31508003B3070C40008FCC000081470004010ED00E0D6
S31508003B402DE9FE4F0400002C02D1012000F026BC0E
S31508003B50206800280BD0207810F03F0F07D1DFF837
S31508003B60C42A4FF4CF71DFF8C00AFDF785FBDFF8EA
S31508003B703868356815F00C05DFF8A07AD7F80080A4
S31508003B8018F003082078C00640F10281A0690028D1
S31508003B900AD0A069012807D0DFF8882A40F2A711C1
S31508003BA0DFF8840AFDF768FBE069B0F5807F07D384
S31508003BB0DFF8702A4FF4D471DFF86C0AFDF75CFB66
S31508003BC0206A002828D0206A102825D0206A2028B4
S31508003BD022D0206A30281FD0206A40281CD0206AAC
S31508003BE0502819D0206A602816D0206A702813D069
S31508003BF0206A802810D0206A90280DD0206AA02834
S31508003C000AD0206AB02807D0DFF8182A40F2A9118E
S31508003C10DFF8140AFDF730FB002D04D00C2D78D1FF
S31508003C20B8F1010F75D1DFF87CA7DAF80000800734
S31508003C3004D5A069002801D10120AFE3DAF8000015
S31508003C40000704D5DAF8001011F0F00105E0DFF8F6
S31508003C50D0090168090911F0F001206A81421ED2D3
S31508003C60206A00F0F3FD002801D0012096E3DAF877
S31508003C70000050F00800CAF80000DAF8001031F029
S31508003C80F001206A0143CAF80010DFF87C2A1068A0
S31508003C9030F47F40E16950EA012010601DE0DAF84F
S31508003CA0000050F00800CAF80000DAF8001031F0F9
S31508003CB0F001206A0143CAF80010DFF84C2A1068A0
S31508003CC030F47F40E16950EA01201060206A00F074
S31508003CD0BDFD002801D0012060E300F0A7FCDFF855
S31508003CE0601A3268C2F30312895C11F01F01C840DA
S31508003CF0DFF8B8160860DFF8B806006803F0CAFCF3
S31508003D008DF800009DF80000002841D09DF80000BD
S31508003D1044E3A069002827D0DFF88866306850F0A9
S31508003D200100306003F0E6FC81463068800707D45E
S31508003D3003F0E0FCB0EB09000328F6D303202DE3DB
S31508003D40306850F008003060316831F0F001206AC0
S31508003D5001433160DFF8B029106830F47F40E1692B
S31508003D6050EA0120106013E0DFF838663068400832
S31508003D704000306003F0BEFC81463068800707D5F6
S31508003D8003F0B8FCB0EB09000328F6D3032005E3DB
S31508003D902078C0076ED5606800280FD06068B0F537
S31508003DA0803F0BD06068B0F5A02F07D0DFF87428E5
S31508003DB040F21121DFF87008FDF75EFA082D04D0ED
S31508003DC00C2D0CD1B8F1030F09D1DFF8D80500681E
S31508003DD080034FD5606800284CD10120DEE2606878
S31508003DE0B0F5803F06D1DFF8BC15086850F480307E
S31508003DF0086018E06068B0F5A02F0AD1DFF8A405BE
S31508003E00016851F480210160016851F48031016034
S31508003E1009E0DFF89005016831F480310160016836
S31508003E2031F4802101606068002811D003F062FC3B
S31508003E308146DFF87005006880031BD403F05AFC3E
S31508003E40B0EB090041F289318842F2D30320A5E29A
S31508003E5003F050FC8146DFF84C050068800309D55D
S31508003E6003F048FCB0EB090041F289318842F2D3ED
S31508003E70032093E22078800769D5E06800280BD0F4
S31508003E80E068B0F5807F07D0DFF898274FF4117106
S31508003E90DFF89407FDF7F0F92069202807D3DFF843
S31508003EA0842740F24521DFF88007FDF7E5F9042D60
S31508003EB004D00C2D16D1B8F1020F13D1DFF8E404A3
S31508003EC00068400504D5E068002801D1012065E2B4
S31508003ED0DFF83408016831F0F851226951EA0261C5
S31508003EE0016034E0E06800281DD0DFF8B864306867
S31508003EF050F48070306003F0FDFB81463068400561
S31508003F0007D403F0F7FBB0EB09000328F6D3032028
S31508003F1044E2DFF8F407016831F0F851226951EA02
S31508003F200261016013E0DFF87C64306830F4807069
S31508003F30306003F0DFFB81463068400507D503F0A3
S31508003F40D9FBB0EB09000328F6D3032026E2207834
S31508003F50000738D5606900280AD06069012807D0AB
S31508003F60DFF8C02640F28521DFF8BC06FDF784F9A4
S31508003F706069002813D0DFF8A866306850F00100A1
S31508003F80306003F0B7FB8146306880071BD403F026
S31508003F90B1FBB0EB09000328F6D30320FEE1DFF8F6
S31508003FA08066306840084000306003F0A3FB814615
S31508003FB03068800707D503F09DFBB0EB090003289E
S31508003FC0F6D30320EAE12078400740F194800026E2
S31508003FD0A06800280DD0A06801280AD0A068052886
S31508003FE007D0DFF840264FF43671DFF83C06FDF7B8
S31508003FF043F9DFF8E4A8DAF80000C0000DD4DAF8CF
S31508004000000050F08050CAF80000DAF8000010F0FE
S3150800401080500190019801200600DFF8C0B8DBF84F
S315080040200000C00514D4DBF8000050F48070CBF80B
S31508004030000003F05FFB8146DBF80000C00507D4EB
S3150800404003F058FBB0EB09000328F5D30320A5E1DC
S31508004050A068012806D1DFF88818086850F0010022
S31508004060086017E0A06805280AD1DFF87408016817
S3150800407051F004010160016851F00101016009E095
S31508004080DFF85C080168490849000160016831F0F9
S3150800409004010160A068002811D003F02BFB8146BB
S315080040A0DFF83C08006880071BD403F023FBB0EB5D
S315080040B0090041F289318842F2D303206EE103F008
S315080040C019FB8146DFF818080068800709D503F050
S315080040D011FBB0EB090041F289318842F2D3032083
S315080040E05CE13000C0B2012805D1DAF8000030F0F2
S315080040F08050CAF800002078800638D5606A002803
S315080041000AD0606A012807D0DFF8182540F23D3149
S31508004110DFF81405FDF7B0F8606A002813D0DFF859
S31508004120C467306850F00100306003F0E3FA814656
S31508004130306880071BD403F0DDFAB0EB09000328CA
S31508004140F6D303202AE1DFF89C6730684008400070
S31508004150306003F0CFFA81463068800707D503F050
S31508004160C9FAB0EB09000328F6D3032016E1A06AC2
S3150800417000280DD0A06A01280AD0A06A022807D014
S31508004180DFF8A02440F26631DFF89C04FDF774F8E6
S31508004190A06A002800F001810C2D00F0CD80A06AED
S315080041A0022840F0AA80E06A002810D0E06A0128B8
S315080041B00DD0E06A02280AD0E06A032807D0DFF8A3
S315080041C064244FF45C71DFF86004FDF755F8206B42
S315080041D0002802D0206B092807D3DFF8482440F2CC
S315080041E07131DFF84404FDF747F8606B082802D3FD
S315080041F0606B572807D3DFF82C2440F27231DFF8BA
S315080042002804FDF739F8A06B022802D3A06B2028F2
S3150800421007D3DFF810244FF45D71DFF80C04FDF7BF
S315080042202BF8E06B022810D0E06B04280DD0E06B69
S3150800423006280AD0E06B082807D0DFF8E82340F202
S315080042407631DFF8E403FDF717F8206C022810D062
S31508004250206C04280DD0206C06280AD0206C08286B
S3150800426007D0DFF8C02340F27731DFF8BC03FDF74B
S3150800427003F84C4E306830F08070306003F03AFA3C
S3150800428082463068800107D503F034FAB0EB0A009D
S315080042900328F6D3032081E03968DFF84C0601408D
S315080042A0E06A0143206B401E51EA0011606B51EA37
S315080042B00021E06B4008401E51EA4051206C40083E
S315080042C0401E51EA4061A06B51EAC061396030680E
S315080042D050F080703060386850F08070386003F0B5
S315080042E009FA81463068800157D403F003FAB0EB27
S315080042F009000328F6D3032050E02A4E306830F030
S31508004300807030603068000103D438688008800007
S3150800431038603968DFF8D4050140396003F0EAF9F6
S3150800432081463068800138D503F0E4F9B0EB09001E
S315080043300328F6D3032031E0A06A012801D1012021
S315080043402CE03868804618F00300E16A884222D1DA
S3150800435018F07000216B491EB0EB011F1BD118F431
S31508004360FE40616BB0EB012F15D118F07840A16BB8
S31508004370B0EBC16F0FD118F4C000E16B4908491EB4
S31508004380B0EB415F07D118F0C061206C4008401EB1
S31508004390B1EB406F01D0012000E00020BDE8FE8FA0
S315080043A0000000000010024008100240AC00002087
S315080043B0A40000202DE9F04104000D00002C01D1D5
S315080043C0012029E12068002802D02068102807D398
S315080043D0DFF81C2540F22E41DFF84C02FCF74CFFB3
S315080043E0002D0FD0012D0DD0022D0BD0032D09D095
S315080043F0042D07D0DFF8F82440F22F41DFF8280211
S31508004400FCF73AFFDFF8EC74386810F00700A842AA
S315080044100BD23868C008C00028433860386810F0E6
S315080044200700A84201D00120F6E02078C00755D53C
S31508004430606800280FD0606801280CD060680228E0
S3150800444009D06068032806D0DFF8A42440F2464164
S315080044507548FCF711FF6068032806D1DFF8980451
S31508004460006880011CD40120D6E06068022806D1C5
S31508004470DFF884040068800312D40120CCE0606869
S31508004480002806D1DFF870040068800708D40120E8
S31508004490C2E0DFF864040068400501D40120BBE0EF
S315080044A0DFF85884D8F80010890889006068014345
S315080044B0C8F8001003F01EF90600D8F8000010F03E
S315080044C00C006168B0EB810F08D003F013F9801B6C
S315080044D041F289318842F0D303209DE02078800795
S315080044E029D5A06800281ED0A06880281BD0A068FF
S315080044F0902818D0A068A02815D0A068B02812D097
S31508004500A068C0280FD0A068D0280CD0A068E028E2
S3150800451009D0A068F02806D0DFF8D42340F2A241DB
S315080045204148FCF7A9FEDFF8D423116831F0F00101
S31508004530A06801431160386810F0070085420BD265
S315080045403868C008C00028433860386810F007008B
S31508004550A84201D001205FE02078400721D5E06815
S31508004560002816D0E068B0F5806F12D0E068B0F584
S31508004570A06F0ED0E068B0F5C06F0AD0E068B0F55D
S31508004580E06F06D0DFF8682340F2C1412648FCF701
S3150800459073FEDFF86823116831F4E061E0680143CF
S315080045A011602078000722D52069002816D02069D6
S315080045B0B0F5806F12D02069B0F5A06F0ED02069D3
S315080045C0B0F5C06F0AD02069B0F5E06F06D0DFF805
S315080045D020234FF499611448FCF74EFEDFF81C239C
S315080045E0106830F46050216950EAC100106000F08C
S315080045F01DF85349DFF804231268C2F30312895CD5
S3150800460011F01F01C840DFF8F8120860DFF8F4025D
S31508004610006803F03FF8C0B2BDE8F0810C10024014
S315080046209410024084C4000898C400082DE9F0419B
S3150800463000260020DFF8C412096811F00C01DFF823
S31508004640C8C2DCF8007017F00307002903D00C294C
S315080046501AD1012F18D1DFF8A0E2DEF800805FEA50
S31508004660087806D4DFF8DCE0DEF800E0CEF3032EA7
S3150800467003E0DEF800E0CEF3031EA44E56F82E60E3
S3150800468000290CD130000AE0042903D1DFF880E2C2
S31508004690704604E0082902D1DFF874E270460C2956
S315080046A02DD1DCF800E01EF0030E73469E46BEF1DF
S315080046B0020F03D0BEF1030F03D005E0DFF850E286
S315080046C003E0DFF84CE200E0B646DCF80020C2F36F
S315080046D00212521C1500DCF80020C2F3062202FB67
S315080046E00EFEBEFBF5F2DCF800C0CCF3416C1CF103
S315080046F0010C5FEA4C0C6446B2FBF4FC6046BDE86C
S31508004700F0817F48006870470410024080B5FFF7C3
S31508004710F8FF8049794A1268C2F30222895C11F0CF
S315080047201F01C84002BD80B5FFF7EBFF7949734A00
S315080047301268C2F3C222895C11F01F01C84002BD8B
S3150800474048C700089410024010B50400002C05D193
S31508004750714A40F2C1517148FCF78EFD3F20206036
S3150800476065480168490303D55FF4A021616008E044
S315080047700168C90303D55FF48031616001E0002157
S3150800478061600168C90702D50121A16101E0002124
S31508004790A16163490A68C2F30722E261026812F05E
S315080047A0F00222620268D20503D54FF48072E260F5
S315080047B001E00022E2600968C1F304612161484909
S315080047C00A68520702D50521A16007E00968C907EA
S315080047D002D50121A16001E00021A16051490968C3
S315080047E0C90702D50121616101E0002161613D49E6
S315080047F00968C90702D50121616201E000216162E9
S315080048000068C00102D50220A06201E00120A06272
S315080048103D48016811F00301E1620168C1F3021124
S31508004820491C21630168C1F3062161630168C1F36C
S315080048304151491C4900E1630168C1F34161491CC2
S31508004840490021640068C00EA06310BD7CB5040051
S315080048500025214E3068C00003D502F0EBFE0100AA
S315080048600FE0306850F080503060306810F08050AB
S315080048700090009802F0DEFE0100306830F08050AB
S315080048803060B1F5007F09D1812C15D3A12C02D354
S315080048900220050010E0012005000DE0812C02D35E
S315080048A00320050008E0802C02D10220050003E061
S315080048B0702C01D1012005000E4A1068C008C000FE
S315080048C028431060106810F00700A84201D00120A4
S315080048D000E0002076BD000058100240007000403D
S315080048E090100240981002408C809D01FFFFEEFE5A
S315080048F0ACC4000800200240001002400810024024
S31508004900AC000020A40000200C10024020BB0008C8
S315080049100024F4009CC8000814C1000898C40008C4
S31508004920041002409410024038B50400002C01D14E
S3150800493001205EE021682F48814204D02E4AA52135
S315080049402E48FCF799FC6068002816D06068012894
S3150800495013D06068022810D0606803280DD06068FC
S3150800496004280AD06068052807D06068062804D09D
S31508004970214AA6212148FCF77FFCA068B0F5805F94
S3150800498004D31D4AA7211D48FCF776FCE068B0F55C
S31508004990805F04D3184AA8211848FCF76DFC4CF62A
S315080049A0CC412068016045F2555120680160616874
S315080049B020684160A1682068816002F09BFE0500BE
S315080049C02068C068002806D002F094FE401B3128F3
S315080049D0F6D303200DE020680169E068814203D020
S315080049E0E1682068016103E04AF6AA2120680160AF
S315080049F0002032BD0030004018C70008E4C0000897
S31508004A0001004AF6AA2208680260002070470EE0F4
S31508004A1002684368024408305FEAC37C44BF4B44DB
S31508004A205B1E52F804CB43F804CB091FF9D150F8A2
S31508004A30041B0029ECD1704780B54B49086850F42F
S31508004A40700008604949086850F0010008600022B3
S31508004A50474802600A68474802400A604FF4805295
S31508004A6045480260086830F4802008600021434801
S31508004A7001605FF0006142480160FCF73EFD01BD40
S31508004A80F0B4002000250021022200230224374E1C
S31508004A9037683F0704D43B4E3668C6F3032602E060
S31508004AA03668C6F30316384D55F82650304E376823
S31508004AB017F00C07002F06D0042F07D0082F0BD0AD
S31508004AC00C2F0FD040E0314F3D603FE0304FDFF80C
S31508004AD0BCC0CCF8007039E0DFF8B4C02B4FC7F87B
S31508004AE000C033E0244FD7F800C01CF0030C63461F
S31508004AF0D7F800C0CCF3021C1CF1010C64469C4696
S31508004B00BCF1020F03D0BCF1030F05D009E0DFF8B2
S31508004B1080C0BCFBF4FC06E0DFF874C0BCFBF4FC08
S31508004B2001E0B5FBF4FC3968C1F3062101FB0CF181
S31508004B303F68C7F341677F1C7F003A00B1FBF2FC70
S31508004B40124FC7F800C001E0104F3D60114F36689C
S31508004B50C6F3031617F806C00C4E376837FA0CF773
S31508004B603760F0BC7047000088ED00E00010024096
S31508004B7008100240FFFFF6EA0C1002401810024027
S31508004B8008ED00E09410024020BB0008AC000020AD
S31508004B900024F40048C7000810B500240320FEF7D7
S31508004BA099FB0F2002F076FD002802D001200400B0
S31508004BB001E002F0A5FD2000C0B210BD08B438B56A
S31508004BC085B009AD00240495039400290EBF01940D
S31508004BD00190491E0291009404AB01A90748784444
S31508004BE01A3002F092FD019901B10C70002858BFE5
S31508004BF0039806B030BC5DF808FB00BF070A000042
S31508004C0010B50400002C04D1374A0C213748FCF7AC
S31508004C1033FB00202178332918DA6178002902D07D
S31508004C2061780D2900DB11E0A178002902D0A1786E
S31508004C30202900DB0AE0E178182907DA21793C29DE
S31508004C4004DA61793C2901DA01210800C0B210BDF5
S31508004C5018B58BB004002000FFF7D2FF002804D156
S31508004C605FF0FF305FF0FF3112E020786430059086
S31508004C706078401E0490A0780390E078029020792E
S31508004C8001906079009000200890684603F0C4FB04
S31508004C900CB010BD13B5DDE90001002901D10028CB
S31508004CA017D0DDE900235FF0FF305FF0FF318B425C
S31508004CB001D182420DD0684603F01EFC0400200094
S31508004CC003F022FC04EB0001002001F8010C20008F
S31508004CD000E0074816BD10B504002000FFF7B8FF2E
S31508004CE0FFF7D8FF10BD0000F8C300082CC800085D
S31508004CF0E8C6000862F30F2262F31F42401810F05C
S31508004D00030308D0C91A1FD3DB0748BF00F8012DD3
S31508004D1028BF20F8022D130030B414461546103962
S31508004D2028BF20E93C00FAD8490728BF20E90C002B
S31508004D3048BF40F8042D890028BF20F8022D48BF37
S31508004D4000F8012D30BC7047C91818BF00F8012DAE
S31508004D50CB0728BF00F8012D704703681AB95A1EF9
S31508004D60026008467047197811B94FF0FF3070474E
S31508004D70591C01601878704701B58B071AD183074B
S31508004D8024D1121F21D351F8043BA3F1013C2CEA8C
S31508004D90030C1CF0803C04BF40F8043BF1E79CFA86
S31508004DA08CFCBCFA8CF1C1F118018B40CB4040F861
S31508004DB0043B13E0042A09D311F8013B521E00F8FC
S31508004DC0013B5BB18B07F7D1D9E7121D5AB111F830
S31508004DD0013B521E00F8013B03B1F8D111001CBF7C
S31508004DE00022FFF78BFF01BD10B50400200040B27A
S31508004DF010F1010F03DB200040B2032804DB0C4A44
S31508004E0046210C48FCF738FA21005FF0FF3049B21A
S31508004E10814207D0084864B2142114FB01F14058B6
S31508004E20002801D1012000E00020C0B210BD00BF5B
S31508004E309CBE0008D8C50008ACBA000838B50400FE
S31508004E400D00200040B2FFF7CFFF002820D1280030
S31508004E50C0B200280ED014200E49220052B212FB0E
S31508004E6000F28A5823005BB213FB00F008448088DE
S31508004E7090610DE014200749220052B212FB00F29D
S31508004E808A5823005BB213FB00F0084480889062BE
S31508004E9031BD00BFACBA00082DE9F84F05000E0079
S31508004EA00027B5F1904F1AD0DFF8D803854216D0FF
S31508004EB0DFF8D403854212D0DFF8D00385420ED03E
S31508004EC0DFF8CC0385420AD0DFF8C803854206D04E
S31508004ED0DFF8C423B321DFF8C403FCF7CDF9306843
S31508004EE0000404D03068000C0004002806D0DFF85F
S31508004EF0A823B421DFF8A403FCF7BEF970680028DC
S31508004F0036D07068012833D07068112830D07068A0
S31508004F1002282DD0706812282AD07168DFF880031D
S31508004F20814225D07168DFF87C03814220D0716800
S31508004F30DFF8740381421BD07168DFF87003814281
S31508004F4016D07168DFF86803814211D07168DFF8FE
S31508004F50640381420CD07068032809D070680B2856
S31508004F6006D0DFF83423B521DFF83003FCF784F9DF
S31508004F70B06800280CD0B068012809D0B0680228AB
S31508004F8006D0DFF81423B621DFF81003FCF774F90E
S31508004F903068F840002800F022815FF00108316887
S31508004FA018FA07F001400C00002C00F01681706812
S31508004FB0022802D07068122841D1B5F1904F1AD054
S31508004FC0DFF8C002854216D0DFF8BC02854212D04F
S31508004FD0DFF8B80285420ED0DFF8B40285420AD05F
S31508004FE0DFF8B002854206D0DFF8AC22C521DFF82B
S31508004FF0AC02FCF741F93069102806D3DFF898228D
S31508005000C621DFF89802FCF737F93800C00805EB27
S315080050108000016A0F2217F00700C0B280008240A4
S315080050209143326917F00700C0B2800082401143ED
S315080050308B463800C00805EB8000C0F820B0D5F8CC
S3150800504000905FF0030A3800C0B240001AFA00F078
S3150800505039EA0009317911F003013800C0B240007D
S31508005060814051EA0909C5F800907068012808D0FE
S315080050707068022805D07068112802D07068122856
S315080050802DD1F06800280FD0F06801280CD0F06800
S31508005090022809D0F068032806D0DFF8FC21DA21B7
S315080050A0DFF8F801FCF7E8F8A9683800C0B2400054
S315080050B01AFA00F08143F2683800C0B24000824014
S315080050C01143A960686818FA07F830EA0800726898
S315080050D0C2F30012BA4010438146C5F80490E96845
S315080050E03800C0B240001AFA00FA31EA0A01D6F8C6
S315080050F008B03800C0B240001BFA00FB5BEA010B9F
S31508005100C5F80CB07068C00067D5DFF8AC11086840
S3150800511050F001000860086810F00100009000983F
S31508005120DFF898113800800851F820200F2317F06F
S315080051300300C0B2800083409A43B5F1904F01D175
S31508005140002318E0DFF83C01854201D1012312E073
S31508005150DFF83401854201D102230CE0DFF82C0187
S31508005160854201D1032306E0DFF82401854201D1F7
S31508005170042300E0072317F00300C0B28000834031
S315080051801A433800800841F82020DFF834110868EF
S31508005190A0437368DB0300D520430860DFF82411B9
S315080051A00A68A24373689B0300D522430A60DFF8A6
S315080051B018010168A1437368DB0200D52143016029
S315080051C0DFF80801D0F800B03BEA040B72689202D7
S315080051D001D554EA0B0BC0F800B07F1CD8E6BDE831
S315080051E0F18F38B504000D00280080B2002805D1DB
S315080051F0374A4FF4C9712948FCF73EF82169280057
S3150800520080B2014201D0012000E00020C0B232BDC8
S3150800521070B504000E001500300080B2002805D1D4
S315080052202C4A4FF4D9711D48FCF726F82800C0B25D
S31508005230002809D02800C0B2012805D0254A40F226
S31508005240B3111648FCF718F82800C0B2002803D096
S31508005250300080B2A06102E0300080B2A06270BD6A
S3150800526010B504001C480268210089B20A4206D01B
S31508005270210089B20160200080B2FDF7B4F910BDA3
S31508005280000000000004004800080048000C004820
S3150800529000100048001C004808C70008CCC00008D9
S315080052A0000011100000211000003110000012103B
S315080052B00000221000003210601002400800014071
S315080052C00004014004040140080401400C040140A4
S315080052D048C400085CC40008140401402DE9F84FCE
S315080052E004000025FDF710FBDFF85482D8F800000B
S315080052F0002801D100F0BFF8DFF84892D9F800007D
S3150800530004426FD1002C13D08F480068041914F09A
S31508005310070F0DD014F1080114F007000C00241A29
S3150800532014F0070F04D0894A95218948FBF7A4FF92
S31508005330002C57D0DFF81CA2DAF80000A04251D39F
S315080053408548060000688346DBF80400A04207D2B9
S31508005350DBF80000002803D05E46DBF800B0F3E770
S31508005360D8F8000083453DD0774831680268114473
S315080053700D00DBF80010316000684000DBF804100F
S31508005380091B884214D20BEB0400070017F007002C
S31508005390002804D06D4AC2216D48FBF76DFFDBF883
S315080053A00400001B7860CBF80440380000F096F83B
S315080053B0DAF80010DBF80400091ACAF80010674882
S315080053C0DAF800100268914202D2DAF80010016099
S315080053D0DBF80410D9F800000143CBF804100020CC
S315080053E0CBF80000FDF796FA002D01D1FBF725FF53
S315080053F015F00700002805D0544A4FF48171544827
S31508005400FBF73AFF2800BDE8F28FF8B5040025003F
S31508005410002C2FD04C480068404205442E00494FC6
S3150800542071683868014205D14D4A4FF48B71484876
S31508005430FBF722FF3068002805D0494A40F21711C9
S315080054404348FBF719FF71683868014212D0306883
S3150800545000280FD17168386881437160FDF754FAE6
S315080054603C4A1168706841181160300000F036F83F
S31508005470FDF750FAF1BD70B44FF48042394B19006C
S3150800548011F0070F06D0C91DC908C900521A100025
S315080054901A0012180B00304C236000206060D418E4
S315080054A029480068241AE408E400254D2C600026E3
S315080054B0286846600026286806601800261A46608E
S315080054C02D6805604668254D2E604668214D2E607C
S315080054D05FF000461B4D2E6070BC704730B41E4A04
S315080054E01168814201D21268FAE71300516819441B
S315080054F0814204D1546841680C19546010000400B4
