S01100005255535F526567756C2E73726563BB
S315080000003074002035CD0008B5CE000883210008DD
S31508000010912100089F210008AD210008000000007A
S31508000020000000000000000000000000917A0008AF
S31508000030B9CE000800000000397A000861120008ED
S31508000040BDCE0008C1CE0008C5CE0008C9CE00083E
S31508000050BB210008CDCE0008D1CE0008D5CE0008B9
S31508000060D9CE0008DDCE0008E1CE0008E5CE0008AE
S31508000070299D0008339D0008159D00081F9D00084E
S31508000080E9CE0008EDCE0008F1CE0008F5CE00084E
S31508000090F9CE0008FDCE000801CF0008651C00084F
S315080000A005CF000809CF00080DCF000811CF0008BA
S315080000B015CF0008000000000000000019CF000856
S315080000C01DCF000821CF000825CF000829CF00083A
S315080000D02DCF0008019D000831CF00080B9D0008B0
S315080000E035CF000839CF00080000000000000000E6
S315080000F000000000000000000000000000000000F2
S31508000100000000003DCF00080000000041CF0008B5
S315080001100000000000000000AD1C0008951400084F
S3150800012045CF000849CF00084DCF000851CF000839
S3150800013055CF000800000000000000000000000085
S3150800014059CF00085DCF000861CF000865CF0008C9
S3150800015069CF00086DCF000871CF000875CF000879
S3150800016079CF00087DCF000881CF00080000000085
S3150800017085CF000889CF00088DCF00080000000051
S3150800018091CF000895CF000899CF000810B5040054
S31508000190002C01D1012071E02168DFF8600181425D
S315080001A01FD02068B0F1804F1BD02168DFF85001BE
S315080001B0814216D02168DFF84C01814211D02168AE
S315080001C0DFF8440181420CD02168DFF84001814202
S315080001D007D0DFF83C2140F21511DFF8380101F0AD
S315080001E08DF8A068002813D0A068102810D0A06841
S315080001F020280DD0A06840280AD0A068602807D01B
S31508000200DFF80C214FF48B71DFF8080101F076F85E
S31508000210206900280FD02069B0F5807F0BD02069AF
S31508000220B0F5007F07D0DFF8E82040F21711DFF8B5
S31508000230E40001F063F8A06900280AD0A0698028C4
S3150800024007D0DFF8CC204FF48C71DFF8C80001F036
S3150800025055F894F83D00002805D1002084F83C00A4
S31508000260200001F0EDF8022084F83D00211D2068E9
S3150800027000F05AFD012084F83D00002010BD10B59D
S3150800028004002168DFF8740081421FD02068B0F1AD
S31508000290804F1BD02168DFF86800814216D021689C
S315080002A0DFF86000814211D02168DFF85C008142E6
S315080002B00CD02168DFF85400814207D0DFF85820B7
S315080002C04FF4DE71DFF84C0001F018F82068C168B9
S315080002D051F001012068C16020688068DFF83C1091
S315080002E00140062908D0B1F5803F05D0206802688C
S315080002F052F0010220680260002010BD002C014067
S315080003000010004000140040004001400044014035
S315080003109CCA0008B0CA0008F0C600080700010019
S3150800032010B50400002C01D1012071E02168DFF826
S31508000330E40081421FD02068B0F1804F1BD02168AD
S31508000340DFF8E000814216D02168DFF8DC00814240
S3150800035011D02168DFF8C00081420CD02168DFF88F
S31508000360BC00814207D0DFF8C42040F2A241DFF882
S31508000370B00000F0C3FFA068002813D0A0681028BA
S3150800038010D0A06820280DD0A06840280AD0A06800
S31508000390602807D0DFF8942040F2A341DFF88000F8
S315080003A000F0ACFF206900280FD02069B0F5807FE7
S315080003B00BD02069B0F5007F07D0DFF8702040F237
S315080003C0A441DFF85C0000F099FFA06900280AD074
S315080003D0A069802807D0DFF8542040F2A541DFF84D
S315080003E0400000F08BFF94F83D00002805D100205E
S315080003F084F83C00200001F037F8022084F83D001C
S31508000400211D206800F090FC012084F83D000020A2
S3150800041010BD0000002C014000400140004401408E
S31508000420B0CA00080010004000140040C4CA000802
S3150800043010B504002068006980071AD52068C068CE
S31508000440800716D57FF00201206801610120207718
S315080004502068806910F0030F03D0200001F078FCB3
S3150800046005E0200001F015F8200001F072FC0020DC
S3150800047020772068006940071AD52068C0684007B9
S3150800048016D57FF0040120680161022020772068D4
S31508000490806910F4407F03D0200001F059FC05E084
S315080004A0200000F0F6FF200001F053FC0020207722
S315080004B02068006900071AD52068C068000716D5A5
S315080004C07FF0080021680861042020772068C06949
S315080004D010F0030F03D0200001F03AFC05E02000DD
S315080004E000F0D7FF200001F034FC002020772068B8
S315080004F00069C0061AD52068C068C00616D57FF000
S31508000500100021680861082020772068C06910F467
S31508000510407F03D0200001F01BFC05E0200000F01E
S31508000520B8FF200001F015FC00202077206800693C
S31508000530C0070AD52068C068C00706D57FF0010144
S3150800054020680161200000F095FF20680069000618
S315080005500AD52068C068000606D57FF080012068A5
S315080005600161200001F0F6FB20680069C0050AD584
S315080005702068C068000606D57FF48071206801618E
S31508000580200001F0E8FB2068006940060AD52068CB
S31508000590C068400606D57FF040012068016120004A
S315080005A001F0DAFB2068006980060AD52068C06871
S315080005B0800606D57FF0200120680161200001F041
S315080005C0CCFB10BD70B506000D001400002C13D02E
S315080005D0042C11D0082C0FD00C2C0DD0102C0BD0BD
S315080005E0142C09D03C2C07D0DFF8C42240F61C6135
S315080005F0DFF8B80200F082FE286860281ED0286856
S3150800060070281BD02968DFF8AC02814216D0296809
S31508000610DFF8A402814211D02868DFF8A0128842C8
S315080006200CD02868DFF89812884207D0DFF88022B5
S3150800063040F61D61DFF8740200F060FEA868002825
S315080006400AD0A868022807D0DFF8642240F61E619F
S31508000650DFF8580200F052FE286900280AD02869F7
S31508000660042807D0DFF8482240F61F61DFF83C026D
S3150800067000F044FE96F83C00012801D1022012E160
S31508000680012086F83C00022086F83D00200000285C
S315080006900DD004283CD0082868D00C2800F08D809E
S315080006A0102800F0B280142800F0D280F4E03168F7
S315080006B0DFF81002814214D03068B0F1804F10D0B4
S315080006C03168DFF8040281420BD0316876488142EE
S315080006D007D0DFF8DC2140F62B61DFF8D00100F007
S315080006E00DFE2900306800F055FB3068816951F02D
S315080006F00801306881613068816931F00401306829
S315080007008161306881692869014330688161C3E085
S315080007103168DFF8B001814210D03068B0F1804FFF
S315080007200CD03168DFF8A001814207D0DFF88021BC
S3150800073040F63C61DFF8740100F0E0FD29003068FE
S3150800074000F098FB3068816951F400613068816176
S315080007503068816931F48061306881613068806908
S31508000760296950EA01203168886195E03168DFF827
S31508000770540181420AD03068B0F1804F06D0DFF8C4
S31508000780302140F64D61494800F0B8FD290030682F
S3150800079000F0E6FB3068C16951F008013068C161B4
S315080007A03068C16931F004013068C1613068C169D7
S315080007B0286901433068C1616EE03168DFF80401D9
S315080007C081420AD03068B0F1804F06D0DFF8E020C9
S315080007D040F65E61354800F091FD2900306800F06A
S315080007E02EFC3068C16951F400613068C161306817
S315080007F0C16931F480613068C1613068C0692969AE
S3150800080050EA01203168C86146E03168DFF8B40073
S31508000810814206D0DFF8982040F66F61234800F041
S315080008206DFD2900306800F04BFC3068416D51F0D1
S315080008300801306841653068416D31F0040130685F
S3150800084041653068416D286901433068416523E098
S315080008503068DFF87010884206D0DFF854204FF46D
S315080008606861124800F04AFD2900306800F052FC21
S315080008703068416D51F40061306841653068416DFA
S3150800088031F48061306841653068406D296950EA05
S31508000890012031684865FFE7012086F83D00002001
S315080008A086F83C00002070BD00440140B0CA00082C
S315080008B0D0C400084000010050000100600001009B
S315080008C070000100002C01400040014070B5040092
S315080008D00D0094F83C00012801D102201DE20120F8
S315080008E084F83C00022084F83D002868B0F5805F53
S315080008F023D02868B0F5005F1FD0286800281CD0D0
S315080009002868102819D02868202816D02868302882
S3150800091013D02868402810D0286850280DD0286899
S3150800092060280AD02868702807D0DFF8202641F208
S315080009300D21DFF8F00300F0E1FC20688668DFF897
S315080009401006064036F47F46206886602868002828
S3150800095000F0C181102800F0BE81202800F0BB817C
S31508000960302800F0B881402800F07281502800F045
S31508000970E980602800F0298170282DD0B0F5805FC5
S3150800098004D0B0F5005F00F08580BFE12168DFF88C
S31508000990C40581421FD02068B0F1804F1BD0216862
S315080009A0DFF87803814216D02068DFF8741388428E
S315080009B011D02168DFF8A00581420CD02168DFF844
S315080009C09C05814207D0DFF8842541F21921DFF81A
S315080009D0540300F093FC99E12168DFF87805814219
S315080009E010D02068B0F1804F0CD02168DFF8680578
S315080009F0814207D0DFF854254FF49151DFF82403DC
S31508000A0000F07CFCA868002813D0A868B0F5805FC1
S31508000A100FD0A868B0F5005F0BD0A868B0F5405FA6
S31508000A2007D0DFF8282541F22321DFF8F80200F085
S31508000A3065FC6868B0F5004F13D06868002810D0C8
S31508000A40686800280DD0686802280AD068680A28ED
S31508000A5007D0DFF8F82441F22421DFF8C80200F0B5
S31508000A604DFCE868102807D3DFF8E02441F2252179
S31508000A70DFF8B00200F042FCEB686A68A9682068F3
S31508000A8000F0A1FB2068806850F077000600206817
S31508000A9086603BE12168DFF8BC0481420BD0206800
S31508000AA0B0F1804F07D0DFF8A42441F23821DFF8EF
S31508000AB0740200F023FCA868002813D0A868B0F5D3
S31508000AC0805F0FD0A868B0F5005F0BD0A868B0F5B6
S31508000AD0405F07D0DFF8742441F23B21DFF8440277
S31508000AE000F00CFC6868B0F5004F13D06868002861
S31508000AF010D0686800280DD0686802280AD068688F
S31508000B000A2807D0DFF8442441F23C21DFF8140212
S31508000B1000F0F4FBE868102807D3DFF8302441F228
S31508000B203D21DFF8000200F0E9FBEB686A68A96876
S31508000B30206800F048FB2068816851F480412068ED
S31508000B408160E3E02168DFF80C04814210D0206858
S31508000B50B0F1804F0CD02168DFF8FC03814207D042
S31508000B60DFF8E82341F24C21DFF8B80100F0C6FBB4
S31508000B706868B0F5004F13D06868002810D0686818
S31508000B8000280DD0686802280AD068680A2807D0A5
S31508000B90DFF8B82341F24F21DFF8880100F0AEFBF9
S31508000BA0E868102807D3DFF8A42341F25021DFF8BC
S31508000BB0740100F0A3FBEA686968206800F0D6FAB9
S31508000BC05021206800F0F7FAA0E02168DFF88403D6
S31508000BD0814210D02068B0F1804F0CD02168DFF830
S31508000BE07803814207D0DFF8642341F25C21DFF8FD
S31508000BF0340100F083FB6868B0F5004F13D06868CD
S31508000C00002810D0686800280DD0686802280AD025
S31508000C1068680A2807D0DFF8342341F25F21DFF835
S31508000C20040100F06BFBE868102807D3DFF81C23E3
S31508000C304FF49351DFF8EC0000F060FBEA6869684E
S31508000C40206800F0A5FA6021206800F0B4FA5DE09B
S31508000C502168DFF80003814210D02068B0F1804F88
S31508000C600CD02168DFF8F002814207D0DFF8DC22D9
S31508000C7041F26C21DFF8AC0000F040FB6868B0F583
S31508000C80004F13D06868002810D0686800280DD077
S31508000C90686802280AD068680A2807D0DFF8AC22F4
S31508000CA041F26F21DFF87C0000F028FBE868102885
S31508000CB007D3DFF8982241F27021DFF8680000F0C8
S31508000CC01DFBEA686968206800F050FA4021206830
S31508000CD000F071FA1AE02168DFF87802814210D034
S31508000CE02068B0F1804F0CD02168DFF86C02814291
S31508000CF007D0DFF8582241F27F21DFF8280000F0FC
S31508000D00FDFA2968206800F056FAFFE7012084F802
S31508000D103D00002084F83C00002070BD0010004013
S31508000D2000140040B0CA000810B40468894B984201
S31508000D3002D0B0F1804F04D134F0700422004C6820
S31508000D401443984209D0B0F1804F06D0824A9042A7
S31508000D5003D0DFF88824904204D134F4407422008A
S31508000D60CC68144334F080044A69144304608A68E2
S31508000D70C2620A688262984206D0774A904203D0D5
S31508000D80DFF85824904201D10A69026301224261C0
S31508000D9010BC70472DE9F84304000D00206A40088E
S31508000DA040002062276A6668D4F81880DFF83004A5
S31508000DB010EA08085FEA98085FEA8808286850EA8F
S31508000DC0080837F00207A8680743DFF888914C45FA
S31508000DD005D06148844202D06048844213D1E8684D
S31508000DE000280AD0E868082807D0DFF8F82341F277
S31508000DF08E71DFF8F40300F081FA37F00807E86827
S31508000E00074337F004074C4505D05348844202D0BF
S31508000E105248844226D1A869B0F5007F0AD0A8694D
S31508000E20002807D0DFF8BC2341F29B71DFF8B8032E
S31508000E3000F064FA6869B0F5807F0AD0686900280E
S31508000E4007D0DFF8A02341F29C71DFF89C0300F07D
S31508000E5055FA36F4807636F400766869064330002B
S31508000E60AE6906436660C4F81880686860632762DE
S31508000E70BDE8F1832DE9F84304000D00206A30F03F
S31508000E8010002062266A6768D4F81880DFF85C03C9
S31508000E9010EA080838F44078286858EA002836F036
S31508000EA02006A86856EA0016DFF8A8904C4514D123
S31508000EB0E86800280AD0E868082807D0DFF8302351
S31508000EC041F2D971DFF8200300F018FA36F08006EF
S31508000ED0E86856EA001636F040064C4505D01E4826
S31508000EE0844202D01D48844227D1A869B0F5007F04
S31508000EF00AD0A869002807D0DFF8F42241F2E77182
S31508000F00DFF8E40200F0FAF96869B0F5807F0AD0E4
S31508000F106869002807D0DFF8D82241F2E871DFF8BF
S31508000F20C80200F0EBF937F4806737F400676869A0
S31508000F3057EA8007A86957EA80076760C4F81880E7
S31508000F406868A0632662BDE8F1830000ECC4000867
S31508000F5088FFFEFF002C014000400140004401408C
S31508000F602DE9F84304000D00206A30F480702062F1
S31508000F70266A6768D4F81C80DFF8640210EA080855
S31508000F805FEA98085FEA8808286850EA080836F48D
S31508000F900076A86856EA0026DFF858924C4514D120
S31508000FA0E86800280AD0E868082807D0DFF8482249
S31508000FB041F62401DFF8300200F0A0F936F40066A5
S31508000FC0E86856EA002636F480664C4507D0DFF80E
S31508000FD02C02844203D0DFF80402844227D1A86990
S31508000FE0B0F5007F0AD0A869002807D0DFF80822E4
S31508000FF041F63101DFF8F00100F080F96869B0F5D3
S31508001000807F0AD06869002807D0DFF8EC2141F60E
S315080010103201DFF8D40100F071F937F4805737F45C
S315080010200057686957EA0017A86957EA0017676002
S31508001030C4F81C806868E0632662BDE8F1832DE980
S31508001040F04104000D00206A30F480502062D4F884
S3150800105020806668E769DFF89401074037F440772F
S31508001060286857EA002738F40058A86858EA00386C
S31508001070DFF88001844207D0DFF88001844203D07C
S31508001080DFF85801844213D16869B0F5807F0AD029
S315080010906869002807D0DFF8682141F67001DFF893
S315080010A0480100F02BF936F48046686956EA80163E
S315080010B06660E76168682064C4F82080BDE8F0814E
S315080010C030B4026A32F480320262056A4368446DBB
S315080010D0DFF80C2114400A68144335F400358A6891
S315080010E055EA0245DFF80C21904207D0DFF80C21BB
S315080010F0904203D0DFF8E420904204D133F48033E1
S315080011004A6953EA0223436044654A688265056270
S3150800111030BC704730B4026A32F480120262056A43
S315080011204368446DDFF8C42014400A6854EA022470
S3150800113035F400158A6855EA0255DFF8B82090425A
S3150800114007D0DFF8B820904203D0DFF8902090420D
S3150800115004D133F480234A6953EA82234360446501
S315080011604A68C265056230BC7047000010B4036A5D
S31508001170046A640864000462846934F0F00454EA7A
S31508001180021433F00A030B438461036210BC7047F0
S3150800119010B4036A33F0100303628469036A34F4F3
S315080011A0704454EA023433F0A00353EA011384610D
S315080011B0036210BC7047826832F070020A4352F02C
S315080011C007028260704710B4846834F47F440C4385
S315080011D0144354EA0324846010BC70470044014059
S315080011E08FFFFEFFD8CA0008B0CA0008FF8FFFFEAF
S315080011F0ECCA0008002C014000CB00080040014062
S3150800120014CB000880B500F073FE01F0BEF8002884
S3150800121004D13E4A23213E4800F070F801F0C7F990
S3150800122001F0E2F93B490860002804D1374A2B212E
S31508001230374800F063F800F04DF800F081FA00280E
S3150800124004D1324A2E21324800F058F800F0AEFD9B
S3150800125001F03EFC2D4A37212D4800F04FF801BD1C
S3150800126080B502F0BFF802F0BCF92B48007A0528D1
S3150800127005D101F0AFFF012801D002F08AFA01BDBD
S3150800128010B5264C2078002809D101F0DCFC00F0C6
S3150800129020F802F041FB00F01CF801202070012123
S315080012A0002002F027FD00F081FD10BD38B50500CD
S315080012B00C001B4A8E21164800F020F831BD80B577
S315080012C0184A9421124800F019F801BD02000120BD
S315080012D07047704710B50F4C2068002804D1124A91
S315080012E0BE210B4800F00AF80121206801F040FAF7
S315080012F010BD0E490868401C0860704710B40C4CB5
S3150800130023685B1C236010BC7047000024CE0008CD
S315080013102CCE0008E00B002068FD0020580C0020A9
S3150800132030C2000850C2000870C20008E40B002052
S31508001330E80B002038B504000025002C28D0210031
S31508001340B1F1804F18D05648814215D05548814290
S3150800135012D05548814205D05448814202D054489B
S31508001360814213D103F0FDFA05005248006810F4D3
S31508001370605F00D06D000BE003F0E6FA05004D480B
S31508001380006810F4E06F00D06D0001E00020050051
S31508001390280032BDF8B505000E0014000027002D00
S315080013A009D0002E07D0002C06D0B4F5807F03D0D4
S315080013B0B4F5007F00D040E02868B0F1804F3CD0FB
S315080013C02868FFF7B7FF002837D0002C01D1012184
S315080013D00AE0B4F5807F01D1022105E0B4F5007F6B
S315080013E001D1042100E00021B0FBF1F1324AB2FB41
S315080013F0F6F2B1FBF2F25FF0010CB2FBFCF10B0066
S31508001400B3F5803F02D201210F000BE0BCF5004F77
S3150800141002D25FEA4C0CF0E74FF6FF718C4501D01B
S315080014208C46EAE73900C9B2002906D02C61614624
S31508001430491E89B269609BB2EB603800C0B2F2BD42
S3150800144010B504001D48844202D100F0F6F90AE0FE
S315080014501B48844202D100F05EF904E01948844230
S3150800146001D100F043F910BD10B504002000FFF7C4
S31508001470E7FF10BD10B504001148844202D100F000
S3150800148045F805E00F48844202D100F039F8FFE735
S3150800149010BD704780B50B48FEF7CAFF01BD0000B6
S315080014A00010004000140040002C0140004001409C
S315080014B0004401400810024040420F0098090020ED
S315080014C0D8090020180A0020DFF8EC07704710B585
S315080014D00400DFF8E80741688C4202D103F0E9FB13
S315080014E00DE0416D8C4203D1503003F0E2FB06E07B
S315080014F0DFF8CC273E21DFF8CC07FFF7FFFE10BD4B
S3150800150080B5DFF8B80703F08EFB01BD38B5FFF7E5
S31508001510DBFF0400012084F80304002003F01CFE0E
S31508001520DFF8A4572868002806D1DFF8A0274E213F
S31508001530DFF89007FFF7E2FE00234FF48062296880
S31508001540DFF88C0702F09EFB002003F005FEDFF8AB
S31508001550840703F068FB31BD2DE9F84F2DED028BAA
S31508001560DFF8585715F15007DFF86C077860DFF891
S315080015706C17B960DFF86817BA6811602E00DFF8D3
S3150800158064B7C6F804B0DFF86017B160DFF85C2707
S31508001590B1680A60696D0C1D5FF4E13121600021B4
S315080015A061600021A1600021E1600C212161002118
S315080015B061614FF40041A1610021E161696D11F19A
S315080015C024090021C9F8001080460021C8F87410C3
S315080015D00021C8F87810002188F87010DFF8101775
S315080015E0C8F8001003F001FE002806D0DFF804272B
S315080015F07821DFF8D006FFF781FE6868001D210014
S31508001600202204F087FB6868071D4FF461403860A4
S31508001610686810F124080020C8F80000DA4600209F
S31508001620CAF874000020CAF8780000208AF870000A
S31508001630DFF8C406CAF80000584603F0D6FD0028AD
S3150800164006D0DFF8B0268221DFF87806FFF756FEC7
S315080016505FF00009B9F1020F44D2502000FB09F1EE
S315080016602944D1F808A00021CAF8081000FB09F09F
S315080016702844406804F0B0FA0400002C06D1DFF8CC
S3150800168074268D21DFF83C06FFF738FE00EE104A77
S31508001690B8EE400ADFEDAB0A80EE800ABCEEC08ADF
S315080016A04FF4007218EE101A5046FFF773FE002822
S315080016B006D1DFF840268F21DFF80806FFF71EFE61
S315080016C000208AF83D005046FEF760FD002806D047
S315080016D0DFF820269121DFF8EC05FFF70FFE19F158
S315080016E00109B7E7BDEC028BBDE8F18F80B5DFF8DD
S315080016F00C16086850F020000860086810F02000F2
S315080017000090009800220D21372001F018FF37209D
S3150800171001F03CFF01BD80B5DFF8E015086850F020
S3150800172010000860086810F0100000900098002269
S315080017300D21362001F003FF362001F027FF01BDF9
S315080017402DE9FF4101F046FD012806D0DFF8B02556
S31508001750C421DFF87005FFF7D1FD002404F02CFB47
S3150800176000283BD002A801900320009000234FF4E4
S315080017708072DFF890150FF2153001F083F8012812
S315080017802CD10298002829D00298FFF7A2FDDFF88D
S31508001790785500220C21062004F0E6FB286000227A
S315080017A00C21062004F0E0FBDFF8601508602868C5
S315080017B0002813D0A0250026DFF80075B8463200A9
S315080017C02900404604F0E6FEDFF844053860DFF8F5
S315080017D044053865FFF7C0FE012004002000C0B2AA
S315080017E004B0BDE8F08138B586B0040014210022A3
S315080017F001AD280004F0CEFE2168DFF81C05814201
S3150800180019D1DFF81815086850F002000860086852
S3150800181010F002000090009801200190022002902A
S3150800182000200390002004900120059001A9DFF80C
S31508001830F00404F0EFFE07B030BD81B0DFF8E41421
S31508001840086850F400600860086810F400600090AA
S31508001850009801B0704718B599B01021002215AC50
S31508001860200004F097FE0C2100226C46200004F0AC
S3150800187091FE1C2100220EAC200004F08BFE2C21C8
S31508001880002203AC200004F085FEDFF89C44DFF854
S3150800189088042060012060600020A0603F20E0608E
S315080018A000202061002060610020A0612000FEF772
S315080018B06DFC4FF48050159015A92000FFF706F827
S315080018C02000FEF72DFD002000900020019000204A
S315080018D002906946200005F009F960200E90202044
S315080018E00F900020109000201190002012900020E8
S315080018F013900020149004220EA92000FEF762FE21
S3150800190000200390002004900020059000200690F7
S31508001910002007904FF400500890002009900020FE
S315080019200A905FF000700B9000200C9000200D903C
S3150800193003A9200005F0A4F92000FFF754FF1AB008
S3150800194010BD0000001BB74A18B585B040F6FF0465
S315080019500094002001900020029069465FF09040B4
S3150800196004F058FE002221005FF0904005F00EF8C2
S315080019704FF480700090DFF8B403019000200290C5
S3150800198069465FF0904004F045FE002200211720CA
S3150800199001F0D5FD172001F0F9FD4FF22600009061
S315080019A0012001900020029000200390DFF8704388
S315080019B06946200004F02EFE002247F22601200088
S315080019C004F0E4FF01224FF40041200004F0DEFF9A
S315080019D08020009000200190002002906946200097
S315080019E004F018FEFFF737FF0421DFF83C0305F083
S315080019F033F805F0BBFB06B010BD38B50400FFF799
S31508001A0063FD05000020CA490968486295F8030481
S31508001A1000281AD1B5F8001440F2FF30814214D2DA
S31508001A20022003F099FBB5F800042C54200080B27C
S31508001A30000AB5F8001429444870B5F80004801C5B
S31508001A40A5F80004022003F087FB31BD1FB50C2161
S31508001A5000226C46200004F09DFDB54CA34820608A
S31508001A60052060600020A060B248E0600020A06108
S31508001A702000FEF78BFB00200090002002906946AC
S31508001A80200005F033F81FBD000000002DE9F14FD6
S31508001A9086B09D4C2068002805D1A74A40F2D91186
S31508001AA08848FFF72BFC854D98480068E86220684F
S31508001AB0E867052085F830001F2085F8800001209A
S31508001AC085F8910095F8910085F8410000229B4918
S31508001AD0686803F0D3FC002805D0974A4FF4F371E1
S31508001AE07848FFF70BFC00229549686D03F0C6FCA1
S31508001AF0002805D0904A40F2E7117248FFF7FEFB2E
S31508001B00904800F076FCFFF71FFFFFF79FFF884815
S31508001B10FEF7B5FB012003F01FFB6B4E306800286B
S31508001B2005D1854A40F217216648FFF7E7FB5FF0C3
S31508001B30FF300090002301224FF48061306800F0E6
S31508001B4061FD0600FFF7C0FC0700012003F004FB57
S31508001B507005DFD5B7F80004002874D07878ADF89A
S31508001B600600BDF80600801CADF80400BDF804B0F8
S31508001B701BF1010B1320F8705946380005F040FB9D
S31508001B8080464046C0B200285DD102235A4692B22A
S31508001B903900686D03F09BFB012003F0DDFA012094
S31508001BA003F0DAFA5FF0FF300090002301220221E9
S31508001BB0686DD0F88C0000F025FD0021206804F03F
S31508001BC089F9642202A9206804F031FB012805D0AE
S31508001BD0594A40F233213B48FFF790FB012003F0B6
S31508001BE0BBFA012003F0B8FA9DF81000102824D19A
S31508001BF0DFF85491DFF854A1039B514A4FF48061F2
S31508001C00504603F061FA89F8000099F800000128A7
S31508001C1012D15FF00009BDF80E0081450CDA0AEB17
S31508001C20090041781AF8090005F04BFA642000F01B
S31508001C30C8FB19F10209EEE705E03F4A40F24721E1
S31508001C402048FFF75BFB0021B1F5806F03DA00201F
S31508001C507854491CF8E70020A7F80004002087F804
S31508001C60030457E710B5172001F0A8FC2024B4F5A3
S31508001C70007F05D2200080B204F0B0FE6400F6E7CB
S31508001C8010BD38B50400200080B2B0F5807F0CD1B5
S31508001C908021234804F063FE0128F9D005F066FA8E
S31508001CA00500280080B2FFF7A8FE31BD80B50E48B2
S31508001CB0FEF7BEFB01BD0000B0000020B8510020B1
S31508001CC048C60008D0C20008E00B00207CC4000803
S31508001CD0512800080852002060500020180A0020E9
S31508001CE0001400400C510020D809002000100040C4
S31508001CF00038014098C400080048004058100240C7
S31508001D0074CC000864CE0008F80B0020F40B002001
S31508001D106CCE0008BCCD0008002C01404C100240D7
S31508001D2000040048601002409809002000002110B5
S31508001D30980A002000B4C40484CC00088C00002053
S31508001D4080000020C8CD00085B0C0020B4040020E9
S31508001D50704770477047704770477047BFF34F8F9B
S31508001D60DFF86824116811F4E061DFF864040143C0
S31508001D701160BFF34F8F00BFFDE780B5DFF854044D
S31508001D80DFF8541401600221416040F6FF7181605A
S31508001D908168C16005F040FA002806D0DFF83C24C7
S31508001DA04321DFF83C04FFF7A9FA01BD80B5DFF847
S31508001DB0240405F09DFA002806D0DFF828244E21D1
S31508001DC0DFF81C04FFF79AFA01BD38B5040021684C
S31508001DD0DFF814040140B1F1005F06D0DFF80C24E7
S31508001DE05821DFF8FC03FFF789FA206880F3088892
S31508001DF0DFF8FC030460201D0568A847FEE738B530
S31508001E00DFF8F05301202872DFF8EC0301680905B2
S31508001E10090D40F23540814206D0DFF8E0236C21F7
S31508001E20DFF8BC03FFF76AFADFF8D403008880B24C
S31508001E300B2806D0DFF8C4236E21DFF8A403FFF7CA
S31508001E405DFADFF8C0030068C00031D52968DFF8FD
S31508001E50B80381421DD16946DFF8B00302680A60FB
S31508001E600024002C0DD1684650F8241028698142B8
S31508001E7005D1DFF89C0328602869FFF7A6FF641CD4
S31508001E80EFE7DFF878238821DFF85403FFF736FAFF
S31508001E900EE02968DFF87C03814209D1286868606A
S31508001EA0DFF86C032860E868401CE860286980470A
S31508001EB0FFF763FF05F048FA0121DFF85C030160CC
S31508001EC005F0CEFA002806D0DFF83023AC21DFF87B
S31508001ED01003FFF713FA00F0DDF900F04AFADFF80D
S31508001EE03C0300F086FAFFF761FF0220287231BD35
S31508001EF0F0B5A9B0DFF8FC420320207205F024FAF9
S31508001F0005F0AEFA002806D0DFF81423E221DFF840
S31508001F10D002FFF7F3F92168DFF80803814217D0EA
S31508001F20DFF80403814213D0DFF8E40281420FD0C0
S31508001F30DFF8D402814203D0DFF8D802814210D1FB
S31508001F40DFF8DC22EA21DFF89802FFF7D7F90FE07D
S31508001F5020686060DFF8D4022060E068401CE0601A
S31508001F6006E0002020750020E0600020A4F8940216
S31508001F70DFF890020168490101D568A100E0002157
S31508001F8008910168C90002D5DFF8A41200E0002113
S31508001F9008AD69600168890002D5DFF8981200E08B
S31508001FA00021A9600168490002D5DFF88C1200E01B
S31508001FB00021E9600168002902D5DFF8801200E0F7
S31508001FC000210C910168090102D5DFF8741200E0BE
S31508001FD0002169610168C90102D5DFF8681200E0CD
S31508001FE000210E910168890102D5DFF85C1200E034
S31508001FF000210F91002161720168002902D401684D
S31508002000090102D50121617228E00168890002D41C
S315080020100168490002D5022161721FE00168C90002
S3150800202017D56268DFF8FC118A4206D07E498A42D3
S3150800203006D077498A4206D008E0062161720DE08B
S31508002040072161720AE00521617207E004216172C5
S3150800205004E00168490101D503216172016851F460
S315080020600001016000260027082F10D255F8270026
S3150800207000280AD055F82730744AD6F1640110A80A
S31508002080304405F0FFF9801906007F1CECE7704D17
S3150800209070480790704806907048059070480490FC
S315080020A07048039070480290E068019014F114009B
S315080020B0009010AB6D4A4FF4C07114F58A7005F0A4
S315080020C0E1F9070000202075607A01280FD12868F9
S315080020D0019068680090AB68654AD7F5C07104EB53
S315080020E0070010F58A7005F0CDF9C0190700FFF74B
S315080020F05DFE042020720520207229B0F0BD80B54F
S3150800210072B606213B480172FFF7F3F8FFF726FE81
S3150800211001BD80B5574805F042FA02BD50696E0008
S315080021202DE9FF4704002500534E324F3E483860DC
S31508002130D5F818A0D5F81480FFF7EBFF814600F014
S3150800214076FD0300CDF80CA0CDF808804B48006852
S315080021500190CDF800904A4A4FF4807117F11400A7
S3150800216005F090F9FFF7CBFFBDE8FF8700000000F8
S315080021701EF0040F0CBFEFF30880EFF30980CFE7DA
S31508002180FEE780B53F493D480160FFF7F1FF01BD15
S3150800219080B53D4939480160FFF7EAFF01BD80B5C2
S315080021A009A136480160FFF7E3FF01BD80B537494D
S315080021B032480160FFF7DCFF01BD80B534492F487E
S315080021C00160FFF7D5FF01BD427573000CED00E015
S315080021D00400FA05185400200030004024CC0008FA
S315080021E034CC000844CC00080000FE2F48C900087B
S315080021F008ED00E068FD0020002004E05CC9000846
S315080022000075FF1F9410024001896745B0CE00088B
S315080022109078563412907856A800002080CD000891
S3150800222070C9000878563412896745236745230123
S315080022308CCD000818C6000854CC000898CD0008B4
S3150800224064CC0008A4CD000884C9000844CE000860
S315080022509075FF1F1CCE000850CD000844CD00081D
S31508002260E8C50008A4CE00085CCD00089CBE00089E
S31508002270B0C20008C40B002000ED00E0F00B0020FF
S315080022807CC100084CCE0008B0CD000854CE00082A
S315080022905CCE000818B597B01421002201A804F0F6
S315080022A079F94421002206A804F074F95D49086802
S315080022B050F080500860086810F080500090009830
S315080022C0594A0120116860F34A211160106810F418
S315080022D0C0600090009806A802F054FB10980128E8
S315080022E004D0524A1E215248FFF708F801200690EA
S315080022F05FF480300790022010900320119002208E
S315080023001290102013900720149002201590022096
S31508002310169006A801F032FD002804D0434A33215E
S315080023204348FEF7EBFF0F200190032002900020A0
S3150800233003904FF48060049005900324210001A8BF
S3150800234002F056F9002804D0384A3C213848FEF7EE
S31508002350D5FF18B010BD3749086850F0807008607E
S315080023600021354801603549086850F001000860C9
S31508002370704780B52F480068C00103D52F4800680C
S31508002380C00701D4FFF7E7FF01BD2B480068704777
S3150800239029490B680A68D21A8242FBD3704780B56E
S315080023A02DED028B08EE100AFFF7E3FFB8EE480A98
S315080023B0BFEECD0A10EE100AFFF7EAFFBDEC028B5E
S315080023C001BD01B500F006FF02280BD100994FF4B4
S315080023D07A7041434FF47A70B1FBF0F0401C00F07C
S315080023E050FB05E000984FF47A714843FFF7D7FF92
S315080023F001BD70B50400124D2868082811D211488D
S315080024002968090100EB0106FFF7BFFF3060002CC1
S3150800241004D00C222100301D05F0D0F82868401C95
S31508002420286070BD58100240007000406CC8000853
S31508002430D4CB0008FCED00E0041000E0001000E03A
S31508002440CC0B0020B408002038B586B0050028005B
S3150800245040B205F0EBF8002840F0A78059482A005A
S3150800246052B2142112FB01F100EB01042068B0F10D
S31508002470904F18D021685448814214D02168534897
S31508002480814210D02168524881420CD021685148B7
S31508002490814208D021685048814204D04F4A112110
S315080024A04F48FEF72BFFA06810F1010F7DD0216879
S315080024B0B1F1904F0FD04448814217D0434881422A
S315080024C01FD04348814227D0424881422FD04248F4
S315080024D0814237D041E04349086850F0010008605E
S315080024E0086810F00100009000983BE03D49086834
S315080024F050F002000860086810F00200009000988A
S3150800250030E03849086850F004000860086810F0A0
S3150800251004000090009825E03249086850F0080049
S315080025200860086810F00800009000981AE02D4925
S31508002530086850F010000860086810F01000009055
S3150800254000980FE02749086850F08000086008687E
S3150800255010F080000090009804E0204A15212048D9
S31508002560FEF7CCFEE06810F04040B0F1004F03D013
S31508002570B0F1404F06D00AE00021280040B205F02D
S315080025807FF804E00121280040B205F079F8A08818
S315080025900190E06820F04040039020690490A0680C
S315080025A0029001A9206804F035F807B030BD10B5CF
S315080025B00024032C05D2200040B2FFF745FF641C17
S315080025C0F7E710BD54C0000800040048000800489A
S315080025D0000C004800100048001C004858C80008B5
S315080025E0C4CB00084C10024010B5182005F076F848
S315080025F00400002C04D000202060201D05F0B4F94A
S31508002600200010BD2DE9F14F84B00E0014001F0004
S315080026100E9D049800905FF0000A5FF00008049889
S31508002620002805D1874A4FF4A0718448FEF766FE54
S3150800263016F07F4F05D0834A40F241117F48FEF7D6
S315080026405DFE002E05D17F4A4FF4A1717B48FEF747
S3150800265055FE00F0BFFD002807D1002D05D0794AA8
S3150800266040F245117548FEF749FE00F06AFA0098EF
S31508002670D0F800B03A003100584600F0F1F8029060
S31508002680029800280AD0D94600200500002C1CD044
S3150800269000980168B1430098016016E0002D03D147
S315080026A0D9460120804610E0002C01D05AF0807AE5
S315080026B0002F01D05AF0806A2A005AEA06010098CB
S315080026C0001D00F0C9FB5FF0000900F040FA019018
S315080026D0002D2AD00198002807D15FF0805158486C
S315080026E00160BFF34F8FBFF36F8F00F0E7FD83469E
S315080026F05FEA8B1016D401F01DF80098006883462F
S315080027003A003100584600F0ABF8002806D0002CF5
S3150800271004D000980168B143009801600120804602
S3150800272001F022F8D94629F07F49484605B0BDE8A8
S31508002730F08FF8B504000D002600002C05D1424A9A
S315080027404FF4EA713D48FEF7D9FD15F07F4F05D0E5
S315080027503D4A40F2D5113948FEF7D0FD00F0EAFFB0
S3150800276037683068A843306000F0FEFF3800F2BDD5
S315080027702DE9FE4F05008B465FF00008A9460024A8
S31508002780002D05D1314A40F212212C48FEF7B6FD3C
S315080027901BF07F4F05D02D4A40F213212748FEF73C
S315080027A0ADFD19F10400009000980830029000F081
S315080027B0C8F90098D0F80CA0D9F800005BEA000028
S315080027C0C9F80000029882452CD0DAF80400019076
S315080027D0DAF8000000210C0010F07F410F0020F00D
S315080027E07F400600780106D4D9F80000064209D0D1
S315080027F00120040006E0D9F800003040B04201D1BB
S3150800280001200400002C0AD0F80101D556EA080870
S31508002810D9F8001051F00071504600F0B1FB01984C
S315080028208246CFE7D9F8000030EA0800C9F8000068
S3150800283000F08DF9D9F80000BDE8FE8FF4CB00084A
S3150800284004ED00E094C8000800C60008A8C80008FF
S3150800285038B505000C0021002800FFF789FF31BDB7
S3150800286010B403000020002A04D10B4208D001242A
S31508002870200005E011EA03048C4201D1012420005E
S3150800288010BC70472DE9F84384B006000F00904647
S315080028909946404680B2800004F020FF0500002DCE
S315080028A00BD0502004F01AFF0400002C01D0256339
S315080028B004E0280004F0A9FF00E00024002C12D050
S315080028C00020039002940D9801900C9800904B46B6
S315080028D0424692B23900300000F00AF8200000F0B3
S315080028E083F8012001E05FF0FF3005B0BDE8F08312
S315080028F02DE9F14F82B00C0093461E000C9F0D9DEA
S31508002900DDF83880002C07D1DFF858234FF45871CA
S31508002910DFF8DC05FEF7F2FC5FEA8B0000905FF05B
S31508002920A50AD8F8309052460099484603F032FE78
S31508002930D8F8300000EB8B00B0F104095FEAD9093A
S315080029405FEAC90919F00700002807D0DFF8142341
S315080029504FF45D71DFF89805FEF7D0FC5FF0000ACA
S31508002960BAF10A0F0CD214F80A1008EB0A0080F81C
S31508002970341014F80A00002802D01AF1010AEFE709
S31508002980002088F83D00052F01D304200700C8F869
S315080029902C70C8F840700020C8F8440018F10400EC
S315080029A004F0F1FF18F1180004F0EDFFC8F81080E4
S315080029B0D7F10500C8F81800C8F824800020C8F820
S315080029C04800002088F84C00002088F84D003200A6
S315080029D00299484600F026FEC8F80000002D01D0EE
S315080029E0C5F80080BDE8F78F38B5040000F0A2FEF0
S315080029F0DFF87C130868401C0860DFF878532868FD
S31508002A00002806D12C60086801280DD100F078FB53
S31508002A100AE0DFF864030068002805D1E06A29683F
S31508002A20C96A884200D32C60DFF850130868401C36
S31508002A300860DFF84C3319680122E06A82401143C6
S31508002A401960211DDFF83C33E26A1420424303EB88
S31508002A50020004F09BFF00F087FEDFF81C03006805
S31508002A6000280DD02868C16AE06A814208D25FF062
S31508002A708051DFF8AC050160BFF34F8FBFF36F8F4E
S31508002A8031BD38B504000025002C15D0DFF81C042C
S31508002A900068002807D0DFF8E4244FF4A461DFF8C3
S31508002AA05004FEF72BFC00F04CF80021200000F043
S31508002AB031FC00F04CF80500002D08D15FF080517C
S31508002AC0DFF85C050160BFF34F8FBFF36F8F31BD31
S31508002AD01CB5DFF8D40701900020009000234FF4BE
S31508002AE08072DFF8C8170FF2F150FFF7CBFE04002B
S31508002AF0012C02D100F0AAFE0400012C15D15020A9
S31508002B0080F31188BFF34F8FBFF36F8F5FF0FF31EC
S31508002B10DFF89C0701600121974801600021DFF872
S31508002B20D403016000F0A7FD0AE014F1010F07D1F4
S31508002B30DFF8802740F60401DFF8B403FEF7DEFB72
S31508002B4013BDDFF868130868401C08607047F8B5BD
S31508002B5000250026DFF854432068002807D1DFF84F
S31508002B60582740F66801DFF88803FEF7C7FB00F030
S31508002B70E1FD2068401E20602068002853D17C486B
S31508002B80006800284FD0DFF84C170868002824D0C2
S31508002B90C868C068050015F1180004F01EFF281D56
S31508002BA004F01BFF764B19680122E86A824011433C
S31508002BB01960291D734BEA6A1420424303EB02008D
S31508002BC004F0E4FEE86A6B490968C96A8842DAD300
S31508002BD00120DFF814170860D5E7002D01D000F0B2
S31508002BE0E2FADFF8F4763C68002C0CD000F03CF8EA
S31508002BF0002803D00121DFF8F0060160641E002CCE
S31508002C00F4D100203860DFF8E006006800280AD012
S31508002C10012006005FF08050DFF804140860BFF357
S31508002C204F8FBFF36F8F00F09FFD3000F2BDDFF8C6
S31508002C30C4020068704780B500F0C0FD0021DFF8C7
S31508002C40B402006802BD10B5DFF85C4620680028AB
S31508002C5006D1DFF8882640F6E611A548FEF74EFBB2
S31508002C60206810BD98C700082DE9F84300268F484C
S31508002C70006800286DD19F480468641C0460002C15
S31508002C801DD1DFF88083D8F800000068002806D038
S31508002C90DFF84C2640F662219548FEF72FFBD8F858
S31508002CA00090DFF864130868C8F80000C1F80090BF
S31508002CB0DFF830160868401C086000F074FADFF880
S31508002CC0F085D8F80000844237D3CE4908680068F2
S31508002CD0002804D15FF0FF30C8F800002DE008682E
S31508002CE0C068C068070078680500AC4202D2C8F818
S31508002CF0005022E0381D04F070FEB86A002803D0A0
S31508002D0017F1180004F069FE1D490A680123F86ADC
S31508002D1083401A430A60391D1A4BFA6A1420424343
S31508002D2003EB020004F032FEF86A12490968C96A20
S31508002D308842CAD301200600C7E70E480068114931
S31508002D40C26A142042438858022807D30120060085
S31508002D5004E0DFF884150868401C0860DFF8880579
S31508002D600068002801D0012006003000BDE8F28383
S31508002D70140C0020040C0020200C0020300C00202D
S31508002D801C0C002034090020F8B5484800680028C3
S31508002D9004D00121DFF85005016043E00021DFF887
S31508002DA048050160DFF844452068056B5FF0A536E5
S31508002DB02868B04208D16868B04205D1A868B04210
S31508002DC002D1E868B04205D0206810F134012068C5
S31508002DD0FEF76CFADFF818050068B0FA80F5D5F149
S31508002DE01F051426DFF80C7506FB05F03858002871
S31508002DF006D1DFF8042540F688313D48FEF77EFA0D
S31508002E0006FB05F607EB060041684968416042681B
S31508002E1010F108018A4202D1416849684160406858
S31508002E20C0682060F1BD38B504000D00002C06D13D
S31508002E30DFF8C82440F69F312D48FEF75FFADFF821
S31508002E406005006810F11801200004F0ABFD0121AF
S31508002E50280000F05FFA31BD70B504000D001600B9
S31508002E60002C06D1DFF898244FF43B612048FEF782
S31508002E7045FA0E480068002806D1DFF8842440F693
S31508002E80B4311B48FEF73AFADFF8142555F000402E
S31508002E9011688861106810F11801200004F076FDA9
S31508002EA00121300000F036FA70BD00003C0C00200D
S31508002EB070B504000E001500002C06D1DFF8442476
S31508002EC040F6CA310A48FEF719FADFF8D404006852
S31508002ED010F11801200004F059FD002D02D05FF012
S31508002EE0FF3006002900300000F014FA70BD00001B
S31508002EF07CCE0008180C002038B50500E868C468C0
S31508002F00002C07D1DFF8002440F6FA31DFF8FC037D
S31508002F10FEF7F4F914F1180004F05FFDDFF8F0038A
S31508002F200068002815D1201D04F057FDDFF8C033CE
S31508002F3019680122E06A824011431960211DDFF8F1
S31508002F40B433E26A1420424303EB020004F01EFD88
S31508002F5005E014F11801DFF87C0304F017FDDFF82B
S31508002F608C030068C16AE06A814205D20120012209
S31508002F70DFF874130A6000E0002032BD04CE0008B2
S31508002F8070B506000D00DFF888030068002807D131
S31508002F90DFF8102440F63141DFF87003FEF7AEF98A
S31508002FA055F000403060F468002C07D1DFF8F423B0
S31508002FB040F63941DFF85403FEF7A0F9300004F073
S31508002FC00CFD201D04F009FDDFF8243319680122E1
S31508002FD0E06A824011431960211DDFF81833E26A5E
S31508002FE01420424303EB020004F0D0FCDFF8FC0295
S31508002FF00068C16AE06A814203D20121DFF8E8026B
S31508003000016070BD080C00200C0C0020DFF8D412FB
S3150800301009680160DFF8901309684160704700008D
S3150800302004ED00E02DE9F04104000D00002C07D165
S31508003030DFF8782340F66541DFF8D002FEF75EF93F
S31508003040002D07D1DFF8642340F66641DFF8BC029D
S31508003050FEF754F900F06EFBDFF84C030668676864
S31508003060F71BDFF88812086890F84D00002806D08C
S315080030700020096881F84D005FF0010822E0286801
S3150800308010F1010F02D15FF000081BE0DFF85402CF
S3150800309001682068814205D06068864202D35FF0E5
S315080030A001080FE02868874208D22868C01B2860F4
S315080030B02000FFF7ABFF5FF0000803E00020286060
S315080030C05FF0010800F050FB4046BDE8F0810121A1
S315080030D0DFF814020160704710B5040000F03BF8F1
S315080030E0DFF810020068022807D35FF080513848DD
S315080030F00160BFF34F8FBFF36F8FFEF7C1F8EDE79F
S3150800310070B50024052C09D2DFF8E811142000FB5D
S3150800311004F0084404F028FC641CF3E7DFF8906226
S31508003120300004F021FCDFF88C52280004F01CFC67
S31508003130DFF8A00104F018FCDFF87C0204F014FCA8
S31508003140DFF8780204F010FCDFF874020660DFF896
S315080031507402056070BD38B5DFF86C52286800281F
S3150800316017D000F0E7FADFF85002C068C06804001C
S31508003170201D04F032FCDFF854120868401E08606F
S315080031802868401E286000F0EFFA200000F002F8D8
S31508003190E2E731BD10B50400206B04F036FB2000D1
S315080031A004F033FB10BDDFF8182210680068002809
S315080031B004D15FF0FF323E48026006E01068C0683E
S315080031C0C06801004A683A4802607047000000007B
S315080031D004ED00E0DFF8F8010068002801D10120BD
S315080031E007E0DFF82C010068002801D1022000E082
S315080031F00020704770B5040026000025002C50D02A
S31508003200DFF8E8000068864207D0DFF8CC2140F6F0
S315080032107A71DFF8F800FEF771F8706C002807D1AC
S31508003220DFF8B42140F67B71DFF8E000FEF766F8B8
S31508003230706C401E7064F16A306C814231D0706CDB
S3150800324000282ED1301D04F0C8FB00280FD1DFF866
S315080032508C21F16A142041435058002807D1DFF821
S31508003260903019680122F06A824091431960306CE7
S31508003270F062F06AD0F10500B061DFF874301968C1
S315080032800122F06A824011431960311DDFF84C3182
S31508003290F26A1420424303EB020004F077FB012094
S315080032A00500280070BD0000380C002084CE0008F8
S315080032B0340C002050CB000824CD0008DFF8E020AD
S315080032C01068806911681268D26AD2F105028A61AB
S315080032D070470000480B0020240C0020B0C70008E7
S315080032E064CB00082C0C0020280C0020040C0020BD
S315080032F01C0C00203409002078CB0008C8C7000839
S31508003300B0C30008D0C3000894C500087CCE0008E6
S315080033103C0C00202DE9F04105000C002248076806
S31508003320DFF87C800021D8F8000080F84D10D8F826
S315080033300000001D04F051FB002808D1D8F8000051
S3150800334024490A680123C06A83409A430A6015F132
S31508003350010F08D1002C06D0D8F80000011D174827
S3150800336004F014FB1AE0E8190600D8F800004660D5
S31508003370BE4207D2D8F80000011D1248006804F0C2
S3150800338011FB0BE0D8F80000011D0D48006804F099
S3150800339009FB13490868864200D20E60BDE8F08131
S315080033A0040C0020A0C10008180C0020E0C7000883
S315080033B0200B0020340B00205C0B0020700B002033
S315080033C0080C00200C0C0020100C0020140C002007
S315080033D0200C00201C0C0020F8C700083409002027
S315080033E0340C002003490A680348006882180A60FA
S315080033F0704700BF000C0020A800002010B410F091
S315080034000702DFF8E8311C684FF6FF010C4054EA62
S315080034100224DFF8DC110C431C6010BC7047DFF88F
S31508003420CC010068C0F302207047010049B20029A8
S315080034300AD4012210F01F018A40DFF8B8310100D2
S3150800344049B2490943F821207047010049B20029C9
S315080034500AD4012210F01F018A40DFF89C310100CE
S3150800346049B2490943F82120704710B4020052B204
S31508003470002A06D40C01DFF88431020052B29C54AB
S3150800348009E00A01DFF8784103005BB213F00F0385
S31508003490234403F8042C10BC704770B4030013F0DF
S315080034A00704D4F10700052801D3042001E0D4F16C
S315080034B00700251D072D01D2002600E0E61E01257E
S315080034C015FA00F0401E0140B14015FA06F6761EC0
S315080034D032401143080070BC704710B50400601EE6
S315080034E0B0F1807F01D3012011E0611EDFF81401DD
S315080034F001600F215FF0FF30FFF7B7FF0021DFF80B
S31508003500080101600721DFF804010160002010BDF1
S3150800351010B50400072C0ED0062C0CD0052C0AD0AA
S31508003520042C08D0032C06D0DFF8E420A721DFF806
S31508003530E400FDF7E3FE2000FFF760FF10BD2DE96C
S31508003540F04180460C0015000026102D06D3DFF842
S31508003550C820BF21DFF8BC00FDF7D0FE102C06D32B
S31508003560DFF8B420C021DFF8AC00FDF7C7FEFFF78F
S3150800357056FF07002A0021003800FFF78EFF0100DA
S31508003580404640B2FFF771FFBDE8F08110B5040070
S31508003590200040B2002806D5DFF88020D321DFF8C6
S315080035A07400FDF7ABFE200040B2FFF73EFF10BDEA
S315080035B010B504002000FFF790FF10BD10B50400F9
S315080035C0200040B2002807D5DFF8542040F26511E4
S315080035D0DFF84000FDF792FE200040B2FFF735FF06
S315080035E010BD80B504F00DFA01BD00000CED00E039
S315080035F00000FA0500E100E080E200E000E400E0F7
S3150800360018ED00E014E000E018E000E010E000E04B
S31508003610F0C2000860C6000878C60008E8C90008B5
S31508003620B4C40008031F5FF0807018601B1F4808A9
S31508003630400018601B1F0FF219001860B3F1140040
S315080036400260031F7FF002001860B3F12000704784
S3150800365080B56C48006810F1010F04D06A4ADD2174
S315080036606A48FDF74BFE502080F31188BFF34F8F51
S31508003670BFF36F8FFEE73EB5654C2168654881420A
S3150800368004D1654AEF216148FDF738FE2168634891
S31508003690814204D1604AF0215C48FDF72FFE604C58
S315080036A020780190FF20207020788DF800009DF882
S315080036B0001011F050015B4801705B4D072028602F
S315080036C09DF80000000608D52868401E28609DF869
S315080036D0000040008DF80000F2E72868D0F10700E6
S315080036E0042805D04C4A40F221114848FDF706FE49
S315080036F0286800022860286810F4E06028600198AD
S3150800370020704A48016851F470010160016851F05F
S315080037107041016004F076F900203A49086004F027
S31508003720D5F94348016851F04041016004F0BEF9FB
S3150800373000203EBD80B5502080F31188BFF34F8F1F
S31508003740BFF36F8F2F490868401C08600868012876
S3150800375009D138480068000605D0374A40F25D119D
S315080037602A48FDF7CBFD01BD10B5264C2068002878
S3150800377005D1324A4FF4B2712448FDF7BFFD2068DF
S31508003780401E20602068002802D1002080F311889E
S3150800379010BD80B5502080F31188BFF34F8FBFF35B
S315080037A06F8FFFF761FA002803D05FF08051214838
S315080037B00160002080F3118801BD000038B5EFF3E1
S315080037C00585102D0FD31E480068405D04002000B3
S315080037D014490978C0B2884205D21A4A4FF41A71B8
S315080037E00A48FDF78BFD104800681749096811F467
S315080037F0E061884205D2134A4FF41E710348FDF76B
S315080038007DFD31BDA0000020BCC8000834CE0008EC
S3150800381000ED00E071C20F41D0C8000870C20F4128
S3150800382000E400E05A0C0020EC0B002020ED00E03C
S3150800383034EF00E004ED00E0E4C80008F8C800082A
S31508003840ACCE000890C200080CED00E01CB50024C0
S3150800385000F0F5F9DFF85804006800280ED0DFF804
S31508003860540401900420009000234FF48072DFF87E
S3150800387048140FF22110FFF705F80400002C07D1B1
S31508003880DFF838244FF48971DFF83404FDF736FD84
S31508003890200016BD2DE9FF4704008A4615001E00C4
S315080038A00C9F5FF00008002C07D1DFF818244FF4AE
S315080038B0C371DFF80C04FDF721FDDFF8F493D9F89E
S315080038C00000002824D0CDF800A001950294BAF192
S315080038D0060F15DAFFF77EFC022808D100233A0006
S315080038E06946D9F8000002F07FFB804610E0002305
S315080038F000226946D9F8000002F076FB804607E008
S31508003900002332006946D9F8000002F02EFC8046F2
S31508003910404604B0BDE8F08710B5DFF89843206844
S31508003920002807D1DFF8A0234FF4D871DFF89003F9
S31508003930FDF7E4FC206810BDF8B505000E00DFF8B9
S315080039408C030068C068C768381D04F046F8F86933
S3150800395001281BD12B003200B9694919380000F03B
S3150800396088F8002812D00020009000232A000021A1
S315080039703800FFF78FFF0400002C07D1DFF850232B
S315080039804FF4F471DFF83803FDF7B8FC3800796AAC
S315080039908847F1BD38B50500684600F042F80400CE
S315080039A00099200000F003F800F08BF8F4E77CB5E6
S315080039B005000C00FFF7C5F8684600F046F8060053
S315080039C0009800282AD1002C08D1AE4206D3FFF76A
S315080039D0BEF831002800FFF7AFFF21E0002C08D021
S315080039E0DFF8F00200680068002801D1012400E031
S315080039F000242200A91BDFF8B802006802F0A4FD23
S31508003A00FFF7A5F800280BD15FF08051DFF8C80250
S31508003A100160BFF34F8FBFF36F8F01E0FFF797F891
S31508003A2073BD0100DFF8A42210680068002801D1E0
S31508003A30012000E0002008600868002803D110680B
S31508003A40C068006800E00020704770B50400FFF702
S31508003A50EEF80500DFF884623068854204D200F08B
S31508003A60AAF80120206001E00020206035602800C7
S31508003A7070BD2DE9F04104000D0016001F005FF02F
S31508003A80000865602461AE420CD3F11BA06981422F
S31508003A9002D30120804611E0211D8E48006803F0FC
S31508003AA081FF0BE0BE4204D2BD4202D3012080460C
S31508003AB004E0211D8548006803F074FF4046BDE810
S31508003AC0F081F8B586B0002201A97948006802F0AD
S31508003AD0AEFB00286DD0019800280CD502AD002D4C
S31508003AE005D17F4A40F2C7217548FDF707FCA9684A
S31508003AF068682A68904701980028E4D40398070064
S31508003B007869002802D0381D03F067FF05A8FFF77B
S31508003B109CFF0600019800280ED002280CD00BD373
S31508003B2004282ED02CD3062806D03DD3082827D023
S31508003B3002D3092825D03BE0029B32000299B869D6
S31508003B4041183800FFF795FF002818D03800796A21
S31508003B508847F869012812D1002000900023029AAC
S31508003B60B869821800213800FFF794FE0400002C7B
S31508003B7005D15B4A40F201315148FDF7BFFBA2E788
S31508003B80A1E70298B861B869002805D1544A4FF4EC
S31508003B9046714B48FDF7B2FB33003200B969891903
S31508003BA03800FFF766FF8EE7380003F02EFE8AE737
S31508003BB089E707B0F0BD2DE9FC41DFF81081D8F898
S31508003BC000000068002831D0D8F80000C0680068F6
S31508003BD00500D8F80000C068C0680700381D03F063
S31508003BE0FCFE3800796A8847F8690128E5D1B86982
S31508003BF040190600B54207D27E603F61391DD8F8E4
S31508003C00000003F0CFFED8E70020009000232A002A
S31508003C1000213800FFF73EFE0400002C05D1314A8A
S31508003C2040F272312648FDF769FBC6E7D8F800204E
S31508003C3028480168C8F800100260BDE8F38170B52D
S31508003C40FFF778FD1A4C2068002818D1264E300058
S31508003C5003F08AFE254D280003F086FE1B48066001
S31508003C601C48056000221021142002F07DF920600E
S31508003C702068002803D01E49206802F048FCFFF798
S31508003C8073FD70BDF8B584B007000C0015001E0062
S31508003C907FF00100009001970294039500233200FB
S31508003CA069460348006802F060FA05B0F0BD0000F6
S31508003CB0480C00204C0C00208CCE000810C80008C8
S31508003CC010CE000828C80008F0C30008400C0020E1
S31508003CD040C80008440C002004ED00E0500C002009
S31508003CE0B0C500088CCB0008840B0020980B002078
S31508003CF094CE000838B504000D00002C08D0B4F5A1
S31508003D00804F05D01A4A4FF4E0711848FDF7F6FAC5
S31508003D102800C0B2012809D02800C0B2022805D060
S31508003D20134A40F2C1111148FDF7E8FA002C08D1F0
S31508003D301048006880050AD503F0E2FE002806D080
S31508003D4013E00C480068800501D403F0D3FE0A4945
S31508003D50086830F0040008602800C0B2012801D1C4
S31508003D6030BF02E040BF20BF20BF31BD4CCA0008AB
S31508003D70C0C600081470004010ED00E02DE9FE4FA3
S31508003D800400002C02D1012000F026BC206800287F
S31508003D900BD0207810F03F0F07D1DFF8C42A4FF474
S31508003DA0CF71DFF8C00AFDF7A9FADFF83868356879
S31508003DB015F00C05DFF8A07AD7F8008018F003088C
S31508003DC02078C00640F10281A06900280AD0A069BF
S31508003DD0012807D0DFF8882A40F2A711DFF8840AFD
S31508003DE0FDF78CFAE069B0F5807F07D3DFF8702A13
S31508003DF04FF4D471DFF86C0AFDF780FA206A0028C0
S31508003E0028D0206A102825D0206A202822D0206AA7
S31508003E1030281FD0206A40281CD0206A502819D084
S31508003E20206A602816D0206A702813D0206A802855
S31508003E3010D0206A90280DD0206AA0280AD0206ABF
S31508003E40B02807D0DFF8182A40F2A911DFF8140ABB
S31508003E50FDF754FA002D04D00C2D78D1B8F1010FD6
S31508003E6075D1DFF87CA7DAF80000800704D5A069C9
S31508003E70002801D10120AFE3DAF80000000704D5D5
S31508003E80DAF8001011F0F00105E0DFF8D009016852
S31508003E90090911F0F001206A81421ED2206A00F059
S31508003EA0F3FD002801D0012096E3DAF8000050F06F
S31508003EB00800CAF80000DAF8001031F0F001206AAC
S31508003EC00143CAF80010DFF87C2A106830F47F40F6
S31508003ED0E16950EA012010601DE0DAF8000050F0B0
S31508003EE00800CAF80000DAF8001031F0F001206A7C
S31508003EF00143CAF80010DFF84C2A106830F47F40F6
S31508003F00E16950EA01201060206A00F0BDFD002832
S31508003F1001D0012060E300F0A7FCDFF8601A3268E0
S31508003F20C2F30312895C11F01F01C840DFF8B81606
S31508003F300860DFF8B806006803F006FE8DF8000092
S31508003F409DF80000002841D09DF8000044E3A069D0
S31508003F50002827D0DFF88866306850F00100306006
S31508003F6003F022FE81463068800707D403F01CFE62
S31508003F70B0EB09000328F6D303202DE3306850F090
S31508003F8008003060316831F0F001206A0143316081
S31508003F90DFF8B029106830F47F40E16950EA012063
S31508003FA0106013E0DFF8386630684008400030607B
S31508003FB003F0FAFD81463068800707D503F0F4FD63
S31508003FC0B0EB09000328F6D3032005E32078C007E1
S31508003FD06ED5606800280FD06068B0F5803F0BD0BA
S31508003FE06068B0F5A02F07D0DFF8742840F21121D9
S31508003FF0DFF87008FDF782F9082D04D00C2D0CD1D6
S31508004000B8F1030F09D1DFF8D805006880034FD54A
S31508004010606800284CD10120DEE26068B0F5803F78
S3150800402006D1DFF8BC15086850F48030086018E03F
S315080040306068B0F5A02F0AD1DFF8A405016851F42D
S3150800404080210160016851F48031016009E0DFF8E0
S315080040509005016831F480310160016831F48021EE
S3150800406001606068002811D003F09EFD8146DFF8E4
S315080040707005006880031BD403F096FDB0EB0900B9
S3150800408041F289318842F2D30320A5E203F08CFD80
S315080040908146DFF84C050068800309D503F084FDE6
S315080040A0B0EB090041F289318842F2D3032093E24A
S315080040B02078800769D5E06800280BD0E068B0F55D
S315080040C0807F07D0DFF898274FF41171DFF894073F
S315080040D0FDF714F92069202807D3DFF8842740F272
S315080040E04521DFF88007FDF709F9042D04D00C2DCA
S315080040F016D1B8F1020F13D1DFF8E40400684005C1
S3150800410004D5E068002801D1012065E2DFF834080B
S31508004110016831F0F851226951EA0261016034E020
S31508004120E06800281DD0DFF8B864306850F4807065
S31508004130306003F039FD81463068400507D403F046
S3150800414033FDB0EB09000328F6D3032044E2DFF879
S31508004150F407016831F0F851226951EA02610160F9
S3150800416013E0DFF87C64306830F48070306003F068
S315080041701BFD81463068400507D503F015FDB0EBF9
S3150800418009000328F6D3032026E22078000738D54D
S31508004190606900280AD06069012807D0DFF8C026C0
S315080041A040F28521DFF8BC06FDF7A8F8606900280B
S315080041B013D0DFF8A866306850F00100306003F0CD
S315080041C0F3FC8146306880071BD403F0EDFCB0EBA6
S315080041D009000328F6D30320FEE1DFF8806630687D
S315080041E040084000306003F0DFFC814630688007F5
S315080041F007D503F0D9FCB0EB09000328F6D3032052
S31508004200EAE12078400740F194800026A06800285B
S315080042100DD0A06801280AD0A068052807D0DFF8C5
S3150800422040264FF43671DFF83C06FDF767F8DFF8ED
S31508004230E4A8DAF80000C0000DD4DAF8000050F05F
S315080042408050CAF80000DAF8000010F0805001909B
S31508004250019801200600DFF8C0B8DBF80000C005A9
S3150800426014D4DBF8000050F48070CBF8000003F09B
S315080042709BFC8146DBF80000C00507D403F094FCDC
S31508004280B0EB09000328F5D30320A5E1A0680128AF
S3150800429006D1DFF88818086850F00100086017E0B2
S315080042A0A06805280AD1DFF87408016851F00401EE
S315080042B00160016851F00101016009E0DFF85C085E
S315080042C00168490849000160016831F0040101608C
S315080042D0A068002811D003F067FC8146DFF83C0887
S315080042E0006880071BD403F05FFCB0EB090041F2BD
S315080042F089318842F2D303206EE103F055FC8146EA
S31508004300DFF818080068800709D503F04DFCB0EB04
S31508004310090041F289318842F2D303205CE130007A
S31508004320C0B2012805D1DAF8000030F08050CAF88A
S3150800433000002078800638D5606A00280AD0606AAE
S31508004340012807D0DFF8182540F23D31DFF81405BB
S31508004350FCF7D4FF606A002813D0DFF8C46730681A
S3150800436050F00100306003F01FFC8146306880077A
S315080043701BD403F019FCB0EB09000328F6D303207D
S315080043802AE1DFF89C67306840084000306003F097
S315080043900BFC81463068800707D503F005FCB0EBB7
S315080043A009000328F6D3032016E1A06A00280DD0D9
S315080043B0A06A01280AD0A06A022807D0DFF8A0243C
S315080043C040F26631DFF89C04FCF798FFA06A0028E3
S315080043D000F001810C2D00F0CD80A06A022840F083
S315080043E0AA80E06A002810D0E06A01280DD0E06AA9
S315080043F002280AD0E06A032807D0DFF864244FF4BD
S315080044005C71DFF86004FCF779FF206B002802D0A6
S31508004410206B092807D3DFF8482440F27131DFF80A
S315080044204404FCF76BFF606B082802D3606B5728BF
S3150800443007D3DFF82C2440F27231DFF82804FCF7A2
S315080044405DFFA06B022802D3A06B202807D3DFF8F4
S3150800445010244FF45D71DFF80C04FCF74FFFE06B96
S31508004460022810D0E06B04280DD0E06B06280AD08D
S31508004470E06B082807D0DFF8E82340F27631DFF84A
S31508004480E403FCF73BFF206C022810D0206C0428BC
S315080044900DD0206C06280AD0206C082807D0DFF833
S315080044A0C02340F27731DFF8BC03FCF727FF4C4EF8
S315080044B0306830F08070306003F076FB82463068F2
S315080044C0800107D503F070FBB0EB0A000328F6D38A
S315080044D0032081E03968DFF84C060140E06A0143B1
S315080044E0206B401E51EA0011606B51EA0021E06B17
S315080044F04008401E51EA4051206C4008401E51EACF
S315080045004061A06B51EAC0613960306850F0807034
S315080045103060386850F08070386003F045FB81469B
S315080045203068800157D403F03FFBB0EB090003283D
S31508004530F6D3032050E02A4E306830F080703060A1
S315080045403068000103D4386880088000386039680C
S31508004550DFF8D4050140396003F026FB8146306850
S31508004560800138D503F020FBB0EB09000328F6D309
S31508004570032031E0A06A012801D101202CE0386827
S31508004580804618F00300E16A884222D118F07000CC
S31508004590216B491EB0EB011F1BD118F4FE40616B5D
S315080045A0B0EB012F15D118F07840A16BB0EBC16FB5
S315080045B00FD118F4C000E16B4908491EB0EB415F02
S315080045C007D118F0C061206C4008401EB1EB406F5F
S315080045D001D0012000E00020BDE8FE8F00000000A9
S315080045E00010024008100240AC000020A400002081
S315080045F02DE9F04104000D00002C01D1012029E12C
S315080046002068002802D02068102807D3DFF81C2568
S3150800461040F22E41DFF84C02FCF770FE002D0FD059
S31508004620012D0DD0022D0BD0032D09D0042D07D056
S31508004630DFF8F82440F22F41DFF82802FCF75EFE87
S31508004640DFF8EC74386810F00700A8420BD2386817
S31508004650C008C00028433860386810F00700A84230
S3150800466001D00120F6E02078C00755D560680028FB
S315080046700FD0606801280CD06068022809D06068ED
S31508004680032806D0DFF8A42440F246417548FCF713
S3150800469035FE6068032806D1DFF8980400688001B3
S315080046A01CD40120D6E06068022806D1DFF884040D
S315080046B00068800312D40120CCE06068002806D187
S315080046C0DFF870040068800708D40120C2E0DFF82C
S315080046D064040068400501D40120BBE0DFF8588473
S315080046E0D8F800108908890060680143C8F80010E6
S315080046F003F05AFA0600D8F8000010F00C006168BA
S31508004700B0EB810F08D003F04FFA801B41F28931D4
S315080047108842F0D303209DE02078800729D5A06839
S3150800472000281ED0A06880281BD0A068902818D022
S31508004730A068A02815D0A068B02812D0A068C02804
S315080047400FD0A068D0280CD0A068E02809D0A068AF
S31508004750F02806D0DFF8D42340F2A2414148FCF7FE
S31508004760CDFDDFF8D423116831F0F001A0680143CC
S315080047701160386810F0070085420BD23868C00807
S31508004780C00028433860386810F00700A84201D0F6
S3150800479001205FE02078400721D5E068002816D080
S315080047A0E068B0F5806F12D0E068B0F5A06F0ED063
S315080047B0E068B0F5C06F0AD0E068B0F5E06F06D0E3
S315080047C0DFF8682340F2C1412648FCF797FDDFF879
S315080047D06823116831F4E061E068014311602078CC
S315080047E0000722D52069002816D02069B0F5806F09
S315080047F012D02069B0F5A06F0ED02069B0F5C06F51
S315080048000AD02069B0F5E06F06D0DFF820234FF410
S3150800481099611448FCF772FDDFF81C23106830F420
S315080048206050216950EAC100106000F01DF8534934
S31508004830DFF804231268C2F30312895C11F01F0122
S31508004840C840DFF8F8120860DFF8F402006803F0E1
S315080048507BF9C0B2BDE8F0810C100240941002400A
S3150800486060CA000874CA00082DE9F0410026002035
S31508004870DFF8C412096811F00C01DFF8C8C2DCF8C9
S31508004880007017F00307002903D00C291AD1012F4D
S3150800489018D1DFF8A0E2DEF800805FEA087806D4CF
S315080048A0DFF8DCE0DEF800E0CEF3032E03E0DEF806
S315080048B000E0CEF3031EA44E56F82E6000290CD154
S315080048C030000AE0042903D1DFF880E2704604E0EC
S315080048D0082902D1DFF874E270460C292DD1DCF8DC
S315080048E000E01EF0030E73469E46BEF1020F03D08B
S315080048F0BEF1030F03D005E0DFF850E203E0DFF86E
S315080049004CE200E0B646DCF80020C2F30212521C64
S315080049101500DCF80020C2F3062202FB0EFEBEFBE1
S31508004920F5F2DCF800C0CCF3416C1CF1010C5FEA2F
S315080049304C0C6446B2FBF4FC6046BDE8F0817F4847
S31508004940006870470410024080B5FFF7F8FF8049F9
S31508004950794A1268C2F30222895C11F01F01C84025
S3150800496002BD80B5FFF7EBFF7949734A1268C2F3B7
S31508004970C222895C11F01F01C84002BD14CD00088F
S315080049809410024010B50400002C05D1714A40F27B
S31508004990C1517148FCF7B2FC3F20206065480168A8
S315080049A0490303D55FF4A021616008E00168C903E3
S315080049B003D55FF48031616001E000216160016820
S315080049C0C90702D50121A16101E00021A16163495E
S315080049D00A68C2F30722E261026812F0F002226254
S315080049E00268D20503D54FF48072E26001E0002226
S315080049F0E2600968C1F30461216148490A685207FF
S31508004A0002D50521A16007E00968C90702D5012179
S31508004A10A16001E00021A16051490968C90702D5D2
S31508004A200121616101E0002161613D490968C90709
S31508004A3002D50121616201E0002161620068C001BE
S31508004A4002D50220A06201E00120A0623D4801686B
S31508004A5011F00301E1620168C1F30211491C2163E7
S31508004A600168C1F3062161630168C1F34151491C1C
S31508004A704900E1630168C1F34161491C49002164A9
S31508004A800068C00EA06310BD7CB504000025214E49
S31508004A903068C00003D503F027F801000FE030683E
S31508004AA050F080503060306810F0805000900098C8
S31508004AB003F01AF80100306830F080503060B1F524
S31508004AC0007F09D1812C15D3A12C02D30220050021
S31508004AD010E0012005000DE0812C02D3032005001B
S31508004AE008E0802C02D10220050003E0702C01D1D9
S31508004AF0012005000E4A1068C008C000284310604F
S31508004B00106810F00700A84201D0012000E000203C
S31508004B1076BD000058100240007000409010024018
S31508004B20981002408C809D01FFFFEEFE88CA00089F
S31508004B30002002400010024008100240AC0000208D
S31508004B40A40000200C100240C8C000080024F4008D
S31508004B5074CE0008D8C6000874CA000804100240BB
S31508004B609410024038B504000025002C0DD060686A
S31508004B7000F01CFB002808D06068D0F8940003F009
S31508004B8019F8002801D0012005002800C0B232BD5E
S31508004B9010B5040014F14801606800F0FFFF7FF0CB
S31508004BA00100A168096808610020A16809684862CF
S31508004BB010BD10B504002000FFF7EAFFA0680068E2
S31508004BC0C06850F00100A1680968C860A06800685C
S31508004BD0006850F00100A1680968086010BD816886
S31508004BE009680A6A41F211110A420ED181680968F8
S31508004BF00A6A40F244410A4207D18168096809688D
S31508004C004908490082681268116081680968C9689C
S31508004C104908490082681268D1607FF001018268FC
S31508004C2012681161704770B504002000FFF79AFFFB
S31508004C30002806D1DFF884244021DFF88404FCF735
S31508004C405DFB6068D0F8940002F0C1FF050014F11E
S31508004C504801606800F0A2FF002801D1012600E0A3
S31508004C60002694F84100002807D13000C0B2002879
S31508004C701BD0012084F8410017E03000C0B200289C
S31508004C8013D02A0092B200216068D0F8940003F08D
S31508004C902BF8002806D1DFF824245521DFF8200454
S31508004CA0FCF72CFB012084F841002000FFF797FF52
S31508004CB070BD2DE9FF4781464846FFF753FF002898
S31508004CC006D1DFF800246D21DFF8F403FCF716FBA4
S31508004CD0D9F80400D0F89460300002F078FF070095
S31508004CE0380080B2002806D1DFF8D8237221DFF811
S31508004CF0D003FCF703FBD9F80C00401CC9F80C00DC
S31508004D003900B08889B2814219D13A0092B200219D
S31508004D10300002F0E9FF002806D1DFF8A8237B213E
S31508004D20DFF89C03FCF7EAFA4846FFF742FF002043
S31508004D3089F84100D9F81800401CC9F81800002065
S31508004D408046380080B2B0F5817F02DB002089F802
S31508004D50410099F84100002805D002281CD006D346
S31508004D6003283FD0A7E0052089F84100ABE00021E1
S31508004D70300002F0D0FF89F8420099F84200402836
S31508004D8007D099F84200232803D0052089F8410066
S31508004D9099E0022089F84100380080B20228C0F262
S31508004DA092800121300002F0B6FF89F8430099F895
S31508004DB04200402801D1022100E0002199F8430071
S31508004DC0884203DB99F84300FF2803D1052089F8B8
S31508004DD0410078E0032089F84100D9F82800401CF2
S31508004DE0C9F8280099F84300C01C82463900504685
S31508004DF089B280B2814266D35046390080B289B200
S31508004E00884217D2D9F80400D0F8900080040DD54E
S31508004E10380080B2514689B2491C88420AD0390006
S31508004E2089B2504680B2801C814203D0062089F898
S31508004E30410048E00020040099F84200232802D0E7
S31508004E40402807D02BE099F83000C00601D510207D
S31508004E50040024E00221300002F05DFF89F84400D6
S31508004E6099F84400002802D0962807D00DE099F852
S31508004E703000800701D5022004000CE099F83000C4
S31508004E80C00701D50120040005E099F83000400765
S31508004E9001D504200400FDF7CAFEC9F83800200031
S31508004EA0C0B2002803D1062089F8410002E0042098
S31508004EB089F8410007E0DFF80C2240F22511DFF8F7
S31508004EC00002FCF71BFAD9F83C00002818D099F81C
S31508004ED04100042814D1FDF7AEFE02000020009020
S31508004EE000230721D9F83C00FEF7D4FC012807D097
S31508004EF0DFF8D0214FF49A71DFF8C401FCF7FEF908
S31508004F0099F84350ED1C99F84100042852D0C0F096
S31508004F10CB8006281DD080F0C7803A0092B20021C7
S31508004F20300002F0E1FE002807D1DFF898214FF49F
S31508004F309F71DFF88C01FCF7E1F94846FFF739FE67
S31508004F40002089F84100D9F81000401CC9F8100063
S31508004F50ADE04846FFF743FE3900280089B280B223
S31508004F60814207D2DFF85C214FF4A471DFF85001C3
S31508004F70FCF7C4F92A0092B20021300002F0B4FE10
S31508004F80002807D1DFF83C2140F24D11DFF8300147
S31508004F90FCF7B4F97F1B380080B2002801D0012045
S31508004FA08046012089F84100D9F81800401CC9F844
S31508004FB018007CE04846FFF712FED9F80400D0F83E
S31508004FC0900080040ED42900380089B280B281424C
S31508004FD01ED0DFF8F0204FF4B471DFF8E400FCF7D8
S31508004FE08DF915E0390089B2280080B2091A00291E
S31508004FF006D4390089B2280080B2091A032907DBCA
S31508005000DFF8C0204FF4B671DFF8B400FCF776F984
S3150800501001AB00220020002183E80700CDF80490A8
S315080050203089ADF80800ADF80A508DF80C4000201C
S315080050300090D9F82C00002807D1DFF8882040F224
S315080050407F11DFF87C00FCF759F900236A4601A9AD
S31508005050D9F82C0001F089F801280CD1009800280D
S315080050600ED05FF08051DFF8EC000160BFF34F8F80
S31508005070BFF36F8F04E0D9F81400401CC9F8140078
S315080050803A0092B20021300002F02EFE002807D125
S31508005090DFF830204FF4C671DFF82400FCF72EF94C
S315080050A0012089F8410002E04846FFF782FD4046A4
S315080050B0C0B200287FF443AEBDE8FF8798C9000850
S315080050C0ACC9000830C600082DE9F84304000E00F4
S315080050D015000027002C01D0002D00D136E0310044
S315080050E0BDF8020089B2814230D3009A2100280017
S315080050F002F07EFD002829D094F800804046C0B210
S31508005100402803D04046C0B223281FD194F8019006
S31508005110BDF8021040F20310814206DABDF802100B
S31508005120C91E4846C0B2814200D00FE0BDF8021041
S31508005130491E200002F064F8BDF80210214411F857
S31508005140011CC0B2884201D1012007003800C0B254
S31508005150BDE8F28304ED00E038B50400200040B253
S3150800516002F064FA00281DD1EFF3108000900120A8
S3150800517080F3108814200C4B210049B211FB00F172
S315080051805958220052B212FB00F29A585269250069
S315080051906DB215FB00F01844808842404A610098B9
S315080051A080F3108831BD00BF54C0000801000020FC
S315080051B0002918D0D1F88030DFF8D02993420BD0D7
S315080051C0D1F88030DFF8C829934205D0D1F880306D
S315080051D0DFF8FC29934206D1D1F880300A68934259
S315080051E001D101221000C0B2704770B50400250035
S315080051F02868C4F880000020C4F884000020A86647
S315080052000020E866280002F091FD06003000C0B2D2
S31508005210002823D1FDF7E8F9C4F88C00002806D148
S31508005220DFF870293621DFF87009FCF767F84FF4C4
S31508005230A041D4F88C00FDF79BFA4FF48040C4F8DF
S3150800524090000020C4F894000020C4F8980014F1D7
S315080052509C00DFF8FC19102200F05CFD3000C0B29B
S3150800526070BDD0F89010890419D5D0F88010096857
S3150800527049070ED5D0F8901051F40041C0F89010A7
S31508005280D0F880100A6832F00402D0F880100A605C
S3150800529005E0D0F8901031F40041C0F8901070473E
S315080052A0D0F89010890411D5D0F89010090407D5C4
S315080052B0D0F880100A6852F00402D0F880100A600C
S315080052C0D0F8901031F40041C0F8901070472DE9DD
S315080052D0F34381B0804614001D0047464046FFF759
S315080052E065FF002806D1DFF8EC287821DFF8A80842
S315080052F0FCF704F8786F202840F0BD800298002853
S3150800530003D0200080B2002801D10120B4E0D8F8EB
S3150800531080000068000701D40120ADE097F870000E
S31508005320012801D10220A7E0012087F87000029821
S31508005330F864A7F85040A7F852400020F8672120E3
S3150800534078673868006830F0400039680860B86ED9
S31508005350002829D00FF2B541B86EC1620021B86E97
S3150800536001630FF24951B86E416302A80600402155
S315080053703868016223009BB2386810F12802316848
S31508005380B86E03F0ADFA002806D0DFF84828AB213E
S31508005390DFF80408FBF7B2FFB86E0068006830F063
S315080053A00400B96E09680860280604D00721D8F8F1
S315080053B08C00FDF7BEF9D8F88400002806D0012233
S315080053C0B8F88810D8F8840001F0E0FAEFF31080F6
S315080053D000905FF0010989F31088D8F89010C90881
S315080053E0C90015F007000143C8F890104046FFF7BA
S315080053F038FF009880F31088B86E00281ED0EFF3A7
S315080054001080009089F310883868816851F080010F
S31508005410386881600FF25950C8F8A40040213868EE
S3150800542001624021386801623868016851F040011C
S3150800543038680160009880F3108817E0B868B0F5FE
S31508005440805F09D13869002806D1DFF88827E2216C
S31508005450DFF84407FBF752FF0FF2D150C8F8A8004F
S315080054603868016851F0800138680160002087F8C3
S315080054707000002000E00220BDE8FE832DE9FC4113
S3150800548005000C0016002F002800FFF78FFE0028E5
S3150800549006D1DFF8C027FF21DFF8FC06FBF72EFF51
S315080054A0002C07D1DFF8AC274FF48071DFF8E80647
S315080054B0FBF724FFC5F89440B86F202840F0918088
S315080054C0D5F8940002F076FB002801D1012089E086
S315080054D0D5F880000068400701D4012082E097F8DB
S315080054E07000012801D102207CE0012087F87000B5
S315080054F0D5F8940003F00CFBD5F89400006878659D
