:020000040800F2
:10000000C0060020290200082B100008D90D0008A6
:1000100029100008DF040008CD13000800000000CC
:100020000000000000000000000000002F10000889
:10003000E1040008000000002D1000083110000845
:10004000430200084302000843020008430200087C
:10005000430200084302000843020008430200086C
:10006000430200084302000843020008430200085C
:10007000430200084302000843020008430200084C
:10008000430200084302000843020008430200083C
:10009000430200084302000843020008430200082C
:1000A000430200084302000843020008430200081C
:1000B000430200084302000843020008430200080C
:1000C00043020008430200084302000843020008FC
:1000D00043020008430200084302000843020008EC
:1000E00043020008430200084302000843020008DC
:1000F00043020008430200084302000843020008CC
:1001000043020008430200084302000843020008BB
:1001100043020008430200084302000843020008AB
:10012000430200084302000843020008430200089B
:10013000430200084302000843020008430200088B
:10014000430200084302000843020008430200087B
:10015000430200084302000843020008430200086B
:10016000430200084302000843020008430200085B
:100170004302000843020008430200080000000098
:10018000430200084302000800F002F800F03CF8C7
:100190000AA090E8000C82448344AAF10107DA45E2
:1001A00001D100F031F8AFF2090EBAE80F0013F0F8
:1001B000010F18BFFB1A43F001031847601300003A
:1001C00080130000103A24BF78C878C1FAD85207CB
:1001D00024BF30C830C144BF04680C6070470000C1
:1001E0000023002400250026103A28BF78C1FBD840
:1001F000520728BF30C148BF0B6070471FB501F0E0
:100200007BF91FBD10B510BD00F02FF91146FFF7A7
:10021000F5FF01F001F900F04DF903B4FFF7F2FF2B
:1002200003BC00F055F90000094880470948004721
:10023000FEE7FEE7FEE7FEE7FEE7FEE7FEE7FEE796
:10024000FEE7FEE704480549054A064B70470000F3
:10025000CD10000889010008C0000020C006002061
:10026000C0020020C002002053EA020C00F06980A6
:100270002DE9F04B4FF00006002B1FBFB3FA83F5BA
:1002800003FA05F424FA05F65E4012BF1643B2FAEB
:1002900082F502FA05F4C5F120051EBF22FA05FC1D
:1002A00044EA0C04203556EA044C4FEA144418BFC3
:1002B000641C4FF000084FF00009904271EB030CF2
:1002C00039D3002919BFB1FA81F701FA07F6B0FA5C
:1002D00080F700FA07F6C7F120071EBF20FA07FCD7
:1002E00046EA0C062037B6FBF4FCA7EB0507103FE7
:1002F00007F01F0BCBF120060CFA0BFB2CFA06F6CD
:1003000044BFB3460026202FA4BF5E464FF0000B2B
:100310005BEA060C08BF4FF0010B19EB0B09ABFBB6
:10032000027C48EB0608C01B06FB02CC0BFB03CC8F
:1003300071EB0C01C1E70B46024641464846BDE859
:10034000F08B13B54FF000004FF00001AFF30080C9
:10035000BDE81C40704710B5431C02E010F8011BBB
:1003600071B18107FAD14FF0013202C88C1A8C4367
:1003700014EAC211F9D0C01A0A0603D0C01E10BD7B
:10038000C01A10BD0A0401D0801E10BD0902FCD0A5
:10039000401E10BD4FF0000200B51346944696462D
:1003A000203922BFA0E80C50A0E80C50B1F1200188
:1003B000BFF4F7AF090728BFA0E80C5048BF0CC036
:1003C0005DF804EB890028BF40F8042B08BF704794
:1003D00048BF20F8022B11F0804F18BF00F8012B06
:1003E000704700004FF0013C50F8042B51F8043BDB
:1003F0009A4221D1A2EB0C03934313EACC1317D1F9
:1004000050F8042B51F8043B9A4215D1A2EB0C038F
:10041000934313EACC130BD150F8042B51F8043B4F
:100420009A4209D1A2EB0C03934313EACC13DBD01D
:100430004FF00000704700BFD01A01BAB1FA81F145
:1004400001F0180122FA01F0CB40C1F12001DBB22A
:10045000C0B2C01A2CFA01F3D11A914311EAC311A8
:10046000E6D17047704770477047754600F02CF82A
:10047000AE4605006946534620F00700854618B091
:1004800020B5FFF7DFFEBDE820404FF000064FF03B
:1004900000074FF000084FF0000B21F00701AC46B9
:1004A000ACE8C009ACE8C009ACE8C009ACE8C009D8
:1004B0008D46704710B50446AFF300802046BDE876
:1004C0001040FFF7AABE0000004870475C00002003
:1004D00001491820ABBEFEE7260002007047FEE788
:1004E0007047000070B5044600F0F2F80546601C45
:1004F00002D004480078044400F0EAF8401BA0420F
:10050000FAD370BD0C0000202DE9F84FDFF87CB164
:1005100000224FF001084FF0030A4FF00F090BF1D2
:10052000040E00BF0B6808FA02F42340A3426ED108
:100530004D68022D01D0122D0ED1D50800EB850C8F
:10054000DCF820505607F70E09FA07F6B5430E6996
:10055000BE402E43CCF82060066855000F790AFA99
:1005600005FC07F0030726EA0C06AF403743076097
:100570004E68012E05D0022E03D0112E01D0122E6E
:100580000ED18668CF6826EA0C06AF4037438760F5
:100590004668A6430C79C4F3001494403443446085
:1005A000C6688C6826EA0C06AC403443C4604C68CC
:1005B000E40065D5364C256845F4804525602468FF
:1005C00022F0030504F480440094324C2E19D6F82E
:1005D000084895072F0F09FA07F5AC432E4DA8429E
:1005E00001D1002524E02D4DA84201D101251FE0B5
:1005F0002B4DA84201D102251AE02A4DA84201D173
:10060000032515E0284DA84202D1042510E037E06B
:10061000264DA84201D105250AE0254DA84201D169
:10062000062505E0234DA84201D1072500E0082555
:10063000BD402543C6F80858DBF800405D464E68CB
:100640009C43F60300D51C432C60DEF80040754641
:100650004E689C43B60300D51C432C600B4D0835F7
:100660002C684E689C43F60200D51C432C60074D55
:100670000C352C684E689C43B60200D51C432C6098
:10068000521C102AFFF44EAFBDE8F88F003C014029
:1006900044380240003001400000024000040240A3
:1006A00000080240000C024000100240001402400A
:1006B00000180240001C0240426931EA020200D1E7
:1006C0000904816170470AB1816170470904FBE741
:1006D00001488068704700000C00002002488168D3
:1006E00002781144816070470C0000200B4810B55F
:1006F000016841F400710160016841F480610160AA
:10070000016841F480710160032000F063F800206B
:1007100000F006F800F024F8002010BD003C024074
:1007200070B50D4D04464FF47A712878B1FBF0F0A6
:100730000A490968B1FBF0F000F0D4FA48B9102C6E
:1007400007D200222146501E00F024F800206C60E1
:1007500070BD012070BD00000C00002018000020BA
:100760000B4882B0016841F480410160006800F4E8
:10077000804000900648001F016841F080510160F0
:10078000006800F080500090072002B000F022B80E
:1007900044380240F0B40E4B1B680C46C3F30223EE
:1007A000C3F10705042D00D90425191D072901D21D
:1007B000002300E0DB1E012606FA05F1491E214058
:1007C00099409E40761E16403143F0BC00F0FFBDBC
:1007D0000CED00E0064900F0070208684FF6FF0341
:1007E000184040EA0220034A1043086070470000A6
:1007F0000CED00E00000FA052DE9F0470E4605007B
:1008000065D0DFF81481D8F80000F7B200F00F00CF
:10081000B04207D288F80070D8F8000000F00F004E
:10082000B04254D128683D4C810712D5400703D50A
:10083000206840F4E05020602878000703D5206845
:1008400040F4604020602068A96820F0F000084370
:1008500020602878C0072DD0304968680839012801
:1008600012D0022813D0032811D009688907002963
:100870002DDA216821F0030101432160FFF728FFF1
:10088000814641F2883A0EE009688903EFE709687A
:100890008901ECE7FFF71CFFA0EB0901514502D9E4
:1008A0000320BDE8F0872068696800F00C00B0EB19
:1008B000810FEFD1D8F80010404601F00F01B1428E
:1008C00007D90770006800F00F00B04201D0012086
:1008D000E7E72878400705D52068E96820F4E0506C
:1008E000084320602878000706D52068296920F48D
:1008F000604040EAC100206000F036F82168084AF4
:10090000C1F30311515CC840064908600020FFF79D
:1009100007FF0020C5E70000003C02400838024005
:1009200002150008180000200448054900680968FD
:10093000044AC1F38221515CC8407047180000206E
:100940000838024012150008044805490068096883
:10095000044AC1F34231515CC8407047180000207E
:100960000838024012150008154810B5006810F04C
:100970000C02144813D04110042A0FD0082A0ED1BB
:100980000F4C241F2268236802F03F025B0207D548
:100990002068C0F38810A0FB010106E0084610BDE6
:1009A0002168C1F38811A1FB00010023FFF75CFC63
:1009B0002168C1F30141491C4900B0FBF1F010BDB1
:1009C000083802400024F4002DE9F84F050076D0E5
:1009D0002878DFF8F8B2BE4CC00749D0DBF8001029
:1009E0005846C1F38101012908D00068C0F3810095
:1009F00002280AD1201D0068400206D52068800325
:100A000036D568680028E2D032E06868B0F5803FEB
:100A100010D0B0F5A02F206810D020F480302060D6
:100A2000206820F4802020606868A0B1FFF750FEA5
:100A300006460CE0206840F48030F4E740F4802063
:100A40002060F7E7FFF744FE801B642873D8206816
:100A50008003F7D50CE0FFF73BFE064605E000BF3C
:100A6000FFF736FE801B6428F0D820688003F7D497
:100A70002878DFF8608280074FF000093ED5DBF868
:100A80000010584611F00C0F09D00068C0F3810027
:100A900002280BD18D48001F0068400206D4206850
:100AA000800715D5E868012809D111E0E868B8B1D8
:100AB0000120C8F80000FFF70BFE064605E002E142
:100AC000FFF706FE801B0228C0D820688007F7D5F4
:100AD0002068296920F0F80040EAC10020600DE09C
:100AE000C8F80090FFF7F4FD064604E0FFF7F0FDBC
:100AF000801B02281FD820688007F7D428780007B9
:100B000022D5724E744869696C3671B10121016059
:100B1000FFF7DEFD074604E0FFF7DAFDC01B022801
:100B200009D830688007F7D50EE0C0F80090FFF7CD
:100B3000CFFD074605E083E0FFF7CAFDC01B022892
:100B40007ED830688007F7D42878400768D5DFF86A
:100B50007CA100270AF1380ADAF80000C0000BD4A3
:100B6000DAF8001041F08051CAF80010DAF80000FD
:100B7000012700F080500090584E3068C00510D416
:100B8000306840F480703060FFF7A2FD009005E00F
:100B9000FFF79EFD0099401A022851D83068C00521
:100BA000F6D54A4EA868683601280FD00528306867
:100BB00010D020F001003060306820F00400306078
:100BC000A868B8B1FFF784FD00900FE0306840F0EE
:100BD0000100F4E740F004003060F7E7FFF778FD2C
:100BE0000099411A41F28830814264D83068800708
:100BF000F4D50EE0FFF76CFD009007E0FFF768FD0D
:100C00000099411A41F28830814254D830688007F7
:100C1000F4D42FB1DAF8001021F08051CAF8001096
:100C2000A869C0B3DBF80010C1F3810102294AD0E2
:100C30000228484607D0C8F86000FFF749FD00E0E9
:100C400039E005463AE04746C8F86000FFF740FD46
:100C5000064604E0FFF73CFD801B02282BD82068E5
:100C60008001F7D4D5E907010843A96A1C4A49085D
:100C700002EB01416A6A41EA8211084395F82C109F
:100C800040EA01611148001F016001203866FFF74A
:100C90001FFD054605E014E0FFF71AFD401B022882
:100CA00009D820688001F7D50BE000BFFFF710FDE1
:100CB000401B022802D90320BDE8F88F206880017C
:100CC000F4D40020F8E70120F6E7000008380240DD
:100CD0000038024000004742800E4742007000404A
:100CE0000000FFFF10B5401EB0F1807F01D301204E
:100CF00010BD4FF0E02460610F21601700F067FB2A
:100D00000020A06107202061002010BD70B5040004
:100D100004D094F83900002510B106E0012070BD20
:100D200084F83850204600F023F8242084F8390055
:100D30002068C16821F40051C160204600F0F0F93C
:100D40002068016921F4904101612068416921F026
:100D50002A0141612068C16841F40051C160E56326
:100D6000202084F8390084F83A00002070BD00008B
:100D700010B586B0044614216846FFF70BFB1349F3
:100D80002068884220D112480021026842F40032D3
:100D90000260006800F4003005900D4810380268C9
:100DA00042F001020260006800F0010005900C2092
:100DB00000900220CDE90101032003900720049058
:100DC00069460448FFF7A0FB06B010BD0044004090
:100DD0004038024000000240FEE700002DE9F04FDD
:100DE00087B014216846FFF7D5FA6D4800240168E2
:100DF00041F010010160016801F0100105910168E6
:100E000041F004010160016801F0040105910168ED
:100E100041F080010160016801F0800105910168E5
:100E200041F001010160016801F0010105910168D3
:100E300041F002010160016801F0020105910168C1
:100E400041F0080101600068002200F008000590F0
:100E500008215448FFF737FC012211465248FFF79A
:100E600032FC4FF2100A002251465048FFF72BFC8B
:100E7000082501260095CDE9016469464948039497
:100E8000FFF742FB0096CDE90164694646480394AA
:100E9000FFF73AFB00950225CDE901540527CDE97E
:100EA000034769464048FFF72FFB41480096CDE9CC
:100EB0000104DFF800B169465846FFF725FB102012
:100EC0000090CDE901544FF00608CDE9034869468A
:100ED0005846FFF719FBE0200090CDE90154CDE919
:100EE000034769465846FFF70FFB4FF00409CDE969
:100EF0000094694630480294FFF706FB68020090B0
:100F0000CDE90154CDE9034769462B48FFF7FCFAC8
:100F1000CDF800A0CDE90164694624480394FFF7A9
:100F2000F3FA4FF4A4500090CDE90154CDE9034801
:100F300069461D48FFF7E8FA2802CDE90004694632
:100F400058460294FFF7E0FA4FF4E0500090CDE9E4
:100F500001540A20CDE9034069465846FFF7D4FA08
:100F60002020CDE90004694610480294FFF7CCFA2E
:100F70004FF4107000901220CDE90104CDE903492F
:100F800069460D48FFF7C0FA0C480095CDE9010409
:100F900069460448FFF7B8FA07B0BDE8F08F0000D3
:100FA000303802400010024000080240000C0240AD
:100FB0000000111000000240000402400000121066
:100FC000154810B5016841F400310160134801680B
:100FD00041F0A0010160016A41F4EE410162104854
:100FE000016842F20C02114301600D490D480C39B1
:100FF0000C2201604FF4E131416000218160C16049
:10100000C0E904128161C161FFF780FE002801D0B0
:1010100072B6FEE710BD00004038024000000240FA
:101020000C4400401C000020FEE7FEE770477047BC
:10103000FFF754BB30B593B030216846FFF7AAF9EB
:1010400014210CA8FFF7A6F91E480024016841F0FE
:1010500080510160006800F0805011901A480168CA
:1010600041F4804101600068022500F48040119045
:101070000120039010200490009506950820CDE9EA
:1010800007403220099004200A9007200B90684600
:10109000FFF79AFC08B172B6FEE70F20CDE90C0508
:1010A0004FF4A050CDE90E404FF480501090002135
:1010B0000CA8FFF7A1FB002801D072B6FEE713B021
:1010C00030BD000040380240007000401048016808
:1010D00041F4700101600F48016841F001010160B5
:1010E0000C4A00210832116002680B4B1A40026062
:1010F000031D0A4A1A60026822F480220260054831
:101100000C300160024958068039086070470000C1
:1011100088ED00E000380240FFFFF6FE10300024AA
:101120002DE9F041044600680169E26821F440516C
:10113000114301612169A068E269084361691143B3
:1011400022680843D16849F20C6399430143D16096
:1011500020684169A26921F4407111434161E2694B
:101160006425B2F5004F9748974922684FF032083E
:101170003FD08A4201D082427CD1FFF7E5FB00EBF1
:10118000C00101EB001061688900B0FBF1F6FFF7C8
:10119000DBFB00EBC00101EB001061688900B0FBD4
:1011A000F1F0B0FBF5F06FF01801484306EB800159
:1011B00008EB0110B0FBF5F000F0F006FFF7C4FB00
:1011C00000EBC00101EB001061688900B0FBF1F099
:1011D000B0FBF5F006EB0016FFF7B6FB00EBC00125
:1011E00001EB001061688900B0FBF1F7FFF7ACFB81
:1011F000D2E08A4201D082423DD1FFF7A5FB00EB4D
:10120000C00101EB001061684900B0FBF1F0B0FBD8
:10121000F5F00601FFF798FB00EBC00101EB0010B1
:1012200061684900B0FBF1F7FFF78EFB00EBC001EE
:1012300001EB001061684900B0FBF1F0B0FBF5F084
:101240006FF01801484307EB800108EBC100B0FBC9
:10125000F5F000F0F80006EB4006FFF775FB00EB39
:10126000C00101EB001061684900B0FBF1F7FFF726
:101270006BFB3CE055E0FFF757FB00EBC00101EBD7
:10128000001061684900B0FBF1F0B0FBF5F0060119
:10129000FFF74AFB00EBC00101EB00106168490059
:1012A000B0FBF1F7FFF740FB00EBC00101EB0010D2
:1012B00061684900B0FBF1F0B0FBF5F06FF0180188
:1012C000484307EB800108EBC100B0FBF5F000F0EC
:1012D000F80006EB4006FFF727FB00EBC00101EB2F
:1012E000001061684900B0FBF1F7FFF71DFB00EB50
:1012F000C00101EB001061684900B0FBF1F0B0FBE8
:10130000F5F06FF01801484307EB800108EBC100CE
:10131000B0FBF5F000F00700216830448860BDE8BC
:10132000F081FFF701FB00EBC00101EB00106168E9
:101330008900B0FBF1F6FFF7F7FA00EBC00101EB13
:10134000001061688900B0FBF1F0B0FBF5F06FF0C0
:101350001801484306EB800108EB0110B0FBF5F0E3
:1013600000F0F006FFF7E0FA00EBC00101EB00101F
:1013700061688900B0FBF1F0B0FBF5F006EB0016F8
:10138000FFF7D2FA00EBC00101EB001061688900A1
:10139000B0FBF1F7FFF7C8FA00EBC00101EB00105A
:1013A00061688900B0FBF1F0B0FBF5F06FF0180157
:1013B000484307EB800108EB0110B0FBF5F000F0AB
:1013C0000F00A9E70014014000100140FEE70907E3
:1013D000090E002804DB00F1E02080F800147047BB
:1013E00000F00F0000F1E02080F8141D70470000AD
:1013F00010B506A1FEF7F6FF002806D0BDE81040A4
:101400004FF400410348FFF757B910BD4C65642005
:101410004F6E0000000C02401CB51648016841F0F8
:1014200008010160016841F4005101600168016038
:101430000168016001680160FFF758F9FFF7FAFDE4
:10144000FFF7CCFCFFF7BCFD0B4E4FF47A744FF462
:1014500080550AA1D1E90001CDE90001684600F0FC
:1014600011F82046FFF73EF829463046FFF724F9E9
:10147000EFE700000C440040000C02404C65642083
:101480004F6E00002DE9F0410546FEF764FF174E50
:10149000DFF85C80371DA8F104041BE0306800060B
:1014A000FCD52068295C396031688906FCD539682B
:1014B0000528CAB208F8002011D082B1401C206073
:1014C0004FF400510B486D1CFFF7F6F84FF47A709B
:1014D000FFF708F828780028E0D1BDE8F081002067
:1014E00020600348FFF784FFF4E700000044004059
:1014F00004000020000C02404FF04070E1EE100AA2
:10150000704700000000000000000102030406070D
:101510000809000000000102030400003C15000857
:10152000000000201C000000C4010008581500083D
:101530001C000020A4060000E001000800000000DC
:10154000000000000000000001000000100000008A
:08155000000000000024F4007B
:040000050800018965
:00000001FF
