:020000040800F2
:100000007806002029020008530B00083506000876
:10001000510B00082F030008B10D0008000000007C
:10002000000000000000000000000000550C000867
:100030003103000800000000870B0008590C00087D
:10004000430200084302000843020008430200087C
:10005000430200084302000843020008430200086C
:10006000430200084302000843020008430200085C
:10007000430200084302000843020008430200084C
:10008000430200084302000843020008430200083C
:10009000430200084302000843020008430200082C
:1000A000430200084302000843020008430200081C
:1000B0004302000843020008430200083906000812
:1000C0003706000843020008430200084302000804
:1000D00043020008430200084302000843020008EC
:1000E00043020008430200084302000843020008DC
:1000F00043020008430200084302000843020008CC
:1001000043020008430200084302000843020008BB
:1001100043020008430200084302000843020008AB
:10012000430200084302000843020008430200089B
:10013000430200084302000843020008430200088B
:10014000430200084302000843020008430200087B
:10015000430200084302000843020008430200086B
:10016000430200084302000843020008430200085B
:100170004302000843020008430200080000000098
:10018000430200084302000800F002F800F03CF8C7
:100190000AA090E8000C82448344AAF10107DA45E2
:1001A00001D100F031F8AFF2090EBAE80F0013F0F8
:1001B000010F18BFFB1A43F001031847940C00000D
:1001C000B40C0000103A24BF78C878C1FAD852079E
:1001D00024BF30C830C144BF04680C6070470000C1
:1001E0000023002400250026103A28BF78C1FBD840
:1001F000520728BF30C148BF0B6070471FB500F0E1
:1002000016FE1FBD10B510BD00F058F81146FFF7DF
:10021000F5FF00F003FE00F076F803B4FFF7F2FFFD
:1002200003BC00F07DF800000948804709480047FA
:10023000FEE7FEE7FEE7FEE7FEE7FEE7FEE7FEE796
:10024000FEE7FEE704480549054A064B70470000F3
:100250005D0D000889010008780000207806002064
:1002600078020020780200204FF0000200B513460B
:1002700094469646203922BFA0E80C50A0E80C50C6
:10028000B1F12001BFF4F7AF090728BFA0E80C5077
:1002900048BF0CC05DF804EB890028BF40F8042B70
:1002A00008BF704748BF20F8022B11F0804F18BFDD
:1002B00000F8012B7047704770477047754600F093
:1002C0002BF8AE4605006946534620F007008546E8
:1002D00018B020B5FFF7B6FFBDE820404FF000068C
:1002E0004FF000074FF000084FF0000B21F007011E
:1002F000AC46ACE8C009ACE8C009ACE8C009ACE861
:10030000C0098D46704710B50446AFF30080204603
:10031000BDE81040FFF781BF00487047140000207F
:1003200001491820ABBEFEE7260002007047FEE739
:10033000704700002DE9F84FDFF87CB100224FF044
:1003400001084FF0030A4FF00F090BF1040E00BF34
:100350000B6808FA02F42340A3426ED14D68022DC7
:1003600001D0122D0ED1D50800EB850CDCF8205001
:100370005607F70E09FA07F6B5430E69BE402E433D
:10038000CCF82060066855000F790AFA05FC07F0E2
:10039000030726EA0C06AF40374307604E68012E7C
:1003A00005D0022E03D0112E01D0122E0ED1866858
:1003B000CF6826EA0C06AF40374387604668A643FD
:1003C0000C79C4F30014944034434460C6688C68CC
:1003D00026EA0C06AC403443C4604C68E40065D5A2
:1003E000364C256845F480452560246822F00305D5
:1003F00004F480440094324C2E19D6F8084895072E
:100400002F0F09FA07F5AC432E4DA84201D1002564
:1004100024E02D4DA84201D101251FE02B4DA8421B
:1004200001D102251AE02A4DA84201D1032515E089
:10043000284DA84202D1042510E037E0264DA842FD
:1004400001D105250AE0254DA84201D1062505E088
:10045000234DA84201D1072500E00825BD402543D2
:10046000C6F80858DBF800405D464E689C43F6032A
:1004700000D51C432C60DEF8004075464E689C4356
:10048000B60300D51C432C600B4D08352C684E6814
:100490009C43F60200D51C432C60074D0C352C689C
:1004A0004E689C43B60200D51C432C60521C102A97
:1004B000FFF44EAFBDE8F88F003C014044380240E5
:1004C00000300140000002400004024000080240E9
:1004D000000C0240001002400014024000180240CC
:1004E000001C02400AB1816170470904FBE700006B
:1004F000024881680278114481607047080000203A
:100500000B4810B5016841F400710160016841F4C5
:1005100080610160016841F480710160032000F096
:1005200063F8002000F006F800F024F8002010BD69
:10053000003C024070B50D4D04464FF47A712878A6
:10054000B1FBF0F00A490968B1FBF0F000F05EF889
:1005500048B9102C07D200222146501E00F024F882
:1005600000206C6070BD012070BD000008000020FC
:10057000040000200B4882B0016841F48041016012
:10058000006800F4804000900648001F016841F0B8
:1005900080510160006800F080500090072002B098
:1005A00000F022B844380240F0B40E4B1B680C46F1
:1005B000C3F30223C3F10705042D00D90425191D37
:1005C000072901D2002300E0DB1E012606FA05F10F
:1005D000491E214099409E40761E16403143F0BC92
:1005E00000F004BC0CED00E0064900F007020868CA
:1005F0004FF6FF03184040EA0220034A1043086008
:10060000704700000CED00E00000FA0510B5401E38
:10061000B0F1807F01D3012010BD4FF0E024606174
:100620000F21601700F0E2FB0020A061072020618D
:10063000002010BDFEE770477047F0B50A6803243C
:1006400092FAA2F2B2FA82F30F257EE03246012638
:100650009E40324078D0D1F804E0066892FAA2F7C2
:10066000B7FA87F74FEA470C04FA0CF7BE4392FA41
:10067000A2F7B7FA87F77F000EFA07FE46EA0E06E2
:1006800006604E68012E01D0022E15D1D1F808E087
:10069000866892FAA2F7B7FA87F74FEA470C04FA8E
:1006A0000CF7BE4392FAA2F7B7FA87F77F000EFA6B
:1006B00007FE46EA0E068660D1F810C0C66892FAB8
:1006C000A2F7B7FA87F77F0004FA07FE92FAA2F7BB
:1006D000B7FA87F77F0026EA0E060CFA07FC46EA0F
:1006E0000C06C6604E68022E2ED192FAA2F6B6FA19
:1006F00086F6082E4E6913D2076A92FAA2FCBCFA5B
:100700008CFC4FEA8C0C05FA0CFC92FAA2F2B2FABD
:1007100082F2920027EA0C0796403743076213E003
:10072000476A120A92FAA2FCBCFA8CFC4FEA8C0CC3
:1007300005FA0CFC92FAA2F2B2FA82F2920027EACF
:100740000C079640374347625B1C0A681646DA403E
:100750007FF47CAF4A68012A01D0022A07D1CB6816
:1007600041683246914306FB03F211434160002089
:10077000F0BD000030B5214C4568B1FBF4F425F024
:100780003F05254345601E4DAA4207D94FF4967593
:1007900004FB05F44FF47A75B4FBF5F4056A04F133
:1007A000010425F03F0544EA0504046213D96BB146
:1007B00002EBC20404EB0212B1FBF2F4240508D0F0
:1007C000B1FBF2F1194341F400410FE002EB4202A8
:1007D000F2E70121F6E75200B1FBF2F3C3F30B039A
:1007E000042B01D2042101E0B1FBF2F1C2694CF605
:1007F000FF739A430A43C26130BD000040420F00BC
:10080000A08601007FB5044600680D4620F0010077
:100810002060684600F022F8D5E9012320460299BD
:10082000FFF7A8FF6969E868A26848F2FF339A43B6
:1008300008430243A2602868216821F01A0101439D
:100840002160206840F0010020602869216821F4BF
:1008500080610143216004B0002070BD10B50446E2
:1008600000F0BCF9206000F08FF9606000F09AF9A8
:10087000A060606800F0A4F9E06010BD0149086064
:1008800070470000040000202DE9F04F87B01421CC
:100890006846FFF7E9FC6C480024016841F010014C
:1008A0000160016801F010010591016841F0040147
:1008B0000160016801F004010591016841F08001C7
:1008C0000160016801F080010591016841F00101BA
:1008D0000160016801F001010591016841F0020128
:1008E0000160016801F002010591016841F0080111
:1008F00001600068002200F00800059008215348BC
:10090000FFF7F0FD012211465148FFF7EBFD0022F1
:100910004FF214014F48FFF7E5FD08250126009529
:10092000CDE90164694649480394FFF703FD009649
:10093000CDE90164694646480394FFF7FBFC009546
:100940000225CDE901540527CDE903476946404812
:10095000FFF7F0FC40480096CDE90104DFF8FCA069
:1009600069465046FFF7E6FC10200090CDE901549F
:100970004FF00608CDE9034869465046FFF7DAFC18
:10098000E0200090CDE90154CDE903476946504687
:10099000FFF7D0FC4FF00409CDE90094DFF8C0B0B8
:1009A000694658460294FFF7C5FC68020090CDE9FD
:1009B0000154CDE9034769465846FFF7BBFC4FF2A7
:1009C00010000090CDE90164694622480394FFF7C6
:1009D000B1FC4FF4A4500090CDE90154CDE9034897
:1009E00069461B48FFF7A6FC2802CDE900046946CA
:1009F00050460294FFF79EFC4FF4E0500090CDE982
:100A000001540A20CDE9034069465046FFF792FCA5
:100A1000CDE9009669460F48CDE90245FFF78AFC0B
:100A20002020CDE9000469460A480294FFF782FCC1
:100A30000C480095CDE9010469460448FFF77AFCAB
:100A400007B0BDE8F08F00003038024000100240CF
:100A500000080240000C024000001110000002409B
:100A6000000402400000121030B58DB01821684615
:100A7000FFF7FAFB182106A8FFF7F6FB2F480168DD
:100A800041F0020101600068002500F002000C90B6
:100A90004FF4107006900220CDE907050120CDE942
:100AA000090504200B9006A92548FFF7C6FD234839
:100AB0001030016841F4001101600068214C00F41D
:100AC00000100C9020680022C0F30220114600F0B4
:100AD00041F801461F2000F079F91F2000F069F964
:100AE00020680022C0F30220114600F033F80146CE
:100AF000202000F06BF9202000F05BF9124CE06838
:100B000020F00100E060206820F0400020602068B4
:100B100020F0800020600D480295CDE9005020159E
:100B2000CDE903500001059069462046FFF76AFEB3
:100B3000E06820F0FE00E0600DB030BD30380240CB
:100B4000000402400CED00E000540040A0860100CB
:100B5000FEE7FEE730B500F00703C3F10704042CFD
:100B600000D90424181D072801D2002300E0DB1E51
:100B7000012505FA04F0401E084098409D406D1E76
:100B80001540284330BD704704490968044A01F004
:100B9000F0010909515CC840704700000838024064
:100BA000380E000804490968044A01F4E05102EBD8
:100BB00091210978C840704708380240480E000863
:100BC00004490968044A01F4604102EB5131097893
:100BD000C840704708380240480E000807480068BF
:100BE00010F00C01064807D0042904D0082903D1CD
:100BF000082000F009B80348704700000838024098
:100C00000024F40000127A0010B5104A04460020B7
:100C1000116811F480030E4903D0B3F5800F00D1A1
:100C20004910082C11D1106800F03F00B1FBF0F022
:100C30001168C1F3881148431168012201F4403161
:100C400002EB11414900B0FBF1F010BD0438024045
:100C50000024F40070470000094810B50168094AF3
:100C600012689142016802D101F00F0101E041F4E4
:100C70004041016000F0CAF8BDE81040FFF738BC01
:100C8000140C0240000000202F4810B5016821F02C
:100C90000F010160016811F00F0FFBD12B480168B3
:100CA00041F4804101602A48016821F0F80141F0D7
:100CB00080010160016841F0010101600168C1F338
:100CC00040010029FAD0224940F68842091D0B68EC
:100CD000204C23401A430A600A6822F4403242F44E
:100CE00080320A60016841F0807101600168C1F3DF
:100CF00040610029FAD016480830016821F0F0015F
:100D00000160016821F4E05141F4A05101600168E3
:100D100021F4604141F400410160016821F00301C8
:100D200041F002010160016801F00C010829FAD1CB
:100D30000948FFF7A3FD0020FFF7FCFB002801D0C6
:100D400072B6FEE710BD0000003C0240007000409B
:100D5000003802400080BFFF40787D0110480168E4
:100D600041F4700101600F48016841F00101016028
:100D70000C4A00210832116002680B4B1A400260D5
:100D8000031D0A4A1A60026822F4802202600548A4
:100D90000C30016002495806803908607047000035
:100DA00088ED00E000380240FFFFF6FE103000241E
:100DB000FEE7002809DB00F01F02012191404009F5
:100DC000800000F1E020C0F8001170470907090E0B
:100DD000002804DB00F1E02080F80014704700F0E8
:100DE0000F0000F1E02080F8141D70470907090E7C
:100DF000002804DB00F1E02080F80014704700F0C8
:100E00000F0000F1E02080F8141D70470249002017
:100E1000401C8842FCDB704740420F00FFF770FB2C
:100E2000FFF732FFFFF730FDFFF71EFEFEE74FF042
:100E30004070E1EE100A7047000000000000000062
:100E40000102030406070809000000000102030470
:100E5000700E00080000002014000000C40100080B
:100E6000840E00081400002064060000E001000861
:100E700000C000000024F400010000001000000089
:040E8000000000006E
:040000050800018965
:00000001FF
