:020000040800F2
:10000000C80600202902000867100008950E0008A5
:10001000651000081F0400085D11000800000000C2
:100020000000000000000000000000006B1000084D
:100030002104000800000000691000086D1000088D
:10004000430200084302000843020008430200087C
:10005000430200084302000843020008430200086C
:10006000430200084302000843020008430200085C
:10007000430200084302000843020008430200084C
:10008000430200084302000843020008430200083C
:10009000430200084302000843020008430200082C
:1000A000430200084302000843020008430200081C
:1000B000430200084302000843020008430200080C
:1000C00043020008430200084302000843020008FC
:1000D00043020008430200084302000843020008EC
:1000E00043020008430200084302000843020008DC
:1000F00043020008430200084302000843020008CC
:1001000043020008430200084302000843020008BB
:1001100043020008430200084302000843020008AB
:10012000430200084302000843020008430200089B
:10013000430200084302000843020008430200088B
:10014000430200084302000843020008430200087B
:10015000430200084302000843020008430200086B
:10016000430200084302000843020008430200085B
:100170004302000843020008430200080000000098
:10018000430200084302000800F002F800F03CF8C7
:100190000AA090E8000C82448344AAF10107DA45E2
:1001A00001D100F031F8AFF2090EBAE80F0013F0F8
:1001B000010F18BFFB1A43F0010318473C10000061
:1001C0005C100000103A24BF78C878C1FAD85207F2
:1001D00024BF30C830C144BF04680C6070470000C1
:1001E0000023002400250026103A28BF78C1FBD840
:1001F000520728BF30C148BF0B6070471FB500F0E1
:10020000E9FF1FBD10B510BD00F0CFF81146FFF794
:10021000F5FF00F0B5FF00F0EDF803B4FFF7F2FFD3
:1002200003BC00F0F5F80000094880470948004782
:10023000FEE7FEE7FEE7FEE7FEE7FEE7FEE7FEE796
:10024000FEE7FEE704480549054A064B70470000F3
:100250000911000889010008C8000020C806002014
:10026000C8020020C802002053EA020C00F0698096
:100270002DE9F04B4FF00006002B1FBFB3FA83F5BA
:1002800003FA05F424FA05F65E4012BF1643B2FAEB
:1002900082F502FA05F4C5F120051EBF22FA05FC1D
:1002A00044EA0C04203556EA044C4FEA144418BFC3
:1002B000641C4FF000084FF00009904271EB030CF2
:1002C00039D3002919BFB1FA81F701FA07F6B0FA5C
:1002D00080F700FA07F6C7F120071EBF20FA07FCD7
:1002E00046EA0C062037B6FBF4FCA7EB0507103FE7
:1002F00007F01F0BCBF120060CFA0BFB2CFA06F6CD
:1003000044BFB3460026202FA4BF5E464FF0000B2B
:100310005BEA060C08BF4FF0010B19EB0B09ABFBB6
:10032000027C48EB0608C01B06FB02CC0BFB03CC8F
:1003300071EB0C01C1E70B46024641464846BDE859
:10034000F08B13B54FF000004FF00001AFF30080C9
:10035000BDE81C4070474FF0000200B513469446BC
:100360009646203922BFA0E80C50A0E80C50B1F10D
:100370002001BFF4F7AF090728BFA0E80C5048BF21
:100380000CC05DF804EB890028BF40F8042B08BFBF
:10039000704748BF20F8022B11F0804F18BF00F8BB
:1003A000012B7047704770477047754600F02CF876
:1003B000AE4605006946534620F00700854618B052
:1003C00020B5FFF73FFFBDE820404FF000064FF09B
:1003D00000074FF000084FF0000B21F00701AC467A
:1003E000ACE8C009ACE8C009ACE8C009ACE8C00999
:1003F0008D46704710B50446AFF300802046BDE837
:100400001040FFF70ABF0000004870476800002056
:1004100001491820ABBEFEE7260002007047FEE748
:10042000704700002DE9F84FDFF87CB100224FF053
:1004300001084FF0030A4FF00F090BF1040E00BF43
:100440000B6808FA02F42340A3426ED14D68022DD6
:1004500001D0122D0ED1D50800EB850CDCF8205010
:100460005607F70E09FA07F6B5430E69BE402E434C
:10047000CCF82060066855000F790AFA05FC07F0F1
:10048000030726EA0C06AF40374307604E68012E8B
:1004900005D0022E03D0112E01D0122E0ED1866867
:1004A000CF6826EA0C06AF40374387604668A6430C
:1004B0000C79C4F30014944034434460C6688C68DB
:1004C00026EA0C06AC403443C4604C68E40065D5B1
:1004D000364C256845F480452560246822F00305E4
:1004E00004F480440094324C2E19D6F8084895073D
:1004F0002F0F09FA07F5AC432E4DA84201D1002574
:1005000024E02D4DA84201D101251FE02B4DA8422A
:1005100001D102251AE02A4DA84201D1032515E098
:10052000284DA84202D1042510E037E0264DA8420C
:1005300001D105250AE0254DA84201D1062505E097
:10054000234DA84201D1072500E00825BD402543E1
:10055000C6F80858DBF800405D464E689C43F60339
:1005600000D51C432C60DEF8004075464E689C4365
:10057000B60300D51C432C600B4D08352C684E6823
:100580009C43F60200D51C432C60074D0C352C68AB
:100590004E689C43B60200D51C432C60521C102AA6
:1005A000FFF44EAFBDE8F88F003C014044380240F4
:1005B00000300140000002400004024000080240F8
:1005C000000C0240001002400014024000180240DB
:1005D000001C02400AB1816170470904FBE700007A
:1005E00001488068704700000400002070B50400D6
:1005F0001BD094F83D00002520B984F83C502046DB
:1006000000F00CF9242084F83D002068016821F0F6
:100610000101016000F05CFA4D4A6168914201D825
:100620004C4900E04C49884201D2012070BD4B4941
:100630002368B0FBF1F15E6826F03F060E435E6072
:100640006368934206D94FF4967359434FF47A7313
:10065000B1FBF3F12368491C1E6A26F03F063143C3
:1006600019626168914210D84900401EB0FBF1F256
:10067000521CC2F30B02042A01D2042022E0B0FB78
:10068000F1F0401CC0F30B001CE0A368F3B301EBD6
:10069000C10202EB0116421EB2FBF6F2521C42F4FA
:1006A0008042120549D093B301EBC10202EB011164
:1006B000401EB0FBF1F0401CC0F30B0040F4804042
:1006C00040F400402168CA694CF6FF739A43104316
:1006D000C861D4E90701084321680A6822F0C00212
:1006E00010430860D4E9030101432068826848F29E
:1006F000FF339A4311438160D4E90501084321681F
:10070000CA6822F0FF021043C86001E00EE016E064
:100710002068016841F0010101602564202084F80F
:100720003D00256384F83E50002070BD01EB41067A
:10073000421EB2FBF6F2521CB3E70120C2E701EB06
:100740004101401EB0FBF1F0401CC0F30B00B7E7C5
:10075000A086010080841E0000093D0040420F0079
:1007600078B50024009490F83D50202D50D1294DAB
:1007700046F2A8162D68B5FBF6F505EBC50606EBA7
:10078000051500956D1E009506D00568AD69ED4311
:10079000AD070DD4009DF5E740F8304F202141739F
:1007A0008473016941F0200101610473012078BD67
:1007B00090F83C50012D2BD0012580F83C50056865
:1007C0002E68F60703D12E6846F001062E600568F4
:1007D0002E6826F400662E60212580F83D501025F5
:1007E00080F83E50046442624385428D02850A4A85
:1007F000C262416401680A6842F480720A6080F84B
:100800003C400068416841F4E0614160002078BDEF
:10081000022078BD100000200000FFFF10B586B058
:10082000044614216846FFF796FD13492068884264
:1008300020D112480021026842F0020202600068E2
:1008400000F0020005904FF4107000901220CDE9E6
:1008500001010420CDE9031069460948FFF7E2FDD4
:1008600006481030016841F400110160006800F48E
:100870000010059006B010BD005400403038024012
:100880000004024002488168027811448160704788
:10089000040000200B4810B5016841F400710160AC
:1008A000016841F480610160016841F48071016078
:1008B000032000F063F8002000F006F800F024F8B0
:1008C000002010BD003C024070B50D4D04464FF4B1
:1008D0007A712878B1FBF0F00A490968B1FBF0F0B1
:1008E00000F0C4FA48B9102C07D200222146501E4D
:1008F00000F024F800206C6070BD012070BD000085
:1009000004000020100000200B4882B0016841F470
:1009100080410160006800F4804000900648001F9C
:10092000016841F080510160006800F08050009043
:10093000072002B000F022B844380240F0B40E4B59
:100940001B680C46C3F30223C3F10705042D00D92D
:100950000425191D072901D2002300E0DB1E012612
:1009600006FA05F1491E214099409E40761E164028
:100970003143F0BC00F0F3BB0CED00E0064900F0A1
:10098000070208684FF6FF03184040EA0220034AB6
:1009900010430860704700000CED00E00000FA050D
:1009A0002DE9F0470E46050065D0DFF81481D8F830
:1009B0000000F7B200F00F00B04207D288F80070D4
:1009C000D8F8000000F00F00B04254D128683D4C28
:1009D000810712D5400703D5206840F4E05020601D
:1009E0002878000703D5206840F460402060206824
:1009F000A96820F0F000084320602878C0072DD0B7
:100A0000304968680839012812D0022813D0032819
:100A100011D00968890700292DDA216821F0030126
:100A200001432160FFF7DCFD814641F2883A0EE088
:100A300009688903EFE709688901ECE7FFF7D0FD52
:100A4000A0EB0901514502D90320BDE8F0872068D9
:100A5000696800F00C00B0EB810FEFD1D8F80010FE
:100A6000404601F00F01B14207D90770006800F05D
:100A70000F00B04201D00120E7E72878400705D5F4
:100A80002068E96820F4E0500843206028780007D7
:100A900006D52068296920F4604040EAC100206042
:100AA00000F026F82168084AC1F30311515CC840E0
:100AB000064908600020FFF707FF0020C5E7000097
:100AC000003C024008380240DE11000810000020FF
:100AD0000448054900680968044AC1F38221515C51
:100AE000C84070471000002008380240EE1100088E
:100AF000154810B5006810F00C02144813D04110CE
:100B0000042A0FD0082A0ED10F4C241F2268236814
:100B100002F03F025B0207D52068C0F38810A0FBFB
:100B2000010106E0084610BD2168C1F38811A1FB50
:100B300000010023FFF798FB2168C1F30141491C24
:100B40004900B0FBF1F010BD083802400024F40069
:100B50002DE9F84F050076D02878DFF8F8B2BE4CC2
:100B6000C00749D0DBF800105846C1F381010129C4
:100B700008D00068C0F3810002280AD1201D006857
:100B8000400206D52068800336D568680028E2D088
:100B900032E06868B0F5803F10D0B0F5A02F206833
:100BA00010D020F480302060206820F48020206065
:100BB0006868A0B1FFF714FD06460CE0206840F419
:100BC0008030F4E740F480202060F7E7FFF708FD6D
:100BD000801B642873D820688003F7D50CE0FFF7EA
:100BE000FFFC064605E000BFFFF7FAFC801B642807
:100BF000F0D820688003F7D42878DFF86082800777
:100C00004FF000093ED5DBF80010584611F00C0FEC
:100C100009D00068C0F3810002280BD18D48001F65
:100C20000068400206D42068800715D5E8680128CE
:100C300009D111E0E868B8B10120C8F80000FFF759
:100C4000CFFC064605E002E1FFF7CAFC801B022844
:100C5000C0D820688007F7D52068296920F0F800FF
:100C600040EAC10020600DE0C8F80090FFF7B8FC32
:100C7000064604E0FFF7B4FC801B02281FD820685A
:100C80008007F7D42878000722D5724E7448696926
:100C90006C3671B101210160FFF7A2FC074604E048
:100CA000FFF79EFCC01B022809D830688007F7D5E3
:100CB0000EE0C0F80090FFF793FC074605E083E0E4
:100CC000FFF78EFCC01B02287ED830688007F7D45F
:100CD0002878400768D5DFF87CA100270AF1380A98
:100CE000DAF80000C0000BD4DAF8001041F08051AF
:100CF000CAF80010DAF80000012700F080500090D8
:100D0000584E3068C00510D4306840F480703060B0
:100D1000FFF766FC009005E0FFF762FC0099401ABF
:100D2000022851D83068C005F6D54A4EA868683602
:100D300001280FD00528306810D020F00100306065
:100D4000306820F004003060A868B8B1FFF748FCB4
:100D500000900FE0306840F00100F4E740F004003C
:100D60003060F7E7FFF73CFC0099411A41F2883008
:100D7000814264D830688007F4D50EE0FFF730FC7C
:100D8000009007E0FFF72CFC0099411A41F28830EF
:100D9000814254D830688007F4D42FB1DAF80010BB
:100DA00021F08051CAF80010A869C0B3DBF8001028
:100DB000C1F3810102294AD00228484607D0C8F869
:100DC0006000FFF70DFC00E039E005463AE04746D9
:100DD000C8F86000FFF704FC064604E0FFF700FCDB
:100DE000801B02282BD820688001F7D4D5E90701A1
:100DF0000843A96A1C4A490802EB01416A6A41EAB0
:100E00008211084395F82C1040EA01611148001F37
:100E1000016001203866FFF7E3FB054605E014E0BA
:100E2000FFF7DEFB401B022809D820688001F7D5B8
:100E30000BE000BFFFF7D4FB401B022802D90320C0
:100E4000BDE8F88F20688001F4D40020F8E7012085
:100E5000F6E7000008380240003802400000474230
:100E6000800E4742007000400000FFFF10B5401E9A
:100E7000B0F1807F01D3012010BD4FF0E02460610C
:100E80000F21601700F06BF90020A061072020619E
:100E9000002010BDFEE700002DE9F04F87B01421BF
:100EA0006846FFF758FA67480024016841F01001CE
:100EB0000160016801F010010591016841F0040131
:100EC0000160016801F004010591016841F08001B1
:100ED0000160016801F080010591016841F00101A4
:100EE0000160016801F001010591016841F0020112
:100EF0000160016801F002010591016841F00801FB
:100F000001600068002200F00800059008214E48AA
:100F1000FFF760FB012211464C48FFF75BFB4FF2E5
:100F20001009002249464A48FFF754FB08250126CC
:100F30000095CDE90164694643480394FFF772FACE
:100F40000096CDE90164694640480394FFF76AFAC8
:100F500000950225CDE901540527CDE903476946EF
:100F60003A48FFF75FFA3B480096CDE90104DFF805
:100F7000E8A069465046FFF755FA10200090CDE9E9
:100F800001544FF00608CDE9034869465046FFF783
:100F900049FAE0200090CDE90154CDE903476946C4
:100FA0005046FFF73FFA0420CDE90004DFF8ACB06B
:100FB000694658460294FFF735FA68020090CDE979
:100FC0000154CDE9034769465846FFF72BFACDF89F
:100FD0000090CDE9016469461D480394FFF722FAA9
:100FE0004FF4A4500090CDE90154CDE9034869467F
:100FF0001648FFF717FA2802CDE900046946504663
:101000000294FFF70FFA4FF4E0500090CDE901543D
:101010000A20CDE9034069465046FFF703FA202035
:10102000CDE9000469460A480294FFF7FBF90C4831
:101030000095CDE9010469460348FFF7F3F907B0CD
:10104000BDE8F08F30380240001002400008024036
:10105000000C024000001110000002400004024099
:1010600000001210FEE7FEE770477047FFF70ABC6A
:1010700030B593B030216846FFF76DF914210CA804
:10108000FFF769F91E480024016841F080510160B2
:10109000006800F0805011901A48016841F48041C6
:1010A00001600068022500F4804011900120039047
:1010B00010200490009506950820CDE907403220C5
:1010C000099004200A9007200B906846FFF740FD26
:1010D00008B172B6FEE70F20CDE90C054FF4A05021
:1010E000CDE90E404FF48050109000210CA8FFF77E
:1010F00057FC002801D072B6FEE713B030BD0000E7
:1011000040380240007000401048016841F470010E
:1011100001600F48016841F0010101600C4A0021A3
:101120000832116002680B4B1A400260031D0A4A24
:101130001A60026822F48022026005480C300160C7
:1011400002495806803908607047000088ED00E0C9
:1011500000380240FFFFF6FE10300024FEE70907CA
:10116000090E002804DB00F1E02080F8001470472D
:1011700000F00F0000F1E02080F8141D704700001F
:10118000FFF788FBFFF774FFFFF786FE0E480D4957
:101190004FF4804201600D49416000218160C0E947
:1011A000031241618161C1610162FFF71FFA08B159
:1011B00072B6FEE70123064AEC210348FFF7D0FA96
:1011C000FEE700000054004014000020A08601004B
:1011D000010000204FF04070E1EE100A704700005F
:1011E00000000000000001020304060708090000D7
:1011F0000000010203040000181200080000002093
:1012000014000000C40100082C1200081400002083
:10121000B4060000E001000800D00000010000005A
:0C12200010000000000000000024F4009A
:040000050800018965
:00000001FF
