:020000040800F2
:10000000480900203D0200085D2A00085926000822
:1000100095290008BF060008F5340008000000001C
:10002000000000000000000000000000092C000893
:10003000C1060008000000005F2A00080B2C000821
:10004000570200085702000857020008570200082C
:10005000570200085702000857020008570200081C
:10006000570200085702000857020008570200080C
:1000700057020008570200085702000857020008FC
:1000800057020008570200085702000857020008EC
:1000900057020008570200085702000857020008DC
:1000A000992C000857020008570200085702000860
:1000B000570200080000000000000000570200087E
:1000C00057020008570200085702000857020008AC
:1000D00057020008B9330008E93400085702000845
:1000E000570200085702000800000000000000004E
:1000F0000000000000000000000000000000000000
:10010000000000005702000800000000570200082D
:10011000000000000000000057020008570200081D
:10012000570200085702000857020008570200084B
:10013000570200080000000000000000000000005E
:10014000570200085702000857020008570200082B
:10015000570200085702000857020008570200081B
:10016000570200085702000857020008000000006C
:10017000570200085702000857020008000000005C
:1001800057020008570200085702000800F002F862
:1001900000F044F80AA090E8000C82448344AAF1DD
:1001A0000107DA4501D100F039F8AFF2090EBAE8DB
:1001B0000F0013F0010F18BFFB1A43F0010318479B
:1001C000A8340000C8340000103A24BF78C878C1B1
:1001D000FAD8520724BF30C830C144BF04680C604D
:1001E000704700000023002400250026103A28BF95
:1001F00078C1FBD8520728BF30C148BF0B60704799
:10020000642900F0FB80782900F0348100207047D9
:100210001FB503F0EBF91FBD10B510BD00F015FAC6
:100220001146FFF7F5FF03F077F900F033FA03B456
:10023000FFF7F2FF03BC00F03BFA000009488047DB
:1002400009480047FEE7FEE7FEE7FEE7FEE7FEE7B8
:10025000FEE7FEE7FEE7FEE704480549054A064BD0
:1002600070470000892C00088D0100084803002019
:1002700048090020480500204805002053EA020CE8
:1002800000F069802DE9F04B4FF00006002B1FBFF6
:10029000B3FA83F503FA05F424FA05F65E4012BFBB
:1002A0001643B2FA82F502FA05F4C5F120051EBF25
:1002B00022FA05FC44EA0C04203556EA044C4FEAC5
:1002C000144418BF641C4FF000084FF0000990421E
:1002D00071EB030C39D3002919BFB1FA81F701FA88
:1002E00007F6B0FA80F700FA07F6C7F120071EBF3D
:1002F00020FA07FC46EA0C062037B6FBF4FCA7EB15
:100300000507103F07F01F0BCBF120060CFA0BFB83
:100310002CFA06F644BFB3460026202FA4BF5E4643
:100320004FF0000B5BEA060C08BF4FF0010B19EB16
:100330000B09ABFB027C48EB0608C01B06FB02CC9A
:100340000BFB03CC71EB0C01C1E70B4602464146A7
:100350004846BDE8F08B13B54FF000004FF00001A8
:10036000AFF30080BDE81C40704700000FB41CB51F
:10037000074B06AA7B4469460090059800F04DF9AA
:100380000020694600F05CF91CBC5DF814FB00001D
:10039000C90200002DE9F0410E460446002020620B
:1003A0002046E168884730B3252805D0D4E90121EB
:1003B0009047206A401CF2E7E16820460027884702
:1003C000050018D0A5F14100192802D820354FF4B6
:1003D00000673246294620462760FFF711FF40B1EB
:1003E000012804D0F61D26F007060836D8E7361D8A
:1003F000D6E72846DAE7206ABDE8F0812DE9F0412A
:100400000646002410687529314616A510D0AFF3B2
:100410000080002802DA404213A507E031688A070D
:1004200001D512A502E0490704D511A5012401E078
:10043000AFF3008000210A2206F1240709E0B0FB97
:10044000F2FCB0FBF2F302FB1C003030785418468B
:10045000491C0028F3D123462A463046BDE8F04126
:1004600000F07DB8000000002D0000002B0000000F
:100470002000000070B504460D4621461068AFF319
:1004800000802188090502D50F4A7A4402E00E4A0D
:100490007A440E32002104F1240305E000F00F0637
:1004A0000009965D5E54491C0028F7D1207800238E
:1004B000000704D5702D02D009B102231132204665
:1004C000BDE8704000F04BB8B231000010B5431CDD
:1004D00002E010F8011B71B18107FAD14FF001322F
:1004E00002C88C1A8C4314EAC211F9D0C01A0A0649
:1004F00003D0C01E10BDC01A10BD0A0401D0801E5A
:1005000010BD0902FCD0401E10BD4FF0000200B526
:10051000134694469646203922BFA0E80C50A0E826
:100520000C50B1F12001BFF4F7AF090728BFA0E8D4
:100530000C5048BF0CC05DF804EB890028BF40F8A0
:10054000042B08BF704748BF20F8022B11F0804FE2
:1005500018BF00F8012B70477047704770472DE9AE
:10056000F0470D4699469246044600F1240801687A
:10057000880604D5E06921F01001216000E0012027
:10058000A84201DD471B00E00027A1697A1902EBB0
:100590000900081AA0612078C00602D42046AFF3F3
:1005A0000080002608E0D4E901211AF806009047EF
:1005B000206A401C761C20624E45F4DB2078C00681
:1005C0000AD52046AFF3008006E0D4E901213020AF
:1005D0009047206A401C2062381EA7F10107F4DC16
:1005E00007E0D4E9012118F805009047206A401C73
:1005F0002062281EA5F10105F3DC2046AFF3008040
:100600002078000602D50220BDE8F0870120FBE734
:1006100001694A1C02610878704700B58FB0CDE9C6
:1006200001310021059105497944CDE903101146B6
:100630006846FFF7AFFE0FB000BD0000E5FFFFFF0B
:100640000A6802F8010B0A607047754600F02CF842
:10065000AE4605006946534620F00700854618B0AF
:1006600020B5FFF7F9FDBDE820404FF000064FF040
:1006700000074FF000084FF0000B21F00701AC46D7
:10068000ACE8C009ACE8C009ACE8C009ACE8C009F6
:100690008D46704710B50446AFF300802046BDE894
:1006A0001040FFF7C4BD000000487047E40200207E
:1006B00001491820ABBEFEE7260002007047FEE7A6
:1006C000704772B6FEE700002DE9F84F0027044698
:1006D000009790F85000DFF8B0930D46B846012817
:1006E00011D0012684F85060206801F0C0FF60B18D
:1006F000606D40F0200060655FF0010784F8508075
:100700003846BDE8F88F0220FBE769680C20052910
:1007100012D8022907D0032907D0042907D00529B8
:1007200007D0062107E0686006E0122103E01821E7
:1007300001E04FF480716960D5E90021236800EA87
:1007400091101844036B01F01F014FF01F0C0CFABD
:1007500001FCC2F3846223EA0C038A40134303635F
:10076000206801F084FF8246206801F07CFF5AEA8D
:1007700000001DD1AA682968206801F07CFF20686C
:100780006969C268C2F3C102520091402A69042A11
:100790000FD000EB82002B68026EDFF8F0C203F08E
:1007A000F84302EA0C020B431A4342F0004101668F
:1007B00072E0002101F051FF400320684FF000017A
:1007C00072D001F04AFF90FAA0F0B0FA80F12868E8
:1007D00042036ED090FAA0F0B0FA80F0814204D1CA
:1007E00000221146206801F055FF0121206801F028
:1007F00034FF400320684FF001015DD001F02DFF70
:1008000090FAA0F0B0FA80F12868420359D090FA2B
:10081000A0F0B0FA80F0814204D1002201212068CA
:1008200001F038FF0221206801F017FF4003206823
:100830004FF0020148D001F010FF90FAA0F0B0FA9A
:1008400080F12868420344D090FAA0F0B0FA80F01A
:10085000814204D100220221206801F01BFF032104
:10086000206801F0FAFE400320684FF0030133D006
:1008700001F0F3FE90FAA0F0B0FA80F1286842038C
:100880002FD090FAA0F0B0FA80F0814204D100227B
:100890000321206801F0FEFE2068816811F0010F3D
:1008A00022D0ACE000E004E001F0D7FEC0F38461A8
:1008B0008DE7C0F3846091E701F0CFFEC0F384615F
:1008C000A2E7C0F38460A6E701F0C7FEC0F384612D
:1008D000B7E7C0F38460BBE701F0BFFEC0F38461FB
:1008E000CCE7C0F38460D0E72A7B296850F8B03F9A
:1008F000C1F3120C23EA0C0302F0180C644A22FA2A
:100900000CF20A4013430360E968494577D128682F
:1009100041031CD090FAA0F1B1FA81F1491C01F019
:100920001F0109294FEA403132D8002912D000BFF7
:1009300090FAA0F1B1FA81F101F1010101F01F017A
:1009400006FA01F609D100BFC0F3846109E0C0F3E3
:100950008461E3E7C0F38461EEE790FAA0F1B1FAB5
:1009600081F101F1010101F01F0146EA816102D12B
:10097000C0F3846003E090FAA0F0B0FA80F000F1D8
:10098000010000F01F0000EB400041EA005132E09E
:1009900000290ED090FAA0F1B1FA81F101F1010124
:1009A00001F01F0106FA01F606D100BFC0F3846111
:1009B00006E0C0F38461F1E790FAA0F1B1FA81F1A9
:1009C00001F1010101F01F0146EA816102D1C0F38A
:1009D000846003E090FAA0F0B0FA80F000F101002A
:1009E00000F01F002B4A00EB400002EB005041EAF0
:1009F000000141F00071AA68206801F03CFE264821
:100A00002A6802423FF47AAE24488168244D254B7F
:100A100001F0E071AA421BD10D0219D422689A425A
:100A20007FF46CAE826841F4000122F0E0720A4368
:100A300082601D481D490068B0FBF1F0401C00EBCE
:100A40004000800000E0401E00900028FBD155E6E9
:100A5000174DAA4207D1CD0105D422689A42F6D19A
:100A600041F080710AE06FF00045EA42EFD14A029E
:100A7000EDD422689A42EAD141F48001826822F0E2
:100A8000E0720A43826039E600007F4000F0FF0315
:100A9000FFFF0700000020FE000008800003045054
:100AA000000052C70000045010000020400D030059
:100AB000000084CBF8B54FF0000504002E460095E9
:100AC00002D0606D10B107E00120F8BD204600F0B3
:100AD000C9F8A66584F8506020688168C1F3407148
:100AE00019B18168574A1140816020688168C1F35B
:100AF000007189B98168544A114041F08051816088
:100B0000524853490068B0FBF1F04000801C00E0FF
:100B1000401E00900028FBD120688168C1F300715D
:100B200041B9616D41F010016165A16D41F00101B4
:100B3000A165012501F09BFD616DC90600D430B1AE
:100B4000606D40F01000606501252846F8BD606DBD
:100B500020F4807040F0020060652068806810F02A
:100B6000010F0BD13B48806810F0010F06D13A48C5
:100B70006168826822F47C120A438260E168606BDB
:100B8000627E0843A16841EA4231084394F820108C
:100B900040EA0140012904D1A18C304A02EB4141D5
:100BA0000843A16A29B101F47071E26A014342EA83
:100BB00001002168CA682A4B1A400243CA602068B3
:100BC00001F055FD0646206801F04DFD304315D17A
:100BD000207E94F83010800340EA41002168CA6802
:100BE00044F202039A430243CA6094F83800012891
:100BF0000CD02068016921F0010101612069012800
:100C00002068016B21F00F0111D013E0D4E90F012E
:100C10000843D4E911121143084321680A6940F2DC
:100C2000FC739A43104340F001000861E6E7E26973
:100C3000521E11430163606D20F0020040F001007C
:100C4000606582E7C0FFFF5FC0FFFF7F10000020EC
:100C5000400D030000000450000304500000FEFF9C
:100C600007C0F0FF10B59AB0044660216846FFF750
:100C70004CFC13492068884220D14FF480400090FA
:100C8000800315900320019004200290102003900F
:100C900007200490022005900690C0050790684642
:100CA00000F002FB08B1FFF70CFD0648C16C41F4EF
:100CB0000051C164C06C00F4005018901AB010BD0F
:100CC00000000450001002402DE9F047044640792E
:100CD00090460E4601280BD04FF0010984F805908C
:100CE00002202071316808F01005042903D045E086
:100CF0000220BDE8F08700F005FA07465FEA080029
:100D00004FF0030805D01CE000F0FCF9C01B0128DF
:100D10000FD82068406B0004F6D4012000F0F2F8F0
:100D20002168B069086416E000F0ECF9C01B0128E6
:100D300007D9206940F00800206184F8048003206E
:100D4000D7E72068406B0028EEDB012000F0DAF8DE
:100D50002168B06948642068816C40F2FF32AA4083
:100D60009143F269AA40114381642168C86CFF2253
:100D7000AA409043326AAA401043C86430690128EF
:100D800008D12268916B1F20A84081437069A84058
:100D9000084390632268D16B0720A8408143B36861
:100DA00030681843F3681843A8400843D0632068AC
:100DB00001684FF48042AA409143016022681068A4
:100DC00040F6FC71A94088437168A9400143116055
:100DD00020680168C022AA409143016084F8049011
:100DE0000020607185E770B5040003D020790025EC
:100DF00010B105E0012070BD6571204600F008F8D3
:100E000002202071256101202071002070BD0000AA
:100E100010B586B0044614216846FFF776FB1149E9
:100E2000206888421BD11048816D41F000518165D6
:100E3000816D01F000510591C16C41F00101C16467
:100E4000C06C694600F0010005903020009003203E
:100E50000190002002904FF0904000F065F806B03D
:100E600010BD0000007400400010024010B590F862
:100E700025100022022905D00421C16380F8242016
:100E8000012010BD01680B6823F00E030B600168A0
:100E90000B6823F001030B6090F84410046C01F020
:100EA0001C03012101FA03F3636080F8251080F828
:100EB0002420104610BD10B590F8251000240229FA
:100EC00003D00421C16301241AE001680A6822F0FA
:100ED0000E020A6001680A6822F001020A6090F8B6
:100EE0004410036C01F01C02012101FA02F25A6065
:100EF00080F82510002180F82410816B01B188470B
:100F0000204610BD70B5044600F0FCF80546601C94
:100F100002D004480078044400F0F4F8401BA042DA
:100F2000FAD370BD040000202DE9F04FDFF8AC913A
:100F300000230325A9F1040B85B04FF0010C0F2706
:100F400009F1040AABF1040EBFE000BF0CFA03F68E
:100F5000324075D00C7904F00304012C01D0022C2E
:100F60001BD1846800945C0005FA04F80494009C8A
:100F700024EA08040094D1F80C80049C08FA04F8D0
:100F8000009C48EA0408C0F808804468B4430E791D
:100F9000C6F300169E40264346600C79E443A4073E
:100FA0000AD0C4684FEA430805FA08F6B4438E68CD
:100FB00006FA08F62643C6600C7904F00304022CF6
:100FC00010D1DC0800EB84040294246A5E074FEA27
:100FD000D66807FA08F6B4430E6906FA08F62643FF
:100FE000029C266204684FEA430805FA08F6B443F7
:100FF0000E7906F0030606FA08F6264306604C68EA
:1010000014F4403F60D0364C266E46F0010626664A
:10101000246E23F0030604F001040094314C3444A0
:101020000294A4689E074FEA167807FA08F6B443BC
:10103000B0F1904F05D02C4EB04204D1012612E001
:1010400042E000260FE0294EB04201D102260AE01C
:10105000274EB04201D1032605E0264EB04201D111
:10106000042600E0072606FA08F62643029CA6603E
:10107000D9F800604C46D1F8048096435FEAC8284E
:1010800000D516432660DAF800405646D1F80480B1
:1010900094435FEA882800D514433460DBF80040AD
:1010A0005E46D1F8048094435FEA883800D5144343
:1010B0003460DEF800407646D1F8048094435FEA5D
:1010C000C83800D5144334605B1C0A6832FA03F454
:1010D0007FF43CAF05B0BDE8F08F0000080401408C
:1010E00000100240000001400004004800080048D1
:1010F000000C0048001000480AB18161704781620D
:10110000704700000148806870470000040000201C
:101110000248816802781144816070470400002011
:1011200010B50024032000F071F80F2000F008F83B
:1011300008B1012401E000F025F8204610BD0000B0
:1011400070B50E4E05460024307898B14FF47A7190
:10115000B1FBF0F00A490968B1FBF0F000F0D8FDEE
:1011600040B9102D06D200222946501E00F02EF85C
:10117000756000E00124204670BD000004000020DE
:1011800010000020094808B5016E41F00101016618
:10119000016E01F001010091816D41F08051816586
:1011A000806D00F08050009008BD000000100240EB
:1011B000002809DB00F01F02012191404009800056
:1011C00000F1E020C0F8001170470000F0B40E4BB1
:1011D0001B680C46C3F30223C3F10705042D00D995
:1011E0000425191D072901D2002300E0DB1E01267A
:1011F00006FA05F1491E214099409E40761E164090
:101200003143F0BC02F077B90CED00E0064900F084
:10121000070208684FF6FF03184040EA0220034A1D
:1012200010430860704700000CED00E00000FA0574
:101230001649B0F5007F0868C0F3412009D00228A4
:1012400005D0086820F4C06040F480600860002089
:1012500070470128FBD0086820F4C06040F400709B
:1012600008600B483222006850430A4AB0FBF2F093
:10127000401C00E0401E4A69520501D50028F9D102
:1012800048694005E3D50320704700000070004026
:101290001000002040420F000248006800F4C060C7
:1012A00070470000007000402DE9F84F0446002709
:1012B0000088B54D3E46000515D5606C60B1B0F5AF
:1012C000000F04D0B0F5400F2BD001270AE0E868EA
:1012D00040F48030E86024E00021201D01F0C0FBD4
:1012E00007001ED03E46206880033AD5A86D4FF017
:1012F0000008C00009D4A86D40F08050A865A86D12
:101300004FF0010800F080500090DFF880A2DAF87A
:10131000001041F48071CAF80010FFF7F3FE814617
:1013200010E0D5F88800616C20F440000843C5F84F
:101330008800D8E7FFF7E6FEA0EB0900022801D9F4
:10134000032705E0DAF80000C005F3D5002F7DD0B3
:101350004FEA0706B8F1000F03D0A86D20F08050C7
:10136000A8652078C00707D0D5F88800216A20F04A
:1013700003000843C5F888002078800707D5D5F812
:101380008800616A20F00C000843C5F888002078C6
:10139000400707D5D5F88800A16A20F0300008433F
:1013A000C5F888002078800607D5D5F88800E16A5E
:1013B00020F440600843C5F888002088800507D5E0
:1013C000D5F88800E16B20F440200843C5F8880078
:1013D0002088400507D5D5F88800216C20F44010FE
:1013E0000843C5F888002078400607D5D5F888005E
:1013F000216B20F440500843C5F88800207800068F
:1014000007D5D5F88800616B20F440400843C5F843
:1014100088002088C00507D5D5F88800A16B20F486
:1014200040300843C5F8880020884FF000678004EA
:101430004FF0806850D5D5F88800A16C20F040604E
:101440000843C5F88800A06CB84200E005E03BD135
:10145000E86840F48010E8603EE0D5F8900010F4B1
:10146000407014D0E16D814211D0D5F89000D5F8CC
:10147000901020F4407041F48031C5F89010D5F8F8
:10148000901021F48031C5F89010C5F89000C00785
:1014900011D0FFF737FE074641F2883907E000BF59
:1014A000FFF730FEC11B494501D9032652E7D5F8A5
:1014B00090008007F4D5D5F89000E16D20F44070DD
:1014C0000843C5F8900045E7404505D10121201D9E
:1014D00001F0C6FA00B106462068000317D5D5F81A
:1014E0008800E16C20F040600843C5F88800E06C9B
:1014F000B84204D1E86840F48010E86007E0404555
:1015000005D10121201D01F0ABFA00B1064620688B
:10151000400317D5D5F88800216D20F040600843BE
:10152000C5F88800206DB84204D1E86840F4801006
:10153000E86007E0404505D10121201D01F090FA47
:1015400000B106462088400411D5D5F88800616DA9
:1015500020F040500843C5F88800606DB0F1805F0E
:1015600005D10221201D01F07BFA00B1064620883A
:10157000000406D555F8880FA16D20F0804008437F
:1015800028603046BDE8F88F00100240007000402F
:101590002DE9F0470F4605006BD0494E306800F04A
:1015A0000700B84209D2306820F0070038433060A5
:1015B000306800F00700B8425BD12878414C8007C2
:1015C0000AD5A868A16801F0F001884204D9A16891
:1015D00021F0F0010143A1602878C0072CD0686891
:1015E000032811D0022812D0216898B1490500299A
:1015F0003FDAA16821F003010143A160FFF782FDFA
:10160000804641F2883910E021688901EFE72168BE
:101610008903ECE78907EAE7FFF774FDA0EB08010F
:10162000494502D90320BDE8F087A068696800F049
:101630000C00B0EB810FEFD1287880070AD5A8689D
:10164000A16801F0F001884204D2A16821F0F00104
:101650000143A160306800F00700B8420BD9306840
:1016600020F0070038433060306800F00700B842CF
:1016700001D00120D7E72878400705D5A068E968A0
:1016800020F4E0600843A0602878000706D5A06831
:10169000296920F4605040EAC100A06000F03EF8E3
:1016A000A168094AC1F30311515C01F01F01C84050
:1016B0000649086006480068BDE8F047FFF740BDEE
:1016C0000020024000100240F83500081000002001
:1016D000080000200548064900688968054AC1F3EA
:1016E0000221515C01F01F01C8407047100000202A
:1016F000001002403836000805480649006889682D
:10170000054AC1F3C221515C01F01F01C840704776
:1017100010000020001002403836000830B5214982
:10172000002210468B6813F00C04CB6803F003050D
:101730001D4B09D00C2C05D0042C01D0082C00D155
:10174000184630BD012D10D10A68120704D4D1F813
:101750009420C2F3032202E00A68C2F30312134D7D
:1017600055F822204CB10C2CEBD1C86800F00300D6
:10177000022804D0032803D101E0104630BD1A46E8
:10178000C868CB68C0F30210C3F306235343401C60
:10179000B3FBF0F2C868C0F34160401C4000B2FBEC
:1017A000F0F030BD001002400024F40008360008BC
:1017B0002DE9F84304006FD0FA4DA86800F00C063C
:1017C000E86800F003072078C00664D576B10C2ED7
:1017D00001D1012F0AD0A069002828687AD040F0F2
:1017E00001002860FFF78EFC80465DE028688007D6
:1017F00002D5A0690028DED0216A2868000703D539
:10180000286800F0F00004E0D5F89400F02202EA25
:101810001010814216D9084601F0B8F900283BD1D2
:10182000286840F0080028602868216A20F0F0004D
:10183000084328606868E16920F47F4040EA01209D
:10184000686016E0286840F0080028602868216A6F
:1018500020F0F000084328606868E16920F47F40C8
:1018600040EA0120686026B9206A01F08FF900285B
:10187000D5D1FFF753FFA968CB4AC1F30311515CDF
:1018800001F01F01C840C9490860C9480068FFF756
:1018900057FC00287ED12EE0CAE000BFFFF732FCE3
:1018A000A0EB0800022876D828688007F6D52868BB
:1018B00040F0080028602868216A20F0F000084302
:1018C00028606868E16920F47F4040EA0120686090
:1018D00011E0FFE720F001002860FFF713FC8046CD
:1018E00006E000BFFFF70EFCA0EB08000228DAD8E4
:1018F00028688007F6D42078C00740D0082E18D07A
:101900000C2E01D1032F14D06068B0F5803F17D0A2
:10191000B0F5A02F286817D020F480302860286800
:1019200020F4802028606068E0B1FFF7EBFB804680
:1019300014E02868800322D56068002878D01EE073
:10194000286840F48030EDE740F480202860F7E715
:10195000FFF7D8FBA0EB08006428A4D82868800310
:10196000F6D50CE0FFF7CEFB804605E0FFF7CAFB9B
:10197000A0EB0800642896D828688003F6D4207865
:1019800080073BD5042E11D00C2E01D1022F0DD093
:10199000E06801E0AAE1FFE0002828681ED040F4DA
:1019A00080702860FFF7AEFB07460CE02868400512
:1019B0000CD5E0680028C1D008E000BFFFF7A2FB0B
:1019C000C01B022893D828684005F7D56868217C99
:1019D00020F0F85040EA016068600FE020F4807069
:1019E0002860FFF78FFB074605E000BFFFF78AFB83
:1019F000C01B0228B1D828684005F7D4207800071A
:101A000029D560690028D5F8940012D040F0010073
:101A1000C5F89400FFF776FB074604E0FFF772FB7A
:101A2000C01B022899D8D5F894008007F6D512E09B
:101A30002BE120F00100C5F89400FFF763FB074697
:101A400005E000BFFFF75EFBC01B022885D8D5F874
:101A500094008007F6D42078400766D5A86D00274B
:101A6000C00008D4A86D40F08050A865A86D01277B
:101A700000F0805000904F480168C90512D40168F9
:101A8000814641F480710160FFF73CFB804605E030
:101A9000FFF738FBA0EB080002287DD8D9F800003A
:101AA000C005F5D5A068012816D00528D5F8900006
:101AB00017D020F00100C5F89000D5F8900020F074
:101AC000040000BFC5F89000A06841F28839C0B199
:101AD000FFF718FB80460FE0D5F8900040F00100BA
:101AE000F0E740F00400C5F89000F5E7FFF70AFBC7
:101AF000A0EB080149454FD8D5F890008007F5D5EF
:101B00000EE0FFF7FFFA804606E000BFFFF7FAFAA3
:101B1000A0EB080149453FD8D5F890008007F5D4DF
:101B20001FB1A86D20F08050A8652078800628D5C8
:101B3000606A0028D5F8980012D040F00100C5F87E
:101B40009800FFF7DFFA074605E000BFFFF7DAFA73
:101B5000C01B022820D8D5F898008007F6D510E0E1
:101B600020F00100C5F89800FFF7CCFA074604E022
:101B7000FFF7C8FAC01B02280ED8D5F898008007D6
:101B8000F6D4A06AF0B3022816D00C2E7DD02868B7
:101B900020F08070286000E0A7E0FFF7B3FA044669
:101BA000A6E0000000100240F835000810000020F8
:101BB0000800002000700040E868E26A00F00301BD
:101BC000914228D1216B00F0700209011039914235
:101BD00021D1626B00F4FE41B1EB022F1BD194F8CE
:101BE000382000F07841B1EBC26F14D1A18F00F41E
:101BF000C00249084905A1F5001191420BD194F8A2
:101C0000401000E06AE04908490600F0C060A1F118
:101C1000007181424BD00C2E73D02868400170D4E3
:101C2000286820F080702860FFF76CFA064604E010
:101C3000FFF768FA801B022857D828688001F7D47C
:101C4000F4E90B016FF00F0202EB01110843218A46
:101C50005204490802EB4151A26841EA02210843BB
:101C6000217D4FF07E42490802EB41610843217B10
:101C700040EAC160E968244A11400843E8602868E6
:101C800040F080702860E86800E03AE040F0807042
:101C9000E860FFF737FA044605E000BFFFF732FAC5
:101CA000001B022821D828688001F7D527E0286882
:101CB000800124D4286840F080702860E86840F0F3
:101CC0008070E860FFF71EFA044604E0FFF71AFA96
:101CD000001B022809D828688001F7D50FE000BF53
:101CE000FFF710FA001B022802D90320BDE8F88391
:101CF00028688001F4D4E86804490840E8600020BE
:101D0000F4E70120F2E700008C809D01FCFFEEFE6D
:101D100010B5401EB0F1807F01D3012010BD4FF0FF
:101D2000E02460610F21601701F0E5FB0020A06155
:101D300007202061002010BD7047704770470000E9
:101D4000F0B590F83C20012A29D0012480F83C40CD
:101D5000022280F83D2003685A689D68114EB34204
:101D600003D122F470074A683A4322F070070A68E8
:101D70003A435A600268B24205D0B2F1804F02D0B5
:101D8000094B9A4204D1896825F080031943916078
:101D900080F83D40002180F83C100846F0BD02204C
:101DA000F0BD0000002C01400040014010B50400CF
:101DB00003D094F83D0010B107E0012010BD0020D1
:101DC00084F83C00204600F023F8022084F83D000F
:101DD000211D206800F066FF012084F8480084F887
:101DE0003E0084F83F0084F8400084F8410084F805
:101DF000420084F8430084F8440084F8450084F8E5
:101E0000460084F8470084F83D00002010BD000023
:101E100008B51C4A01681C48914207D1816D41F008
:101E200010018165806D00F0100009E0174A9142B1
:101E300008D1816D41F020018165806D00F02000A6
:101E4000009008BD124A914211D1016E41F48031D7
:101E50000166006E002200F48030009011461820C8
:101E6000FFF7B4F9BDE808401820FFF7A1B9094A07
:101E70009142E6D1016E41F400310166006E00F43A
:101E80000030DDE700100040001002400014004068
:101E9000004001400044014070B5044690F83C0009
:101EA0000025012817D0012684F83C60022084F820
:101EB0003D00226890682F4B184020F47F409060CE
:101EC0000868502838D00DDC20284FD005DC90B3AE
:101ED000102811D14AE0022070BD302846D0402899
:101EE0000AD13BE060282FD070280DD0B0F5805F7C
:101EF00003D0B0F5005F12D0012584F83D600020CA
:101F000084F83C00284670BDCB68D1E901212068E7
:101F100000F0FEFE2068816841F0770109E0CB689F
:101F2000D1E90121206800F0F3FE2068816841F4C6
:101F300080418160E1E719E0CA684968206800F0E3
:101F4000F9FE5021206806E0CA684968206800F060
:101F500002FF6021206800F0E5FECEE7CA6849680C
:101F6000206800F0E7FE40212068F4E7226801467F
:101F70001046F0E788FFFEFF704770B50446006822
:101F800001694FF00005C943890715D4C168C943E9
:101F9000890711D4E91E016101202077206880693A
:101FA0008007204602D0FFF7E7FF04E000F0A7F823
:101FB000204600F0D1F8257720680169C943490718
:101FC00017D4C168C943490713D46FF004010161F4
:101FD000022020772068806910F4407F204602D0DC
:101FE000FFF7CAFF04E000F08AF8204600F0B4F8DA
:101FF000257720680169C943090716D4C168C94318
:10200000090712D46FF008010161042020772068CD
:10201000C0698007204602D0FFF7AEFF04E000F061
:102020006EF8204600F098F8257720680169C943CA
:10203000C90617D4C168C943C90613D46FF010018B
:102040000161082020772068C06910F4407F204695
:1020500002D0FFF791FF04E000F051F8204600F0B5
:102060007BF8257720680169C943C90708D1C16891
:10207000C943C90704D1891E0161204600F06DF8EB
:1020800020680169C943090609D4C168C943090622
:1020900005D46FF0800101612046FFF74EFE2068F5
:1020A0000169C943C90509D4C168C943090605D4F2
:1020B0006FF4807101612046FFF73EFE20680169E0
:1020C000C943490609D4C168C943490605D46FF01C
:1020D00040010161204600F041F820680169C943D0
:1020E00089060BD4C168C943890607D46FF0200163
:1020F00001612046BDE87040FFF720BE70BD70470B
:1021000070B50D46040003D094F83D0010B107E00F
:10211000012070BD002084F83C00204600F01BF830
:10212000022084F83D00211D206800F0BBFD2068DE
:10213000016821F00801016054F8480B0168294347
:102140000160012004F81F096075A075E076207712
:102150002075002070BD704770477047704770470A
:10216000704770472DE9F04102680446D069116854
:10217000936840F60F0528424FF0000505D186060A
:102180007ED58E067CD5616E1BE1994F03F001066A
:102190000F40374374D0C70709D0CF0507D50127B3
:1021A0001762D4F8802042F00102C4F88020820730
:1021B0000AD5DA0708D0276802223A62D4F88020CC
:1021C00042F00402C4F8802042070AD5DA0708D09A
:1021D000236804221A62D4F8802042F00202C4F874
:1021E000802002070CD501F02002324308D023687A
:1021F00008221A62D4F8802042F00802C4F8802035
:1022000002050BD54A0109D523684FF400621A6212
:10221000D4F8802042F02002C4F88020D4F8802036
:10222000002A35D0800605D5880603D5616E09B130
:1022300020468847D4F8800021688968490602D47E
:1022400010F0280F26D0204600F033FE206880686A
:1022500040061AD52068083050E8001F21F04001E0
:1022600040E80012002AF5D1206F70B16149816306
:10227000206FFEF720FE00280AD0206F816B01E05E
:102280000EE02046BDE8F04108472046FFF769FF11
:10229000BDE8F0812046FFF764FFC4F88050F7E7FF
:1022A000276E2026012F7BD1C70679D5CF0677D59B
:1022B0001020106220688068400641D5216F0868B0
:1022C00040680004000CE3D0B4F858208242DFD903
:1022D000A4F85A000868006880062AD4206850E8EC
:1022E000001F21F4807140E80012002AF6D1206816
:1022F000083050E8001F21F0010140E80012002AD8
:10230000F5D12068083050E8001F21F0400140E876
:102310000012002AF5D1E6672566216851E8000F12
:1023200020F0100041E80002002AF6D1206FFEF7ED
:102330009DFDB4F85800B4F85A10401A81B22AE052
:10234000B4F85800B4F85A10401A81B2B4F85A00E0
:1023500000289DD000299BD0226852E8000F20F46D
:10236000907042E80003002BF6D12068083050E856
:10237000002F22F0010240E80023002BF5D1E66790
:1023800025666566226852E8000F20F0100042E8DA
:102390000003002BF6D12046FFF7E1FE78E7FFE7C8
:1023A000C70209D55B0207D54FF4801010622046A2
:1023B000BDE8F041FFF7D4BE020606D50A0604D5F3
:1023C000A16E00297FF45DAF62E74006E6D54806BE
:1023D000E4D52046026852E8001F21F0400142E89F
:1023E0000013002BF6D18667856600F034F94FE7BD
:1023F000200100049F2E000810B5040002D0A06F39
:1024000010B107E0012010BD002084F874002046C0
:1024100000F026F82420A0672068016821F001015F
:102420000160204600F008FE0128ECD0606A10B17F
:10243000204600F0A2FC2068416821F490414160F0
:102440002068816821F02A0181602068016841F0DC
:10245000010101602046BDE8104000F0F2BC000020
:102460002DE9F0439FB00446142118A8FEF74DF85B
:1024700060216846FEF749F830492068304C032750
:10248000002602254FF007084FF09049884227D1D7
:102490000120009008956846FEF706FF08B1FEF798
:1024A00010F9206E40F480402066206E00F48040D9
:1024B0001D90E06C40F00100E064E06C18A900F0B1
:1024C00001001D904FF4C06081E8E1014846FEF72D
:1024D0002BFD002211462520FEF778FE252027E05F
:1024E0001849884226D1684609960095FEF7DCFE19
:1024F00008B1FEF7E6F8A06D40F40030A065A06DCD
:1025000000F400301D90E06C40F00100E064E06CED
:1025100018A900F001001D900C2081E8E101484657
:10252000FEF702FD002211462620FEF74FFE262070
:10253000FEF73EFE1FB0BDE8F0830000003801400A
:10254000001002400044004030B4C36F202B20D163
:10255000E1B1DAB190F87430012B1AD0012380F880
:102560007430002303660C4C0368A3420BD05B68F5
:102570001B0208D5046854E8003F43F0806344E838
:102580000035002DF6D130BC00F056BE012030BC25
:1025900070470220FBE70000008000407047000009
:1025A0002DE9F8430446806F1F4616460D46202845
:1025B0004FD1CDB1C6B194F87400012849D00120A3
:1025C00084F874004FF00008C4F880802120A067D0
:1025D000FEF798FDA4F850608146A4F85260A06808
:1025E000B0F5805F03D004E00120BDE8F8832069E6
:1025F00028B12E465FF0000584F8748010E00026B4
:10260000FAE78021204600F073FEB8B9C6B116F88B
:10261000010B21680885B4F85200401EA4F852004E
:10262000B4F852004B464FF0000200970028E8D162
:102630004FF04001204600F05BFE30B10320D4E7AC
:1026400035F8020BC0F30800E3E72020A067002064
:10265000CBE70220C9E77047FEE700EB8100006E80
:1026600000F0F84070478068C0F3C0007047806891
:10267000C0F380007047042303EAD15310B5184417
:102680004369C1F3045107248C40A3438A40134398
:10269000436110BD00EB8100016E21F00041114348
:1026A0000166704730B587B018216846FDF72DFFE9
:1026B000184817490024C0E9001484600425C46048
:1026C000C0E90445047644760121C16180F82040C8
:1026D0008462C46280F83040446380F83840FEF77A
:1026E000E9F908B172B6FEE70B4800900620CDE983
:1026F00001047F200594CDE9030569460548FDF7EF
:10270000E3FF002801D072B6FEE707B030BD00003D
:102710000000045014000020000052C7F0B587B03C
:1027200014216846FDF7F1FE2F48C16C41F0040109
:10273000C164C16C01F004010591C16C41F08001DC
:10274000C164C16C01F080010591C16C41F00101CF
:10275000C164C16C01F001010591C16C41F002013D
:10276000C164C06C4FF4807500F002004FF09046D9
:102770000590002229463046FEF7BEFC1B4F002282
:10278000C0213846FEF7B8FC00246801CDE90004FA
:10279000694617480294FEF7C7FB032000904FF4E8
:1027A0008810CDE9010469463046FEF7BDFB00956F
:1027B0000125CDE90154694630460394FEF7B4FB88
:1027C0002803CDE90004694630460294FEF7ACFBCD
:1027D000C0200090CDE90154694638460394FEF7C5
:1027E000A3FB07B0F0BD0000001002400004004849
:1027F0000008004810B588B000241B4800940194DC
:10280000029403940494059416490694C0E90014B4
:102810004FF6FF71C0E90241046144618461FFF732
:10282000C5FA08B172B6FEE74FF4805000906946D1
:102830000D48FFF731FB08B172B6FEE708210A48E0
:10284000FFF75EFC08B172B6FEE7049404A90648DF
:102850000694FFF775FA002801D072B6FEE708B0BB
:1028600010BD000000400140240100203EB50024BE
:1028700012480094019410490294C0E900144FF6E4
:10288000FF71C0E902418461FFF790FA08B172B6A6
:10289000FEE708210948FFF733FC08B172B6FEE7EE
:1028A0000094694605480294FFF74AFA002801D0CF
:1028B00072B6FEE73EBD0000001000408C00002014
:1028C0003EB5002412480094019410490294C0E9D6
:1028D00000144FF6FF71C0E902418461FFF766FA08
:1028E00008B172B6FEE708210948FFF709FC08B1F4
:1028F00072B6FEE70094694605480294FFF720FA95
:10290000002801D072B6FEE73EBD00000014004072
:10291000D80000200F4810B50D4901604FF4E121A7
:102920004160002181600C22C160C0E90412816114
:10293000C16101624162FFF75FFD08B172B6FEE757
:10294000BDE81040092204490248FFF7FDBD000020
:1029500000380140BC010020000000200C4810B5E8
:102960000A4901604FF4E1214160002181600C229D
:10297000C160C0E904128161C16101624162FFF777
:102980003BFD002801D072B6FEE710BD00440040B8
:1029900040020020FEE700002DE9F04142780C469D
:1029A00006464A701FA12448FDF7E0FC2248FDF7C7
:1029B0008DFD82B24FF0FF373B461F491F48FFF79E
:1029C000EFFD60781E4C09284FF0000516D0735DAE
:1029D00063702A461BA11848FDF7C8FC1648FDF78E
:1029E00075FD82B23B4614491448FFF7D9FD6D1CB2
:1029F000052DECDB00202070BDE8F081735D637075
:102A00002A4610A10C48FDF7B1FC0B48FDF75EFD0E
:102A100082B23B4608490948FFF7C2FD6D1C092DEB
:102A2000ECDBE7E7646174615F73697A65203D20E0
:102A300025640D0A00000000CD02002040020020A5
:102A40000100002069203D2025642C2072657375EB
:102A50006C74203A20307825580D0A00FEE7704744
:102A60002DE9F041444C05468846E0680026810780
:102A700028680DD0E16801F00301814216D1A8B1A8
:102A8000E0686968C0F30210401C88420ED120E063
:102A9000012804D0022805D0032807D108E02168C6
:102AA000890701E021684905002907DB01265FE06D
:102AB0002168890302D421684903F5E7E1686A685F
:102AC0006FF00F0321F0730103EB02121143014376
:102AD000E160206820F080602060FEF713FB07466D
:102AE00005E000BFFEF70EFBC01B022837D82068A8
:102AF0000001F7D4B8F1000F18D0B8F1010F1DD0C4
:102B0000287D4FF07E41400801EB4060A96840EA13
:102B100001202169194A114008432061206840F0D2
:102B200080602060FEF7EEFA07461AE0A868297B6D
:102B3000000240EAC1602169114AECE7288A114984
:102B4000400801EB4050A96840EA012021690E4A83
:102B5000E1E700BFFEF7D6FAC01B022801D9032621
:102B600006E020680001F5D52069A96908432061C5
:102B70003046BDE8F081000000100240FF80FFF900
:102B8000FF80FF070000E0FFFF809FFFF8B51C4DAE
:102B900006460024A86DC00002D5FEF77DFB0DE0BF
:102BA000A86D40F08050A865A86D00F0805000909E
:102BB000FEF772FBA96D21F08051A965B0F5007F89
:102BC00004D0802E07D94FF003040AE0802E08D9E4
:102BD000A02E01D804E001D1022402E0702E00D121
:102BE00001240848016821F00701214301600068C1
:102BF00000F00700A04201D00120F8BD0020F8BD80
:102C000000100240002002407047FEF781BA10B564
:102C100096B044216846FDF778FC142111A8FDF711
:102C200074FC4FF40070FEF703FB08B172B6FEE7C8
:102C300003244FF48030CDE90040001203901020AF
:102C4000049004215022CDE90C120220CDE90A049F
:102C500007220E92CDE90F016846FEF7A9FD08B1E3
:102C600072B6FEE70F20CDE91104002013901490F6
:102C70001590042111A8FEF78BFC002801D072B634
:102C8000FEE716B010BD00000248016841F4700173
:102C90000160704788ED00E00148FFF76EB9000061
:102CA0002401002070B50268164B4FF08046984210
:102CB00001D0B04203D122F070044A682243124C82
:102CC000124D984205D0B04203D0A04201D0A84294
:102CD00003D122F44076CA6832434E6922F0800262
:102CE000324302608A68C2620A688262984203D0F4
:102CF000A04201D0A84201D10969016301214161CB
:102D000070BD0000002C0140004001400044014023
:102D100010B5846842EA032224F47F440A43224324
:102D2000826010BD826822F070020A4342F00701FF
:102D30008160704710B5036A046A24F001040462DC
:102D4000846924F0F00444EA021423F00A020A43DE
:102D50008461026210BD10B5036A23F010030362A0
:102D60008369046A23F4704343EA023224F0A00327
:102D700043EA01118261016210BD90F82410C90775
:102D800006D001684A68836A22F400321A434A6016
:102D900090F82410890706D501684A68C36A22F4AE
:102DA00080321A434A6090F82410490706D501681A
:102DB0004A68036B22F480221A434A6090F8241078
:102DC000090706D501684A68436B22F400421A439A
:102DD0004A6090F82410C90606D501688A68836B9A
:102DE00022F480521A438A6090F82410890606D58E
:102DF00001688A68C36B22F400521A438A6090F813
:102E00002410490611D501684A68036C22F4801227
:102E10001A434A60016CB1F5801F06D101684A6807
:102E2000436C22F4C0021A434A6090F82410090649
:102E300006D501684A68806C22F4002202434A6089
:102E40007047F8B500260446C0F88060FEF75AF9CE
:102E50000546206800686FF07E47000708D52B46BE
:102E600000224FF400112046009700F041FA60B9AB
:102E70002068006840070AD52B4600224FF48001E5
:102E80002046009700F034FA08B10320F8BD202056
:102E9000A067E067266684F874600020F8BD10B56E
:102EA000806A0021A0F85A10A0F85210FFF759F9D3
:102EB00010BD016851E8002F22F4907241E8002310
:102EC000002BF6D10168083151E8002F22F00102F1
:102ED00041E80023002BF5D1016E012908D10268D9
:102EE00052E8001F21F0100142E80013002BF6D138
:102EF0002021C167002101664166704710B5B0F816
:102F00005C20C36F0168222B04D0088B40F00800BE
:102F1000088310BD898C436D11401980416D891C57
:102F20004165B0F85A10491EA0F85A10B0F85A106E
:102F30000029EED1026852E8001F21F4907142E8A6
:102F40000013002BF6D10168083151E8002F22F060
:102F5000010241E80023002BF5D12021C1670021A7
:102F60004166026E012A02D0FFF718FB10BD016610
:102F7000026852E8001F21F0100142E80013002B04
:102F8000F6D10168CA69D243D20601D410220A627E
:102F9000B0F85810FFF7E3F810BD10B5B0F85C209A
:102FA000C36F0168222B04D0088B40F0080008830F
:102FB00010BD898C1140426D1170416D491C4165F5
:102FC000B0F85A10491EA0F85A10B0F85A1000294B
:102FD000EED1026852E8001F21F4907142E800131C
:102FE000002BF6D10168083151E8002F22F00102D0
:102FF00041E80023002BF5D12021C1670021416663
:10300000026E012A02D0FFF7C9FA10BD01660268FC
:1030100052E8001F21F0100142E80013002BF6D106
:103020000168CA69D243D20601D410220A62B0F8FC
:103030005810FFF794F810BD2DE9F04104460168DF
:1030400080682269E3691043626900251A431043CE
:10305000714F0A68714B1A4002430A602068416848
:10306000E26821F44051114341602168A069B942EE
:1030700001D0226A10438A6822F4306202438A60D7
:103080006749236867488B420DD1D0F8880010F05B
:10309000030006D0012847D0022843D0032830D1AE
:1030A00044E001212EE060498B420BD1D0F888002A
:1030B00010F00C0034D0042836D0082832D00C2868
:1030C0001FD133E059498B420BD1D0F8880010F062
:1030D000300025D0102827D0202823D0302810D128
:1030E00024E0BB420DD1D0F8880010F4406017D026
:1030F000B0F5806F18D0B0F5006F13D0B0F5406F09
:1031000014D010214A4A00264FF40040BB422FD170
:1031100071B102290FD004290FD0082973D10FE013
:103120000021EFE70221EDE70421EBE70821E9E7C1
:10313000FEF7D0FA03E0104602E0FEF7EFFAE8B33C
:10314000626802EB420181425DD8B0EB023F5AD87F
:10315000010E03025008181871410023FDF78EF884
:10316000344AA0F5407191424DD82168C8604BE0C7
:10317000E3694FF6EF77834228D1092943D2DFE88C
:1031800001F005080B420D4242421000FEF7A2FA80
:1031900006E0FEF7B1FA03E0104602E0FEF7BEFAE1
:1031A00060B14100606801EB5001B1FBF0F0A0F1AB
:1031B0001001B94227D84FF6F07100E024E0014039
:1031C000C0F3420001432068C1601DE009291AD202
:1031D000DFE801F005080B190D1919191000FEF7A9
:1031E00079FA06E0FEF788FA03E0104602E0FEF7FF
:1031F00095FA48B1616800EB5100B0FBF1F0A0F125
:103200001001B94205D9012566662846A666BDE8C3
:10321000F08180B2A9E7000000800040F369FFEF71
:1032200000380140001002400044004000480040C7
:103230000024F400FFFC0F0030B54165A0F85820D1
:10324000A0F85A200022426681684FF48055FF237F
:10325000A94204D1016971BB40F2FF1131E07F2422
:1032600039B3B1F1805F29D0A0F85C20C0F880208C
:103270002221C1670168083151E8003F43F0010392
:1032800041E80034002CF5D18168A94201D10169DF
:10329000E9B11549416680F874200169C9B1026835
:1032A00052E8001F41F4907142E80013002BF6D160
:1032B00018E0016941B9A0F85C30D7E7016919B19C
:1032C0003F21A0F85C10D1E7A0F85C40CEE70749A9
:1032D000E0E7026852E8001F41F0200142E80013D5
:1032E000002BF6D1002030BD9B2F0008FD2E0008DA
:1032F0002DE9F0479A4617460E4604464FF000095E
:103300004FF02008089D4AE0681C48D0FDF7FAFEFF
:10331000A0EB0A00A8422AD84DB3206801684907EB
:103320003DD5C069C043000539D421684FF4006021
:103330000862206850E8001F21F4D07140E80012B4
:10334000002AF6D12068083050E8001F21F0010162
:1033500040E80012002AF5D1C4F87880C4F87C80D7
:10336000C4F8808084F874900320BDE8F087216859
:1033700051E8000F20F4D07041E80002002AF6D195
:103380002068083050E8001F21F0010140E80012D9
:10339000002AF5D1C4F87880C4F87C80E2E7206880
:1033A000C06936EA000004D00020B842ACD000204A
:1033B000DBE70120F9E700002DE9FF4172B63D4847
:1033C0000068C16989066AD5C169090701D5082164
:1033D00003E0C169890702D50221016254E0808CB3
:1033E000354CC1B200252078344E092803D231541F
:1033F000401C20702CE04FF0FF373B46072230A1E5
:103400003148FFF7CDF82D48227862702FA109309E
:10341000FCF7ACFF29480930FDF758F8274982B27C
:103420003B4609312848FFF7BBF8244825702A4657
:10343000657026A10930FCF799FF20480930FDF797
:1034400045F81E4982B23B4609311F48FFF7A8F8EC
:10345000207809280AD17078092815D12570694685
:103460001648FFF799FA356075603572207805289F
:103470000AD17078022807D1257069460F48FFF7F6
:103480008BFA356075603572154801684906016828
:1034900002D441F0400101E021F04001016062B638
:1034A0000448FEF75FFE09220E490248FFF74CF878
:1034B000BDE8FF81BC01002001000020C402002003
:1034C0004572726F720D0A004002002064617461DF
:1034D0005F696E646578203D2025640D0A00000058
:1034E00014040048000000200148FEF73BBE000025
:1034F00040020020FEE70907090E002804DB00F166
:10350000E02080F80014704700F00F0000F1E02088
:1035100080F8141D704700008AB0FDF701FEFFF728
:1035200076FBFFF7FBF8FFF7BDF824216846FCF7B0
:10353000ECFF2A48284D0560FDF755FC08B172B62E
:10354000FEE7002400940194029403942246694605
:1035500022480494FDF7B8FB08B172B6FEE71022CA
:1035600069461E48FDF7B0FB08B172B6FEE7FFF7EB
:103570007DF9FFF7A5F9FFF73DF918481849F8302C
:10358000C0E900144FF6FF71C0E9024104614461D3
:103590008461FEF70BFC08B172B6FEE7FFF7BAF9DB
:1035A000FFF7DCF90F48016841F00101016028686C
:1035B00040F001002860084940F6FF7008310860BB
:1035C0000948016841F001010160811500224FF0B6
:1035D0009040FDF791FDFEE7007400407800002068
:1035E0000044014000380140080401404FF04070A1
:1035F000E1EE100A7047000000000000000000002B
:103600000102030406070809A0860100400D03001B
:10361000801A060000350C0040420F0080841E0016
:1036200000093D0000127A000024F40000366E010B
:103630000048E801006CDC02000000000102030405
:1036400030313233343536373839414243444546D8
:1036500040305800303132333435363738396162D2
:1036600063646566403078008836000800000020FA
:1036700014000000C80100089C3600081400002057
:1036800034090000E401000800000000010000000F
:0C369000100000000000000000093D00D8
:040000050800018D61
:00000001FF
