:020000040800F2
:100000000807002031020008BF1800089B160008EE
:10001000BD180008A9080008DD1E00080000000047
:10002000000000000000000000000000A51900080A
:10003000AB08000800000000C1180008A71900085C
:100040004B0200084B0200084B0200084B0200085C
:100050004B0200084B0200084B0200084B0200084C
:100060004B0200084B0200084B0200084B0200083C
:100070004B0200084B0200084B0200084B0200082C
:100080004B0200084B0200084B0200084B0200081C
:100090004B0200084B0200084B0200084B0200080C
:1000A0004B0200084B0200084B0200084B020008FC
:1000B0004B0200084B0200084B0200084B020008EC
:1000C0004B0200084B0200084B0200084B020008DC
:1000D0004B0200084B020008D11E00084B0200082A
:1000E0004B0200084B0200084B0200084B020008BC
:1000F0004B0200084B0200084B0200084B020008AC
:100100004B0200084B0200084B0200084B0200089B
:100110004B0200084B0200084B0200084B0200088B
:100120004B0200084B0200084B0200084B0200087B
:100130004B0200084B0200084B0200084B0200086B
:100140004B0200084B0200084B0200084B0200085B
:100150004B0200084B0200084B0200084B0200084B
:100160004B0200084B0200084B0200084B0200083B
:100170004B0200084B0200084B0200080000000080
:100180004B0200084B02000800F002F800F041F8B2
:100190000AA090E8000C82448344AAF10107DA45E2
:1001A00001D100F036F8AFF2090EBAE80F0013F0F3
:1001B000010F18BFFB1A43F001031847101E00007F
:1001C000301E0000103A24BF78C878C1FAD8520710
:1001D00024BF30C830C144BF04680C6070470000C1
:1001E0000023002400250026103A28BF78C1FBD840
:1001F000520728BF30C148BF0B607047752900F017
:10020000F780002070471FB501F0CEFE1FBD10B56E
:1002100010BD00F0E8F91146FFF7F5FF01F070FEA0
:1002200000F006FA03B4FFF7F2FF03BC00F00EFA89
:100230000948804709480047FEE7FEE7FEE7FEE77A
:10024000FEE7FEE7FEE7FEE7FEE7FEE704480549B6
:10025000054A064B70470000451A0008890100084E
:1002600008010020080700200803002008030020E0
:1002700053EA020C00F069802DE9F04B4FF00006C4
:10028000002B1FBFB3FA83F503FA05F424FA05F631
:100290005E4012BF1643B2FA82F502FA05F4C5F1C8
:1002A00020051EBF22FA05FC44EA0C04203556EA5C
:1002B000044C4FEA144418BF641C4FF000084FF080
:1002C0000009904271EB030C39D3002919BFB1FA30
:1002D00081F701FA07F6B0FA80F700FA07F6C7F1DE
:1002E00020071EBF20FA07FC46EA0C062037B6FBA3
:1002F000F4FCA7EB0507103F07F01F0BCBF120061E
:100300000CFA0BFB2CFA06F644BFB3460026202F4E
:10031000A4BF5E464FF0000B5BEA060C08BF4FF02F
:10032000010B19EB0B09ABFB027C48EB0608C01B69
:1003300006FB02CC0BFB03CC71EB0C01C1E70B46B7
:10034000024641464846BDE8F08B13B54FF0000029
:100350004FF00001AFF30080BDE81C407047000083
:100360000FB41CB5074B06AA7B446946009005985C
:1003700000F021F90020694600F030F91CBC5DF85E
:1003800014FB0000710200002DE9F0410E46044606
:10039000002020622046E168884730B3252805D038
:1003A000D4E901219047206A401CF2E7E168204629
:1003B00000278847050018D0A5F14100192802D868
:1003C00020354FF400673246294620462760FFF764
:1003D00015FF40B1012804D0F61D26F007060836A7
:1003E000D8E7361DD6E72846DAE7206ABDE8F0816F
:1003F0002DE9F0410646002410687529314616A5FE
:1004000010D0AFF30080002802DA404213A507E0C5
:1004100031688A0701D512A502E0490704D511A564
:10042000012401E0AFF3008000210A2206F1240735
:1004300009E0B0FBF2FCB0FBF2F302FB1C00303031
:1004400078541846491C0028F3D123462A463046E2
:10045000BDE8F04100F051B8000000002D000000A0
:100460002B0000002000000010B5431C02E010F833
:10047000011B71B18107FAD14FF0013202C88C1A09
:100480008C4314EAC211F9D0C01A0A0603D0C01E68
:1004900010BDC01A10BD0A0401D0801E10BD090293
:1004A000FCD0401E10BD4FF0000200B5134694462C
:1004B0009646203922BFA0E80C50A0E80C50B1F1BC
:1004C0002001BFF4F7AF090728BFA0E80C5048BFD0
:1004D0000CC05DF804EB890028BF40F8042B08BF6E
:1004E000704748BF20F8022B11F0804F18BF00F86A
:1004F000012B70477047704770472DE9F0470D4654
:1005000099469246044600F124080168880604D5FD
:10051000E06921F01001216000E00120A84201DD26
:10052000471B00E00027A1697A1902EB0900081AAD
:10053000A0612078C00602D42046AFF300800026D8
:1005400008E0D4E901211AF806009047206A401C0F
:10055000761C20624E45F4DB2078C0060AD5204682
:10056000AFF3008006E0D4E9012130209047206AF3
:10057000401C2062381EA7F10107F4DC07E0D4E933
:10058000012118F805009047206A401C2062281EAF
:10059000A5F10105F3DC2046AFF3008020780006CA
:1005A00002D50220BDE8F0870120FBE701694A1C63
:1005B00002610878704700B58FB0CDE901310021A4
:1005C000059105497944CDE9031011466846FFF7C6
:1005D000DBFE0FB000BD0000E5FFFFFF0A6802F878
:1005E000010B0A607047754600F02CF8AE46050016
:1005F0006946534620F00700854618B020B5FFF73E
:1006000025FEBDE820404FF000064FF000074FF0F8
:1006100000084FF0000B21F00701AC46ACE8C00920
:10062000ACE8C009ACE8C009ACE8C0098D46704729
:1006300010B50446AFF300802046BDE81040FFF738
:10064000F1BD000000487047A800002001491820B3
:10065000ABBEFEE726000200704738B50446C0B2C4
:10066000ADF8000001222021684600F06FF8200A52
:10067000ADF8000001222421684600F067F838BD7B
:100680003EB505460122242102A800F037F80122D8
:100690002821684600F032F86C4601222921601CAE
:1006A00000F02CF801222A21A01C00F027F80122DA
:1006B0002B21E01C00F022F801222C21201D00F04B
:1006C0001DF801222D21601D00F018F85FF00000D8
:1006D00004EB400214F81010527801EB022100EEF6
:1006E000101AB8EE400ABCEEC00A10EE101A25F837
:1006F0001010401C0328EBDB3EBD00002DE9F0414B
:1007000014460546012A02D941F0C00601E041F035
:1007100080060D4F00220821384600F0D2F93046FD
:1007200001F02AF906E0002001F026F9641E05F820
:10073000010BA4B2002CF6D101220821384600F0AA
:10074000C0F90020BDE8F081001002402DE9F04121
:10075000124F14460E46054601220821384600F085
:10076000B0F9012C01D946F0400600220821384694
:1007700000F0A7F9304601F0FFF805E0287801F015
:10078000FBF8641EE4B2AD1C002CF7D13846BDE87E
:10079000F0410122082100F094B90000001002404D
:1007A00010B54FF47A7000F09BF800F071F80A4C25
:1007B0003F280BD000F07AF86720FFF74EFF204665
:1007C0000122BDE81040D10300F07BB901221103E2
:1007D000204600F076F9EFE7000C02402DE9FC47D7
:1007E0000020009001906846FFF74AFF684601F03C
:1007F000B7FBBDF90010BDF90200002901DA4A4239
:1008000000E00A46002801DA434200E003464FF4C4
:100810008045DFF874C0AE106F101C4C4FF4FA68BE
:100820004FF400499A4209DD414502DD0122294683
:100830000DE061450EDA0122314608E0404502DD57
:100840000122394603E0604504DA01224946204688
:1008500000F037F9142000F043F800223946204612
:1008600000F02FF900223146204600F02AF900223C
:100870002946204600F025F900224946204600F08E
:1008800020F9BDE8FC87000030F8FFFF000C0240B3
:1008900008B500208DF8000001220F216846FFF7FF
:1008A0002DFF9DF8000008BDFEE77047012291036F
:1008B000014800F006B90000000C024090F8351025
:1008C000022903D08021416501207047052180F86D
:1008D00035100068016821F00101016000207047B7
:1008E00070B5044600F0F2F80546601C02D00448DA
:1008F0000078044400F0EAF8401BA042FAD370BD2F
:10090000000000202DE9F84FDFF87CB100224FF005
:1009100001084FF0030A4FF00F090BF1040E00BF5E
:100920000B6808FA02F42340A3426ED14D68022DF1
:1009300001D0122D0ED1D50800EB850CDCF820502B
:100940005607F70E09FA07F6B5430E69BE402E4367
:10095000CCF82060066855000F790AFA05FC07F00C
:10096000030726EA0C06AF40374307604E68012EA6
:1009700005D0022E03D0112E01D0122E0ED1866882
:10098000CF6826EA0C06AF40374387604668A64327
:100990000C79C4F30014944034434460C6688C68F6
:1009A00026EA0C06AC403443C4604C68E40065D5CC
:1009B000364C256845F480452560246822F00305FF
:1009C00004F480440094324C2E19D6F80848950758
:1009D0002F0F09FA07F5AC432E4DA84201D100258F
:1009E00024E02D4DA84201D101251FE02B4DA84246
:1009F00001D102251AE02A4DA84201D1032515E0B4
:100A0000284DA84202D1042510E037E0264DA84227
:100A100001D105250AE0254DA84201D1062505E0B2
:100A2000234DA84201D1072500E00825BD402543FC
:100A3000C6F80858DBF800405D464E689C43F60354
:100A400000D51C432C60DEF8004075464E689C4380
:100A5000B60300D51C432C600B4D08352C684E683E
:100A60009C43F60200D51C432C60074D0C352C68C6
:100A70004E689C43B60200D51C432C60521C102AC1
:100A8000FFF44EAFBDE8F88F003C0140443802400F
:100A90000030014000000240000402400008024013
:100AA000000C0240001002400014024000180240F6
:100AB000001C0240426931EA020200D1090481614E
:100AC00070470AB1816170470904FBE701488068FB
:100AD000704700000000002002488168027811443D
:100AE00081607047000000200B4810B5016841F498
:100AF00000710160016841F480610160016841F4A6
:100B000080710160032000F071F8002000F006F809
:100B100000F024F8002010BD003C024070B50D4DDF
:100B200004464FF47A712878B1FBF0F00A4909685D
:100B3000B1FBF0F000F047FC48B9102C07D20022BE
:100B40002146501E00F032F800206C6070BD01207C
:100B500070BD0000000000200C0000200B4882B097
:100B6000016841F480410160006800F48040009019
:100B70000648001F016841F080510160006800F0E4
:100B800080500090072002B000F030B84438024096
:100B9000002809DB00F01F0201219140400980007C
:100BA00000F1E020C0F8001170470000F0B40E4BD7
:100BB0001B680C46C3F30223C3F10705042D00D9BB
:100BC0000425191D072901D2002300E0DB1E0126A0
:100BD00006FA05F1491E214099409E40761E1640B6
:100BE0003143F0BC01F07BB90CED00E0064900F0A8
:100BF000070208684FF6FF03184040EA0220034A44
:100C000010430860704700000CED00E00000FA059A
:100C10002DE9F0470E46050065D0DFF81481D8F8BD
:100C20000000F7B200F00F00B04207D288F8007061
:100C3000D8F8000000F00F00B04254D128683D4CB5
:100C4000810712D5400703D5206840F4E0502060AA
:100C50002878000703D5206840F4604020602068B1
:100C6000A96820F0F000084320602878C0072DD044
:100C7000304968680839012812D0022813D00328A7
:100C800011D00968890700292DDA216821F00301B4
:100C900001432160FFF71AFF814641F2883A0EE0D6
:100CA00009688903EFE709688901ECE7FFF70EFFA0
:100CB000A0EB0901514502D90320BDE8F087206867
:100CC000696800F00C00B0EB810FEFD1D8F800108C
:100CD000404601F00F01B14207D90770006800F0EB
:100CE0000F00B04201D00120E7E72878400705D582
:100CF0002068E96820F4E050084320602878000765
:100D000006D52068296920F4604040EAC1002060CF
:100D100000F036F82168084AC1F30311515CC8405D
:100D2000064908600020FFF7F9FE0020C5E7000033
:100D3000003C024008380240B21F00080C000020AE
:100D40000448054900680968044AC1F38221515CDE
:100D5000C84070470C00002008380240C21F00083D
:100D60000448054900680968044AC1F34231515CEE
:100D7000C84070470C00002008380240C21F00081D
:100D8000154810B5006810F00C02144813D041103B
:100D9000042A0FD0082A0ED10F4C241F2268236882
:100DA00002F03F025B0207D52068C0F38810A0FB69
:100DB000010106E0084610BD2168C1F38811A1FBBE
:100DC00000010023FFF754FA2168C1F30141491CD7
:100DD0004900B0FBF1F010BD083802400024F400D7
:100DE0002DE9F84F050076D02878DFF8F8B2BE4C30
:100DF000C00749D0DBF800105846C1F38101012932
:100E000008D00068C0F3810002280AD1201D0068C4
:100E1000400206D52068800336D568680028E2D0F5
:100E200032E06868B0F5803F10D0B0F5A02F2068A0
:100E300010D020F480302060206820F480202060D2
:100E40006868A0B1FFF742FE06460CE0206840F457
:100E50008030F4E740F480202060F7E7FFF736FEAB
:100E6000801B642873D820688003F7D50CE0FFF757
:100E70002DFE064605E000BFFFF728FE801B642814
:100E8000F0D820688003F7D42878DFF860828007E4
:100E90004FF000093ED5DBF80010584611F00C0F5A
:100EA00009D00068C0F3810002280BD18D48001FD3
:100EB0000068400206D42068800715D5E86801283C
:100EC00009D111E0E868B8B10120C8F80000FFF7C7
:100ED000FDFD064605E002E1FFF7F8FD801B022854
:100EE000C0D820688007F7D52068296920F0F8006D
:100EF00040EAC10020600DE0C8F80090FFF7E6FD71
:100F0000064604E0FFF7E2FD801B02281FD8206898
:100F10008007F7D42878000722D5724E7448696993
:100F20006C3671B101210160FFF7D0FD074604E086
:100F3000FFF7CCFDC01B022809D830688007F7D521
:100F40000EE0C0F80090FFF7C1FD074605E083E022
:100F5000FFF7BCFDC01B02287ED830688007F7D49D
:100F60002878400768D5DFF87CA100270AF1380A05
:100F7000DAF80000C0000BD4DAF8001041F080511C
:100F8000CAF80010DAF80000012700F08050009045
:100F9000584E3068C00510D4306840F4807030601E
:100FA000FFF794FD009005E0FFF790FD0099401ACF
:100FB000022851D83068C005F6D54A4EA868683670
:100FC00001280FD00528306810D020F001003060D3
:100FD000306820F004003060A868B8B1FFF776FDF3
:100FE00000900FE0306840F00100F4E740F00400AA
:100FF0003060F7E7FFF76AFD0099411A41F2883047
:10100000814264D830688007F4D50EE0FFF75EFDBA
:10101000009007E0FFF75AFD0099411A41F288302D
:10102000814254D830688007F4D42FB1DAF8001028
:1010300021F08051CAF80010A869C0B3DBF8001095
:10104000C1F3810102294AD00228484607D0C8F8D6
:101050006000FFF73BFD00E039E005463AE0474617
:10106000C8F86000FFF732FD064604E0FFF72EFDEA
:10107000801B02282BD820688001F7D4D5E907010E
:101080000843A96A1C4A490802EB01416A6A41EA1D
:101090008211084395F82C1040EA01611148001FA5
:1010A000016001203866FFF711FD054605E014E0F8
:1010B000FFF70CFD401B022809D820688001F7D5F6
:1010C0000BE000BFFFF702FD401B022802D90320FE
:1010D000BDE8F88F20688001F4D40020F8E70120F3
:1010E000F6E700000838024000380240000047429E
:1010F000800E4742007000400000FFFF70B5040002
:1011000005D00025A56294F8510010B106E0012039
:1011100070BD84F85050204600F030F8022084F86A
:1011200051002068016821F040010160D4E901010B
:101130000843D4E903121143084361690843218B32
:1011400001F400710843E1690843216A0843A16A78
:10115000084321680860A069042101EA1040616A1F
:101160000843216848602068C16921F40061C161B9
:101170006565012084F85100002070BD10B586B06F
:10118000044614216846FFF78EF913492068884207
:101190001FD112480021026842F4805202600068A8
:1011A00000F4805005900D481438026842F00102A6
:1011B0000260006800F001000590E020009002202D
:1011C000CDE901010520CDE9031069460448FFF788
:1011D00099FB06B010BD00000030014044380240C9
:1011E000000002402DE9F84F044690F85000002717
:1011F0000A9E1D4692468B464FF0010901280ED0EB
:10120000012084F85000FFF761FC804694F85100FB
:10121000616801280CD0B1F5827F07D102E002207D
:10122000BDE8F88FA16809B9042801D00227C2E0FF
:10123000BBF1000F27D0BAF1000F24D01DB394F8F2
:101240005100042802D0052084F851000020606578
:10125000C4F838A0E587A587C4F830B0E586A58630
:101260002064606420680168490603D4016841F085
:1012700040010160E068B0F5006F606805D0E8B338
:10128000012D46D07FE0012795E008B1012D39D12D
:10129000206B21680088C860206B801C2063E08E72
:1012A000401EE0862EE02068816889070FD5E18E18
:1012B00069B1B9F1010F0AD1216B0988C160206BB6
:1012C000801C2063E08E401EE0864FF000092068FD
:1012D0008168C9070CD0E18F51B1C068A16B08804B
:1012E000A06B801CA063E08F401EE0874FF00109D7
:1012F000FFF7ECFBA0EB0800B04200E009E001D3EF
:10130000701C50D1E08E0028CDD1E08F0028CAD1CA
:101310003FE0206B216800780873206B401C20633D
:10132000E08E401EE0862EE02068816889070FD598
:10133000E18E69B1B9F1010F0AD1216B097801730E
:10134000206B401C2063E08E401EE0864FF00009B9
:1013500020688168C9070CD0E18F51B1C068A16BCA
:101360000870A06B401CA063E08F401EE0874FF028
:101370000109FFF7ABFBA0EB0800B04202D3701CE1
:1013800001D010E07EB1E08E0028CDD1E08F0028A2
:10139000CAD142463146204600F093FA28B10127CF
:1013A0002020606507E0032705E0A06818B92068E1
:1013B000C16880680090012084F85100002084F802
:1013C000500038462CE710B5401EB0F1807F01D3A5
:1013D000012010BD4FF0E02460610F21601700F084
:1013E0007EFD0020A06107202061002010BD704715
:1013F00070B5026804461068D168536910F00F0F89
:1014000050D003F0010501F4907635435DD0C2075A
:1014100005D0CA0503D5E26B42F00102E263420740
:1014200005D5DA0703D0E26B42F00202E2638207DD
:1014300005D5DA0703D0E26B42F00402E26302074B
:1014400005D5DA0703D0E26B42F00802E263E26BF3
:10145000002A33D0800604D5880602D5204600F045
:1014600031FB20684069E16BC0F38010090700D4AC
:1014700028B3204600F018FB2068416949061AD5B8
:10148000416921F040014161606BA0B11B490165D8
:10149000606BFFF713FA002810D0606B016DBDE898
:1014A00070400847830610D58B060ED52046BDE850
:1014B000704000F007BB2046FFF799FF70BD204643
:1014C000FFF795FF0020E06370BD030606D50B060D
:1014D00004D52046BDE8704000F096BC4006F3D528
:1014E0004806F1D5D168204621F04001D160202185
:1014F00084F8391000F0D0F870BD0000991A000887
:1015000070B5040004D094F83900002510B106E04D
:10151000012070BD84F83850204600F023F82420C4
:1015200084F839002068C16821F40051C160204668
:1015300000F014FB2068016921F4904101612068EA
:10154000416921F02A0141612068C16841F40051DC
:10155000C160E563202084F8390084F83A00002057
:1015600070BD000010B586B0044614216846FEF731
:101570009AFF17492068884228D11648002102683E
:1015800042F400320260006800F400300590114817
:101590001038026842F001020260006800F00100A9
:1015A00005900C2000900220CDE90101032003905A
:1015B0000720049069460848FFF7A4F90022114665
:1015C0002620FFF7F3FA2620FFF7E2FA06B010BD57
:1015D00000440040403802400000024070472DE9BE
:1015E000F843044690F839001F4616460D46202859
:1015F00050D1A5B19EB194F8380001284AD00120FD
:1016000084F838004FF00008C4F83C80212084F8AA
:101610003900FFF75BFAA6848146E68426E00120C4
:10162000BDE8F883E08C401EE084A0684B46B0F52E
:10163000805F4FF000024FF080012046009703D0FA
:1016400000F013FCE8B90DE000F00FFCC8B92888E1
:101650002168C0F308004860206908B16D1C05E0EE
:10166000AD1C03E0216815F8010B4860E08C0028F0
:10167000D8D14B46002240212046009700F0F5FBD0
:1016800008B10320CCE7202084F8390084F83880A2
:101690000020C5E70220C3E77047FEE72DE9F04FC1
:1016A00087B014216846FEF7FEFE6C4800240168EE
:1016B00041F010010160016801F01001059101681D
:1016C00041F004010160016801F004010591016825
:1016D00041F080010160016801F08001059101681D
:1016E00041F001010160016801F00101059101680B
:1016F00041F002010160016801F0020105910168F9
:1017000041F0080101600068002200F00800059027
:101710000B215348FFF7D5F9012211465148FFF735
:10172000D0F900224FF210014F48FFF7CAF9012209
:1017300004214D48FFF7C5F9082601250096CDE99B
:101740000154694646480395FFF7DCF80095CDE95A
:101750000154694643480394FFF7D4F800960226E3
:10176000CDE901640527CDE9034769463D48FFF708
:10177000C9F83E480095CDE90104DFF8F4A06946B8
:101780005046FFF7BFF810200090CDE901644FF0FC
:101790000608CDE9034869465046FFF7B3F84FF015
:1017A0000409CDE90094DFF8CCB0694658460294AC
:1017B000FFF7A8F8A8020090CDE90164CDE903473E
:1017C00069465846FFF79EF84FF214000090CDE9A5
:1017D0000154694624480394FFF794F84FF4A45049
:1017E0000090CDE90164CDE9034869461D48FFF743
:1017F00089F86802CDE90004694650460294FFF773
:1018000081F84FF4E0500090CDE901640A20CDE961
:10181000034069465046FFF775F82020CDE90004E3
:10182000694611480294FFF76DF84FF4107000906C
:101830001220CDE90104CDE9034969465846FFF776
:1018400061F803200090CDE90154694604480394EF
:10185000FFF758F807B0BDE8F08F000030380240BD
:101860000010024000080240000C0240000011106D
:1018700000000240000402400F4810B50D4901600D
:101880004FF48271416000218160C1604FF40072A9
:101890000161C0E905121822C0E907214162816295
:1018A0000A21C162FFF72AFC002801D072B6FEE7C8
:1018B00010BD00000030014010000020FEE7FEE7F0
:1018C000704738B50B46009204460022802100F094
:1018D00008F8002804D0606D40F020006065032007
:1018E00038BD2DE9F0411D4617460E460446DDF889
:1018F000188008E0681C06D0FFF7E8F8A0EB0800A5
:10190000A8420BD255B12068806836EA000030D07A
:101910000020B842EED10020BDE8F0812068416887
:1019200021F0E00141606068B0F5827F0BD1A068D2
:10193000B0F5004F02D0B0F5806F04D12068016887
:1019400021F040010160A06AB0F5005F09D1206874
:10195000016821F4005101602068016841F40051E0
:101960000160012084F85100002084F85000032019
:10197000D2E70120CDE7000001B582B000208DF84C
:1019800004004FF480500090012301AA02A90448EA
:10199000FFF728FC08B1FEF789FF9DF804000EBD93
:1019A000100000207047FFF797B8000030B593B0E3
:1019B00030216846FEF777FD14210CA8FEF773FD71
:1019C0001E480024016841F080510160006800F069
:1019D000805011901A48016841F48041016000680C
:1019E000022500F480401190012003901020049003
:1019F000009506950820CDE9074032200990042083
:101A00000A9007200B906846FFF7EAF908B172B612
:101A1000FEE70F20CDE90C054FF4A050CDE90E40B4
:101A20004FF48050109000210CA8FFF7F1F8002827
:101A300001D072B6FEE713B030BD0000403802405E
:101A4000007000401048016841F4700101600F48C7
:101A5000016841F0010101600C4A00210832116067
:101A600002680B4B1A400260031D0A4A1A600268A2
:101A700022F48022026005480C30016002495806B9
:101A8000803908607047000088ED00E000380240AF
:101A9000FFFFF6FE1030002410B5806B0021C185D9
:101AA000C184FFF7A4FC10BD0168CA6822F49072DB
:101AB000CA6001684A6922F001024A61202180F867
:101AC0003A10704710B590F83A10222901D0022040
:101AD00010BD8168B1F5805F11D0016900290168EE
:101AE0001FD0496801F07F03816A4A1C82620B7033
:101AF000C18D491E0904090CC18518D02BE002696B
:101B0000816A002A0268526805D0D2B20A80816ACE
:101B1000491C8162ECE7C2F308020A80816A891CD1
:101B2000F7E74A68816A4B1C83620A70E0E7016844
:101B3000CA6822F02002CA600168CA6822F4807272
:101B4000CA6001684A6922F001024A61202180F8D6
:101B50003A10FFF743FD002010BD00002DE9F041D1
:101B6000044600680169E26821F4405111430161B3
:101B70002169A068E269084361691143226808434A
:101B8000D16849F20C6399430143D16020684169EF
:101B9000A26921F4407111434161E2696425B2F503
:101BA000004F9748974922684FF032083FD08A4249
:101BB00001D082427CD1FFF7D3F800EBC00101EBEA
:101BC000001061688900B0FBF1F6FFF7C9F800EB7F
:101BD000C00101EB001061688900B0FBF1F0B0FBBF
:101BE000F5F06FF01801484306EB800108EB011097
:101BF000B0FBF5F000F0F006FFF7B2F800EBC00123
:101C000001EB001061688900B0FBF1F0B0FBF5F06A
:101C100006EB0016FFF7A4F800EBC00101EB001083
:101C200061688900B0FBF1F7FFF79AF8D2E08A42C9
:101C300001D082423DD1FFF793F800EBC00101EBE8
:101C4000001061684900B0FBF1F0B0FBF5F006014F
:101C5000FFF786F800EBC00101EB00106168490056
:101C6000B0FBF1F7FFF77CF800EBC00101EB0010CF
:101C700061684900B0FBF1F0B0FBF5F06FF01801BE
:101C8000484307EB800108EBC100B0FBF5F000F022
:101C9000F80006EB4006FFF763F800EBC00101EB2C
:101CA000001061684900B0FBF1F7FFF759F83CE01C
:101CB00055E0FFF745F800EBC00101EB001061684B
:101CC0004900B0FBF1F0B0FBF5F00601FFF738F882
:101CD00000EBC00101EB001061684900B0FBF1F7B7
:101CE000FFF72EF800EBC00101EB0010616849001E
:101CF000B0FBF1F0B0FBF5F06FF01801484307EBD3
:101D0000800108EBC100B0FBF5F000F0F80006EB35
:101D10004006FFF715F800EBC00101EB0010616809
:101D20004900B0FBF1F7FFF70BF800EBC00101EB46
:101D3000001061684900B0FBF1F0B0FBF5F06FF006
:101D40001801484307EB800108EBC100B0FBF5F038
:101D500000F00700216830448860BDE8F081FEF79C
:101D6000EFFF00EBC00101EB001061688900B0FBE0
:101D7000F1F6FEF7E5FF00EBC00101EB0010616832
:101D80008900B0FBF1F0B0FBF5F06FF018014843AB
:101D900006EB800108EB0110B0FBF5F000F0F00657
:101DA000FEF7CEFF00EBC00101EB00106168890077
:101DB000B0FBF1F0B0FBF5F006EB0016FEF7C0FF4C
:101DC00000EBC00101EB001061688900B0FBF1F786
:101DD000FEF7B6FF00EBC00101EB0010616889005F
:101DE000B0FBF1F0B0FBF5F06FF01801484307EBE2
:101DF000800108EB0110B0FBF5F000F00F00A9E73F
:101E0000001401400010014090F83910212901D040
:101E1000022070478168B1F5805F016A0BD04A1CCF
:101E20000262026809785160C18C491E0904090CDC
:101E3000C1840ED017E009880268C1F3080151601F
:101E400001690029016A02D0491C0162ECE7891C82
:101E5000FBE70168CA6822F08002CA600068C168B6
:101E600041F04001C160002070472DE9F0419846E3
:101E700017460E460446069D1DE0681C1BD02DB17A
:101E8000FEF724FEA0EB0800A84214D92068C16820
:101E900021F4D071C1602068416921F001014161E4
:101EA000202084F8390084F83A00002084F83800B3
:101EB0000320BDE8F0812068006836EA000004D005
:101EC0000020B842D9D00020F3E70120F9E7000054
:101ED0000148FFF78DBA000068000020FEE70907FF
:101EE000090E002804DB00F1E02080F800147047A0
:101EF00000F00F0000F1E02080F8141D7047000092
:101F0000FEF7F2FDFFF752FDFFF7C8FBFFF7B4FC49
:101F1000114810490C2201604FF4E1314160002169
:101F20008160C160C0E904128161C161FFF7E8FA14
:101F300008B172B6FEE7FEF733FC084C40F2EE251E
:101F400004212046FEF7B6FDFEF748FC2846FEF7C2
:101F5000C7FCF5E70044004068000020000C024088
:101F600000B58FB0028843888088009007A101A83F
:101F7000FEF7F6F901A8FEF777FA82B24FF6FF7383
:101F800001A90848FFF72BFB0FB000BD583A2025E8
:101F900075203B20593A202575203B205A3A2025B0
:101FA000750D0A00680000204FF04070E1EE100A45
:101FB0007047000000000000000001020304060753
:101FC000080900000000010203040000EC1F0008E3
:101FD0000000002010000000C4010008FC1F0008E1
:101FE00010000020F8060000E001000801000000D9
:0C1FF00010000000000000000024F400BD
:040000050800018965
:00000001FF
